:020000040801F1
:10200000DFF8ACD072B629F0CFF92A482A4901602E
:102010002A482B492B4B2C4C2C4A42F8040B42F8F3
:10202000041B42F8043B146000202949204A41F86F
:10203000040B9142FFF4FBAF2649274A274B29F0B6
:10204000CDF92749274A284B29F0C8F9274A284BB8
:1020500029F0CDF92749284A284B29F0BFF9284A09
:10206000284B29F0C4F92849284A294B29F0B6F908
:10207000284A294B29F0BBF92849294A294B29F03C
:10208000ADF92949294A2A4B29F0A8F9294A2A4BAE
:1020900029F0ADF929492A4A2A4B29F09FF92A4A01
:1020A0002A4B29F0A4F929F06DF927F099FE704721
:1020B00000800104000009A2110000001500201496
:1020C000000020042300001000000000001018E0B1
:1020D00000700104F4A0060800000010D8140010DD
:1020E000CCBB060860930300609303006093030079
:1020F000E0B50300CCB50608D8140010D81A0010BB
:10210000D81A00105C9303100CBD06080080000470
:10211000C09A0004C09A00047C9D0004CCBB060851
:1021200000002014F0002014C4BC0608F80020149D
:10213000F8002014F8002014F8002014C4BC06088D
:102140000001200448012004480120044801200423
:1021500081F0004102E000BF83F0004330B54FEA58
:1021600041044FEA430594EA050F08BF90EA020FC5
:102170001FBF54EA000C55EA020C7FEA645C7FEA58
:10218000655C00F0E2804FEA5454D4EB5555B8BF7B
:102190006D420CDD2C4480EA020281EA030382EAEC
:1021A000000083EA010180EA020281EA0303362D7E
:1021B00088BF30BD11F0004F4FEA01314FF4801C51
:1021C0004CEA113102D0404261EB410113F0004F63
:1021D0004FEA03334CEA133302D0524263EB43031A
:1021E00094EA050F00F0A780A4F10104D5F1200EB8
:1021F0000DDB02FA0EFC22FA05F2801841F1000113
:1022000003FA0EF2801843FA05F359410EE0A5F1E6
:1022100020050EF1200E012A03FA0EFC28BF4CF017
:10222000020C43FA05F3C01851EBE37101F00045CD
:1022300007D54FF0000EDCF1000C7EEB00006EEBDA
:102240000101B1F5801F1BD3B1F5001F0CD3490864
:102250005FEA30004FEA3C0C04F101044FEA4452BB
:1022600012F5800F80F09A80BCF1004F08BF5FEA42
:10227000500C50F1000041EB045141EA050130BD22
:102280005FEA4C0C404141EB010111F4801FA4F1C5
:102290000104E9D191F0000F04BF01460020B1FA1A
:1022A00081F308BF2033A3F10B03B3F120020CDA52
:1022B0000C3208DD02F1140CC2F10C0201FA0CF030
:1022C00021FA02F10CE002F11402D8BFC2F1200C95
:1022D00001FA02F120FA0CFCDCBF41EA0C0190404B
:1022E000E41AA2BF01EB0451294330BD6FEA040494
:1022F0001F3C1CDA0C340EDC04F11404C4F120027F
:1023000020FA04F001FA02F340EA030021FA04F390
:1023100045EA030130BDC4F10C04C4F1200220FAE7
:1023200002F001FA04F340EA0300294630BD21FA25
:1023300004F0294630BD94F0000F83F4801306BFEB
:1023400081F480110134013D4EE77FEA645C18BFDF
:102350007FEA655C29D094EA050F08BF90EA020F76
:1023600005D054EA000C04BF1946104630BD91EA6E
:10237000030F1EBF0021002030BD5FEA545C05D171
:102380004000494128BF41F0004130BD14F58004B0
:102390003CBF01F5801130BD01F0004545F0FE4124
:1023A00041F470014FF0000030BD7FEA645C1ABF59
:1023B000194610467FEA655C1CBF0B46024650EA90
:1023C000013406BF52EA033591EA030F41F40021BC
:1023D00030BD00BF90F0000F04BF0021704730B542
:1023E0004FF4806404F132044FF000054FF0000117
:1023F00050E700BF90F0000F04BF0021704730B5D8
:102400004FF4806404F1320410F0004548BF4042AC
:102410004FF000013EE700BF42004FEAE2014FEA01
:1024200031014FEA02701FBF12F07F4393F07F4FDC
:1024300081F06051704792F0000F14BF93F07F4F0E
:10244000704730B54FF4607401F0004521F0004151
:1024500020E700BF50EA010208BF704730B54FF0D7
:1024600000050AE050EA010208BF704730B511F0DC
:10247000004502D5404261EB41014FF4806404F114
:1024800032045FEA915C3FF4DCAE4FF003025FEA96
:10249000DC0C18BF03325FEADC0C18BF033202EB1E
:1024A000DC02C2F1200300FA03FC20FA02F001FA78
:1024B00003FE40EA0E0021FA02F11444C1E600BF17
:1024C00070B54FF0FF0C4CF4E06C1CEA11541DBFCA
:1024D0001CEA135594EA0C0F95EA0C0F00F0DEF895
:1024E0002C4481EA030621EA4C5123EA4C5350EA7A
:1024F000013518BF52EA033541F4801143F48013CB
:1025000038D0A0FB02CE4FF00005E1FB02E506F05B
:102510000042E0FB03E54FF00006E1FB03569CF0B0
:10252000000F18BF4EF0010EA4F1FF04B6F5007FB6
:1025300064F5407404D25FEA4E0E6D4146EB060628
:1025400042EAC62141EA55514FEAC52040EA5E50B1
:102550004FEACE2EB4F1FD0C88BFBCF5E06F1ED85B
:10256000BEF1004F08BF5FEA500E50F1000041EB92
:10257000045170BD06F0004646EA010140EA02003F
:1025800081EA0301B4EB5C04C2BFD4EB0C0541EA61
:10259000045170BD41F480114FF0000E013C00F376
:1025A000AB8014F1360FDEBF002001F0004170BD9A
:1025B000C4F10004203C35DA0C341BDC04F11404B3
:1025C000C4F1200500FA05F320FA04F001FA05F23F
:1025D00040EA020001F0004221F0004110EBD3700C
:1025E00021FA04F642EB06015EEA430E08BF20EA38
:1025F000D37070BDC4F10C04C4F1200500FA04F3DB
:1026000020FA05F001FA04F240EA020001F000416C
:1026100010EBD37041F100015EEA430E08BF20EADF
:10262000D37070BDC4F1200500FA05F24EEA020E27
:1026300020FA04F301FA05F243EA020321FA04F056
:1026400001F0004121FA04F220EA020000EBD3700D
:102650005EEA430E08BF20EAD37070BD94F0000F0D
:102660000FD101F00046400041EB010111F4801F41
:1026700008BF013CF7D041EA060195F0000F18BFF2
:10268000704703F00046520043EB030313F4801F2E
:1026900008BF013DF7D043EA0603704794EA0C0FE8
:1026A0000CEA135518BF95EA0C0F0CD050EA4106FE
:1026B00018BF52EA4306D1D181EA030101F000417B
:1026C0004FF0000070BD50EA410606BF10461946A3
:1026D00052EA430619D094EA0C0F02D150EA0136AF
:1026E00013D195EA0C0F05D152EA03361CBF1046F0
:1026F00019460AD181EA030101F0004141F0FE418F
:1027000041F470014FF0000070BD41F0FE4141F412
:10271000780170BD70B54FF0FF0C4CF4E06C1CEA12
:1027200011541DBF1CEA135594EA0C0F95EA0C0FC7
:1027300000F0A7F8A4EB050481EA030E52EA033582
:102740004FEA013100F088804FEA03334FF08055A3
:1027500045EA131343EA12634FEA022245EA1115D0
:1027600045EA10654FEA00260EF000419D4208BF81
:10277000964244F1FD0404F5407402D25B084FEA2E
:102780003202B61A65EB03055B084FEA32024FF4DA
:1027900080104FF4002CB6EB020E75EB030E22BF37
:1027A000B61A754640EA0C005B084FEA3202B6EBF7
:1027B000020E75EB030E22BFB61A754640EA5C00A6
:1027C0005B084FEA3202B6EB020E75EB030E22BF36
:1027D000B61A754640EA9C005B084FEA3202B6EB37
:1027E000020E75EB030E22BFB61A754640EADC00F6
:1027F00055EA060E18D04FEA051545EA16754FEA58
:1028000006164FEAC30343EA52734FEAC2025FEA75
:102810001C1CC0D111F4801F0BD141EA00014FF004
:1028200000004FF0004CB6E711F4801F04BF0143D5
:102830000020B4F1FD0C88BFBCF5E06F3FF6AFAEF1
:10284000B5EB030C04BFB6EB020C5FEA500C50F181
:10285000000041EB045170BD0EF0004E4EEA113104
:1028600014EB5C04C2BFD4EB0C0541EA045170BD0B
:1028700041F480114FF0000E013C90E645EA060E4F
:102880008DE60CEA135594EA0C0F08BF95EA0C0F7D
:102890003FF43BAF94EA0C0F0AD150EA01347FF4C5
:1028A00034AF95EA0C0F7FF425AF104619462CE79C
:1028B00095EA0C0F06D152EA03353FF4FDAE1046FF
:1028C000194622E750EA410618BF52EA43067FF450
:1028D000C5AE50EA41047FF40DAF52EA43057FF4E0
:1028E000EBAE12E74FF0FF3C06E000BF4FF0010CEB
:1028F00002E000BF4FF0010C4DF804CD4FEA410C4F
:102900007FEA6C5C4FEA430C18BF7FEA6C5C1BD01B
:1029100001B050EA410C0CBF52EA430C91EA030F9C
:1029200002BF90EA020F0020704710F1000F91EAF9
:10293000030F58BF994208BF90422CBFD8176FEAC7
:10294000E37040F0010070474FEA410C7FEA6C5C95
:1029500002D150EA013C07D14FEA430C7FEA6C5C9C
:10296000D6D152EA033CD3D05DF8040B704700BFC8
:102970008446104662468C461946634600E000BF16
:1029800001B5FFF7B7FF002848BF10F1000F01BDE8
:102990004DF808EDFFF7F4FF0CBF012000205DF8B3
:1029A00008FB00BF4DF808EDFFF7EAFF34BF012038
:1029B00000205DF808FB00BF4DF808EDFFF7E0FFD1
:1029C00094BF012000205DF808FB00BF4DF808ED22
:1029D000FFF7CEFF94BF012000205DF808FB00BF89
:1029E0004DF808EDFFF7C4FF34BF012000205DF86B
:1029F00008FB00BF4FEA410212F5001215D211D5B3
:102A00006FF47873B3EB625212D94FEAC12343F0EB
:102A1000004343EA505311F0004F23FA02F018BF6D
:102A2000404270474FF00000704750EA013005D136
:102A300011F0004008BF6FF0004070474FF00000F9
:102A4000704700BF4A0011D212F5001211D20DD505
:102A50006FF47873B3EB62520ED44FEAC12343F0A4
:102A6000004343EA505323FA02F070474FF000004E
:102A7000704750EA013002D14FF0FF3070474FF0FD
:102A80000000704773B96AB9002908BF0028BCBFAD
:102A900000204FF00041C4BF6FF000414FF0FF3005
:102AA00000F052B882B0EC462DE9005000F01CF85E
:102AB000DDF804E002B00CBC704700BF4BB942B96E
:102AC000002908BF002802D04FF0FF31084600F06F
:102AD0003BB882B0EC462DE9005000F01DF8DDF85F
:102AE00004E002B00CBC70472DE97043069E14460A
:102AF0001D468046894600F029F804FB01F300FBDF
:102B00000533A4FB00451D44B8EB040469EB05053F
:102B1000C6E90045BDE870832DE97043069E144662
:102B2000804689461D4600F05DF900FB05F504FB73
:102B30000153A0FB04451D44B8EB040469EB0505F3
:102B4000C6E90045BDE87083704700BF00292DE944
:102B5000F00FC0F29F800024002BC0F29680154633
:102B600006460F46002B3ED18A4257D9B2FA82F36D
:102B70004BB1C3F1200201FA03F720FA02F29D40A3
:102B8000174300FA03F6290CB7FBF1F2330C01FBF3
:102B9000127CA8B243EA0C4700FB02F3BB4209D9FE
:102BA0007F1902F1FF3C80F00181BB4240F2FE80C0
:102BB000023A2F44FF1AB7FBF1F3B6B201FB1371CF
:102BC00046EA014100FB03F0884208D9491903F1A4
:102BD000FF3780F0ED80884240F2EA80023B43EA12
:102BE0000242002303E08B420AD900231A46104612
:102BF000194614B1404261EB4101BDE8F00F704746
:102C0000B3FA83F8B8F1000F40F084808B4202D30E
:102C1000824200F2DE8000230122E8E712B901239C
:102C2000B3FBF2F5B5FA85F2002A39D17F1B280CE7
:102C30001FFA85FC0123B7FBF0F1320C00FB117782
:102C400042EA07470CFB01F2BA4207D97F1901F1AA
:102C5000FF3802D2BA4200F2C1804146BF1AB7FB28
:102C6000F0F2B6B200FB127046EA00400CFB02FC28
:102C7000844507D9401902F1FF3702D2844500F29A
:102C8000AB803A4642EA0142B1E7E443524263EB89
:102C9000430364E7404261EB41014FF0FF345BE7DF
:102CA0009540C2F1200327FA03F1280C26FA03F31A
:102CB0009740B1FBF0F81F433B0C00FB18111FFAC3
:102CC00085FC43EA01410CFB08F38B4206FA02F64D
:102CD00008D9491908F1FF3279D28B4277D9A8F186
:102CE00002082944C91AB1FBF0F3BFB200FB13116B
:102CF00047EA01470CFB03F2BA4207D97F1903F1F7
:102D0000FF3160D2BA425ED9023B2F44BF1A43EA78
:102D1000084390E7C8F1200203FA08FC25FA02F301
:102D200043EA0C0C4FEA1C4921FA02F301FA08F7B6
:102D300020FA02F2B3FBF9F1174309FB11333A0C05
:102D40001FFA8CFB42EA03430BFB01FA9A4505FA92
:102D500008F008D913EB0C0301F1FF3235D29A4584
:102D600033D902396344CAEB0303B3FBF9F209FB1D
:102D70001233BFB247EA03470BFB02F9B94508D942
:102D800017EB0C0702F1FF331BD2B94519D9023AF0
:102D9000674442EA0145A5FB0001C9EB07078F42E2
:102DA0004FF000030AD305D02A4620E7624601E728
:102DB0003B4614E706FA08F68642F5D26A1E00235F
:102DC00015E71A46E5E70B46A0E71146CBE7904624
:102DD00088E7434642460AE7023A53E702392F445E
:102DE0003CE700BF2DE9F00F144605460E46002BC8
:102DF00043D18A4253D9B2FA82F757B1C7F12006BC
:102E000020FA06F601FA07F302FA07F41E4300FA65
:102E100007F5210CB6FBF1F22B0C01FB1267A0B2F7
:102E200043EA074600FB02F3B34209D9361902F11F
:102E3000FF3780F0F680B34240F2F380023A264436
:102E4000F61AB6FBF1F3ADB201FB136145EA01419D
:102E500000FB03F0884208D9091903F1FF3680F01E
:102E6000E280884240F2DF80023B43EA02420023D4
:102E700010461946BDE8F00F70478B424AD8B3FAA6
:102E800083F6002E4DD18B4202D3824200F2D680CF
:102E90000023012210461946BDE8F00F704712B911
:102EA0000124B4FBF2F4B4FA84F2002A7CD1091BA9
:102EB000260CA7B20123B1FBF6F02A0C06FB101179
:102EC00042EA014107FB00F28A4207D9091900F1E1
:102ED000FF3C02D28A4200F2C3806046891AB1FBED
:102EE000F6F2ADB206FB121145EA014507FB02F707
:102EF000AF4208D92C1902F1FF3180F09680A74229
:102F000040F29380023A42EA004210461946BDE878
:102F1000F00F704700231A4610461946BDE8F00F1F
:102F20007047C6F1200522FA05F4B3401C434FEA6E
:102F3000144821FA05F301FA06F720FA05F5B3FB68
:102F4000F8FC2F4308FB1C333D0C1FFA84FA45EABA
:102F500003430AFB0CF9994502FA06FB04D91B1935
:102F60000CF1FF326DD39446C9EB0303B3FBF8F5C4
:102F700008FB1533BFB247EA03470AFB05F8B8451B
:102F800004D93F1905F1FF3361D31D4645EA0C4CC6
:102F9000ACFB0B23C8EB07079F424FF0000549D35A
:102FA00045D062462B4663E79440C2F1200321FAE4
:102FB00003FC260C20FA03F301FA02F5BCFBF6F839
:102FC00043EA05010B0C06FB18CCA7B243EA0C4CF4
:102FD00007FB08F3634500FA02F509D91CEB040C62
:102FE00008F1FF323AD2634538D9A8F10208A44467
:102FF000C3EB0C0CBCFBF6F389B206FB13CC41EA25
:103000000C4107FB03F28A4207D9091903F1FF308B
:1030100022D28A4220D9023B2144891A43EA08433A
:1030200049E73A460CE733461FE70A466BE7B040EC
:103030009042B6D20CF1FF32002319E733463246F4
:1030400016E799458FD9ACF1020C23448CE7B845BB
:103050009BD9023D274499E70346DEE79046C7E740
:10306000023821443AE700BF10F8012B11F8013B68
:10307000012A28BF9A42F7D0D01A70474FEA41027E
:10308000B2F1E04324BFB3F5001CDCF1FE5C0DD9C6
:1030900001F0004C4FEAC0024CEA5070B2F1004F10
:1030A00040EB830008BF20F00100704711F0804F13
:1030B00021D113F13872BCBF01F00040704741F4D8
:1030C00080114FEA5252C2F11802C2F1200C10FADC
:1030D0000CF320FA02F018BF40F001004FEAC123C0
:1030E0004FEAD32303FA0CFC40EA0C0023FA02F364
:1030F0004FEA4303CCE77FEA625307D150EA01333A
:103100001EBF4FF0FE4040F44000704701F0004009
:1031100040F0FE4040F40000704700BF014B93F8C0
:1031200026307047DC1A0010014B93F8823070474C
:10313000DC1A001070B5104B5C2505FB00353035EE
:103140006B790446B3B10D4B1E5C304603F078FB3F
:1031500018B10B480B4AD42106E0304603F09CFA24
:1031600038B10748084ADA212346BDE8704002F02A
:10317000DBBA687170BD00BFDC1A0010DCD804082F
:1031800048EB0408DED804080CD9040870B5104BCD
:103190005C2505FB003540356B790446B3B10D4B1A
:1031A0001E5C304603F04CFB18B10B480B4ABE21A5
:1031B00006E0304603F070FA38B10748084AC321E8
:1031C0002346BDE8704002F0AFBA687170BD00BF21
:1031D000DC1A0010BBEB040836EB040849D90408DC
:1031E00079D9040870B5064600250E4B5C2202FB17
:1031F000063393F82620120712D593F835207AB1BA
:1032000093F8493063B10EB9074B00E0074B1C68D7
:1032100001203AF0DDF91CB1AC4201D02546E4E7CB
:1032200070BD00BFDC1A0010380702A0380902A0E8
:103230002DE9F34104460F4649484A4A40F203113A
:10324000234602F0A1FA012C04D94548464A4FF41E
:1032500083716AE0454D5C2000FB045090F8262005
:103260005AB190F8263000933D48414A40F20B1184
:10327000234602F059FAFF2065E001F0D3F83D4BF8
:103280001E5D984676B9002C61D101203A4922464C
:1032900007F010FD39490120224607F043FD0123C4
:1032A00008F80430042F4DD8DFE807F00F301D0375
:1032B0002200334A2A4823464FF4917102F064FAFF
:1032C0005C2303FB045303220AE02E4A24482346CE
:1032D00040F2271102F058FA5C2303FB045300224A
:1032E00083F8242025E01E48274A4FF496711CE0FD
:1032F0001B483CB9254A40F23111234602F044FAFA
:1033000004220CE040F23511214A0EE014484CB979
:10331000204A40F23B11234602F036FA01221E4BAE
:103320001A7106E01D4A40F23F11234602F0FCF9F3
:1033300008E05C236343EA18012182F8261000208C
:10334000EC5400E0FE2040B202B0BDE8F081022063
:103350001349324607F0AEFC0220124932469CE780
:103360008FEB0408B6D90408C5D90408DC1A00108C
:10337000ECD904089E1B00101D310108533A0108C6
:103380000FDA04083DDA040862DA040898DA04085F
:10339000CADA04080DDB0408FC1A001036DB040846
:1033A000293101084D3A010837B5044640F257115A
:1033B0001848194A234602F0E7F9012C08D91548A4
:1033C000164A4FF4AD71234602F0AEF9FE201EE01E
:1033D000134B5C2202FB043202F12003997901298C
:1033E0000AD09B7900930B480E4A40F25F112346A6
:1033F00002F09AF9FF200AE000259D71204682F82C
:103400004850FFF7C3FE2046FFF794FE284640B21F
:1034100003B030BD24D8040870DB040881DB040845
:10342000DC1A0010AEDB0408F7B504460D469B48D5
:103430009B4A4FF4BA71234602F0A6F9012C04D935
:103440009648984A40F2771104E03DB99348964A6D
:103450004FF4BE71234602F067F91AE1934B5C22E8
:1034600002FB043220329179012909D0937900932B
:103470008A488F4A40F28111234602F055F9DDE077
:10348000297B2A78914204D084488A4A40F28711E5
:10349000E0E76A7B012A06D1297F21B17F48864A6D
:1034A00040F28D11D6E728696968884204D07B48CC
:1034B000824A40F29311CDE70AB1012A06D15C217C
:1034C00001FB04314A746A782AB906E073487C4AE1
:1034D0004FF4D071BEE7012A06D15C2101FB043113
:1034E0004A712A7E2AB906E06C48764A40F2AD114C
:1034F000B0E7012A20D15C2101FB04310A77297F42
:103500005C22012902FB043218BF002182F820103E
:10351000297D5C22012902FB043218BF00211176AB
:10352000297A5C22012902FB043218BF00211173A1
:10353000EA7E012A05D10BE05848634A4FF4DD7159
:1035400088E7C0F0A680022A4FF05C0101D003E0BA
:103550005C2101FB043102E001FB043101225C200B
:1035600000FB0430CA770246696842F8081F2969DF
:10357000D160697D00F11002012918BF002151724C
:10358000697A5C22012902FB043218BF00215173C1
:103590003CBB4E4A1279012A01D0042A29D1697E06
:1035A000012904D93D484A4A40F20E2108E0494A1F
:1035B0005171A97E022905D93848474A40F21521A0
:1035C000002348E7A86900F0FF10B0F5003F18BFDE
:1035D00091710ED13148414A40F2192102F0A4F80C
:1035E00057E0A97E5C22012902FB043218BF0021AA
:1035F00091775C2707FB0437297B2C4E384601F076
:10360000D1F8054620B12548354A40F22D2121E761
:10361000012387F8483096F848308BB196F8A430EB
:1036200073B196F8252096F881309A4208D01B484D
:103630002C4A40F23721234602F076F8FF2529E094
:10364000384600F015FF284E28482949294A2A4BB8
:103650007CB92A4C24683460294C246804602948C9
:1036600000680860284909781170284A12781A7091
:1036700010E0274C24687460264C24684460264877
:1036800000684860254909785170254A12785A70B7
:1036900000E0FE2568B203B0F0BD00BF59D80408B1
:1036A000D3DB0408E4DB04080DDC0408DC1A00109A
:1036B00034DC040859DC040896DC0408C9DC04087E
:1036C00000DD040837DD04086DDD0408FC1A001075
:1036D00098DD0408F41A0010C4DD0408F5DD0408C0
:1036E0004DDE040879DE0408A01B0010941B0010B6
:1036F000A81B0010D81A0010DA1A0010000007A04A
:10370000040007A0080007A0350007A0390007A0A3
:10371000000008A0040008A0080008A0350008A0C8
:10372000390008A02DE9FF47044617461D460E46FE
:1037300021B93B483B4A40F2612105E08B0708D0A4
:103740003748394A40F26721234601F0EDFFFE2059
:1037500062E015B115F0010A04D03148334A4FF444
:103760001B71F1E7012804D92D48314A40F271213B
:10377000EAE7304A4FF05C0808FB0028914698F8C9
:10378000261001290AD098F82630009324482A4AA6
:1037900040F27621234601F0C7FF2FE0FFF7CAFC75
:1037A000264B03951D5D88F84AA02846029602F034
:1037B000C7FE20B11A48224A40F287211BE0284662
:1037C00002A902F0C1FF20B115481E4A40F28D2126
:1037D00011E02846394603F041F820B110481A4A52
:1037E00040F2932107E0284602F0E8FF40B10C4880
:1037F000164A40F29921234601F096FFFF200BE084
:103800005C2303FB0494029BA362039BE3620123FA
:10381000276384F83530002040B204B0BDE8F0875B
:103820006FD80408CFDE0408FCDE04083BDF040880
:1038300084DF0408DC1A0010B3DF0408DCD80408B5
:10384000E4DF040811E0040843E0040879E0040818
:103850002DE9FF41044617461D460E4621B9394859
:10386000394A40F2AE2105E08A0708D03548374A88
:103870004FF42D71234601F057FFFE205DE00BB1A0
:10388000EB0704D52F48324A40F2B921F2E701286C
:1038900004D92C482F4A40F2BE21EBE72E4A5C2384
:1038A00003FB0023203399790129904609D09B79A5
:1038B00000932448294A40F2C321234601F034FFF3
:1038C0002DE0FFF763FC264B03951D5D029628460D
:1038D00002F036FE20B11B48224A40F2D3211BE001
:1038E000284602A902F030FF20B116481E4A40F2D5
:1038F000D92111E02846394602F0B0FF20B1114825
:103900001A4A40F2DF2107E0284602F057FF40B193
:103910000C48174A40F2E521234601F005FFFF203D
:103920000BE05C2303FB0484029BA363039BE36320
:103930000123276484F84530002040B204B0BDE87C
:10394000F08100BF9CD80408A7E00408D4E0040874
:1039500013E104085CE10408DC1A00108BE10408A0
:10396000BBEB0408BCE10408E9E104081BE204081D
:1039700051E204082DE9F041244E5C2303FB00636F
:10398000203304469B79002B3DD0214D214822490C
:10399000224A234B74B92F68224D2F6005682248B4
:1039A00005600868214908601178214A11701A7869
:1039B000204B0DE06F68204D2F6045681F48056063
:1039C00048681F49086051781E4A11705A781E4B8A
:1039D0005C2505FB04651A7095F835302BB120463F
:1039E000A96A2A6BEB6AFFF79DFE5C2303FB046365
:1039F00093F845203AB12046996B1A6CDB6BBDE811
:103A0000F041FFF725BFBDE8F08100BFDC1A0010D0
:103A1000A01B0010941B0010A81B0010D81A001047
:103A2000DA1A0010000007A0040007A0080007A091
:103A3000350007A0390007A0000008A0040008A076
:103A4000080008A0350008A0390008A00120FFF7F1
:103A500091BF0020FFF78EBF00207047012810B5EE
:103A6000044608D91148124A4FF45871234601F010
:103A70005BFEFE2017E00F4B5C2202FB0033DB6A8B
:103A800023B90A480C4A40F2653108E00B4B185C38
:103A900002F038FF38B10548094A40F26D3123463B
:103AA00001F042FEFF2040B210BD00BF70EB0408E1
:103AB000FBE20408DC1A001031E30408DCD8040837
:103AC0006BE30408012838B5034607D90C480D4AB2
:103AD0004FF4677101F028FEFE200EE00A4A5C25D3
:103AE00005FB00254835AC7834B9084A2146105CFE
:103AF00002F0B4FE0123AB70002040B238BD00BF1D
:103B0000DAEB040871E40408DC1A0010DCD80408BD
:103B1000012808B5034607D90E480F4A4FF46C71C7
:103B200001F002FEFE2012E0012208B90B4900E07C
:103B30000B490A700B4A5C2101FB0323002093F818
:103B4000261083F84A0041F0080183F8261040B29D
:103B500008BD00BF21EB040871E40408340007A08D
:103B6000340008A0DC1A0010012810B5044608D95A
:103B70001048114A40F2E331234601F0D5FDFE2002
:103B800016E020B9FFF72EFB0C4B1C7005E001205E
:103B9000FFF728FB0A4B00221A700A4B5C2202FB3B
:103BA0000434002094F8263003F0F70384F826301C
:103BB00040B210BD5AEB0408C9E40408340007A061
:103BC000340008A0DC1A0010F8B5044640F2194190
:103BD0003048314A234601F0A7FD012C08D92D4871
:103BE0002E4A40F21B41234601F09EFDFE204EE08E
:103BF0002B4D2C4E5C2000FB04502F4600F0FCF9AE
:103C0000294DF4B92B7853B90A2007F002FB0123A0
:103C10002048264A2B7040F2264101F0B5FD30784D
:103C200039F0DEFC224B234900221A70DA70DA7177
:103C300001230B700A70204A1370537002F8013C84
:103C40001EE02B5D53B90B2007F0E3FA0123114866
:103C50001A4A6B7040F23C4101F096FD305D39F03C
:103C6000BFFC174B174900221A70DA71DA70012372
:103C70000B700A70144A137002F8013C02F8023CFF
:103C80005C2505FB0474012384F84930002040B210
:103C9000F8BD00BF9FEB040823E504083EE50408D7
:103CA000DC1A0010E7EA04089C1B001070E5040809
:103CB000330007A00C0007A0310007A091E504081D
:103CC000330008A00C0008A0320008A00128F7B5B6
:103CD000044608D93B483C4A40F25E41234601F085
:103CE00023FDFE206AE0394E5C2303FB006393F85A
:103CF000261001290AD093F8263000933148344A1F
:103D000040F26341234601F00FFD52E093F8493041
:103D1000002B4ED02F4D304FE8B92B784BB10A20F5
:103D200007F07EFA27482D4A2C704FF48E6101F07F
:103D30002BFD2B4A2B493878002353702A4A1370E5
:103D40009370537001220A700B70284B1A701A710D
:103D500003F8032C21E02B5C53B10B2007F060FA31
:103D600000231848224A2B5540F2874101F00CFDF0
:103D70005C2202FB0462002382F849301D4A1E497E
:103D800013709370537001220A700B701B4B385DD7
:103D90001A7003F8042C03F8072C39F071FC96F81C
:103DA000493043B9094A92F8A54034B900F004F902
:103DB00001E0FF2002E0002000E0184640B203B01E
:103DC000F0BD00BFBDEB0408B2E50408DC1A00102A
:103DD000E5E504089C1B0010E7EA04080FE6040868
:103DE000241B00100C0007A0300007A0360007A01D
:103DF00030E60408300008A00C0008A03A0008A033
:103E0000012838B5044608D91548164A40F2B4418D
:103E1000234601F089FCFE201FE0134B5C2505FBC7
:103E20000035EB6C23B90E48104A40F2B9410BE063
:103E300030352B7983B90E4B185C02F0AFFC40B1E2
:103E400007480C4A40F2C241234601F06DFCFF20B6
:103E500003E001232B7100E0002040B238BD00BF19
:103E600036D8040851E60408DC1A00108BE6040872
:103E7000DCD80408D4E60408012838B5044608D97B
:103E80001348144A40F2D641234601F04DFCFE206F
:103E90001CE0114B5C2505FB0035EB6C23B90C488D
:103EA0000E4A40F2DB410BE03035287970B10C4B03
:103EB000185D02F0B7FC40B105480A4A40F2E34100
:103EC000234601F031FCFF2000E0287140B238BDEC
:103ED000FDEA04081AE70408DC1A001055E7040894
:103EE000DCD804089FE7040870B5134B0C785C22FB
:103EF00002FB04321E4692F84A20C2B10CB90F4BA5
:103F000000E00F4B1D68B5B9CB6C496D0520984793
:103F10005C2303FB04630B4A83F84A50105D196C61
:103F200002F09CFC2046BDE87040FFF7A5BFCB6CBB
:103F3000496D0320984770BDDC1A0010380702A0B5
:103F4000380902A0DCD80408012810B5134604463D
:103F500004D91248124A40F2495104E041B90F48CD
:103F6000104A40F24E51234601F0DEFBFE2013E0E2
:103F70000D4A5C2000FB042253650C4BD164185D94
:103F80000B4902F0D1FC38B104480A4A4FF4AB6146
:103F9000234601F0C9FBFF2040B210BDB6D804088B
:103FA0007DE90408B4E90408DC1A0010DCD8040830
:103FB000E93E0108EEE9040870B50C4E33789BB178
:103FC0000B4B0C4C01251D60284639F031FB236852
:103FD00023F008032360284639F02AFB236843F4C2
:103FE000803323600023337070BD00BFB81B001006
:103FF000800A05A2A00A05A22DE9F04790F8252025
:1040000003780446724812B94621724A0AE0724E99
:10401000724A4A2101F0B8FB33783BB16C48704AD0
:1040200023784C21BDE8F04701F0AEBB6D4B1B7807
:10403000012B94F8253040F0FD80012B40D16448DD
:10404000694A2378DFF8E891DFF8D881674F684D37
:10405000552101F099FB674A44F21F43C9F800302B
:10406000136047F22033C8F800304FF0F0533B6044
:104070004FF43C532B60142039F0DAFA44F21E431B
:10408000C9F800305C4B2B605C4B1A689007FBD57D
:104090002A221A605A4B2B605A4B3B60012039F0A0
:1040A000C7FA594B2B60012039F0C2FA4FF20233A4
:1040B000C8F800304FF238032B60142039F0B8FAFA
:1040C00094F82530022B45D14148504A2378DFF837
:1040D0006091DFF85081454F454D6F2101F054FB51
:1040E00044F21D43C9F80030424B4DF661021A609C
:1040F00047F20233C8F8003003F1E15303F5F71338
:1041000003F5CC733B604FF400332B60142039F07F
:104110008FFA44F21C43C9F800303D4B2B60374BFB
:104120001A689107FBD52A221A603A4B2B603A4B4A
:104130003B60012039F07CFA384B2B60012039F0CC
:1041400077FA4FF20233C8F8003038232B6014207E
:1041500039F06EFA94F82530032B40F0388123783B
:104160001B482F4ADFF8C8802E4F204D204C892154
:1041700001F00AFB40F23543C8F800301D4B4CF605
:1041800061021A6047F202333B60274B2B604FF409
:104190003C332360142039F04BFA40F23443C8F822
:1041A0000030154B2360154B1A689207FBD52A2265
:1041B0001A60134B23601D4B2B60012039F038FA35
:1041C000114B2360012039F033FA4FF20233F7E04C
:1041D00005F10408FFEB0408B81B001012EC0408FA
:1041E00026EC0408A30202A24AEC04088C0A05A2E9
:1041F000A00A05A2840A05A208F00200900A05A2FE
:1042000018F002000100001E38F0020078EC0408EB
:1042100008000200180002009B543F1C38000200F6
:10422000AAEC0408880A05A2542FCA19552FCA19E6
:10423000800A05A2012B41D16748684A2378DFF83C
:10424000E091DFF8D081664F664DA42101F09CFA21
:1042500044F21343C9F80030634B46F661021A601A
:1042600047F20333C8F80030604B3B604FF43C53D7
:104270002B60142039F0DCF944F21243C9F8003005
:104280005B4B2B605B4B1A689007FBD52A221A60A8
:10429000574B2B60584B3B60012039F0C9F9574B05
:1042A0002B60012039F0C4F94FF20333C8F8003015
:1042B0004FF238032B60142039F0BAF994F8253006
:1042C000022B41D144484E4A2378DFF85491DFF85D
:1042D0004481434F434DBE2101F056FA44F211434D
:1042E000C9F80030404B45F661021A6047F20333CB
:1042F000C8F80030434B3B604FF43C332B60142034
:1043000039F096F944F21043C9F80030384B2B606D
:10431000384B1A689107FBD52A221A603A4B2B605A
:104320003A4B3B60012039F083F9344B2B6001207C
:1043300039F07EF94FF20233C8F800304FF23803FB
:104340002B60142039F074F994F82530032B3ED1FA
:10435000237821482E4ADFF8C8802E4F204D214C6B
:10436000D82101F011FA40F22343C8F800301E4B67
:1043700045F661021A6047F203333B60264B2B601F
:104380004FF43C332360142039F052F940F22243B9
:10439000C8F80030164B2360164B1A689207FBD5FD
:1043A0002A221A60184B23601C4B2B60012039F025
:1043B0003FF9124B2360012039F03AF94FF20333F1
:1043C0003B604FF238032360142039F031F90123A8
:1043D0003370BDE8F08700BF05F10408DDEC040888
:1043E0008C0A05A2A00A05A2840A05A2CCCCCC1294
:1043F00008F00200900A05A2CDCCCC1238F00200E1
:104400000AED0408302AA91118F00200312AA91176
:104410003BED0408880A05A25C3810105D381010C6
:10442000800A05A210B5002104465C2234F099FEF2
:1044300005230422082184F8243084F82520002351
:1044400001222370E3622363E363236423776377AA
:10445000A377E27784F8203062712171A36023731F
:1044600063736274217463612376637610BD000008
:104470002DE9F04190F824400378042C21D8DFE89E
:1044800004F0171A200310002BB9864A116841F076
:10449000004111600DE0844A116841F00041116053
:1044A0000FE073B97F4A116841F00041116003E0E9
:1044B0003BB97E4A01E023B97D4A7E490A607E49C4
:1044C0000A60077F90F811C090F820E0067E057B17
:1044D000002B40F099807349764A774B3FB91768B3
:1044E00027F0040717601F6827F004070AE00F6829
:1044F00047F071670F60176847F0040717601F687F
:1045000047F004071F60BCF1000F03D10F6847F4A8
:1045100080770F60BEF1010F03D10F6847F4007779
:104520000F60012E03D10E6846F080060E60012D4B
:1045300003D11D6845F000451D60012C01D0042CFD
:104540002FD1447F3CB1156845F0005515601D68BA
:1045500045F000551D60857FDDB1012D15680BD13B
:1045600045F4005616601E68012C46F400561E6085
:104570000FD145F402550AE045F4804616601E68E6
:10458000012C46F480461E6003D145F48145494C18
:104590002560806814684004044314601C6820434C
:1045A0001860464E09683160454D12682A60454CD6
:1045B0001B6823604448454A4FF4C77101F0E4F892
:1045C00033684148424A40F28F1101F0DDF82B6810
:1045D0003D48404A4FF4C87101F0D6F823683A4884
:1045E0003D4A40F2911101F0CFF83C4B36481B7820
:1045F0003B4A4FF4C97101F0C7F83A4B32481B7877
:10460000394A40F29311B0E02749BCF1000F03D1C1
:104610000B6843F480730B60BEF1010F03D10B688C
:1046200043F400730B60012E03D10B6843F0800349
:104630000B60012D2D4B03D11A6842F000421A6025
:10464000827F012A2A4A07D1146844F002041460C8
:104650001C6844F002041C60C07F0228106814D15A
:1046600040F4C02047B940F08B001060186840F457
:10467000D02040F00B0045E040F08F00106018683B
:1046800040F4D02040F00F003CE040F400308FBBFD
:1046900040F009001060186840F4203040F0090034
:1046A00030E000BFC01B0010C41B001009800008D0
:1046B00021800008B01B0010C81B0010000007A0DC
:1046C000040007A0080007A0EDEB04086DED040846
:1046D00087ED04089FED0408B3ED0408350007A03A
:1046E000C7ED0408390007A0F2ED0408B41B001060
:1046F000BC1B001040F00D001060186840F4203022
:1047000040F00D001B4E096818601B4C31601268A8
:1047100022601A4D1B682B6019481A4A40F2CD11CD
:1047200001F032F833681648174A4FF4E77101F088
:104730002BF82B681248154A40F2CF1101F024F8EB
:1047400023680F48124A4FF4E87101F01DF8114B2D
:104750000B481B78104A40F2D11101F015F80F4BAD
:1047600007481B780E4A4FF4E971BDE8F04101F0AB
:104770000BB800BF000008A0040008A0080008A0B3
:10478000EDEB04081CEE040835EE04084EEE0408B8
:1047900063EE0408350008A078EE0408390008A08C
:1047A000A5EE040870B505460E460C2900F2CE8031
:1047B000DFE801F0070F18212A333C454E576069A6
:1047C00076006448644A4FF4EF7100F0DDFF002387
:1047D00006E06048614A4FF4F27100F0D5FF012312
:1047E0001C4672E05B485E4A4FF4F57100F0CCFF66
:1047F0000224002369E057485A4A4FF4F87100F048
:10480000C3FF0424002360E05248574A4FF4FB7171
:1048100000F0BAFF0524012357E04E48534A4FF4F5
:10482000FE7100F0B1FF062400234EE04948504AD3
:1048300040F2022100F0A8FF0824002345E045488B
:104840004C4A4FF4027100F09FFF092401233CE021
:104850004048494A40F20E2100F096FF0A24002306
:1048600033E03C48454A4FF4057100F08DFF0B24BE
:1048700001232AE03748424A40F21A2100F084FF1F
:104880000C24002321E033483E4A4FF4087100F025
:104890007BFFAB7F022B13D12E4840F222210BE08D
:1048A0002C48394A40F22B2100F06EFFAB7F022BDF
:1048B00009D1284840F22D21344A00F035FF45E067
:1048C00001230D2401E000230E242A782E712E747A
:1048D000AAB92F4A4BB92F4B1360022385F8253014
:1048E0001C482D4A40F246211EE02C4B1360032346
:1048F00085F8253017482A4A40F24A2114E0294A0F
:104900004BB9294B1360022385F825301148274AFB
:1049100040F2562108E0264B13600E48254A032337
:1049200085F8253040F25A2100F02EFF95F8253009
:104930000BB144F01004287818B91F4B1C701C717F
:1049400005E01E4B00201C701C7100E0FE2040B2F0
:1049500070BD00BFF7F00408D1EE0408EAEE0408C9
:1049600008EF040822EF04083CEF040859EF04089C
:1049700073EF04088DEF0408A9EF0408C3EF0408DF
:10498000DFEF0408F9EF04084AF0040816F0040801
:10499000C01B001028000C0065F0040828000C154E
:1049A00089F00408C41B001028000400AEF00408BD
:1049B00028000410D2F00408350007A0350008A034
:1049C000F7B5264B1B5C022B05460F4602D0244848
:1049D000932111E0234B012153F8206000F048FDA2
:1049E000044617B1304600F083FE204601A901F0CD
:1049F00079FF28B11A48A0211B4A1C4B34F042FB16
:104A0000019B4BB31A4B53F8356003EBC5035F684A
:104A100016B91348AA21EFE7204601F003FF3946F3
:104A20000120B047204601F0B9FE204601A901F05F
:104A300059FF10B10A48B421DEE70E4B1C2202FBDD
:104A40000535019B6A69934206D3204601F0EAFED0
:104A500010B10348BA21CFE703B0F0BDEE1B001040
:104A600099F10408B8F20408EFF10408E08E050893
:104A7000D01B0010F41B00102DE9F341374B1E5CD6
:104A8000F6B2022E04460F4602D03548D52112E078
:104A9000002100F0EDFC0546002F2ED0314B1A5DB1
:104AA00042BB38F035FE01A90646284601F02AFF30
:104AB00028B12B48E0212C4A2C4B34F0E3FA2C4B44
:104AC0001C2202FB04335A68019B9A420ED1294BE7
:104AD0001A5D1F4652B1284B1D5D284606F0C8FBE3
:104AE00010B1284606F09CFB00233B55304638F0B9
:104AF000F7FD30E000221A552DE0204B53F83470BA
:104B000003EBC403D3F8048017B91548F721D2E7A3
:104B100001F088FE41463046B847284601F03EFE87
:104B2000284601A901F0EEFE18B10D4840F201112E
:104B3000C1E70F4B1C2202FB0434A3686268D21A3F
:104B4000019B934207D3284601F06CFE18B104483C
:104B500040F20911AFE702B0BDE8F081EE1B001092
:104B600099F10408E81B001028F10408E08E0508FC
:104B7000F41B0010481C001068F10408D01B001042
:104B80000B78487813B10021FFF71ABF1946FFF7D9
:104B900073BF0000114B70B553F820400546204606
:104BA00000F09EFD0646C0B92046012100F036FD0A
:104BB0003146204600F032FD094A52F8353002EB0A
:104BC000C505696833B90748074A084B40F21F1109
:104BD00034F058FA4FF0FF30984770BDB8F204082F
:104BE000D01B001099F104086BF10408E08E050851
:104BF0000228F8B505460C4676D80B780C2B0BD856
:104C00004B78032B08D88B78012B05D8CB78022B57
:104C10008CBF0023012300E00023002B64D038F078
:104C200077FD33494B5D07461BB138F059FDFD2038
:104C30005BE0304A137810469BB92F4E00229A55FC
:104C40002E4ECA549A552E4E9A552E4E06EBC30E32
:104C5000CEF8042046F833200133032BEDD1012395
:104C60000370294B227803F8252003EB8503627833
:104C70005A70A2789A70E278DA70384601234B5560
:104C800038F02EFD214B585D38F0AAFC064630B1B5
:104C90001F48204A204B4FF4FD7134F0F3F91F4BAD
:104CA00053F82550284600F025FD22781C4B284655
:104CB00053F8221000F014FCE3786178A2782846BB
:104CC00000F06AFC284600F099FC284600F09CFCA5
:104CD00005201449324605F0EDFF05201249324601
:104CE00006F020F8304600E0FC2040B2F8BD00BFDE
:104CF000EE1B0010CF1B0010CC1B0010E81B001097
:104D0000481C0010D01B0010601C0010B2F20408F8
:104D100099F104084CF20408E08E0508B8F2040882
:104D200018F20408094E01088D53010802282DE9E4
:104D3000F041044654D82D4F3B5C002B52D02C4BF5
:104D400053F82080404600F0EBFC3B5D022B2CD159
:104D50000021204600F08CFB01210646204600F091
:104D600087FB0546304601F05DFD08B1FF203AE0C3
:104D7000284601F057FD0028F8D1304601F060FDCB
:104D80000028F3D1284601F05BFD0028EED1304623
:104D900001F082FC0028E9D1284601F07DFC0028C2
:104DA000E4D1144B185700F04FFD404600F0A2FC30
:104DB000114B185D38F064FC05460028D6D138F058
:104DC000A7FC0E4B3D5543F8345003EBC4035D6024
:104DD0000B4B1D550B4B1D5538F082FC284602E04D
:104DE000FC2000E0FE2040B2BDE8F081EE1B001088
:104DF000B8F2040875F20408B2F20408D01B0010DF
:104E0000E81B0010CC1B00102DE9F74F00252C46A5
:104E1000174F3B5DE0B213B3164E3A5DDFF860907A
:104E200006EB05085FFA82FBD8F80430AA5914F89B
:104E300009A001920093FFF779FF07F804B0019AE7
:104E4000009BAA5104F809A0C8F804300A4B18576F
:104E500000F00AFD094B003018BF0120E054013476
:104E6000032C05F10805D3D103B0BDE8F08F00BFD6
:104E7000EE1B0010D01B001075F20408EB1B001095
:104E8000CC1B001002282DE9F34105460F461646BB
:104E900044D8002942D0002A40D0234B1B5C022B6F
:104EA0003CD1224C38F034FC635D80462BB9204B5A
:104EB000585D06F0AEF901236355404638F010FC0A
:104EC0002846002100F0D4FA01A9054601F01AFD98
:104ED00018B1184840F2A12111E0019CA64228BF58
:104EE0002646044600E00134B4420CD02846395D21
:104EF00001F0DAFC0028F6D00E4840F2AD210E4A4F
:104F00000E4B34F0BFF8019B9C4209D1284601F0BA
:104F100045FC28B107484FF42E71F0E7002000E06F
:104F2000204602B0BDE8F081EE1B0010481C0010C6
:104F300068F1040899F104083AF10408E08E0508C4
:104F40000228F7B50D46144635D8002933D0002A7B
:104F500033D01B4A135C022B2DD1012100F088FABB
:104F600001A9064601F0BEFC18B1164840F2123104
:104F700012E0019B9C4234BF27461F46044600E0D6
:104F80000134BC420CD03046291901F09BFC0028AA
:104F9000F6D00C4840F21E310B4A0C4B34F072F83C
:104FA000019B9C4209D1304601F0F8FB28B105482D
:104FB00040F22931F0E7002000E0204603B0F0BDC8
:104FC000EE1B001099F1040813F10408E08E0508A7
:104FD00002282DE9F74F04468946924600F2A48044
:104FE000002900F0A18038F093FB524B1E5DF6B211
:104FF000012E05469B4603D038F072FBFE2094E05C
:105000000021204600F034FA31468046204600F068
:105010002FFA494B43F8349003EBC403DFF83C917B
:10502000C3F804A009EB840A6300514607464046D2
:10503000019300F033FA40464049524601F074FCB7
:10504000019B30B1284638F04BFB3D4840F27631A9
:1050500012E0013309EB43093846494600F01EFAD5
:10506000384636494A4601F05FFC48B1284638F0D8
:1050700037FB334840F27D31324A334B34F002F88B
:10508000DFF8DCA031491AF9040000F00DFC0146FC
:1050900030B1284638F024FB294840F28331EBE751
:1050A0002B4B204653F8247000F0E2F9314681463C
:1050B000204600F0DDF98046384600F0A8FA254B7E
:1050C00038461E5500F0A6FA1AF9040000F0ACFBB1
:1050D000484601F063FB18B1194840F2433116E02D
:1050E000404601F05BFB18B115484FF452710EE0D9
:1050F000484601F063FB18B1114840F24D3106E01B
:10510000404601F05BFB20B10D4840F25231124A9B
:10511000B3E7384600F0DEF9022328460BF80430E6
:1051200038F0DEFA002000E0FC2040B203B0BDE819
:10513000F08F00BFEE1B0010D01B0010814B010848
:1051400099F104087EF10408E08E0508695601080B
:10515000B8F20408E81B00104CF104084B1C0010C6
:1051600075F20408022807B513D80C4A135C022B09
:105170000FD1012100F07CF901A901F0B3FB30B19E
:105180000748084A084B40F2B93133F07BFF0198D9
:1051900000E0002003B05DF804FB00BFEE1B001030
:1051A00099F10408CAF10408E08E0508022810B538
:1051B00004460CD8084B1B5C5BB1084B53F820002D
:1051C00000F009FA064B02221A55002002E0FC20EA
:1051D00000E0FE2040B210BDEE1B0010B8F2040843
:1051E000CC1B001002282DE9F041044688461746E2
:1051F0001E4614D80D48005D98B10D480D4D50F86D
:10520000240000F0F1F90C4B01221A5504EB440480
:10521000281905F8048047708670002002E0FC2001
:1052200000E0FE2040B2BDE8F08100BFEE1B0010A0
:10523000B8F20408571C0010CC1B00100228F7B568
:1052400005460C4600F28F800B68002B00F08B8027
:10525000CB68002B00F087804A68464B9A4200F2E8
:105260008280896899427ED891427CD822699A428C
:1052700079D86069984276D8A169994273D89042EA
:1052800071D891426FD83C4B5E5DF6B2012E6CD165
:105290000021284600F0ECF831460746284600F089
:1052A000E7F80646384601F04BF918B133484FF499
:1052B00086610BE023680093384663680193694672
:1052C00001F042FA30B12D4840F237412C4A2D4BC3
:1052D00033F0D8FE3846A16801F0C0FA18B127486B
:1052E00040F23C41F2E7304601F02AF918B1234878
:1052F00040F24241EAE7E3680093304623690193B4
:10530000694601F021FA18B11C4840F24941DDE735
:105310003046616901F0A2FA18B1184840F24E41D6
:10532000D4E73046A16901F0ADFA064618B113483A
:1053300040F25341CAE738F0EBF91C23124A2168C6
:105340005D435319515162685A60A2689A60A2691C
:105350009A61E268DA6022691A6162695A6138F01A
:10536000BFF9304602E0FC2000E0FE2040B203B06E
:10537000F0BD00BFFFFF0100EE1B001099F1040813
:1053800004F20408E08E0508F41B00102DE9F84330
:1053900000252E462C462C4B1A5DE7B202F0FF0981
:1053A00032B12A490022384631441A55FFF720FC11
:1053B000274BE35C012B19D1DFF8B080254B18F89F
:1053C0000510F05800F002F9204B2348F35C90FBE5
:1053D000F3F0013038F02CF908EB050338465A7821
:1053E00018F805109B78FFF7FDFE04E0022B02D1B0
:1053F0003846FFF7DBFEB9F1020F0FD1174B1C2126
:1054000001FB04313846FFF719FF154B03EBC402CB
:10541000384653F834105268FFF7DAFD114BE75C59
:10542000384605F025FF28B10F4BE35C13B1384631
:1054300005F0F6FE0134032C06F1040605F1030520
:10544000A9D1BDE8F88300BFEE1B0010601C00105E
:10545000CC1B0010B8F20408001BB700F41B0010AE
:10546000D01B001068F10408EB1B0010571C001043
:1054700001280CD006D302280ED100290CBF0A2027
:105480000B20704700290CBF0E200F207047002909
:105490000CBF0C200D2070470F2070470A380528DC
:1054A00017D8DFE800F012090E070B0301230B7079
:1054B00000230DE0012302E0012307E000230B702D
:1054C00006E000230B70012302E000230B7002238F
:1054D0004B707047012380F8513080F8503070478E
:1054E000F0B5294D06460F460FCD8BB06C460FC464
:1054F0000FCD0FC495E8030000233364A3F5806348
:10550000B36584E8030002F057F9204B204A0028D5
:105510000CBF104618460A22390202FB00F4B0FB09
:10552000F1F3B4FBF1F1B1FBF2F502FB151202B994
:1055300003B9013307FB03F1B0FBF1F2B2F5807F51
:10554000394401D90133F7E70321716399B2B1609E
:10555000911E4908013A42EA01227B43B263B4FB3F
:10556000F3F30A22B3FBF2F102FB11330AAA02EBB6
:10557000830353F8283CB365064B9F4284BF122334
:1055800073640BB0F0BD00BF60D7040880BA8C0113
:10559000002D3101BFC62D00032910B59ABF0A4C5A
:1055A000615C0321012A08BF41F00401012B03D0F3
:1055B00005D3022B05D002E041F0080101E041F0E3
:1055C0002001017710BD00BF71F20408836A9B06B9
:1055D000FCD5416070476FF0FF038364012380F8BE
:1055E000203003234376704743F4807342EA01225C
:1055F000426283640323037670470000014B4361DA
:10560000704700BF010801010123C36470470123F3
:10561000037370470323437370470000034B044A2E
:1056200000290CBF1146194641617047010901006C
:10563000010900010369DA0711D403F03F03062BC7
:1056400006D00C2B0DD0022B0CBF0520002070477C
:10565000836A13F0100F0CBF012003207047002055
:105660007047022070470000082838B504D0092888
:105670000CBF0224002400E00124144B53F82450F2
:105680002846FFF7D7FF052818D8DFE800F01D09E6
:10569000030E1D1120460121BDE83840FFF790B9E7
:1056A0002046BDE83840FFF775BA094B6B6138BD3D
:1056B00020460121BDE83840FFF7DEB90548064A1B
:1056C000064BF22133F0DEFC38BD00BFB8F204080F
:1056D0000109010078F204085AF20408E08E050876
:1056E000836A13F00E0F14BF00206FF000007047A4
:1056F000036D70470023C36143628360C3604361ED
:1057000083610362C362436383630364036343642B
:105710008364C3640365436583650366C36570473B
:10572000836A5B06FCD570470CB430B585B008AB16
:10573000054653F8044B03930A4601930094054829
:105740002946032309F0B8F905B0BDE8304002B09E
:10575000704700BFD81400100CB430B585B008AB4A
:10576000054653F8044B03930A46019300940548F9
:105770002946022309F0A0F905B0BDE8304002B087
:10578000704700BFD81400100CB430B585B008AB1A
:10579000054653F8044B03930A46019300940548C9
:1057A0002946012309F088F905B0BDE8304002B070
:1057B000704700BFD814001007B5144A136811468B
:1057C000FBB9134A52F823201F2A0DD900921F2239
:1057D00001921048104A6C21FFF7D6FF0F48104A7B
:1057E000104B6D2133F04EFCD200D0B203F1604279
:1057F00002F561420133202B82F80003E1D101233D
:105800000B60002003B05DF804FB00BF6C1C0010AF
:10581000D8F20408C8F2040858F3040872F3040824
:10582000A3F30408E08E0508C0B21F2806D80123A0
:1058300003FA00F0034B1860002000E0FD2040B2A6
:10584000704700BF00E100E0C0B21F2807D8012365
:1058500003FA00F0034BC3F88000002000E0FD20B5
:1058600040B2704700E100E0C0B21F2807D8012312
:1058700003FA00F0034BC3F80001002000E0FD2014
:1058800040B2704700E100E0C0B21F2807D80123F2
:1058900003FA00F0034BC3F88001002000E0FD2074
:1058A00040B2704700E100E070B5C6B21F2E04465A
:1058B0000D4613D891B137F02BFF012303FA06F6FA
:1058C000084BC3F88061084B43F8345003EBC40421
:1058D0000025656037F004FF284600E0FE2040B256
:1058E00070BD00BF00E100E0701C001010B5044660
:1058F00037F00EFF2060002010BD08B537F0F0FE35
:10590000002008BDD1F8AC30022010B55870082036
:1059100098700420D8703C201871802058710122A2
:1059200060201A70D871D1F8B0002B23C373D1F85E
:10593000B0004373D1F8B0002F248473D1F8B000C5
:105940000524C472D1F8B0000273D1F8B0205374AA
:10595000162381F8C030B1F8C230B3F5C15F07D16A
:10596000D1F8B03075229A70D1F8B0307A22DA705E
:10597000B1F8C230B3F5B15F07D1D1F8B0307522BC
:105980009A70D1F8B0307A22DA70024BC1F8D43074
:10599000002010BDD90E0010D1F8AC30022210B595
:1059A00001205A703C2480229A70DA7018705A7163
:1059B0001C71D1F8B0309F229A72D1F8B0203523F3
:1059C000D373D1F8B0205373D1F8B0300522DA7216
:1059D000D1F8B0301873D1F8B03075229A70D1F880
:1059E000B0307A22DA70162381F8C030024BC1F849
:1059F000D430002010BD00BF4903001038B5304B33
:105A00000360304B4360304B8360304BC360304B9E
:105A10000361304B4361304B8361304BC361304B8A
:105A20000362304B036300252F4B8363456285621D
:105A3000C56245630C4600F03BF9B0F1807F8CBF36
:105A40000423032384F8C530D4F8B0305D74D4F84F
:105A5000B030AF229A72D4F8B0309F225A72D4F884
:105A6000B03002221A70D4F8B03020229A71D4F8E3
:105A7000B0305222DA71D4F8B030D8221A72D4F889
:105A8000B030B0229A70D4F8B0303022DA70D4F846
:105A9000B03006225A70D4F8B030B9229A74D4F8D3
:105AA000B030AB22DA74D4F8B02005231374A4F814
:105AB000B850E560A560257484F8C030002038BD7A
:105AC000250A0010E9070010551000101B0D0010EA
:105AD000990B00104D030010510900103D080010F3
:105AE000C504001053030010455B010808B591F888
:105AF000C120EF2A0DD0F82A11D0C22A13D1D1F833
:105B0000C82042F00402C1F8C820BDE80840FFF7F1
:105B1000F9BED1F8C82042F00202C1F8C820BDE8A1
:105B20000840FFF739BF37F00BFE0348034A044B28
:105B300040F6030133F0A6FA55F40408A2F4040871
:105B4000E08E050810B50C4621B9D0F8D43098473E
:105B5000204610BD01290BD190F8C120C22A10D1D6
:105B600043691B68B3F5802F14BF0020C22010BD0D
:105B700037F0E6FD0448054A054B40F61D1133F0A9
:105B800081FA002010BD00BF55F4040823F4040876
:105B9000E08E050870B50C46064678B371B3D1F8AF
:105BA000B0505DB3D1F8AC5045B34A60A1F8BA30FB
:105BB000FFF724FFD4F8B030AF2204F1C1059A7288
:105BC0002046294637F0FCFC94F8C130013BDBB29B
:105BD000FD2B08D9D4F8B0309F229A72204629466E
:105BE00037F0EEFC04E0284600F00CF80028F1D075
:105BF00030462146BDE87040FFF778BF6FF0770070
:105C000070BD000070B500220C4B03F1100413446A
:105C10001444597C00238B4204DAE518AE78C55C45
:105C2000AE4202D08B4202D106E00133F3E70A32E2
:105C3000322AE9D1002070BD012070BD10F50408A2
:105C400073B5154CB4F90000002822DA6A4600202A
:105C50004FF0006137F06CFD002210490A235343D6
:105C600001F1100018440B44597C00238B4205DAE3
:105C7000C518AE783DF81350AE4203D08B4203D125
:105C8000228004E00133F1E70132052AE5D1B4F9BD
:105C9000000002B070BD00BFEC14001010F5040845
:105CA000024B0A2202FB00301030704710F5040846
:105CB0004FF48000704700F097B870B520F078403E
:105CC00000239AB2551C01EBC50466683EB154F836
:105CD000084CA04207D351F83540A04203D201EB53
:105CE000C201486870BD0133EBE70000014B196841
:105CF000FFF7E3BF701E0010002350F8082B22B1FD
:105D000050F8041C01FB0233F7E7184670472DE9F1
:105D1000F843002706461446994600EB01083D4625
:105D200046451FD230464946FFF7C7FFEA002FB964
:105D30002244012344F83500536010E054F8351034
:105D4000884204EB020302D15A68013206E00135B1
:105D5000092D0AD00832A318A05001225A60064427
:105D60000137DDE70020BDE8F8830620BDE8F883B1
:105D700070B506460D46144610460021402233F009
:105D8000F0F9044B3046294622461B68BDE87040B6
:105D9000FFF7BDBF701E001008B590B9FFF750FFA8
:105DA0000A4A0028106008DA37F0CAFC0848094A95
:105DB000094B40F2993133F065F9FFF771FF074B5A
:105DC0001860074B074A1A6008BD00BF941E0010F8
:105DD00067F5040854F50408E08E05084C2000100F
:105DE000741E0010C8F504082DE9F047DFF8D490C0
:105DF000DFF8D4A0284C294FDFF8D0800020FFF72F
:105E0000CBFFD9F80030DAF800102548882606FBC9
:105E10000131244B4A881A60234B01F108021A60B1
:105E20004831402233F079F9204BC4F8AC30204B94
:105E3000C4F8B030FB43DAF800102360D9F8003022
:105E40004FF0006206FB01360025A4F8C6506260E0
:105E5000404621467368FFF79DFE783008D137F041
:105E60006FFC1448144A154B40F2274133F00AF9ED
:105E70000B48134EFFF740FF3A4601463060284674
:105E8000FFF776FF6761C6F80480B46086F880503B
:105E90002846BDE8F08700BF641F0010241F0010D3
:105EA000301E001048200010701E00101C1F001033
:105EB000781E001067F50408A3F50408E08E0508B5
:105EC000981E0010741E0010941E0010F41D001087
:105ED00010B590F88030044693B9436880681B6819
:105EE00004F10C019847002807DA37F029FC05482F
:105EF000054A064B912133F0C5F8012384F8803020
:105F000010BD00BF87F80408BEF80408E08E05083D
:105F10002DE9F04F9A460368994285B004468846B9
:105F2000934675D201EB0A029A4273D890F88030FA
:105F30000BB9FFF7CDFF0025554567D2A36803A82D
:105F40005E68FFF7D3FCD4F80890636805EB080C93
:105F500061469B6801934846CDF800C037F0B8FB16
:105F6000464401460022019B484698472E44039828
:105F7000FFF7C3FC16F0010F0BEB0507DDF800C0BF
:105F800004D1C5EB0A09B9F1010F0BD16368A06810
:105F9000D3F810C031463A460123E04700283BD1F0
:105FA0000135C9E7A26800926146104637F090FBC0
:105FB000009A0146104637F07BFB434230441840BC
:105FC00009EB0603834288BFC6EB000929F00109EB
:105FD000B9F1020F63680FD1FA070DD53A788DF841
:105FE0000A207A788DF80B201F69A06831460DF1E0
:105FF0000A024B46B84706E0D3F810C0A068314605
:106000003A464B46E04738B94D4495E7002004E056
:10601000022002E0032000E0052005B0BDE8F08F7B
:1060200070B590F8803004460D4621F07F460BB9DC
:10603000FFF74EFFE3689E4209D26368A068DB6801
:1060400029469847002814BF0620002070BD022072
:1060500070BD000010B5074C94F90030053306D12F
:10606000FFF729FE0448FFF733FF002323700020C9
:1060700010BD00BF70990004981E0010024B01462D
:10608000986837F025BB00BF981E0010022808B59D
:1060900010D0032810D0052810D0062810D00230C8
:1060A0000ED037F04DFB0848084A094B40F2062154
:1060B00032F0E8FFFD2004E0FC2002E0FA2000E0DE
:1060C000F92040B208BD00BF87F8040870F8040842
:1060D000E08E050808B5FFF7BDFF002008BD0000F1
:1060E00070B5044621B9C0F30B03A3B1FD203AE01B
:1060F000012907D1C0F30E03002BF7D14FF400465E
:10610000FB250BE00229F1D183B2002BEED14FF435
:106110008036FC2502E04FF48056FA252046FFF732
:10612000ADFF431C0146E1D0104841EA0561FFF78D
:1061300077FF18B1BDE87040FFF7A8BF04F1006415
:10614000204600F0CDFF08B900200CE024F01F0528
:10615000A319203323F01F039D42F5D8284637F0BA
:10616000F7FA2035F4E740B270BD00BF981E00106A
:1061700038B505460C46134605482946224637F0F1
:1061800047FA18B1BDE83840FFF780BF38BD00BFFF
:10619000981E001070B50B460546164610481A4664
:1061A00029463346FFF7B4FE18B1BDE87040FFF74B
:1061B0006DBF05F10065284600F092FF68B125F03B
:1061C0001F0406F120032B4423F01F039C4204D834
:1061D000204637F0BDFA2034F3E7002070BD00BF41
:1061E000981E00102DE9F3411F4600230D46164668
:1061F0000093019318B9384B7A1E9A4204D9FF20B4
:1062000040B202B0BDE8F081A90702D03348B32103
:1062100003E0B20705D03148B921314A314B32F0A1
:1062200031FF284600F05CFF10B12C48C021F4E794
:10623000304600F055FF044610B12848C621ECE76F
:1062400037F066FA8046204600F07EF80190019B08
:10625000DB0702D52148D221DFE7019C14F00204BC
:1062600002D01E48DD21D8E7404637F039FA3846DB
:10627000694600F051F8009BB3F5803F074629D2EC
:106280002046032100F07AF82046394600F06EF8E7
:106290002046009900F08EF832462046294600F04C
:1062A0007DF82146204600F071F8204604F0B1FF49
:1062B000204600F051F8204600F046F80190019C7D
:1062C00014F0010401D00020F6E7204604F0A8FFF6
:1062D000204695E7FD2093E7FBFF03000AF9040839
:1062E0003BF90408E08E050837B500230C460193FE
:1062F000054618B1FF2040B203B030BD00F024F8CD
:106300000190019B13F0010303D001232370284661
:10631000F1E723701846EEE70A4B984203D14FF697
:10632000FF730B6003E0820703D18008086002203E
:106330007047C30703D44008086001207047086015
:1063400000207047FCFF0300024B53F82030186810
:10635000704700BFF4140010034B53F820304FF483
:1063600000429A61704700BFF8140010024B53F8C6
:1063700020305975704700BFF8140010024B53F8D5
:1063800020301975704700BFF8140010024B53F805
:106390002030D975704700BFF814001010B5044BB9
:1063A00053F82040226053F82030596010BD00BFE0
:1063B000F8140010024B53F820301961704700BFE9
:1063C000F814001073B5454B00241B6801941B683A
:1063D0000193019B9B071AD5414D2B684FF4004256
:1063E0001A62404A136851686BB1204698473E4B89
:1063F00001221A602B689A6922F400429A612046B1
:1064000004F00EFF03E039484FF4866105E0384C94
:10641000002317E0354840F24E41364A364B32F001
:1064200031FE364A364952F8232051F823101268BB
:106430000192019A0131012000FA01F1114207D1C4
:106440002368013323602368294D042BE9D917E021
:106450002C4E56F823204FF4004191612A4951F8FF
:10646000332001EBC3035968002AD3D000209047A2
:106470002B6856F823301A6922F400421A61DFE7CC
:1064800000232B602368092B26D8204A204952F884
:10649000232051F8231012680192019A0131012042
:1064A00000FA01F1114213D01A4A52F823204FF496
:1064B00000411161184951F8332001EBC3035968B9
:1064C00012B10020904703E0084840F26641A4E77B
:1064D000236801332360D5E702B070BDF4140010C7
:1064E000F8140010682000107020001096F90408BD
:1064F000C420001052F90408E08E05086015001051
:106500002415001074150010C8200010FC14001091
:1065100088150010B01500107420001008B5002078
:1065200037F05EF8002814BFFF20002008BD08B532
:10653000002037F0A5F8002814BFFF20002008BD78
:1065400070B5841F092C05460FD9FE200BE02B687F
:106550009E7102225A7148490020FFF7A5F90020D8
:10656000FFF762F9002040B270BD37F0D1F8434B1D
:106570005A5D012A0DD14248424A40F259212B4628
:10658000FFF702F94048414A414B40F2592132F0AD
:1065900079FD01265E553F4D37F0A2F855F82420CD
:1065A0000023536055F82420136055F8242093608D
:1065B00055F82420D36055F82420D36155F82420C1
:1065C00013635363FFF7AAFFFF2852D0092C50D85A
:1065D00001A151F824F000BF4F65010801660108D0
:1065E000116601081966010829660108316601086B
:1065F000416601084966010859660108616601089B
:106600006A68102111716A68012191716B68A0E7B5
:10661000A9688E71AB689CE7EA6810211171EA687D
:1066200001219171EB6894E729698E712B691EE055
:106630006A69102111716A69012191716B6916E013
:10664000A9698E71AB6912E0EA6910211171EA69DA
:1066500001219171EB690AE0296A8E712B6A06E0CB
:106660006A6A102111716A6A012191716B6A0022B4
:1066700070E7FD2077E700BFC56301080001200433
:1066800076F904083AFA040896F904088CF9040823
:10669000E08E0508B015001037B5851F0023092DC1
:1066A0000446019303D9FE2040B203B030BD37F059
:1066B0002FF81D4B53F825301B6801931B4B019994
:1066C00053F825200123551C03FA05F50D4203D08C
:1066D000174840F2C52107E00199934013EA0105EC
:1066E00006D0134840F2CB21124A134B32F0CAFCB9
:1066F00036F0F6FF37F00CF810490B5D53B910482F
:10670000104A40F2D3212346FFF73EF8084840F2F2
:10671000D321E9E70D5536F0E3FFFFF708FFFF2827
:1067200014BF0020FD20BFE7FC14001088150010E6
:1067300096F904089AFA0408E08E0508000120047E
:1067400080F9040869FA040838B5851F092D0C463C
:1067500002D9FE2040B238BD0868830703D00B4839
:1067600040F2ED2105E000F0BBFC30B1074840F2FB
:10677000F321074A074B32F085FC074B626853F858
:1067800025305A632268DA61E4E700BF96F904080D
:1067900067F90408E08E0508B015001006380928CE
:1067A00002D9FE2040B27047034B53F8203001223B
:1067B000DA710020F6E700BFB015001037B5841F6E
:1067C0000023092C019303D9FE2040B203B030BD51
:1067D00036F09EFF104B53F824301B6801930F4B8B
:1067E000019953F82430012202FA03F50D4205D134
:1067F000019901339A4012EA010503D036F070FF87
:10680000FD20E2E736F06CFF054B53F824304FF4DF
:1068100000429A602846D8E7FC1400108815001042
:10682000B01500100638092802D9FE2040B2704782
:10683000024B53F820300020D871F7E7B015001054
:106840000638092802D9FE2040B27047024B53F89F
:10685000203000209860F7E7B015001006380928AE
:1068600001D9FE2007E0B1F5803F06D2044B53F872
:1068700020300020196040B27047FF20FBE700BFC6
:10688000B01500100638092801D9FE2006E03F297E
:1068900006D8044B53F820300020196340B27047EB
:1068A000FF20FBE7B01500100638092802D9FE20AA
:1068B00040B27047024B53F8203000201960F7E7D0
:1068C000381500100638092802D9FE2040B270475A
:1068D000034B53F820301B680B700020F6E700BF15
:1068E000381500100638092802D9FE2040B270473A
:1068F000034B53F820309B6A0B600020F6E700BF83
:10690000B01500100638092802D9FE2040B27047A1
:10691000044B53F820305A6B9B6AD31A0B6000204B
:10692000F4E700BFB01500100638092810B502D9E9
:10693000FE2040B210BD054B53F8304024B943F857
:10694000301003EBC00042600020F2E7742000101A
:10695000054B93F812320BB9032803D003288CBFE0
:106960000023012318467047F820001070B5044634
:10697000FFF7EEFF08B3134A2301D018D35C012BB5
:106980001DD0057B00F10806CDB92946102232F052
:10699000E8FB36F07DFE012333710B4B53F82430B6
:1069A000DA6822F00102DA60084B53F8240004F0A0
:1069B0002EFC074B1855284602E0FE2000E0FD2083
:1069C00040B270BD2C9B0004C0990004C4FA0408B6
:1069D000F020001070B505460C461646FFF7B8FFCC
:1069E00070B10B4928010B180A5C012A0AD01A7BE6
:1069F00042B14CB15C609E6000F08EF9002004E072
:106A0000FE2002E0FD2000E0FF2040B270BD00BF8C
:106A10002C9B00042DE9F34704460F469046FFF7F0
:106A200097FF002846D0284B26019A19995D012925
:106A3000994641D0137B002B3ED0244B9F423DD83A
:106A400036F066FE224D019036F022FE55F82430D5
:106A50000022DA6055F82420137803F0FE03137047
:106A600055F8243010229A60384655F824A036F0A4
:106A700027FE55F82420CAF81C000121516155F861
:106A80002420516055F824108B69002BFCD1B8F1FB
:106A9000000F02D040F2011300E001230B6055F813
:106AA00024300122DA60019809F8062036F018FE39
:106AB000002004E0FE2002E0FC2000E0FF2040B2C5
:106AC00002B0BDE8F08700BF2C9B00047BF0C1073B
:106AD000C099000473B50446FFF73AFF28B336F0B7
:106AE00017FE154B019053F82420D16821F00101C5
:106AF000D16053F82420117801F0FE01117053F891
:106B0000243001225A610D4A01982301D61800252C
:106B1000D55436F0E5FD737B083643B1084B185D5C
:106B200004F07EFB7571284602E0FE2000E0184666
:106B300040B202B070BD00BFC09900042C9B00049D
:106B4000F020001070B5124CD4F808321F2B054607
:106B500018D8C8B136F0DCFD064600F009F940F05F
:106B60005E4304EB001243F42D032B6001231373E7
:106B7000D4F8083230460133C4F8083236F0B0FD9C
:106B8000002002E0FD2000E0FF2040B270BD00BF09
:106B9000F8200010114B114A0340934282B017D1E4
:106BA0000F4BD3F8082280B201909AB1019903EB00
:106BB0000111487B70B9019903EB0111097B49B1BF
:106BC000019903EB0111013A0873C3F8082202E0AE
:106BD000FF2000E0FD2040B202B070470000ADDEB3
:106BE000F82000102DE9F84F2D4C99462C4B04400D
:106BF0009C42884617464ED185B2002A4BD0294C7C
:106C00002D01631908335A79002A42D11B79002BD0
:106C10003FD0254B99423ED836F07AFD94F810B219
:106C20000126824684F81262BBF1000F09D10320CD
:106C3000FFF79CFE03201D495A46FFF7CBFE84F860
:106C400010620320FFF746FF94F8113223B9184B66
:106C5000D86800F071F800E00020D4F80032184441
:106C6000D4F80C32C4F80002661901334044C4F869
:106C70000C3201237373B0606751C6F8049000F0C2
:106C8000AFF80025504684F8125236F029FD284608
:106C900002E0FD2000E0FF2040B2BDE8F88F00BF19
:106CA0000000ADDEF82000107BF0C107196E01086E
:106CB000C099000482B0C3680193C36823F0010344
:106CC000C360019802B0704730B5002485B0104D04
:106CD000605903690293C3680393FFF7EBFF63599D
:106CE000019001225A61029BDA0709D5039BDB0759
:106CF00006D5084A02EB840253680BB190689847A6
:106D00002B59019ADA600434182CE0D105B030BD5B
:106D1000C09900042C9B000408B50F20FEF794FDD9
:106D20000F200449FEF7C0FD0F20BDE80840FEF724
:106D30007BBD00BFC96C010882694FF47A73C2F34E
:106D40000E015943D20B01F58041534382B003EB4E
:106D5000D1330193054BDA6801215160DA689369F8
:106D6000002BFCD1019802B0704700BFC09900040D
:106D70000020044B03EB00131B7B13B101302028D0
:106D8000F7D17047F8200010074B03EB0010D3F841
:106D900004228068D3F80032811A9A1A91428CBF7B
:106DA000C3EB000000207047F8200010F8B506463D
:106DB0000F464FF0FF350024084B03EB04135B7BB9
:106DC00033B12046FFF7E0FFA8423CBF3C600546D8
:106DD0000134202CF0D13560F8BD00BFF820001040
:106DE00037B50C4C94F811528DB9684601A9FFF7DC
:106DF000DDFFD4F80032C4F80432032001230099E7
:106E000084F812322A46FFF705FE84F8125203B0C6
:106E100030BD00BFF820001073B51F4CD4F8083205
:106E2000002B37D00125032084F81252FFF752FEC1
:106E30001A4B0026D86884F81262FFF77DFF009095
:106E4000D4F80032009A84F811521344C4F8003286
:106E500004F10D052B7883B13046FFF795FF0190C3
:106E6000019B53B92B70D4F80C32013BC4F80C329F
:106E700055F80D3C55F8090C98470136202E05F1C0
:106E80001005E7D1002384F81132D4F80C320BB18D
:106E9000FFF7A6FF02B070BDF8200010C0990004F3
:106EA000074A53789B0708D0064B196841F00D013B
:106EB00019601B681360002000E0FB2040B270479F
:106EC0005C9A0004000018E00F2811D80B4B00F565
:106ED000804253F82220D2050CD5DA6A012101FA4A
:106EE00000F01043D862DA6A054B00201A6002E015
:106EF000FC2000E0FF2040B2704700BF000018E017
:106F0000D89900040F2812D80A4B0122D96A82406E
:106F100021EA0202DA62DA6A074B1A60074A0023A2
:106F200042F8303002EBC0004360184600E0FC201D
:106F300040B27047000018E0D8990004DC990004C2
:106F400003280FD8094B1A6822F440721A601A6895
:106F500042EA00221A6000B918601A68044B002047
:106F60001A6000E0FB2040B2704700BF000018E04C
:106F70005C9A00040F2810B529D851B30C68C4F3EB
:106F80000B0313B11448FB2106E04A68C2F30B025D
:106F900032B1114840F20111104A114B32F072F82F
:106FA000830003F1604303F5C8131C6012C9214438
:106FB0001964196841F4807119600A491C6841F824
:106FC000304001EBC0001B6C4360104602E0FC2027
:106FD00000E0F92040B210BDDCFA04080EFB040802
:106FE000E08E0508DC99000410B536F091FB154BD6
:106FF0001A7802F0FF041AB136F072FBFA201EE094
:1070000001221A7036F06CFB36F02AFB0E4B1C6026
:10701000DC620E4B1C600E4B1C6023469A0002F192
:10702000604202F5C812002010601064094A02EBA9
:10703000C30142F833000133102B4860EED140B257
:1070400010BD00BF0C230010000018E05C9A000483
:10705000D8990004DC99000408B536F001FB0E4A0B
:1070600000231360D3620D4A13600D4A13609A0027
:1070700002F1604202F5C812002010601064094A53
:1070800002EBC30142F833000133102B4860EED10C
:10709000054B187008BD00BF000018E05C9A0004A2
:1070A000D8990004DC9900040C23001038B50A4C70
:1070B00036F02EFB2368DB07054601D536F0D0FA03
:1070C000236823F001032360044B22681A602846DA
:1070D00036F006FB002038BD000018E05C9A000482
:1070E00010B5114B1B6813F001031AD000230E4A90
:1070F0000121D26A01FA03F414420CD09A0002F181
:10710000604202F5C812146824F48074A04202D3CD
:10711000126C904203D30133102BE8D101E00846F2
:1071200010BD002010BD00BF000018E010B50446DF
:10713000002838D036F0ECFA1C4B1A78012A03D11B
:1071400036F0CEFAFB202FE001221A7036F0C8FA92
:10715000174B00225A6022781AB15A6842F0040292
:107160005A6062781AB15A6842F002025A605A684C
:10717000104B1A60104A00231360104A52F8331063
:107180006FF35F1142F8331063F30301C9B241F0AA
:10719000100102F8331002EBC30201330020082B68
:1071A0005060EAD100E0FA2040B210BD0D2300107B
:1071B00090ED00E0A49A0004609A0004649A000430
:1071C000044B5A6842F001025A605A68024B002090
:1071D0001A60704790ED00E0A49A0004072813D8C5
:1071E0000B4B98601A6942F001021A611A69094B47
:1071F00003EBC0035A60084B012202FA00F01A6840
:1072000002431A60002000E0FC2040B2704700BF3B
:1072100090ED00E0649A0004609A0004072814D8F6
:107220000B4B98601A6922F001021A611A69094B26
:1072300003EBC0035A60084B012202FA00F01A68FF
:1072400022EA00021A60002000E0FC2040B27047F1
:1072500090ED00E0649A0004609A0004072810B5DD
:107260003CD800293CD00A79131F1B2B02D91E4899
:10727000D6210AE00B6801324FF0FF3404FA02F223
:107280001A40934205D01848DC21184A184B31F0B7
:10729000F9FE23F01F03174A43F010030343D360A2
:1072A0000B794C795B0043EA04638C7943EA04234D
:1072B0001361CB791BB1136943F0805313610E4BFB
:1072C0000C6853F83010640964F35F1143F8301010
:1072D00003EBC00012694260002002E0FC2000E0E5
:1072E000FA2040B210BD00BF26FB040856FB04087C
:1072F000E08E050890ED00E0649A00040D4B1A78CA
:10730000012A194608D10C4B1A680C4B506B80B2FD
:107310001880126B92B25A804B78012B08D1064B21
:107320005A68064B516B89B29980126B92B2DA801F
:10733000704700BF1C2300101CFE0408909B000433
:1073400010B50E4B1A78012A184609D10C4B0D4A7C
:107350001C881168A4B24C635B8812689BB21363EB
:107360004378012B09D1064B064A9888516880B2B0
:107370004863DB8852689BB2136310BD1C23001066
:10738000909B00041CFE040870B586B004460E46AF
:10739000012003A936F034F936F0BAF9134B53F84B
:1073A0002430DB68054613B136F09AF91CE004A9D5
:1073B000012036F025F905AA0398049936F018F94A
:1073C000059B44F62062934228460AD936F088F994
:1073D00000960748074A40F296312346FEF7A4F983
:1073E00002E036F07DF9D7E706B070BD1CFE040858
:1073F000F2FD04089FFB0408012870B504460D4601
:107400002ED80B78052B2DD836F082F9174B1A5D44
:10741000012A16BF0026FD26012276B218BF1A5592
:1074200036F05EF9033607D11148124A95212346FA
:10743000FEF77AF9FD2016E006200F49002203F03E
:1074400039FC0E490022062003F06CFC0C4B185D41
:1074500036F0C6F82046297800F0A8F8002002E0AF
:10746000FE2000E0FF2040B270BD00BF1C230010D2
:107470006FFB0408BBFB0408FD720108417301089F
:1074800047FE0408012870B504461BD80F4E56F875
:10749000203000259D630E4B1856FEF7D5F956F89F
:1074A00024300C4A9D600C4B43F8245004EB4403F9
:1074B00013445D70094B185D36F0E2F8084B28461E
:1074C0001D5500E0FE2040B270BD00BF1CFE040848
:1074D000F0FD04080E2300101423001047FE0408DA
:1074E0001C2300102DE9F047012888B004468A4685
:1074F00090461D4648D8002A48D0082B46D8264E2C
:1075000056F820309B6B13F0010908D02348244A19
:107510004FF484712346FEF707F9FD2037E0214B35
:107520001F5C384603F075FE56F8243003954FEA89
:107530004A02C3F80890204603AB062102F0FE027F
:10754000CDF8109000F06AF82A462046414600F037
:10755000E9F856F8243001229A6306212046FFF705
:1075600013FF204600F0ECF80546384603F058FEBD
:10757000284665B1094800954FF497710A4A234699
:10758000FEF7D2F8FC2002E0FE2000E0FF2040B22F
:1075900008B0BDE8F08700BF1CFE040883FB0408A8
:1075A000E9FB0408EEFD040806FC0408194B53F837
:1075B0002030002270B55A63052912D8DFE801F0A7
:1075C000030510070A0D01225A63642109E04FF4F4
:1075D000967106E04FF4C87103E04FF47A7100E051
:1075E000C8210D4A52F82050490048190122441E72
:1075F000461BB4FBF6F4402C03D90132092A084497
:10760000F5D1013A013CD2B2E4B283F8312083F8DB
:10761000304070BD1CFE0408D815001030B53F4C3A
:1076200054F820003E4C426001228264C460002471
:10763000046144610E296FD8DFE801F008101A25B3
:10764000324408101A2532445656610001B1032114
:10765000016542751B68036282624EE001291CBF0E
:10766000032202654FF0010208BF04654274F0E78F
:1076700002291CBF032202654FF0010208BF046506
:1076800042755B68E7E703291CBF032202654FF0E0
:10769000010208BF04654274427502625B682BE018
:1076A00004291CBF032202654FF0010208BF0465D4
:1076B00002748274C27442751A6802620222826283
:1076C0005B6828E005291CBF032202654FF0010218
:1076D00008BF0465427402748274C27442751968EA
:1076E00001625B68134407E0032101654274027480
:1076F0004275996801621B698362426230BD032151
:107700000165427402748274C27442759A6802629E
:107710001A698262DB68436230BD00BF1CFE040848
:107720000101010030B50023934206D0034CCD5C2B
:1077300054F8204001332560F6E730BD1CFE0408F4
:107740007FB5194B53F82050EA68D105064607D497
:1077500012F4803426D1012A18BFFC241DD000E089
:10776000FD24012001A935F04BFFEB68DB0714D4A1
:1077700002A9012035F044FF03AA0198029935F0CF
:1077800037FF039B44F620629342EED90748084A2C
:107790004FF49E713346FDF7C7FF064BEB6060B2B6
:1077A00004B070BDFE24DCE71CFE040849FE04089A
:1077B00024FE040801010100014B93F8D800704732
:1077C000989B000410B50468914024EA0104046009
:1077D000016893401943016010BD000010B50446D4
:1077E0002346044801210822FFF7ECFF024B1C70DE
:1077F00010BD00BF000006A21E2300100F4B1A6828
:10780000002A06DA1B680E487F210822C3F30663AC
:1078100010E0110206D51B6809487F210822C3F336
:10782000064307E0120407D51B6805487F2108229C
:10783000C3F30623FFF7C6BF704700BF30020AA29A
:10784000100006A22DE9F047FFF7B6FF6F4D044682
:107850002868C0F34010FFF7C1FF2B686C4913F094
:10786000200F0A686B4B06D102F47F420A601A6847
:1078700002F47F4205E042F00C020A601A6842F00E
:107880001D021A60DFF8E8A1DFF8E891DFF8E8816F
:10789000DFF8E8C1DFF8E8E15F4F604E604D614816
:1078A0006149624A002C52D0614BCAF80030C9F8D5
:1078B0000030C8F80030CCF800305E4BCEF8003015
:1078C0005D4B3B605D4B33605D4B2B6003F590235C
:1078D00003605C4B0B605C4B13601C307F211822F3
:1078E0003B23FFF76FFF59487F2110224223FFF708
:1078F00069FF5648FF2108226323FFF763FF5348BF
:107900007F2118223523FFF75DFF50487F21102289
:107910003B23FFF757FF4D48FF2108223F23FFF786
:1079200051FF4A487F2100220223FFF74BFF4848BE
:107930007F2110220423FFF745FF45487F210822BD
:107940000323FFF73FFF42487F21002251E0414BD4
:10795000CAF80030C9F80030C8F80030CCF8003060
:107960003D4BCEF80030A3F588333B603B4B336092
:10797000334B2B603A4B03603A4B0B603A4B13602E
:1079800032487F2118223B23FFF71CFF2F487F211D
:1079900010224223FFF716FF2C48FF210822522312
:1079A000FFF710FF29487F2118223523FFF70AFF30
:1079B00026487F2110223B23FFF704FF2348FF21A5
:1079C00008223F23FFF7FEFE20487F2122460223A4
:1079D000FFF7F8FE1E487F2110220423FFF7F2FE76
:1079E0001B487F2108220323FFF7ECFE18487F2164
:1079F00022460123FFF7E6FEFFF700FF1B4B1A6844
:107A000042F001021A60BDE8F08700BF400001A209
:107A100004010FA208010FA2180006A21C0006A272
:107A2000200006A2240006A2280006A22C0006A21E
:107A30005FB20B005F9F06003F8F05001F8A0400A6
:107A40000F0A04001F8F09003F9F0A00400006A292
:107A5000440006A27FB20B007F9F06003F8A04000D
:107A60001F8A08003F8F09007F9F0A00000006A2BE
:107A7000040006A2080006A20C0006A2100006A23E
:107A8000140006A24FF4FA73584335F0D1BD10B17B
:107A9000032035F0A5BD032035F0F2BD054B1A6873
:107AA000510703D41A6842F004021A601A68520798
:107AB000FCD47047000003A1044B5A6942F0004215
:107AC0005A615A69002AFCDB704700BF000003A11D
:107AD000034B1A6B22F4403242EA004018637047AD
