:020000040801F1
:10200000DFF8ACD072B60AF0B1FA2A482A4901606A
:102010002A482B492B4B2C4C2C4A42F8040B42F8F3
:10202000041B42F8043B146000202949204A41F86F
:10203000040B9142FFF4FBAF2649274A274B0AF0D5
:10204000AFFA2749274A284B0AF0AAFA274A284B11
:102050000AF0AFFA2749284A284B0AF0A1FA284A81
:10206000284B0AF0A6FA2849284A294B0AF098FA80
:10207000284A294B0AF09DFA2849294A294B0AF097
:102080008FFA2949294A2A4B0AF08AFA294A2A4B07
:102090000AF08FFA29492A4A2A4B0AF081FA2A4A79
:1020A0002A4B0AF086FA0AF04FFA09F085FD7047CC
:1020B00000800104000009A2110000001500201496
:1020C000000020042300001000000000001018E0B1
:1020D0000070010498DA110800000010D8140010F4
:1020E00024F2110820E6010020E6010020E60100AC
:1020F000A028020070EF1108D81400108C170010EF
:102100008C1700101CE601102CF31108008000044D
:10211000AC8E0004AC8E0004FC8F000424F2110885
:1021200000002014F00020141CF31108F800201403
:10213000F8002014F8002014F80020141CF31108F3
:1021400000012004100120041001200410012004CB
:102150004BB942B9002908BF002802D04FF0FF3127
:10216000084600F03BB882B0EC462DE9005000F084
:102170001DF8DDF804E002B00CBC70472DE9704397
:10218000069E14461D468046894600F029F804FB49
:1021900001F300FB0533A4FB00451D44B8EB040428
:1021A00069EB0505C6E90045BDE870832DE970437C
:1021B000069E1446804689461D4600F05DF900FBE8
:1021C00005F504FB0153A0FB04451D44B8EB0404D2
:1021D00069EB0505C6E90045BDE87083704700BF9F
:1021E00000292DE9F00FC0F29F800024002BC0F2DF
:1021F0009680154606460F46002B3ED18A4257D997
:10220000B2FA82F34BB1C3F1200201FA03F720FACC
:1022100002F29D40174300FA03F6290CB7FBF1F2D6
:10222000330C01FB127CA8B243EA0C4700FB02F31B
:10223000BB4209D97F1902F1FF3C80F00181BB420A
:1022400040F2FE80023A2F44FF1AB7FBF1F3B6B218
:1022500001FB137146EA014100FB03F0884208D9F3
:10226000491903F1FF3780F0ED80884240F2EA809F
:10227000023B43EA0242002303E08B420AD90023D7
:102280001A461046194614B1404261EB4101BDE8BF
:10229000F00F7047B3FA83F8B8F1000F40F0848074
:1022A0008B4202D3824200F2DE8000230122E8E763
:1022B00012B90123B3FBF2F5B5FA85F2002A39D140
:1022C0007F1B280C1FFA85FC0123B7FBF0F1320CB1
:1022D00000FB117742EA07470CFB01F2BA4207D92B
:1022E0007F1901F1FF3802D2BA4200F2C1804146A3
:1022F000BF1AB7FBF0F2B6B200FB127046EA00401C
:102300000CFB02FC844507D9401902F1FF3702D2C9
:10231000844500F2AB803A4642EA0142B1E7E44329
:10232000524263EB430364E7404261EB41014FF0EB
:10233000FF345BE79540C2F1200327FA03F1280C34
:1023400026FA03F39740B1FBF0F81F433B0C00FB68
:1023500018111FFA85FC43EA01410CFB08F38B427C
:1023600006FA02F608D9491908F1FF3279D28B42F0
:1023700077D9A8F102082944C91AB1FBF0F3BFB21A
:1023800000FB131147EA01470CFB03F2BA4207D9DD
:102390007F1903F1FF3160D2BA425ED9023B2F446C
:1023A000BF1A43EA084390E7C8F1200203FA08FC89
:1023B00025FA02F343EA0C0C4FEA1C4921FA02F316
:1023C00001FA08F720FA02F2B3FBF9F1174309FB0F
:1023D00011333A0C1FFA8CFB42EA03430BFB01FA60
:1023E0009A4505FA08F008D913EB0C0301F1FF3206
:1023F00035D29A4533D902396344CAEB0303B3FBA0
:10240000F9F209FB1233BFB247EA03470BFB02F9AB
:10241000B94508D917EB0C0702F1FF331BD2B945B8
:1024200019D9023A674442EA0145A5FB0001C9EB0C
:1024300007078F424FF000030AD305D02A4620E752
:10244000624601E73B4614E706FA08F68642F5D2F3
:102450006A1E002315E71A46E5E70B46A0E711467A
:10246000CBE7904688E7434642460AE7023A53E7FD
:1024700002392F443CE700BF2DE9F00F1446054612
:102480000E46002B43D18A4253D9B2FA82F757B194
:10249000C7F1200620FA06F601FA07F302FA07F45C
:1024A0001E4300FA07F5210CB6FBF1F22B0C01FBE1
:1024B0001267A0B243EA074600FB02F3B34209D910
:1024C000361902F1FF3780F0F680B34240F2F38014
:1024D000023A2644F61AB6FBF1F3ADB201FB1361E2
:1024E00045EA014100FB03F0884208D9091903F1CC
:1024F000FF3680F0E280884240F2DF80023B43EA10
:102500000242002310461946BDE8F00F70478B4287
:102510004AD8B3FA83F6002E4DD18B4202D38242C1
:1025200000F2D6800023012210461946BDE8F00FC4
:10253000704712B90124B4FBF2F4B4FA84F2002A11
:102540007CD1091B260CA7B20123B1FBF6F02A0CA3
:1025500006FB101142EA014107FB00F28A4207D94B
:10256000091900F1FF3C02D28A4200F2C3806046A2
:10257000891AB1FBF6F2ADB206FB121145EA01452C
:1025800007FB02F7AF4208D92C1902F1FF3180F0A6
:102590009680A74240F29380023A42EA00421046F7
:1025A0001946BDE8F00F704700231A461046194639
:1025B000BDE8F00F7047C6F1200522FA05F4B340DC
:1025C0001C434FEA144821FA05F301FA06F720FAF2
:1025D00005F5B3FBF8FC2F4308FB1C333D0C1FFA39
:1025E00084FA45EA03430AFB0CF9994502FA06FB13
:1025F00004D91B190CF1FF326DD39446C9EB0303C8
:10260000B3FBF8F508FB1533BFB247EA03470AFBF3
:1026100005F8B84504D93F1905F1FF3361D31D46CC
:1026200045EA0C4CACFB0B23C8EB07079F424FF06D
:10263000000549D345D062462B4663E79440C2F17A
:10264000200321FA03FC260C20FA03F301FA02F519
:10265000BCFBF6F843EA05010B0C06FB18CCA7B24D
:1026600043EA0C4C07FB08F3634500FA02F509D96D
:102670001CEB040C08F1FF323AD2634538D9A8F1BB
:102680000208A444C3EB0C0CBCFBF6F389B206FBB6
:1026900013CC41EA0C4107FB03F28A4207D909191E
:1026A00003F1FF3022D28A4220D9023B2144891A09
:1026B00043EA084349E73A460CE733461FE70A4630
:1026C0006BE7B0409042B6D20CF1FF32002319E71D
:1026D0003346324616E799458FD9ACF1020C2344B4
:1026E0008CE7B8459BD9023D274499E70346DEE7CE
:1026F0009046C7E7023821443AE700BF10F8012BA3
:1027000011F8013B012A28BF9A42F7D0D01A70472E
:1027100081F0004102E000BF83F0004330B54FEA92
:1027200041044FEA430594EA050F08BF90EA020FFF
:102730001FBF54EA000C55EA020C7FEA645C7FEA92
:10274000655C00F0E2804FEA5454D4EB5555B8BFB5
:102750006D420CDD2C4480EA020281EA030382EA26
:10276000000083EA010180EA020281EA0303362DB8
:1027700088BF30BD11F0004F4FEA01314FF4801C8B
:102780004CEA113102D0404261EB410113F0004F9D
:102790004FEA03334CEA133302D0524263EB430354
:1027A00094EA050F00F0A780A4F10104D5F1200EF2
:1027B0000DDB02FA0EFC22FA05F2801841F100014D
:1027C00003FA0EF2801843FA05F359410EE0A5F121
:1027D00020050EF1200E012A03FA0EFC28BF4CF052
:1027E000020C43FA05F3C01851EBE37101F0004508
:1027F00007D54FF0000EDCF1000C7EEB00006EEB15
:102800000101B1F5801F1BD3B1F5001F0CD349089E
:102810005FEA30004FEA3C0C04F101044FEA4452F5
:1028200012F5800F80F09A80BCF1004F08BF5FEA7C
:10283000500C50F1000041EB045141EA050130BD5C
:102840005FEA4C0C404141EB010111F4801FA4F1FF
:102850000104E9D191F0000F04BF01460020B1FA54
:1028600081F308BF2033A3F10B03B3F120020CDA8C
:102870000C3208DD02F1140CC2F10C0201FA0CF06A
:1028800021FA02F10CE002F11402D8BFC2F1200CCF
:1028900001FA02F120FA0CFCDCBF41EA0C01904085
:1028A000E41AA2BF01EB0451294330BD6FEA0404CE
:1028B0001F3C1CDA0C340EDC04F11404C4F12002B9
:1028C00020FA04F001FA02F340EA030021FA04F3CB
:1028D00045EA030130BDC4F10C04C4F1200220FA22
:1028E00002F001FA04F340EA0300294630BD21FA60
:1028F00004F0294630BD94F0000F83F4801306BF26
:1029000081F480110134013D4EE77FEA645C18BF19
:102910007FEA655C29D094EA050F08BF90EA020FB0
:1029200005D054EA000C04BF1946104630BD91EAA8
:10293000030F1EBF0021002030BD5FEA545C05D1AB
:102940004000494128BF41F0004130BD14F58004EA
:102950003CBF01F5801130BD01F0004545F0FE415E
:1029600041F470014FF0000030BD7FEA645C1ABF93
:10297000194610467FEA655C1CBF0B46024650EACA
:10298000013406BF52EA033591EA030F41F40021F6
:1029900030BD00BF90F0000F04BF0021704730B57C
:1029A0004FF4806404F132044FF000054FF0000151
:1029B00050E700BF90F0000F04BF0021704730B512
:1029C0004FF4806404F1320410F0004548BF4042E7
:1029D0004FF000013EE700BF42004FEAE2014FEA3C
:1029E00031014FEA02701FBF12F07F4393F07F4F17
:1029F00081F06051704792F0000F14BF93F07F4F49
:102A0000704730B54FF4607401F0004521F000418B
:102A100020E700BF50EA010208BF704730B54FF011
:102A200000050AE050EA010208BF704730B511F016
:102A3000004502D5404261EB41014FF4806404F14E
:102A400032045FEA915C3FF4DCAE4FF003025FEAD0
:102A5000DC0C18BF03325FEADC0C18BF033202EB58
:102A6000DC02C2F1200300FA03FC20FA02F001FAB2
:102A700003FE40EA0E0021FA02F11444C1E600BF51
:102A800070B54FF0FF0C4CF4E06C1CEA11541DBF04
:102A90001CEA135594EA0C0F95EA0C0F00F0DEF8CF
:102AA0002C4481EA030621EA4C5123EA4C5350EAB4
:102AB000013518BF52EA033541F4801143F4801305
:102AC00038D0A0FB02CE4FF00005E1FB02E506F096
:102AD0000042E0FB03E54FF00006E1FB03569CF0EB
:102AE000000F18BF4EF0010EA4F1FF04B6F5007FF1
:102AF00064F5407404D25FEA4E0E6D4146EB060663
:102B000042EAC62141EA55514FEAC52040EA5E50EB
:102B10004FEACE2EB4F1FD0C88BFBCF5E06F1ED895
:102B2000BEF1004F08BF5FEA500E50F1000041EBCC
:102B3000045170BD06F0004646EA010140EA020079
:102B400081EA0301B4EB5C04C2BFD4EB0C0541EA9B
:102B5000045170BD41F480114FF0000E013C00F3B0
:102B6000AB8014F1360FDEBF002001F0004170BDD4
:102B7000C4F10004203C35DA0C341BDC04F11404ED
:102B8000C4F1200500FA05F320FA04F001FA05F279
:102B900040EA020001F0004221F0004110EBD37046
:102BA00021FA04F642EB06015EEA430E08BF20EA72
:102BB000D37070BDC4F10C04C4F1200500FA04F315
:102BC00020FA05F001FA04F240EA020001F00041A7
:102BD00010EBD37041F100015EEA430E08BF20EA1A
:102BE000D37070BDC4F1200500FA05F24EEA020E62
:102BF00020FA04F301FA05F243EA020321FA04F091
:102C000001F0004121FA04F220EA020000EBD37047
:102C10005EEA430E08BF20EAD37070BD94F0000F47
:102C20000FD101F00046400041EB010111F4801F7B
:102C300008BF013CF7D041EA060195F0000F18BF2C
:102C4000704703F00046520043EB030313F4801F68
:102C500008BF013DF7D043EA0603704794EA0C0F22
:102C60000CEA135518BF95EA0C0F0CD050EA410638
:102C700018BF52EA4306D1D181EA030101F00041B5
:102C80004FF0000070BD50EA410606BF10461946DD
:102C900052EA430619D094EA0C0F02D150EA0136E9
:102CA00013D195EA0C0F05D152EA03361CBF10462A
:102CB00019460AD181EA030101F0004141F0FE41C9
:102CC00041F470014FF0000070BD41F0FE4141F44D
:102CD000780170BD70B54FF0FF0C4CF4E06C1CEA4D
:102CE00011541DBF1CEA135594EA0C0F95EA0C0F02
:102CF00000F0A7F8A4EB050481EA030E52EA0335BD
:102D00004FEA013100F088804FEA03334FF08055DD
:102D100045EA131343EA12634FEA022245EA11150A
:102D200045EA10654FEA00260EF000419D4208BFBB
:102D3000964244F1FD0404F5407402D25B084FEA68
:102D40003202B61A65EB03055B084FEA32024FF414
:102D500080104FF4002CB6EB020E75EB030E22BF71
:102D6000B61A754640EA0C005B084FEA3202B6EB31
:102D7000020E75EB030E22BFB61A754640EA5C00E0
:102D80005B084FEA3202B6EB020E75EB030E22BF70
:102D9000B61A754640EA9C005B084FEA3202B6EB71
:102DA000020E75EB030E22BFB61A754640EADC0030
:102DB00055EA060E18D04FEA051545EA16754FEA92
:102DC00006164FEAC30343EA52734FEAC2025FEAB0
:102DD0001C1CC0D111F4801F0BD141EA00014FF03F
:102DE00000004FF0004CB6E711F4801F04BF014310
:102DF0000020B4F1FD0C88BFBCF5E06F3FF6AFAE2C
:102E0000B5EB030C04BFB6EB020C5FEA500C50F1BB
:102E1000000041EB045170BD0EF0004E4EEA11313E
:102E200014EB5C04C2BFD4EB0C0541EA045170BD45
:102E300041F480114FF0000E013C90E645EA060E89
:102E40008DE60CEA135594EA0C0F08BF95EA0C0FB7
:102E50003FF43BAF94EA0C0F0AD150EA01347FF4FF
:102E600034AF95EA0C0F7FF425AF104619462CE7D6
:102E700095EA0C0F06D152EA03353FF4FDAE104639
:102E8000194622E750EA410618BF52EA43067FF48A
:102E9000C5AE50EA41047FF40DAF52EA43057FF41A
:102EA000EBAE12E74FF0FF3C06E000BF4FF0010C25
:102EB00002E000BF4FF0010C4DF804CD4FEA410C89
:102EC0007FEA6C5C4FEA430C18BF7FEA6C5C1BD056
:102ED00001B050EA410C0CBF52EA430C91EA030FD7
:102EE00002BF90EA020F0020704710F1000F91EA34
:102EF000030F58BF994208BF90422CBFD8176FEA02
:102F0000E37040F0010070474FEA410C7FEA6C5CCF
:102F100002D150EA013C07D14FEA430C7FEA6C5CD6
:102F2000D6D152EA033CD3D05DF8040B704700BF02
:102F30008446104662468C461946634600E000BF50
:102F400001B5FFF7B7FF002848BF10F1000F01BD22
:102F50004DF808EDFFF7F4FF0CBF012000205DF8ED
:102F600008FB00BF4DF808EDFFF7EAFF34BF012072
:102F700000205DF808FB00BF4DF808EDFFF7E0FF0B
:102F800094BF012000205DF808FB00BF4DF808ED5C
:102F9000FFF7CEFF94BF012000205DF808FB00BFC3
:102FA0004DF808EDFFF7C4FF34BF012000205DF8A5
:102FB00008FB00BF4FEA410212F5001215D211D5ED
:102FC0006FF47873B3EB625212D94FEAC12343F026
:102FD000004343EA505311F0004F23FA02F018BFA8
:102FE000404270474FF00000704750EA013005D171
:102FF00011F0004008BF6FF0004070474FF0000034
:10300000704700BF4A0011D212F5001211D20DD53F
:103010006FF47873B3EB62520ED44FEAC12343F0DE
:10302000004343EA505323FA02F070474FF0000088
:10303000704750EA013002D14FF0FF3070474FF037
:10304000000070474FEA4102B2F1E04324BFB3F5FC
:10305000001CDCF1FE5C0DD901F0004C4FEAC0020F
:103060004CEA5070B2F1004F40EB830008BF20F0F3
:103070000100704711F0804F21D113F13872BCBFAD
:1030800001F00040704741F480114FEA5252C2F102
:103090001802C2F1200C10FA0CF320FA02F018BF4B
:1030A00040F001004FEAC1234FEAD32303FA0CFC9E
:1030B00040EA0C0023FA02F34FEA4303CCE77FEA2D
:1030C000625307D150EA01331EBF4FF0FE4040F477
:1030D0004000704701F0004040F0FE4040F4000026
:1030E000704700BF014B93F82630704790170010CF
:1030F000014B93F8823070479017001008B50420F8
:103100000B6D896D984708BD70B5104B5C2505FBAC
:10311000003530356B790446B3B10D4B1E5C30463B
:1031200003F012FA18B10B480B4AD42106E03046DE
:1031300003F036F938B10748084ADA212346BDE8DA
:10314000704002F0C5BB687170BD00BF90170010E1
:1031500089140208B4260208A0140208CE1402083A
:1031600070B5104B5C2505FB003540356B79044686
:10317000B3B10D4B1E5C304603F0E6F918B10B48B5
:103180000B4ABE2106E0304603F00AF938B1074881
:10319000084AC3212346BDE8704002F099BB68711C
:1031A00070BD00BF9017001046270208A226020833
:1031B0000B1502083B15020870B5064600250E4B9C
:1031C0005C2202FB063393F82620120712D593F8EF
:1031D00035207AB193F8493063B10EB9074B00E05E
:1031E000074B1C6801200EF033F81CB1AC4201D033
:1031F0002546E4E770BD00BF90170010380702A015
:10320000380902A02DE9F34104460F4649484A4ACD
:1032100040F20311234602F08BFB012C04D94548F0
:10322000464A4FF483716AE0454D5C2000FB045030
:1032300090F826205AB190F8263000933D48414A34
:1032400040F20B11234602F043FBFF2065E001F042
:10325000CDF93D4B1E5D984676B9002C61D1012019
:103260003A49224604F0FAFE39490120224604F088
:103270002DFF012308F80430042F4DD8DFE807F0B4
:103280000F301D032200334A2A4823464FF4917120
:1032900002F04EFB5C2303FB045303220AE02E4A98
:1032A0002448234640F2271102F042FB5C2303FB33
:1032B0000453002283F8242025E01E48274A4FF4B7
:1032C00096711CE01B483CB9254A40F23111234657
:1032D00002F02EFB04220CE040F23511214A0EE0F0
:1032E00014484CB9204A40F23B11234602F020FB1F
:1032F00001221E4B1A7106E01D4A40F23F1123467F
:1033000002F0E6FA08E05C236343EA18012182F840
:1033100026100020EC5400E0FE2040B202B0BDE8D0
:10332000F08102201349324604F098FE022012492F
:1033300032469CE71A27020878150208871502080A
:1033400090170010AE15020852180010E530010861
:10335000F7390108D1150208FF15020824160208E2
:103360005A1602088C160208CF160208B017001071
:10337000F8160208F1300108F139010837B50446A2
:1033800040F257111848194A234602F0D1FA012C8D
:1033900008D91548164A4FF4AD71234602F098FA41
:1033A000FE201EE0134B5C2202FB043202F12003DC
:1033B000997901290AD09B7900930B480E4A40F273
:1033C0005F11234602F084FAFF200AE000259D7178
:1033D000204682F84850FFF7C3FE2046FFF794FED0
:1033E000284640B203B030BD641302083217020809
:1033F00043170208901700107017020873B50446AF
:103400000D469048904A4FF4BA71234602F090FA64
:10341000012C04D98B488D4A40F2771104E03DB964
:1034200088488B4A4FF4BE71234602F051FA05E1F9
:10343000884B5C2202FB04322032917901290AD0A8
:10344000937900937F48844A40F28111234602F029
:103450003FFAFF25F3E0297B2A78914204D079488E
:103460007E4A40F28711DFE76A7B012A06D1297F75
:1034700021B174487A4A40F28D11D5E7286969680C
:10348000884204D06F48774A40F29311CCE70AB1E2
:10349000012A06D15C2101FB04314A746A782AB9F9
:1034A00006E06848704A4FF4D071BDE7012A06D1A2
:1034B0005C2101FB04314A712A7E2AB906E0614889
:1034C0006A4A40F2AD11AFE7012A20D15C2101FB2D
:1034D00004310A77297F5C22012902FB043218BFDC
:1034E000002182F82010297D5C22012902FB043290
:1034F00018BF00211176297A5C22012902FB0432CF
:1035000018BF00211173EA7E012A05D10BE04D4856
:10351000574A4FF4DD7187E7C0F09080022A4FF0E0
:103520005C0101D003E05C2101FB043102E001FBFE
:10353000043101225C2000FB0430CA77024669682E
:1035400042F8081F2969D160697D00F11002012944
:1035500018BF00215172697A5C22012902FB0432F2
:1035600018BF002151733CBB424A1279012A01D095
:10357000042A29D1697E012904D932483E4A40F201
:103580000E2108E03D4A5171A97E022905D92D4836
:103590003B4A40F21521002347E7A86900F0FF10DD
:1035A000B0F5003F18BF91710ED12648354A40F260
:1035B000192102F08DF941E0A97E5C22012902FB6C
:1035C000043218BF002191775C2606FB0436297B64
:1035D000304601F0CBF9054620B11A482A4A40F29C
:1035E0002D2121E7012386F84830304601F024F8E8
:1035F000264E27482749284A284B7CB9284C24685E
:103600003460284C24680460274800680860274913
:1036100009781170264A12781A7010E0254C246837
:103620007460254C2468446024480068486024493C
:1036300009785170234A12785A7000E0FE2568B26A
:1036400002B070BD9913020895170208A617020868
:10365000CF17020890170010F61702081B1802086F
:10366000581802088B180208C2180208F918020834
:103670002F190208B01700105A190208A8170010D5
:1036800086190208B71902080F1A02085418001008
:10369000481800105C1800108C1700108E170010CE
:1036A000000007A0040007A0080007A0350007A03D
:1036B000390007A0000008A0040008A0080008A026
:1036C000350008A0390008A02DE9FF470446174639
:1036D0001D460E4621B93B483B4A40F2612105E0B8
:1036E0008B0708D03748394A40F26721234602F059
:1036F000EFF8FE2062E015B115F0010A04D0314860
:10370000334A4FF41B71F1E7012804D92D48314A9F
:1037100040F27121EAE7304A4FF05C0808FB0028CC
:10372000914698F8261001290AD098F8263000937F
:1037300024482A4A40F27621234602F0C9F82FE0B5
:10374000FFF7E2FC264B03951D5D88F84AA028464A
:10375000029602F079FD20B11A48224A40F28721F0
:103760001BE0284602A902F073FE20B115481E4A4C
:1037700040F28D2111E02846394602F0F3FE20B1D7
:1037800010481A4A40F2932107E0284602F09AFEB8
:1037900040B10C48164A40F29921234602F098F8AD
:1037A000FF200BE05C2303FB0494029BA362039BBA
:1037B000E3620123276384F83530002040B204B06F
:1037C000BDE8F087AF1302083B1A0208681A020826
:1037D000A71A0208F01A0208901700101F1B02080F
:1037E00089140208501B02087D1B0208AF1B020847
:1037F000E51B02082DE9FF41044617461D460E460B
:1038000021B93948394A40F2AE2105E08A0708D08B
:103810003548374A4FF42D71234602F059F8FE20FF
:103820005DE00BB1EB0704D52F48324A40F2B921D5
:10383000F2E7012804D92C482F4A40F2BE21EBE7D9
:103840002E4A5C2303FB00232033997901299046FB
:1038500009D09B7900932448294A40F2C32123468A
:1038600002F036F82DE0FFF77BFC264B03951D5D3B
:103870000296284602F0E8FC20B11B48224A40F29A
:10388000D3211BE0284602A902F0E2FD20B1164830
:103890001E4A40F2D92111E02846394602F062FE64
:1038A00020B111481A4A40F2DF2107E0284602F011
:1038B00009FE40B10C48174A40F2E521234602F0C8
:1038C00007F8FF200BE05C2303FB0484029BA36347
:1038D000039BE3630123276484F84530002040B252
:1038E00004B0BDE8F08100BF49140208131C0208AF
:1038F000401C02087F1C0208C81C02089017001018
:10390000F71C020846270208281D0208551D020858
:10391000871D0208BD1D02082DE9F041244E5C23DD
:1039200003FB0063203304469B79002B3DD0214DDF
:1039300021482249224A234B74B92F68224D2F6017
:103940000568224805600868214908601178214A05
:1039500011701A78204B0DE06F68204D2F6045687C
:103960001F48056048681F49086051781E4A117059
:103970005A781E4B5C2505FB04651A7095F83530A6
:103980002BB12046A96A2A6BEB6AFFF79DFE5C23E8
:1039900003FB046393F845203AB12046996B1A6CF7
:1039A000DB6BBDE8F041FFF725BFBDE8F08100BF4C
:1039B0009017001054180010481800105C180010E0
:1039C0008C1700108E170010000007A0040007A03D
:1039D000080007A0350007A0390007A0000008A0D4
:1039E000040008A0080008A0350008A0390008A0BD
:1039F0000120FFF791BF0020FFF78EBF0020704726
:103A000000207047012810B5044608D91148124A11
:103A10004FF45871234601F05BFFFE2017E00F4B77
:103A20005C2202FB0033DB6A23B90A480C4A40F2ED
:103A3000653108E00B4B185C02F0E8FD38B1054831
:103A4000094A40F26D31234601F042FFFF2040B2A7
:103A500010BD00BFDC260208671E02089017001088
:103A60009D1E020889140208D71E0208012810B5FD
:103A7000044608D91148124A40F27F31234601F02A
:103A800027FFFE2017E00F4B5C2202FB0033DB6BAD
:103A900023B90A480C4A4FF4617108E00B4B185CDB
:103AA00002F0A4FD38B10548094A4FF4637123467A
:103AB00001F00EFFFF2040B210BD00BFFB26020840
:103AC000201F020890170010561F02084627020800
:103AD000901F0208012808B5034607D90E480F4A6F
:103AE0004FF46C7101F0F4FEFE2012E0012208B9DF
:103AF0000B4900E00B490A700B4A5C2101FB0323D0
:103B0000002093F8261083F84A0041F0080183F85A
:103B1000261040B208BD00BF8D260208DD1F020836
:103B2000340007A0340008A090170010012808B541
:103B3000034607D90D480E4A40F2CA3101F0C8FECB
:103B4000FE2010E0012208B90A4900E00A490A7083
:103B50000A4A5C2101FB0323002093F8262042F04F
:103B6000040283F8262040B208BD00BF8B1402086F
:103B700009200208380007A0380008A0901700109C
:103B8000012810B5044608D91048114A40F2E33123
:103B9000234601F09DFEFE2016E020B9FFF70CFB46
:103BA0000C4B1C7005E00120FFF706FB0A4B0022BE
:103BB0001A700A4B5C2202FB0434002094F8263071
:103BC00003F0F70384F8263040B210BDC626020881
:103BD00035200208340007A0340008A09017001018
:103BE000012808B5034607D90D480E4A40F20241A4
:103BF00001F06EFEFE2011E010B90B4A107002E0D9
:103C00000A4A002111700A4A5C2101FB03230020AB
:103C100093F8262002F0FB0283F8262040B208BD6C
:103C20006527020862200208380007A0380008A0B3
:103C300090170010F8B5044640F219413048314A57
:103C4000234601F045FE012C08D92D482E4A40F2AA
:103C50001B41234601F03CFEFE204EE02B4D2C4E36
:103C60005C2000FB04502F4600F0AAFA294DF4B95D
:103C70002B7853B90A2004F099FB01232048264AE7
:103C80002B7040F2264101F053FE30780DF000FB1E
:103C9000224B234900221A70DA70DA7101230B706B
:103CA0000A70204A1370537002F8013C1EE02B5D2D
:103CB00053B90B2004F07AFB012311481A4A6B70A8
:103CC00040F23C4101F034FE305D0DF0E1FA174B5B
:103CD000174900221A70DA71DA7001230B700A702A
:103CE000144A137002F8013C02F8023C5C2505FB03
:103CF0000474012384F84930002040B2F8BD00BFAD
:103D00002A2702088F200208AA2002089017001014
:103D10005326020850180010DC200208330007A0C8
:103D20000C0007A0310007A0FD200208330008A006
:103D30000C0008A0320008A00128F7B5044608D9F5
:103D40003C483D4A40F25E41234601F0C1FDFE2061
:103D50006CE03A4E5C2303FB006393F826100129C4
:103D60000AD093F8263000933248354A40F2634136
:103D7000234601F0ADFD56E093F84930002B52D0B8
:103D8000304D314FE8B92B784BB10A2004F015FBC8
:103D900028482E4A2C704FF48E6101F0C9FD2C4A40
:103DA0002C493878002353702B4A1370937053704A
:103DB00001220A700B70294B1A701A7103F8032C38
:103DC00021E02B5C53B10B2004F0F7FA00231948D3
:103DD000234A2B5540F2874101F0AAFD5C2202FBE9
:103DE0000462002382F849301E4A1F491370937001
:103DF000537001220A700B701C4B385D1A7003F867
:103E0000042C03F8072C0DF013FA5C2303FB046465
:103E100094F849504DB994F8250010F0FB0005D0F6
:103E200000F0AEF901E0FF2000E0002040B203B056
:103E3000F0BD00BF482702081E210208901700109D
:103E40005121020850180010532602087B21020855
:103E5000D81700100C0007A0300007A0360007A0FC
:103E60009C210208300008A00C0008A03A0008A01D
:103E7000012838B5044608D91548164A40F2B4411D
:103E8000234601F025FDFE201FE0134B5C2505FBBA
:103E90000035EB6C23B90E48104A40F2B9410BE0F3
:103EA00030352B7983B90E4B185C02F0FBFA40B128
:103EB00007480C4A40F2C241234601F009FDFF20A9
:103EC00003E001232B7100E0002040B238BD00BFA9
:103ED00076130208BD21020890170010F72102088E
:103EE0008914020840220208012838B5044608D97E
:103EF0001348144A40F2D641234601F0E9FCFE2063
:103F00001CE0114B5C2505FB0035EB6C23B90C481C
:103F10000E4A40F2DB410BE03035287970B10C4B92
:103F2000185D02F003FB40B105480A4A40F2E34144
:103F3000234601F0CDFCFF2000E0287140B238BDDF
:103F4000692602088622020890170010C122020882
:103F5000891402080B23020870B5134B0C785C22FD
:103F600002FB04321E4692F84A20C2B10CB90F4B34
:103F700000E00F4B1D68B5B9CB6C496D0520984723
:103F80005C2303FB04630B4A83F84A50105D196CF1
:103F900002F0E8FA2046BDE87040FFF7A5BFCB6C01
:103FA000496D0320984770BD90170010380702A094
:103FB000380902A089140208012838B5044608D936
:103FC0001548164A40F2F741234601F081FCFE20D5
:103FD0001FE0134B5C2505FB00352B6D23B90E4804
:103FE000104A40F2FC410BE040352B7983B90E4B6F
:103FF000185C02F057FA40B107480C4A40F20451ED
:10400000234601F065FCFF2003E001232B7100E053
:10401000002040B238BD00BFDC1302085323020861
:10402000901700108D23020846270208D6230208A5
:10403000012838B5044608D91348144A4FF4A3613F
:10404000234601F045FCFE201CE0114B5C2505FBDE
:1040500000352B6D23B90C480E4A40F21D510BE080
:104060004035287970B10C4B185D02F05FFA40B111
:1040700005480A4A40F22551234601F029FCFF2059
:1040800000E0287140B238BD251402081C24020843
:10409000901700105724020846270208A12402089E
:1040A000012810B51346044604D91248124A40F2BA
:1040B000495104E041B90F48104A40F24E5123469D
:1040C00001F006FCFE2013E00D4A5C2000FB0422F8
:1040D00053650C4BD164185D0B4902F0A9FA38B155
:1040E00004480A4A4FF4AB61234601F0F1FBFF207C
:1040F00040B210BD63140208E9240208202502081A
:104100009017001089140208593F01085A25020827
:10411000012810B51346044604D91248124A40F249
:10412000755104E041B90F48104A40F27A512346D4
:1041300001F0CEFBFE2013E00D4A5C2000FB0422C0
:1041400093650C4B1165185D0B4902F071FA38B19B
:1041500004480A4A40F28451234601F0B9FBFF208B
:1041600040B210BDFF1302089E250208D5250208A3
:104170009017001046270208FD3001080F2602089C
:1041800070B50C4E33789BB10B4B0C4C01251D6068
:1041900028460DF01DF8236823F008032360284605
:1041A0000DF016F8236843F4803323600023337046
:1041B00070BD00BF6C180010800A05A2A00A05A2FD
:1041C0002DE9F04790F8252003780446724812B98B
:1041D0004621724A0AE0724E724A4A2101F0A8FB57
:1041E00033783BB16C48704A23784C21BDE8F047E6
:1041F00001F09EBB6D4B1B78012B94F8253040F0ED
:10420000FD80012B40D16448694A2378DFF8E891AA
:10421000DFF8D881674F684D552101F089FB674A67
:1042200044F21F43C9F80030136047F22033C8F846
:1042300000304FF0F0533B604FF43C532B601420A0
:104240000CF0C6FF44F21E43C9F800305C4B2B60F3
:104250005C4B1A689007FBD52A221A605A4B2B60D8
:104260005A4B3B6001200CF0B3FF594B2B600120EF
:104270000CF0AEFF4FF20233C8F800304FF23803B3
:104280002B6014200CF0A4FF94F82530022B45D1AC
:104290004148504A2378DFF86091DFF85081454F5C
:1042A000454D6F2101F044FB44F21D43C9F8003035
:1042B000424B4DF661021A6047F20233C8F80030F3
:1042C00003F1E15303F5F71303F5CC733B604FF4AF
:1042D00000332B6014200CF07BFF44F21C43C9F820
:1042E00000303D4B2B60374B1A689107FBD52A22D3
:1042F0001A603A4B2B603A4B3B6001200CF068FF90
:10430000384B2B6001200CF063FF4FF20233C8F8EA
:10431000003038232B6014200CF05AFF94F825301D
:10432000032B40F0388123781B482F4ADFF8C880E0
:104330002E4F204D204C892101F0FAFA40F23543EE
:10434000C8F800301D4B4CF661021A6047F2023388
:104350003B60274B2B604FF43C33236014200CF060
:1043600037FF40F23443C8F80030154B2360154B3B
:104370001A689207FBD52A221A60134B23601D4B43
:104380002B6001200CF024FF114B236001200CF066
:104390001FFF4FF20233F7E0682C02088D27020856
:1043A0006C180010A0270208B4270208A30202A27A
:1043B000D82702088C0A05A2A00A05A2840A05A231
:1043C00008F00200900A05A218F002000100001E89
:1043D00038F0020006280208080002001800020057
:1043E0009B543F1C3800020038280208880A05A2A6
:1043F000542FCA19552FCA19800A05A2012B41D181
:104400006748684A2378DFF8E091DFF8D081664F8B
:10441000664DA42101F08CFA44F21343C9F8003030
:10442000634B46F661021A6047F20333C8F8003066
:10443000604B3B604FF43C532B6014200CF0C8FEE3
:1044400044F21243C9F800305B4B2B605B4B1A6897
:104450009007FBD52A221A60574B2B60584B3B60C4
:1044600001200CF0B5FE574B2B6001200CF0B0FE84
:104470004FF20333C8F800304FF238032B6014209A
:104480000CF0A6FE94F82530022B41D144484E4A48
:104490002378DFF85491DFF84481434F434DBE2128
:1044A00001F046FA44F21143C9F80030404B45F69A
:1044B00061021A6047F20333C8F80030434B3B6097
:1044C0004FF43C332B6014200CF082FE44F2104376
:1044D000C9F80030384B2B60384B1A689107FBD570
:1044E0002A221A603A4B2B603A4B3B6001200CF0B9
:1044F0006FFE344B2B6001200CF06AFE4FF202334A
:10450000C8F800304FF238032B6014200CF060FE26
:1045100094F82530032B3ED1237821482E4ADFF82A
:10452000C8802E4F204D214CD82101F001FA40F2D5
:104530002343C8F800301E4B45F661021A6047F26B
:1045400003333B60264B2B604FF43C332360142035
:104550000CF03EFE40F22243C8F80030164B2360B8
:10456000164B1A689207FBD52A221A60184B236053
:104570001C4B2B6001200CF02BFE124B2360012002
:104580000CF026FE4FF203333B604FF238032360FA
:1045900014200CF01DFE01233370BDE8F08700BF2E
:1045A000682C02086B2802088C0A05A2A00A05A242
:1045B000840A05A2CCCCCC1208F00200900A05A215
:1045C000CDCCCC1238F0020098280208302AA9116C
:1045D00018F00200312AA911C9280208880A05A288
:1045E0005C3810105D381010800A05A210B500214B
:1045F00004465C2208F0D0FC05230422082184F83C
:10460000243084F82520002301222370E3622363F1
:10461000E363236423776377A377E27784F820301A
:1046200062712171A3602373637362742174636187
:104630002376637610BD00002DE9F04190F8244008
:104640000378042C21D8DFE804F0171A20031000A7
:104650002BB9864A116841F0004111600DE0844A8F
:10466000116841F0004111600FE073B97F4A116891
:1046700041F00041116003E03BB97E4A01E023B9FB
:104680007D4A7E490A607E490A60077F90F811C022
:1046900090F820E0067E057B002B40F0998073495E
:1046A000764A774B3FB9176827F0040717601F68F1
:1046B00027F004070AE00F6847F071670F6017687A
:1046C00047F0040717601F6847F004071F60BCF13C
:1046D000000F03D10F6847F480770F60BEF1010F20
:1046E00003D10F6847F400770F60012E03D10E68E5
:1046F00046F080060E60012D03D11D6845F000458F
:104700001D60012C01D0042C2FD1447F3CB11568D1
:1047100045F0005515601D6845F000551D60857F0A
:10472000DDB1012D15680BD145F4005616601E68E9
:10473000012C46F400561E600FD145F402550AE0E4
:1047400045F4804616601E68012C46F480461E60C3
:1047500003D145F48145494C2560806814684004C4
:10476000044314601C6820431860464E0968316099
:10477000454D12682A60454C1B6823604448454AF1
:104780004FF4C77101F0D4F833684148424A40F20F
:104790008F1101F0CDF82B683D48404A4FF4C871A5
:1047A00001F0C6F823683A483D4A40F2911101F001
:1047B000BFF83C4B36481B783B4A4FF4C97101F0B7
:1047C000B7F83A4B32481B78394A40F29311B0E0BF
:1047D0002749BCF1000F03D10B6843F480730B60D1
:1047E000BEF1010F03D10B6843F400730B60012E7F
:1047F00003D10B6843F080030B60012D2D4B03D1D7
:104800001A6842F000421A60827F012A2A4A07D1C0
:10481000146844F0020414601C6844F002041C6034
:10482000C07F0228106814D140F4C02047B940F07E
:104830008B001060186840F4D02040F00B0045E079
:1048400040F08F001060186840F4D02040F00F0056
:104850003CE040F400308FBB40F009001060186865
:1048600040F4203040F0090030E000BF7418001020
:1048700078180010098000082180000864180010D2
:104880007C180010000007A0040007A0080007A083
:104890007B270208FB280208152902082D29020897
:1048A00041290208350007A055290208390007A050
:1048B00080290208681800107018001040F00D00E0
:1048C0001060186840F4203040F00D001B4E09685D
:1048D00018601B4C3160126822601A4D1B682B60F7
:1048E00019481A4A40F2CD1101F022F833681648EF
:1048F000174A4FF4E77101F01BF82B681248154A6C
:1049000040F2CF1101F014F823680F48124A4FF417
:10491000E87101F00DF8114B0B481B78104A40F27A
:10492000D11101F005F80F4B07481B780E4A4FF4E0
:10493000E971BDE8F04100F0FBBF00BF000008A036
:10494000040008A0080008A07B270208AA29020882
:10495000C3290208DC290208F1290208350008A051
:10496000062A0208390008A0332A020870B5054655
:104970000E460C2900F2C280DFE801F0070F182173
:104980002A333C454E57606976005E485E4A4FF4D4
:10499000EF7100F0CDFF002306E05A485B4A4FF468
:1049A000F27100F0C5FF01231C4672E05548584AD9
:1049B0004FF4F57100F0BCFF0224002369E0514878
:1049C000544A4FF4F87100F0B3FF0424002360E070
:1049D0004C48514A4FF4FB7100F0AAFF0524012313
:1049E00057E048484D4A4FF4FE7100F0A1FF0624FD
:1049F00000234EE043484A4A40F2022100F098FF6B
:104A00000824002345E03F48464A4FF4027100F075
:104A10008FFF092401233CE03A48434A40F20E212B
:104A200000F086FF0A24002333E036483F4A4FF463
:104A3000057100F07DFF0B2401232AE031483C4A38
:104A400040F21A2100F074FF0C24002321E02D48CD
:104A5000384A4FF4087100F06BFFAB7F022B13D183
:104A6000284840F222210BE02648334A40F22B210D
:104A700000F05EFFAB7F022B09D1224840F22D21CE
:104A80002E4A00F025FF39E001230D2401E0002328
:104A90000E242A782E712E744AB9294B294919609F
:104AA00085F825201748284A40F2412114E0274A7A
:104AB0004BB9274B1360022385F825301148254A4E
:104AC00040F2562108E0244B13600E48234A03238A
:104AD00085F8253040F25A2100F02AFF95F825305C
:104AE0000BB144F01004287818B91D4B1C701C71D0
:104AF00005E01C4B00201C701C7100E0FE2040B241
:104B000070BD00BF5A2C02085F2A0208782A0208EA
:104B1000962A0208B02A0208CA2A0208E72A0208CE
:104B2000012B02081B2B0208372B0208512B02080D
:104B30006D2B0208872B0208D82B0208A42B020831
:104B4000741800102800082AF32B020878180010A7
:104B500028000400112C020828000410352C02083B
:104B6000350007A0350008A0F7B5264B1B5C022BCB
:104B700005460F4602D02448932111E0234B012122
:104B800053F8206000F048FD044617B1304600F0AD
:104B900083FE204601A901F029FD28B11A48A02171
:104BA0001B4A1C4B08F0B2F9019B4BB31A4B53F84C
:104BB000356003EBC5035F6816B91348AA21EFE718
:104BC000204601F0B3FC39460120B047204601F0F1
:104BD00069FC204601A901F009FD10B10A48B42181
:104BE000DEE70E4B1C2202FB0535019B6A699342EE
:104BF00006D3204601F09AFC10B10348BA21CFE752
:104C000003B0F0BDA2180010FC2C0208182E0208F8
:104C1000522D0208724D020884180010A8180010C6
:104C20002DE9F341374B1E5CF6B2022E04460F46C7
:104C300002D03548D52112E0002100F0EDFC0546F8
:104C4000002F2ED0314B1A5D42BB0CF0E9FA01A9BE
:104C50000646284601F0DAFC28B12B48E0212C4A10
:104C60002C4B08F053F92C4B1C2202FB04335A68DE
:104C7000019B9A420ED1294B1A5D1F4652B1284B17
:104C80001D5D284603F0A0FB10B1284603F095FBFC
:104C900000233B5530460CF0B3FA30E000221A55A1
:104CA0002DE0204B53F8347003EBC403D3F8048099
:104CB00017B91548F721D2E701F038FC41463046D4
:104CC000B847284601F0EEFB284601A901F09EFCFA
:104CD00018B10D4840F20111C1E70F4B1C2202FB35
:104CE0000434A3686268D21A019B934207D3284612
:104CF00001F01CFC18B1044840F20911AFE702B002
:104D0000BDE8F081A2180010FC2C02089C180010CD
:104D10008B2C0208724D0208A8180010FC18001015
:104D2000CB2C0208841800100B78487813B10021AE
:104D3000FFF71ABF1946FFF773BF0000114B70B59C
:104D400053F820400546204600F09EFD0646C0B9B7
:104D50002046012100F036FD3146204600F032FDAC
:104D6000094A52F8353002EBC505696833B907487E
:104D7000074A084B40F21F1108F0C8F84FF0FF3007
:104D8000984770BD182E020884180010FC2C0208E9
:104D9000CE2C0208724D02080228F8B505460C46D2
:104DA00076D80B780C2B0BD84B78032B08D88B7844
:104DB000012B05D8CB78022B8CBF0023012300E008
:104DC0000023002B64D00CF02BFA33494B5D0746CF
:104DD0001BB10CF015FAFD205BE0304A1378104649
:104DE0009BB92F4E00229A552E4ECA549A552E4EDC
:104DF0009A552E4E06EBC30ECEF8042046F833200B
:104E00000133032BEDD101230370294B227803F8E2
:104E1000252003EB850362785A70A2789A70E278B5
:104E2000DA70384601234B550CF0EAF9214B585DF6
:104E30000CF02EFA064630B11F48204A204B4FF4A2
:104E4000FD7108F063F81F4B53F82550284600F019
:104E500025FD22781C4B284653F8221000F014FC44
:104E6000E3786178A278284600F06AFC284600F0D2
:104E700099FC284600F09CFC05201449324603F0BA
:104E8000EDF805201249324603F020F9304600E0E3
:104E9000FC2040B2F8BD00BFA2180010831800101B
:104EA000801800109C180010FC18001084180010C6
:104EB00014190010122E0208FC2C0208AC2D020856
:104EC000724D0208182E0208782D0208B14F010811
:104ED0003555010802282DE9F041044654D82D4FDC
:104EE0003B5C002B52D02C4B53F82080404600F006
:104EF000EBFC3B5D022B2CD10021204600F08CFB0B
:104F000001210646204600F087FB0546304601F0A9
:104F10000DFB08B1FF203AE0284601F007FB00280E
:104F2000F8D1304601F010FB0028F3D1284601F0FB
:104F30000BFB0028EED1304601F032FA0028E9D10F
:104F4000284601F02DFA0028E4D1144B185700F040
:104F50004FFD404600F0A2FC114B185D0CF068F9C3
:104F600005460028D6D10CF05BF90E4B3D5543F8B1
:104F7000345003EBC4035D600B4B1D550B4B1D55AB
:104F80000CF03EF9284602E0FC2000E0FE2040B292
:104F9000BDE8F081A2180010182E0208D52D0208D5
:104FA000122E0208841800109C180010801800109F
:104FB0002DE9F74F00252C46174F3B5DE0B213B3A8
:104FC000164E3A5DDFF8609006EB05085FFA82FB4B
:104FD000D8F80430AA5914F809A001920093FFF7F9
:104FE00079FF07F804B0019A009BAA5104F809A0C0
:104FF000C8F804300A4B185700F00AFD094B00307E
:1050000018BF0120E0540134032C05F10805D3D169
:1050100003B0BDE8F08F00BFA21800108418001084
:10502000D52D02089F1800108018001002282DE9C5
:10503000F34105460F46164644D8002942D0002ABF
:1050400040D0234B1B5C022B3CD1224C0CF0E8F8E7
:10505000635D80462BB9204B585D03F0A7F901230F
:10506000635540460CF0CCF82846002100F0D4FAF5
:1050700001A9054601F0CAFA18B1184840F2A12169
:1050800011E0019CA64228BF2646044600E00134F8
:10509000B4420CD02846395D01F08AFA0028F6D0D7
:1050A0000E4840F2AD210E4A0E4B07F02FFF019B38
:1050B0009C4209D1284601F0F5F928B107484FF480
:1050C0002E71F0E7002000E0204602B0BDE8F0813C
:1050D000A2180010FC180010CB2C0208FC2C0208AF
:1050E0009D2C0208724D02080228F7B50D461446A1
:1050F00035D8002933D0002A33D01B4A135C022B49
:105100002DD1012100F088FA01A9064601F06EFABE
:1051100018B1164840F2123112E0019B9C4234BF94
:1051200027461F46044600E00134BC420CD03046FE
:10513000291901F04BFA0028F6D00C4840F21E3134
:105140000B4A0C4B07F0E2FE019B9C4209D1304612
:1051500001F0A8F928B1054840F22931F0E7002014
:1051600000E0204603B0F0BDA2180010FC2C02089D
:10517000762C0208724D020802282DE9F74F0446EA
:105180008946924600F2A480002900F0A1800CF02C
:1051900047F8524B1E5DF6B2012E05469B4603D0E2
:1051A0000CF02EF8FE2094E00021204600F034FAA6
:1051B00031468046204600F02FFA494B43F83490A0
:1051C00003EBC403DFF83C91C3F804A009EB840AA5
:1051D0006300514607464046019300F033FA4046CB
:1051E0004049524601F024FA019B30B128460CF0A8
:1051F00007F83D4840F2763112E0013309EB4309EC
:105200003846494600F01EFA384636494A4601F00B
:105210000FFA48B128460BF0F3FF334840F27D31D6
:10522000324A334B07F072FEDFF8DCA031491AF93D
:10523000040000F0FDFB014630B128460BF0E0FF12
:10524000294840F28331EBE72B4B204653F824707A
:1052500000F0E2F931468146204600F0DDF9804653
:10526000384600F0A8FA254B38461E5500F0A6FA3D
:105270001AF9040000F0ACFB484601F013F918B12C
:10528000194840F2433116E0404601F00BF918B1DD
:1052900015484FF452710EE0484601F013F918B169
:1052A000114840F24D3106E0404601F00BF920B1C3
:1052B0000D4840F25231124AB3E7384600F0DEF9A9
:1052C000022328460BF804300BF09AFF002000E080
:1052D000FC2040B203B0BDE8F08F00BFA218001060
:1052E00084180010294D0108FC2C0208E12C02084A
:1052F000724D020811580108182E02089C1800105F
:10530000AF2C0208FF180010D52D0208022807B59F
:1053100013D80C4A135C022B0FD1012100F07CF949
:1053200001A901F063F930B10748084A084B40F27F
:10533000B93107F0EBFD019800E0002003B05DF803
:1053400004FB00BFA2180010FC2C02082D2D02083F
:10535000724D0208022810B504460CD8084B1B5C9D
:105360005BB1084B53F8200000F009FA064B02220B
:105370001A55002002E0FC2000E0FE2040B210BDE3
:10538000A2180010182E02088018001002282DE91B
:10539000F0410446884617461E4614D80D48005D65
:1053A00098B10D480D4D50F8240000F0F1F90C4B68
:1053B00001221A5504EB4404281905F804804770AB
:1053C0008670002002E0FC2000E0FE2040B2BDE834
:1053D000F08100BFA2180010182E02080B1900104F
:1053E000801800100228F7B505460C4600F28F80A1
:1053F0000B68002B00F08B80CB68002B00F08780BF
:105400004A68464B9A4200F28280896899427ED867
:1054100091427CD822699A4279D86069984276D8BC
:10542000A169994273D8904271D891426FD83C4B90
:105430005E5DF6B2012E6CD10021284600F0ECF83A
:1054400031460746284600F0E7F80646384600F0A1
:10545000FBFE18B133484FF486610BE023680093DC
:10546000384663680193694600F0F2FF30B12D4879
:1054700040F237412C4A2D4B07F048FD3846A168D1
:1054800001F070F818B1274840F23C41F2E730468D
:1054900000F0DAFE18B1234840F24241EAE7E3683F
:1054A0000093304623690193694600F0D1FF18B19B
:1054B0001C4840F24941DDE73046616901F052F88D
:1054C00018B1184840F24E41D4E73046A16901F0C6
:1054D0005DF8064618B1134840F25341CAE70BF095
:1054E0009FFE1C23124A21685D4353195151626883
:1054F0005A60A2689A60A2699A61E268DA602269D9
:105500001A6162695A610BF07BFE304602E0FC20B2
:1055100000E0FE2040B203B0F0BD00BFFFFF01007D
:10552000A2180010FC2C0208672D0208724D020818
:10553000A81800102DE9F84300252E462C462C4BC8
:105540001A5DE7B202F0FF0932B12A49002238465B
:1055500031441A55FFF720FC274BE35C012B19D18E
:10556000DFF8B080254B18F80510F05800F002F96C
:10557000204B2348F35C90FBF3F001300BF028FE46
:1055800008EB050338465A7818F805109B78FFF7A2
:10559000FDFE04E0022B02D13846FFF7DBFEB9F135
:1055A000020F0FD1174B1C2101FB04313846FFF7C6
:1055B00019FF154B03EBC402384653F834105268F8
:1055C000FFF7DAFD114BE75C384602F0FDFE28B12B
:1055D0000F4BE35C13B1384602F0EFFE0134032CAD
:1055E00006F1040605F10305A9D1BDE8F88300BF63
:1055F000A21800101419001080180010182E0208AC
:10560000001BB700A818001084180010CB2C02084B
:105610009F1800100B19001001280CD006D3022887
:105620000ED100290CBF0A200B20704700290CBFA7
:105630000E200F20704700290CBF0C200D20704752
:105640000F2070470A38052817D8DFE800F0120944
:105650000E070B0301230B7000230DE0012302E072
:10566000012307E000230B7006E000230B700123E9
:1056700002E000230B7002234B707047012380F877
:10568000513080F850307047F0B5294D06460F462E
:105690000FCD8BB06C460FC40FCD0FC495E803003F
:1056A00000233364A3F58063B36584E8030001F04D
:1056B0002DFC204B204A00280CBF104618460A2219
:1056C000390202FB00F4B0FBF1F3B4FBF1F1B1FBE2
:1056D000F2F502FB151202B903B9013307FB03F11E
:1056E000B0FBF1F2B2F5807F394401D90133F7E71D
:1056F0000321716399B2B160911E4908013A42EAEF
:1057000001227B43B263B4FBF3F30A22B3FBF2F151
:1057100002FB11330AAA02EB830353F8283CB3655A
:10572000064B9F4284BF122373640BB0F0BD00BFD1
:10573000A012020880BA8C01002D3101BFC62D00D5
:10574000032910B59ABF0A4C615C0321012A08BFE6
:1057500041F00401012B03D005D3022B05D002E058
:1057600041F0080101E041F02001017710BD00BFC8
:10577000D12D0208836A9B06FCD5416070476FF00B
:10578000FF038364012380F82030032343767047AE
:1057900043F4807342EA0122426283640323037666
:1057A00070470000014B4361704700BF01080101D1
:1057B0000123C364704701230373704703234373BA
:1057C00070470000034B044A00290CBF11461946DC
:1057D0004161704701090100010900010369DA070D
:1057E00011D403F03F03062B06D00C2B0DD0022B57
:1057F0000CBF052000207047836A13F0100F0CBF08
:1058000001200320704700207047022070470000ED
:10581000082838B504D009280CBF0224002400E071
:105820000124144B53F824502846FFF7D7FF0528CE
:1058300018D8DFE800F01D09030E1D1120460121D4
:10584000BDE83840FFF790B92046BDE83840FFF783
:1058500075BA094B6B6138BD20460121BDE838405F
:10586000FFF7DEB90548064A064BF22107F04EFB6A
:1058700038BD00BF182E020801090100D82D02080A
:10588000BA2D0208724D0208836A13F00E0F14BF7E
:1058900000206FF000007047036D70470023C36164
:1058A00043628360C360436183610362C362436395
:1058B00083630364036343648364C3640365436570
:1058C00083650366C3657047836A5B06FCD57047D2
:1058D0000CB430B585B008AB054653F8044B0393C0
:1058E0000A460193009405482946032305F0D6FC97
:1058F00005B0BDE8304002B0704700BFD8140010BA
:105900000CB430B585B008AB054653F8044B03938F
:105910000A460193009405482946022305F0BEFC7F
:1059200005B0BDE8304002B0704700BFD814001089
:105930000CB430B585B008AB054653F8044B03935F
:105940000A460193009405482946012305F0A6FC68
:1059500005B0BDE8304002B0704700BFD814001059
:1059600007B5144A13681146FBB9134A52F82320AD
:105970001F2A0DD900921F2201921048104A6C2153
:10598000FFF7D6FF0F48104A104B6D2107F0BEFA03
:10599000D200D0B203F1604202F561420133202B04
:1059A00082F80003E1D101230B60002003B05DF811
:1059B00004FB00BF20190010382E0208282E020810
:1059C000B82E0208D22E0208032F0208724D0208D8
:1059D000C0B21F2806D8012303FA00F0034B186059
:1059E000002000E0FD2040B2704700BF00E100E071
:1059F000C0B21F2807D8012303FA00F0034BC3F8F5
:105A00008000002000E0FD2040B2704700E100E08F
:105A1000C0B21F2807D8012303FA00F0034BC3F8D4
:105A20000001002000E0FD2040B2704700E100E0EE
:105A300070B5C6B21F2E04460D4613D891B10BF0B7
:105A4000EFFB012303FA06F6084BC3F88061084B0D
:105A500043F8345003EBC404002565600BF0D0FB21
:105A6000284600E0FE2040B270BD00BF00E100E02B
:105A70002419001010B504460BF0D2FB2060002062
:105A800010BD08B50BF0BCFB002008BDD1F8AC3050
:105A9000022010B55870082098700420D8703C205F
:105AA000187180205871012260201A70D871D1F8C5
:105AB000B0002B23C373D1F8B0004373D1F8B0000A
:105AC0002F248473D1F8B0000524C472D1F8B0003B
:105AD0000273D1F8B0205374162381F8C030B1F8A6
:105AE000C230B3F5C15F07D1D1F8B03075229A70DA
:105AF000D1F8B0307A22DA70B1F8C230B3F5B15FC4
:105B000007D1D1F8B03075229A70D1F8B0307A222E
:105B1000DA70024BC1F8D430002010BDD90E00104D
:105B2000D1F8AC30022210B501205A703C248022FA
:105B30009A70DA7018705A711C71D1F8B0309F22C7
:105B40009A72D1F8B0203523D373D1F8B0205373B3
:105B5000D1F8B0300522DA72D1F8B0301873D1F82C
:105B6000B03075229A70D1F8B0307A22DA701623EC
:105B700081F8C030024BC1F8D430002010BD00BF06
:105B80004903001038B5304B0360304B4360304B55
:105B90008360304BC360304B0361304B4361304B0B
:105BA0008361304BC361304B0362304B036300258C
:105BB0002F4B836345628562C56245630C4600F0E6
:105BC0003BF9B0F1807F8CBF0423032384F8C530F8
:105BD000D4F8B0305D74D4F8B030AF229A72D4F8F3
:105BE000B0309F225A72D4F8B03002221A70D4F822
:105BF000B03020229A71D4F8B0305222DA71D4F841
:105C0000B030D8221A72D4F8B030B0229A70D4F8DA
:105C1000B0303022DA70D4F8B03006225A70D4F89E
:105C2000B030B9229A74D4F8B030AB22DA74D4F818
:105C3000B02005231374A4F8B850E560A56025745E
:105C400084F8C030002038BD250A0010E907001094
:105C5000551000101B0D0010990B00104D03001083
:105C6000510900103D080010C50400105303001036
:105C7000CD5C010808B591F8C120EF2A0DD0F82AB3
:105C800011D0C22A13D1D1F8C82042F00402C1F8C1
:105C9000C820BDE80840FFF7F9BED1F8C82042F09F
:105CA0000202C1F8C820BDE80840FFF739BF0BF079
:105CB00097FA0348034A044B40F6030107F026F91C
:105CC000B52F020802300208724D020810B50C46CA
:105CD00021B9D0F8D4309847204610BD01290BD106
:105CE00090F8C120C22A10D143691B68B3F5802FF8
:105CF00014BF0020C22010BD0BF072FA0448054A00
:105D0000054B40F61D1107F001F9002010BD00BF42
:105D1000B52F0208832F0208724D020870B50C4699
:105D2000064678B371B3D1F8B0505DB3D1F8AC503A
:105D300045B34A60A1F8BA30FFF724FFD4F8B03079
:105D4000AF2204F1C1059A72204629460BF038FAB9
:105D500094F8C130013BDBB2FD2B08D9D4F8B03048
:105D60009F229A72204629460BF02AFA04E0284620
:105D700000F00CF80028F1D030462146BDE8704014
:105D8000FFF778BF6FF0770070BD000070B500229C
:105D90000C4B03F1100413441444597C00238B4230
:105DA00004DAE518AE78C55CAE4202D08B4202D16F
:105DB00006E00133F3E70A32322AE9D1002070BD50
:105DC000012070BD7030020873B5154CB4F90000A5
:105DD000002822DA6A4600204FF000610BF0D8F963
:105DE000002210490A23534301F1100018440B44C8
:105DF000597C00238B4205DAC518AE783DF8135064
:105E0000AE4203D08B4203D1228004E00133F1E79C
:105E10000132052AE5D1B4F9000002B070BD00BF1F
:105E2000EC14001070300208024B0A2202FB003012
:105E300010307047703002084FF48000704700F057
:105E400097B870B520F0784000239AB2551C01EB4A
:105E5000C50466683EB154F8084CA04207D351F817
:105E60003540A04203D201EBC201486870BD013346
:105E7000EBE70000014B1968FFF7E3BF241B00109C
:105E8000002350F8082B22B150F8041C01FB023308
:105E9000F7E7184670472DE9F843002706461446F1
:105EA000994600EB01083D4646451FD2304649461B
:105EB000FFF7C7FFEA002FB92244012344F8350059
:105EC000536010E054F83510884204EB020302D10D
:105ED0005A68013206E00135092D0AD00832A318AC
:105EE000A05001225A6006440137DDE70020BDE8DA
:105EF000F8830620BDE8F88370B506460D461446C3
:105F000010460021402207F047F8044B304629464E
:105F100022461B68BDE87040FFF7BDBF241B001080
:105F200008B590B9FFF750FF0A4A0028106008DA58
:105F30000BF056F90848094A094B40F2993106F02E
:105F4000E5FFFFF771FF074B1860074B074A1A6020
:105F500008BD00BF481B0010C7300208B43002085B
:105F6000724D0208001D0010281B00102831020885
:105F70002DE9F047DFF8D490DFF8D4A0284C294F62
:105F8000DFF8D0800020FFF7CBFFD9F80030DAF837
:105F900000102548882606FB0131244B4A881A60E8
:105FA000234B01F108021A604831402206F0EBFF52
:105FB000204BC4F8AC30204BC4F8B030FB43DAF8C7
:105FC00000102360D9F800304FF0006206FB013664
:105FD0000025A4F8C6506260404621467368FFF76A
:105FE0009DFE783008D10BF0FBF81448144A154B8D
:105FF00040F2274106F08AFF0B48134EFFF740FF9F
:106000003A46014630602846FFF776FF6761C6F8DA
:106010000480B46086F880502846BDE8F08700BF51
:10602000181C0010D81B0010E41A0010FC1C0010F3
:10603000241B0010D01B00102C1B0010C7300208BE
:1060400003310208724D02084C1B0010281B00107F
:10605000481B0010A81A001010B590F880300446B4
:1060600093B9436880681B6804F10C0198470028C5
:1060700007DA0BF0B5F80548054A064B912106F002
:1060800045FF012384F8803010BD00BFD0330208E3
:1060900007340208724D020810B5074C94F900301D
:1060A000053306D1FFF7CBFE0448FFF7D5FF0023E9
:1060B0002370002010BD00BFB88D00044C1B0010E1
:1060C00008B5FFF7E9FF002008BD000073B5454B98
:1060D00000241B6801941B680193019B9B071AD540
:1060E000414D2B684FF400421A62404A13685168D0
:1060F0006BB1204698473E4B01221A602B689A6983
:1061000022F400429A61204602F057F903E0394830
:106110004FF4866105E0384C002317E0354840F223
:106120004E41364A364B06F0F1FE364A364952F8B1
:10613000232051F8231012680192019A01310120A5
:1061400000FA01F1114207D123680133236023686B
:10615000294D042BE9D917E02C4E56F823204FF493
:10616000004191612A4951F8332001EBC30359687A
:10617000002AD3D0002090472B6856F823301A69A4
:1061800022F400421A61DFE700232B602368092B09
:1061900026D8204A204952F8232051F823101268AB
:1061A0000192019A0131012000FA01F1114213D04C
:1061B0001A4A52F823204FF400411161184951F84E
:1061C000332001EBC303596812B10020904703E06C
:1061D000084840F26641A4E7236801332360D5E70D
:1061E00002B070BDF4140010F81400101C1D001053
:1061F000241D001097340208781D00105334020843
:10620000724D02086015001024150010741500105E
:106210007C1D0010FC14001088150010B015001033
:10622000281D001008B500200BF032F8002814BF1C
:10623000FF20002008BD08B500200AF0F9FF002863
:1062400014BFFF20002008BD70B5841F092C05462F
:106250000FD9FE200BE02B689E7102225A7148492B
:106260000020FFF7E5FB0020FFF7B2FB002040B263
:1062700070BD0AF0D5FF434B5A5D012A0DD142484B
:10628000424A40F259212B46FFF752FB4048414A0F
:10629000414B40F2592106F039FE01265E553F4D33
:1062A0000AF0AEFF55F824200023536055F824204F
:1062B000136055F82420936055F82420D36055F8D6
:1062C0002420D36155F8242013635363FFF7AAFFFA
:1062D000FF2852D0092C50D801A151F824F000BF5A
:1062E0005762010809630108196301082163010865
:1062F00031630108396301084963010851630108EA
:1063000061630108696301086A68102111716A6894
:10631000012191716B68A0E7A9688E71AB689CE759
:10632000EA6810211171EA6801219171EB6894E724
:1063300029698E712B691EE06A69102111716A69E1
:10634000012191716B6916E0A9698E71AB6912E048
:10635000EA6910211171EA6901219171EB690AE082
:10636000296A8E712B6A06E06A6A102111716A6AC5
:10637000012191716B6A002270E7FD2077E700BF71
:10638000CD60010800012004773402083B35020883
:10639000973402088D340208724D0208B0150010BF
:1063A00037B5851F0023092D0446019303D9FE202C
:1063B00040B203B030BD0AF033FF1D4B53F8253017
:1063C0001B6801931B4B019953F825200123551C91
:1063D00003FA05F50D4203D0174840F2C52107E046
:1063E0000199934013EA010506D0134840F2CB21EE
:1063F000124A134B06F08AFD0AF002FF0AF010FF62
:1064000010490B5D53B91048104A40F2D32123467E
:10641000FFF78EFA084840F2D321E9E70D550AF05C
:10642000EFFEFFF708FFFF2814BF0020FD20BFE7A5
:10643000FC14001088150010973402089B350208E0
:10644000724D020800012004813402086A350208F6
:1064500038B5851F092D0C4602D9FE2040B238BD43
:106460000868830703D00B4840F2ED2105E000F0F7
:1064700011FA30B1074840F2F321074A074B06F002
:1064800045FD074B626853F825305A632268DA618C
:10649000E4E700BF9734020868340208724D02082E
:1064A000B01500100638092802D9FE2040B2704706
:1064B000034B53F820300122DA710020F6E700BFC9
:1064C000B015001037B5841F0023092C019303D9A0
:1064D000FE2040B203B030BD0AF0A2FE104B53F8CC
:1064E00024301B6801930F4B019953F8243001228B
:1064F00002FA03F50D4205D1019901339A4012EADF
:10650000010503D00AF07CFEFD20E2E70AF078FEE8
:10651000054B53F824304FF400429A602846D8E7E0
:10652000FC14001088150010B0150010063809285A
:1065300002D9FE2040B27047024B53F820300020B1
:10654000D871F7E7B01500100638092802D9FE20E7
:1065500040B27047024B53F8203000209860F7E7B4
:10656000B01500100638092801D9FE2007E0B1F562
:10657000803F06D2044B53F820300020196040B20F
:106580007047FF20FBE700BFB01500100638092850
:1065900001D9FE2006E03F2906D8044B53F82030ED
:1065A0000020196340B27047FF20FBE7B0150010D0
:1065B0000638092802D9FE2040B27047024B53F832
:1065C000203000201960F7E7381500100638092838
:1065D00002D9FE2040B27047034B53F820301B68AD
:1065E0000B700020F6E700BF3815001006380928A8
:1065F00002D9FE2040B27047034B53F820309B6A0B
:106600000B600020F6E700BFB0150010063809281F
:1066100002D9FE2040B27047044B53F820305A6B29
:106620009B6AD31A0B600020F4E700BFB01500107E
:106630000638092810B502D9FE2040B210BD054B1E
:1066400053F8304024B943F8301003EBC0004260E7
:106650000020F2E7281D0010054B93F812320BB909
:10666000032803D003288CBF00230123184670475A
:10667000AC1D001070B50446FFF7EEFF08B3134AD7
:106680002301D018D35C012B1DD0057B00F1080637
:10669000CDB92946102206F07FFC0AF0D1FD012376
:1066A00033710B4B53F82430DA6822F00102DA60C0
:1066B000084B53F8240001F077FE074B1855284685
:1066C00002E0FE2000E0FD2040B270BDAC8E000470
:1066D000BC8D0004C8350208A41D0010074A537879
:1066E0009B0708D0064B196841F00D0119601B6823
:1066F0001360002000E0FB2040B27047588E000479
:10670000000018E00F2811D80B4B00F5804253F819
:106710002220D2050CD5DA6A012101FA00F01043DB
:10672000D862DA6A054B00201A6002E0FC2000E023
:10673000FF2040B2704700BF000018E0D48D000475
:106740000F2812D80A4B0122D96A824021EA02029C
:10675000DA62DA6A074B1A60074A002342F83030DF
:1067600002EBC0004360184600E0FC2040B27047D6
:10677000000018E0D48D0004D88D000403280FD841
:10678000094B1A6822F440721A601A6842EA002221
:106790001A6000B918601A68044B00201A6000E003
:1067A000FB2040B2704700BF000018E0588E000484
:1067B0000F2810B529D851B30C68C4F30B0313B1DB
:1067C0001448FB2106E04A68C2F30B0232B11148BB
:1067D00040F20111104A114B06F098FB830003F1BF
:1067E000604303F5C8131C6012C921441964196879
:1067F00041F4807119600A491C6841F8304001EB8E
:10680000C0001B6C4360104602E0FC2000E0F92051
:1068100040B210BDE035020812360208724D02087F
:10682000D88D000410B50AF0FBFC154B1A7802F065
:10683000FF041AB10AF0E4FCFA201EE001221A70EB
:106840000AF0DEFC0AF0D4FC0E4B1C60DC620E4B3E
:106850001C600E4B1C6023469A0002F1604202F558
:10686000C812002010601064094A02EBC30142F80C
:1068700033000133102B4860EED140B210BD00BF91
:10688000C01F0010000018E0588E0004D48D0004D2
:10689000D88D000410B5114B1B6813F001031AD0FA
:1068A00000230E4A0121D26A01FA03F414420CD0EB
:1068B0009A0002F1604202F5C812146824F4807450
:1068C000A04202D3126C904203D30133102BE8D1C3
:1068D00001E0084610BD002010BD00BF000018E018
:1068E00010B50446002838D00AF09AFC1C4B1A78E0
:1068F000012A03D10AF084FCFB202FE001221A7048
:106900000AF07EFC174B00225A6022781AB15A68AE
:1069100042F004025A6062781AB15A6842F00202E8
:106920005A605A68104B1A60104A00231360104ACC
:1069300052F833106FF35F1142F8331063F3030121
:10694000C9B241F0100102F8331002EBC302013367
:106950000020082B5060EAD100E0FA2040B210BDC0
:10696000C11F001090ED00E0A08E00045C8E0004BA
:10697000608E0004044B5A6842F001025A605A6863
:10698000024B00201A60704790ED00E0A08E0004DA
:10699000072813D80B4B98601A6942F001021A615C
:1069A0001A69094B03EBC0035A60084B012202FA33
:1069B00000F01A6802431A60002000E0FC2040B298
:1069C000704700BF90ED00E0608E00045C8E000414
:1069D000072814D80B4B98601A6922F001021A613B
:1069E0001A69094B03EBC0035A60084B012202FAF3
:1069F00000F01A6822EA00021A60002000E0FC2081
:106A000040B2704790ED00E0608E00045C8E0004A0
:106A1000072810B53CD800293CD00A79131F1B2B3E
:106A200002D91E48D6210AE00B6801324FF0FF342C
:106A300004FA02F21A40934205D01848DC21184AA1
:106A4000184B06F063FA23F01F03174A43F01003B4
:106A50000343D3600B794C795B0043EA04638C7980
:106A600043EA04231361CB791BB1136943F08053CC
:106A700013610E4B0C6853F83010640964F35F1116
:106A800043F8301003EBC00012694260002002E0BE
:106A9000FC2000E0FA2040B210BD00BF2A360208F8
:106AA0005A360208724D020890ED00E0608E000434
:106AB0000D4B1A78012A194608D10C4B1A680C4B59
:106AC000506B80B21880126B92B25A804B78012BB7
:106AD00008D1064B5A68064B516B89B29980126BEC
:106AE00092B2DA80704700BFC21F00101C39020842
:106AF000108F000410B50E4B1A78012A184609D1E0
:106B00000C4B0D4A1C881168A4B24C635B88126858
:106B10009BB213634378012B09D1064B064A988830
:106B2000516880B24863DB8852689BB2136310BD22
:106B3000C21F0010108F00041C39020870B586B007
:106B400004460E46012003A90AF09AFB0AF068FBEE
:106B5000134B53F82430DB68054613B10AF050FBA1
:106B60001CE004A901200AF08BFB05AA03980499F4
:106B70000AF016FB059B44F62062934228460AD988
:106B80000AF03EFB00960748074A40F2963123463A
:106B9000FEF79EFE02E00AF033FBD7E706B070BDB9
:106BA0001C390208F4380208A3360208012870B51F
:106BB00004460D462ED80B78052B2DD80AF030FB55
:106BC000174B1A5D012A16BF0026FD26012276B258
:106BD00018BF1A550AF014FB033607D11148124AA0
:106BE00095212346FEF774FEFD2016E006200F498E
:106BF000002201F033FA0E490022062001F066FA65
:106C00000C4B185D0AF044FB2046297800F078F818
:106C1000002002E0FE2000E0FF2040B270BD00BF77
:106C2000C21F001073360208BF360208B16A01089D
:106C3000F56A0108473902082DE9F047012888B0B4
:106C400004468A4690461D4648D8002A48D0082B5C
:106C500046D8264E56F820309B6B13F0010908D019
:106C60002348244A4FF484712346FEF731FEFD2069
:106C700037E0214B1F5C384601F098FB56F8243072
:106C800003954FEA4A02C3F80890204603AB062159
:106C900002F0FE02CDF8109000F06AF82A46204675
:106CA000414600F0E9F856F8243001229A630621A3
:106CB0002046FFF743FF204600F0ECF80546384633
:106CC00001F07BFB284665B1094800954FF49771A8
:106CD0000A4A2346FEF7FCFDFC2002E0FE2000E00D
:106CE000FF2040B208B0BDE8F08700BF1C390208A1
:106CF00087360208ED360208F23802080A37020821
:106D0000194B53F82030002270B55A63052912D868
:106D1000DFE801F0030510070A0D01225A63642120
:106D200009E04FF4967106E04FF4C87103E04FF4A8
:106D30007A7100E0C8210D4A52F8205049004819E4
:106D40000122441E461BB4FBF6F4402C03D9013249
:106D5000092A0844F5D1013A013CD2B2E4B283F8E1
:106D6000312083F8304070BD1C390208D81500105E
:106D700030B53F4C54F820003E4C42600122826402
:106D8000C4600024046144610E296FD8DFE801F07B
:106D900008101A25324408101A253244565661004C
:106DA00001B10321016542751B68036282624EE0F6
:106DB00001291CBF032202654FF0010208BF0465D0
:106DC0004274F0E702291CBF032202654FF0010262
:106DD00008BF046542755B68E7E703291CBF03220F
:106DE00002654FF0010208BF0465427442750262F9
:106DF0005B682BE004291CBF032202654FF00102EF
:106E000008BF046502748274C27442751A68026213
:106E1000022282625B6828E005291CBF032202650A
:106E20004FF0010208BF0465427402748274C27498
:106E30004275196801625B68134407E0032101652C
:106E4000427402744275996801621B6983624262EE
:106E500030BD03210165427402748274C2744275AC
:106E60009A6802621A698262DB68436230BD00BFC1
:106E70001C3902080101010030B50023934206D0FD
:106E8000034CCD5C54F8204001332560F6E730BD5B
:106E90001C3902087FB5194B53F82050EA68D10518
:106EA000064607D412F4803426D1012A18BFFC24E8
:106EB0001DD000E0FD24012001A90AF0E1F9EB68F2
:106EC000DB0714D402A901200AF0DAF903AA019819
:106ED00002990AF065F9039B44F620629342EED9C9
:106EE0000748084A4FF49E713346FEF7F1FC064B03
:106EF000EB6060B204B070BDFE24DCE71C39020810
:106F0000493902082439020801010100014B93F8B4
:106F1000D8007047188F000410B50468914024EA27
:106F200001040460016893401943016010BD000032
:106F300010B504462346044801210822FFF7ECFF60
:106F4000024B1C7010BD00BF000006A2C41F001041
:106F50000F4B1A68002A06DA1B680E487F210822A8
:106F6000C3F3066310E0110206D51B6809487F21B0
:106F70000822C3F3064307E0120407D51B6805483F
:106F80007F210822C3F30623FFF7C6BF704700BF67
:106F900030020AA2100006A22DE9F047FFF7B6FF63
:106FA0006F4D04462868C0F34010FFF7C1FF2B68FF
:106FB0006C4913F0200F0A686B4B06D102F47F4234
:106FC0000A601A6802F47F4205E042F00C020A608F
:106FD0001A6842F01D021A60DFF8E8A1DFF8E891B4
:106FE000DFF8E881DFF8E8C1DFF8E8E15F4F604EE5
:106FF000604D61486149624A002C52D0614BCAF829
:107000000030C9F80030C8F80030CCF800305E4BD2
:10701000CEF800305D4B3B605D4B33605D4B2B60C9
:1070200003F5902303605C4B0B605C4B13601C30DA
:107030007F2118223B23FFF76FFF59487F21102241
:107040004223FFF769FF5648FF2108226323FFF719
:1070500063FF53487F2118223523FFF75DFF504817
:107060007F2110223B23FFF757FF4D48FF210822C5
:107070003F23FFF751FF4A487F2100220223FFF7F9
:107080004BFF48487F2110220423FFF745FF454866
:107090007F2108220323FFF73FFF42487F21002280
:1070A00051E0414BCAF80030C9F80030C8F8003050
:1070B000CCF800303D4BCEF80030A3F588333B6070
:1070C0003B4B3360334B2B603A4B03603A4B0B60C6
:1070D0003A4B136032487F2118223B23FFF71CFFF5
:1070E0002F487F2110224223FFF716FF2C48FF2153
:1070F00008225223FFF710FF29487F211822352349
:10710000FFF70AFF26487F2110223B23FFF704FFE9
:107110002348FF2108223F23FFF7FEFE20487F215E
:1071200022460223FFF7F8FE1E487F211022042387
:10713000FFF7F2FE1B487F2108220323FFF7ECFE36
:1071400018487F2122460123FFF7E6FEFFF700FFE4
:107150001B4B1A6842F001021A60BDE8F08700BFBD
:10716000400001A204010FA208010FA2180006A20C
:107170001C0006A2200006A2240006A2280006A2E7
:107180002C0006A25FB20B005F9F06003F8F050038
:107190001F8A04000F0A04001F8F09003F9F0A0086
:1071A000400006A2440006A27FB20B007F9F0600AB
:1071B0003F8A04001F8A08003F8F09007F9F0A0052
:1071C000000006A2040006A2080006A20C0006A207
:1071D000100006A2140006A21D2870B504460D4634
:1071E00016460CD859B10AF01BF8064B43F8345038
:1071F00003EBC40466600AF003F8002000E0FE2000
:1072000040B270BDCC1F00101D2838B504460D4695
:107210003ED80AF005F8024635B91F4B01211B681C
:1072200001FA04F49C660FE0012D05D11A4B1B688E
:1072300005FA04F49C6612E0022D08D1164B0121D8
:107240001B6801FA04F41C67C3F8B04018E0032D72
:1072500008D1114B01211B6801FA04F41C67C3F823
:10726000A8400DE0042D08D10B4B01211B6801FA49
:1072700004F41C67C3F8884002E009F0C1FF07E08E
:10728000104609F0BDFF642009F0A2FF002000E0D5
:10729000FE2040B238BD00BFA88E00041D282DE995
:1072A000F04105460C4623D8084600F0C7F8804652
:1072B00009F0B6FF09F0A4FF0F4E2CB93368403532
:1072C00003EB8505AC7011E03368AD002B4401275A
:1072D0000024C3F800417D2083F8027109F078FF93
:1072E00033681D44C5F8008185F80371204600E02D
:1072F000FE2040B2BDE8F081A88E000470B5174EA4
:10730000336804460D4643B915491320FEF790FB38
:107310001320FEF75DFB012333601D2C1BD8D5B174
:1073200009F07EFF0F4A002342F8343002EBC4021A
:10733000536009F065FF29782046FFF765FF69680B
:1073400006462046FFF7AAFF3043C6B2204600F0AB
:107350006BF8304600E0FE2040B270BDC81F001040
:1073600019750108CC1F00101D2810B504460BD854
:1073700009F056FF064B01221B6802FA04F49C64D4
:1073800009F03EFF002000E0FE2040B210BD00BF2B
:10739000A88E00041D2810B504460BD809F040FF44
:1073A000064B01221B6802FA04F41C6509F028FF51
:1073B000002000E0FE2040B210BD00BFA88E0004F7
:1073C0001D2838B504460FD809F02AFF084B0122C2
:1073D0001B68A24005469A622046FFF7C5FF284673
:1073E00009F00EFF002000E0FE2040B238BD00BFD3
:1073F000A88E00041D2838B504460FD809F010FFE8
:10740000084B01221B68A24005461A632046FFF77D
:10741000C1FF284609F0F4FE002000E0FE2040B243
:1074200038BD00BFA88E0004034B01221B6802FA7E
:1074300000F09860704700BFA88E000440B13E285D
:1074400008D8C00300F5FA704FF47A73B0FBF3F07C
:10745000002356E07D2808D880034FF47A7300F5A6
:10746000FA70B0FBF3F0012345E0FA2808D8400396
:107470004FF47A7300F5FA70B0FBF3F002233AE0B0
:10748000B0F5FA7F08D800034FF47A7300F5FA706C
:10749000B0FBF3F003232EE0B0F57A7F08D8C002EA
:1074A0004FF47A7300F5FA70B0FBF3F0042322E096
:1074B000B0F5FA6F08D880024FF47A7300F5FA70CD
:1074C000B0FBF3F0052316E0B0F57A6F08D8400260
:1074D0004FF47A7300F5FA70B0FBF3F006230AE07C
:1074E000B0F5FA5F14D800024FF47A7300F5FA7021
:1074F000B0FBF3F0072340F2FF72B0F5006F08BF56
:1075000010461B0303F4E04340F4803018437047F7
:1075100040F2FF700723F4E738B50D4B1B681D6878
:10752000ADB100240123A3402B420DD0E0B2FFF700
:1075300047FF2046FFF778FF064A52F83430E10053
:1075400013B10A445068984701341E2CEAD138BD63
:10755000A88E0004CC1F0010044B1A68044B92F84C
:107560007510C90701D5013BF9D17047E01500102E
:10757000EEEE6E00034B1B68012283F87420FFF7C8
:10758000EBBF00BFE015001010B5074C236845F6AF
:107590006A029A66FFF7EEFF236849F236129A668E
:1075A000BDE81040FFF7E6BFE0150010034B1B6875
:1075B0004FF4B0421A60FFF7DDBF00BFE0150010C6
:1075C00070B5124C236841F657221A640E460546E0
:1075D000FFF7C2FF236842F668321A64FFF7BCFF68
:1075E000012E0AD004D3022E0BD123681D6408E0BB
:1075F0002368EDB283F8405003E02368EDB283F8CE
:107600004150BDE87040FFF7A7BF00BFE015001074
:1076100008B5FFF7CBFF024B1B68586C08BD00BFD5
:10762000E015001038B50A4C236841F685225A64EB
:107630000546FFF791FF23684EF2CF725A64FFF7B9
:107640008BFF23685D64BDE83840FFF785BF00BF4E
:10765000E015001070B5124C236841F253629A6431
:107660000E460546FFF778FF236848F618129A641D
:10767000FFF772FF012E0AD004D3022E0BD123682C
:107680009D6408E02368EDB283F8485003E0236866
:10769000EDB283F84950BDE87040FFF75DBF00BF11
:1076A000E015001070B5124C236845F64A52DA64B2
:1076B0000E460546FFF750FF236849F23F42DA6461
:1076C000FFF74AFF012E0AD004D3022E0BD1236804
:1076D000DD6408E02368EDB283F84C5003E02368D2
:1076E000EDB283F84D50BDE87040FFF735BF00BFE5
:1076F000E015001038B50C4C2368022583F834508F
:10770000FFF738FF23680A2283F83420FFF732FF9F
:107710004FF47A7009F05CFD236883F83450FFF76A
:1077200029FF23685B6B38BDE015001038B5124D9A
:107730001820FFF745FE2B6843F602125C681A60BA
:10774000FFF718FFE2070AD52B68FE225A74FFF7ED
:1077500011FF0A4B1B6813B1094A10689847A30729
:1077600005D5084B1B6813B1074A106898471820C5
:10777000BDE83840FFF73EBEE0150010C020001005
:10778000D4200010C4200010CC200010F8B5174CF5
:10779000236815461A6842F440421A6006460120E2
:1077A0000F4609F015FD23685A6812F40042FBD118
:1077B0000F4B47EA06261A601E6023689A6045F45C
:1077C00000421A60C82009F003FD23685A681204B9
:1077D000FCD4084ADB68127801350AB1064800E09B
:1077E00006484543B5FBF3F0F8BD00BFE8150010AF
:1077F000240202A2E415001080BA8C01002D310190
:1078000008B5FFF7D3FE034B1B681868C0F30010E0
:1078100008BD00BFE015001002292DE9F84380469D
:107820000F4600F28A80FF2800F2878098B3FFF7A6
:10783000BDFE444B1B68DE6C012FF4B2C6F3072576
:107840002BD0022F57D00027012101FA07F313EAAA
:10785000080F15D033420AD0FE23C7F1080243FABD
:1078600002F2BB4013431C402046002106E04FF4C7
:107870008072BA40324203D11D432846FFF712FFFF
:107880000137082FE0D1012009F0A2FC6FF00100C0
:107890000121FFF7DFFE002050E038463946FFF7B0
:1078A000D9FE0827C7F10809012303FA09F313EAEF
:1078B000080F1DD033420AD0FE2303FA09F23B41E0
:1078C00013431C4020460021FFF7ECFE05E04FF477
:1078D000807303FA09F333420AD0FE2303FA09F94D
:1078E0003B4149EA03031D4028460121FFF7DAFE28
:1078F000013FD7D1CFE701200146FFF7ABFE0027BC
:10790000012101FA07F919EA080F12D019EA060F46
:107910000FD14FF48073BB40334204D145EA0905CF
:107920002846FFF7BFFE44EA090420460021FFF77E
:10793000B9FE0137082FE3D1ADE7FF2040B2BDE823
:10794000F88300BFE015001010B5244C23685B6875
:10795000FFF756FF224B1870002833D0FFF714FEB4
:1079600023684FF4C8421A60FFF704FE23684CF600
:1079700008021A60FFF7FEFD236843F602121A6040
:10798000FFF7F8FD174B1B789B0611D50020014629
:10799000FFF716FEC82009F01BFC134B1B7813B130
:1079A0002368B82201E0236840221A67FFF7E2FD4E
:1079B0000E480F4A40F29E51FDF7BAFF012000F039
:1079C000D5FA05E009480B4A40F2A251FDF7B0FF95
:1079D000FF200021BDE81040FFF71EBFE01500109A
:1079E000C8200010400001A2A30202A2ED39020843
:1079F000743902088B3902082DE9F0437F4F3B7838
:107A000085B0002B40F0F680FFF7A6FDFFF79CFF46
:107A1000FFF7BAFD7A4B7B481B789C0608D47A4A5C
:107A200040F26721FDF784FF784B01221A7004E0D1
:107A300040F26A21764AFDF77BFF764D2A6892F87C
:107A40007530980704D592F83430D90740F1B480E6
:107A5000536F526B00926B486F4A40F27321FDF7EF
:107A60004FFF6E4B1C78002C31D12B6844F2023250
:107A70001A602B6840F201165A689C604FF48072BD
:107A8000DC601C615C619A61DE611C625C629A620E
:107A90000722DE621C635E639C63DA63FFF76AFDA4
:107AA00002213046FFF78CFD40F60770FFF7BAFD64
:107AB00003202146FFF7CEFD2B688A229C65DC65FA
:107AC0001C665C66DC661C679A67FFF753FD2B68D3
:107AD000504EDFF8549140F201125A63FFF74AFD0D
