:020000040801F1
:10200000DFF8ACD072B635F02DFF2A482A490160BE
:102010002A482B492B4B2C4C2C4A42F8040B42F8F3
:10202000041B42F8043B146000202949204A41F86F
:10203000040B9142FFF4FBAF2649274A274B35F0AA
:102040002BFF2749274A284B35F026FF274A284BE4
:1020500035F02BFF2749284A284B35F01DFF284A29
:10206000284B35F022FF2849284A294B35F014FF28
:10207000284A294B35F019FF2849294A294B35F0C0
:102080000BFF2949294A2A4B35F006FF294A2A4BDA
:1020900035F00BFF29492A4A2A4B35F0FDFE2A4A22
:1020A0002A4B35F002FF35F0CBFE33F005FF7047C9
:1020B00000800104000009A2110000001500201496
:1020C000000020042300001000000000001018E0B1
:1020D00000700104D0E2080800000010D8140010BD
:1020E0001C090908405302004053020040530200FB
:1020F000C0550200A8F70808D81400104C2600109C
:102100005026001038530210240A090800800004E9
:10211000009A0004009A0004C91001041C0909086F
:1021200000002014F0002014140A0908F8002014FC
:10213000F8002014F8002014F8002014140A0908EC
:1021400000012004100120041001200410012004CB
:102150004BB942B9002908BF002802D04FF0FF3127
:10216000084600F03BB882B0EC462DE9005000F084
:102170001DF8DDF804E002B00CBC70472DE9704397
:10218000069E14461D468046894600F029F804FB49
:1021900001F300FB0533A4FB00451D44B8EB040428
:1021A00069EB0505C6E90045BDE870832DE970437C
:1021B000069E1446804689461D4600F05DF900FBE8
:1021C00005F504FB0153A0FB04451D44B8EB0404D2
:1021D00069EB0505C6E90045BDE87083704700BF9F
:1021E00000292DE9F00FC0F29F800024002BC0F2DF
:1021F0009680154606460F46002B3ED18A4257D997
:10220000B2FA82F34BB1C3F1200201FA03F720FACC
:1022100002F29D40174300FA03F6290CB7FBF1F2D6
:10222000330C01FB127CA8B243EA0C4700FB02F31B
:10223000BB4209D97F1902F1FF3C80F00181BB420A
:1022400040F2FE80023A2F44FF1AB7FBF1F3B6B218
:1022500001FB137146EA014100FB03F0884208D9F3
:10226000491903F1FF3780F0ED80884240F2EA809F
:10227000023B43EA0242002303E08B420AD90023D7
:102280001A461046194614B1404261EB4101BDE8BF
:10229000F00F7047B3FA83F8B8F1000F40F0848074
:1022A0008B4202D3824200F2DE8000230122E8E763
:1022B00012B90123B3FBF2F5B5FA85F2002A39D140
:1022C0007F1B280C1FFA85FC0123B7FBF0F1320CB1
:1022D00000FB117742EA07470CFB01F2BA4207D92B
:1022E0007F1901F1FF3802D2BA4200F2C1804146A3
:1022F000BF1AB7FBF0F2B6B200FB127046EA00401C
:102300000CFB02FC844507D9401902F1FF3702D2C9
:10231000844500F2AB803A4642EA0142B1E7E44329
:10232000524263EB430364E7404261EB41014FF0EB
:10233000FF345BE79540C2F1200327FA03F1280C34
:1023400026FA03F39740B1FBF0F81F433B0C00FB68
:1023500018111FFA85FC43EA01410CFB08F38B427C
:1023600006FA02F608D9491908F1FF3279D28B42F0
:1023700077D9A8F102082944C91AB1FBF0F3BFB21A
:1023800000FB131147EA01470CFB03F2BA4207D9DD
:102390007F1903F1FF3160D2BA425ED9023B2F446C
:1023A000BF1A43EA084390E7C8F1200203FA08FC89
:1023B00025FA02F343EA0C0C4FEA1C4921FA02F316
:1023C00001FA08F720FA02F2B3FBF9F1174309FB0F
:1023D00011333A0C1FFA8CFB42EA03430BFB01FA60
:1023E0009A4505FA08F008D913EB0C0301F1FF3206
:1023F00035D29A4533D902396344CAEB0303B3FBA0
:10240000F9F209FB1233BFB247EA03470BFB02F9AB
:10241000B94508D917EB0C0702F1FF331BD2B945B8
:1024200019D9023A674442EA0145A5FB0001C9EB0C
:1024300007078F424FF000030AD305D02A4620E752
:10244000624601E73B4614E706FA08F68642F5D2F3
:102450006A1E002315E71A46E5E70B46A0E711467A
:10246000CBE7904688E7434642460AE7023A53E7FD
:1024700002392F443CE700BF2DE9F00F1446054612
:102480000E46002B43D18A4253D9B2FA82F757B194
:10249000C7F1200620FA06F601FA07F302FA07F45C
:1024A0001E4300FA07F5210CB6FBF1F22B0C01FBE1
:1024B0001267A0B243EA074600FB02F3B34209D910
:1024C000361902F1FF3780F0F680B34240F2F38014
:1024D000023A2644F61AB6FBF1F3ADB201FB1361E2
:1024E00045EA014100FB03F0884208D9091903F1CC
:1024F000FF3680F0E280884240F2DF80023B43EA10
:102500000242002310461946BDE8F00F70478B4287
:102510004AD8B3FA83F6002E4DD18B4202D38242C1
:1025200000F2D6800023012210461946BDE8F00FC4
:10253000704712B90124B4FBF2F4B4FA84F2002A11
:102540007CD1091B260CA7B20123B1FBF6F02A0CA3
:1025500006FB101142EA014107FB00F28A4207D94B
:10256000091900F1FF3C02D28A4200F2C3806046A2
:10257000891AB1FBF6F2ADB206FB121145EA01452C
:1025800007FB02F7AF4208D92C1902F1FF3180F0A6
:102590009680A74240F29380023A42EA00421046F7
:1025A0001946BDE8F00F704700231A461046194639
:1025B000BDE8F00F7047C6F1200522FA05F4B340DC
:1025C0001C434FEA144821FA05F301FA06F720FAF2
:1025D00005F5B3FBF8FC2F4308FB1C333D0C1FFA39
:1025E00084FA45EA03430AFB0CF9994502FA06FB13
:1025F00004D91B190CF1FF326DD39446C9EB0303C8
:10260000B3FBF8F508FB1533BFB247EA03470AFBF3
:1026100005F8B84504D93F1905F1FF3361D31D46CC
:1026200045EA0C4CACFB0B23C8EB07079F424FF06D
:10263000000549D345D062462B4663E79440C2F17A
:10264000200321FA03FC260C20FA03F301FA02F519
:10265000BCFBF6F843EA05010B0C06FB18CCA7B24D
:1026600043EA0C4C07FB08F3634500FA02F509D96D
:102670001CEB040C08F1FF323AD2634538D9A8F1BB
:102680000208A444C3EB0C0CBCFBF6F389B206FBB6
:1026900013CC41EA0C4107FB03F28A4207D909191E
:1026A00003F1FF3022D28A4220D9023B2144891A09
:1026B00043EA084349E73A460CE733461FE70A4630
:1026C0006BE7B0409042B6D20CF1FF32002319E71D
:1026D0003346324616E799458FD9ACF1020C2344B4
:1026E0008CE7B8459BD9023D274499E70346DEE7CE
:1026F0009046C7E7023821443AE700BF10F8012BA3
:1027000011F8013B012A28BF9A42F7D0D01A70472E
:1027100081F0004102E000BF83F0004330B54FEA92
:1027200041044FEA430594EA050F08BF90EA020FFF
:102730001FBF54EA000C55EA020C7FEA645C7FEA92
:10274000655C00F0E2804FEA5454D4EB5555B8BFB5
:102750006D420CDD2C4480EA020281EA030382EA26
:10276000000083EA010180EA020281EA0303362DB8
:1027700088BF30BD11F0004F4FEA01314FF4801C8B
:102780004CEA113102D0404261EB410113F0004F9D
:102790004FEA03334CEA133302D0524263EB430354
:1027A00094EA050F00F0A780A4F10104D5F1200EF2
:1027B0000DDB02FA0EFC22FA05F2801841F100014D
:1027C00003FA0EF2801843FA05F359410EE0A5F121
:1027D00020050EF1200E012A03FA0EFC28BF4CF052
:1027E000020C43FA05F3C01851EBE37101F0004508
:1027F00007D54FF0000EDCF1000C7EEB00006EEB15
:102800000101B1F5801F1BD3B1F5001F0CD349089E
:102810005FEA30004FEA3C0C04F101044FEA4452F5
:1028200012F5800F80F09A80BCF1004F08BF5FEA7C
:10283000500C50F1000041EB045141EA050130BD5C
:102840005FEA4C0C404141EB010111F4801FA4F1FF
:102850000104E9D191F0000F04BF01460020B1FA54
:1028600081F308BF2033A3F10B03B3F120020CDA8C
:102870000C3208DD02F1140CC2F10C0201FA0CF06A
:1028800021FA02F10CE002F11402D8BFC2F1200CCF
:1028900001FA02F120FA0CFCDCBF41EA0C01904085
:1028A000E41AA2BF01EB0451294330BD6FEA0404CE
:1028B0001F3C1CDA0C340EDC04F11404C4F12002B9
:1028C00020FA04F001FA02F340EA030021FA04F3CB
:1028D00045EA030130BDC4F10C04C4F1200220FA22
:1028E00002F001FA04F340EA0300294630BD21FA60
:1028F00004F0294630BD94F0000F83F4801306BF26
:1029000081F480110134013D4EE77FEA645C18BF19
:102910007FEA655C29D094EA050F08BF90EA020FB0
:1029200005D054EA000C04BF1946104630BD91EAA8
:10293000030F1EBF0021002030BD5FEA545C05D1AB
:102940004000494128BF41F0004130BD14F58004EA
:102950003CBF01F5801130BD01F0004545F0FE415E
:1029600041F470014FF0000030BD7FEA645C1ABF93
:10297000194610467FEA655C1CBF0B46024650EACA
:10298000013406BF52EA033591EA030F41F40021F6
:1029900030BD00BF90F0000F04BF0021704730B57C
:1029A0004FF4806404F132044FF000054FF0000151
:1029B00050E700BF90F0000F04BF0021704730B512
:1029C0004FF4806404F1320410F0004548BF4042E7
:1029D0004FF000013EE700BF42004FEAE2014FEA3C
:1029E00031014FEA02701FBF12F07F4393F07F4F17
:1029F00081F06051704792F0000F14BF93F07F4F49
:102A0000704730B54FF4607401F0004521F000418B
:102A100020E700BF50EA010208BF704730B54FF011
:102A200000050AE050EA010208BF704730B511F016
:102A3000004502D5404261EB41014FF4806404F14E
:102A400032045FEA915C3FF4DCAE4FF003025FEAD0
:102A5000DC0C18BF03325FEADC0C18BF033202EB58
:102A6000DC02C2F1200300FA03FC20FA02F001FAB2
:102A700003FE40EA0E0021FA02F11444C1E600BF51
:102A800070B54FF0FF0C4CF4E06C1CEA11541DBF04
:102A90001CEA135594EA0C0F95EA0C0F00F0DEF8CF
:102AA0002C4481EA030621EA4C5123EA4C5350EAB4
:102AB000013518BF52EA033541F4801143F4801305
:102AC00038D0A0FB02CE4FF00005E1FB02E506F096
:102AD0000042E0FB03E54FF00006E1FB03569CF0EB
:102AE000000F18BF4EF0010EA4F1FF04B6F5007FF1
:102AF00064F5407404D25FEA4E0E6D4146EB060663
:102B000042EAC62141EA55514FEAC52040EA5E50EB
:102B10004FEACE2EB4F1FD0C88BFBCF5E06F1ED895
:102B2000BEF1004F08BF5FEA500E50F1000041EBCC
:102B3000045170BD06F0004646EA010140EA020079
:102B400081EA0301B4EB5C04C2BFD4EB0C0541EA9B
:102B5000045170BD41F480114FF0000E013C00F3B0
:102B6000AB8014F1360FDEBF002001F0004170BDD4
:102B7000C4F10004203C35DA0C341BDC04F11404ED
:102B8000C4F1200500FA05F320FA04F001FA05F279
:102B900040EA020001F0004221F0004110EBD37046
:102BA00021FA04F642EB06015EEA430E08BF20EA72
:102BB000D37070BDC4F10C04C4F1200500FA04F315
:102BC00020FA05F001FA04F240EA020001F00041A7
:102BD00010EBD37041F100015EEA430E08BF20EA1A
:102BE000D37070BDC4F1200500FA05F24EEA020E62
:102BF00020FA04F301FA05F243EA020321FA04F091
:102C000001F0004121FA04F220EA020000EBD37047
:102C10005EEA430E08BF20EAD37070BD94F0000F47
:102C20000FD101F00046400041EB010111F4801F7B
:102C300008BF013CF7D041EA060195F0000F18BF2C
:102C4000704703F00046520043EB030313F4801F68
:102C500008BF013DF7D043EA0603704794EA0C0F22
:102C60000CEA135518BF95EA0C0F0CD050EA410638
:102C700018BF52EA4306D1D181EA030101F00041B5
:102C80004FF0000070BD50EA410606BF10461946DD
:102C900052EA430619D094EA0C0F02D150EA0136E9
:102CA00013D195EA0C0F05D152EA03361CBF10462A
:102CB00019460AD181EA030101F0004141F0FE41C9
:102CC00041F470014FF0000070BD41F0FE4141F44D
:102CD000780170BD70B54FF0FF0C4CF4E06C1CEA4D
:102CE00011541DBF1CEA135594EA0C0F95EA0C0F02
:102CF00000F0A7F8A4EB050481EA030E52EA0335BD
:102D00004FEA013100F088804FEA03334FF08055DD
:102D100045EA131343EA12634FEA022245EA11150A
:102D200045EA10654FEA00260EF000419D4208BFBB
:102D3000964244F1FD0404F5407402D25B084FEA68
:102D40003202B61A65EB03055B084FEA32024FF414
:102D500080104FF4002CB6EB020E75EB030E22BF71
:102D6000B61A754640EA0C005B084FEA3202B6EB31
:102D7000020E75EB030E22BFB61A754640EA5C00E0
:102D80005B084FEA3202B6EB020E75EB030E22BF70
:102D9000B61A754640EA9C005B084FEA3202B6EB71
:102DA000020E75EB030E22BFB61A754640EADC0030
:102DB00055EA060E18D04FEA051545EA16754FEA92
:102DC00006164FEAC30343EA52734FEAC2025FEAB0
:102DD0001C1CC0D111F4801F0BD141EA00014FF03F
:102DE00000004FF0004CB6E711F4801F04BF014310
:102DF0000020B4F1FD0C88BFBCF5E06F3FF6AFAE2C
:102E0000B5EB030C04BFB6EB020C5FEA500C50F1BB
:102E1000000041EB045170BD0EF0004E4EEA11313E
:102E200014EB5C04C2BFD4EB0C0541EA045170BD45
:102E300041F480114FF0000E013C90E645EA060E89
:102E40008DE60CEA135594EA0C0F08BF95EA0C0FB7
:102E50003FF43BAF94EA0C0F0AD150EA01347FF4FF
:102E600034AF95EA0C0F7FF425AF104619462CE7D6
:102E700095EA0C0F06D152EA03353FF4FDAE104639
:102E8000194622E750EA410618BF52EA43067FF48A
:102E9000C5AE50EA41047FF40DAF52EA43057FF41A
:102EA000EBAE12E74FF0FF3C06E000BF4FF0010C25
:102EB00002E000BF4FF0010C4DF804CD4FEA410C89
:102EC0007FEA6C5C4FEA430C18BF7FEA6C5C1BD056
:102ED00001B050EA410C0CBF52EA430C91EA030FD7
:102EE00002BF90EA020F0020704710F1000F91EA34
:102EF000030F58BF994208BF90422CBFD8176FEA02
:102F0000E37040F0010070474FEA410C7FEA6C5CCF
:102F100002D150EA013C07D14FEA430C7FEA6C5CD6
:102F2000D6D152EA033CD3D05DF8040B704700BF02
:102F30008446104662468C461946634600E000BF50
:102F400001B5FFF7B7FF002848BF10F1000F01BD22
:102F50004DF808EDFFF7F4FF0CBF012000205DF8ED
:102F600008FB00BF4DF808EDFFF7EAFF34BF012072
:102F700000205DF808FB00BF4DF808EDFFF7E0FF0B
:102F800094BF012000205DF808FB00BF4DF808ED5C
:102F9000FFF7CEFF94BF012000205DF808FB00BFC3
:102FA0004DF808EDFFF7C4FF34BF012000205DF8A5
:102FB00008FB00BF4FEA410212F5001215D211D5ED
:102FC0006FF47873B3EB625212D94FEAC12343F026
:102FD000004343EA505311F0004F23FA02F018BFA8
:102FE000404270474FF00000704750EA013005D171
:102FF00011F0004008BF6FF0004070474FF0000034
:10300000704700BF4A0011D212F5001211D20DD53F
:103010006FF47873B3EB62520ED44FEAC12343F0DE
:10302000004343EA505323FA02F070474FF0000088
:10303000704750EA013002D14FF0FF3070474FF037
:10304000000070474FEA4102B2F1E04324BFB3F5FC
:10305000001CDCF1FE5C0DD901F0004C4FEAC0020F
:103060004CEA5070B2F1004F40EB830008BF20F0F3
:103070000100704711F0804F21D113F13872BCBFAD
:1030800001F00040704741F480114FEA5252C2F102
:103090001802C2F1200C10FA0CF320FA02F018BF4B
:1030A00040F001004FEAC1234FEAD32303FA0CFC9E
:1030B00040EA0C0023FA02F34FEA4303CCE77FEA2D
:1030C000625307D150EA01331EBF4FF0FE4040F477
:1030D0004000704701F0004040F0FE4040F4000026
:1030E000704700BFF7B5264B1B5C022B05460F4609
:1030F00002D02448932111E0234B012153F8206092
:1031000000F048FD044617B1304600F083FE20462B
:1031100001A901F0F9FE28B11A48A0211B4A1C4B55
:103120004AF062FC019B4BB31A4B53F8356003EB3A
:10313000C5035F6816B91348AA21EFE7204601F0DE
:1031400083FE39460120B047204601F039FE204673
:1031500001A901F0D9FE10B10A48B421DEE70E4BF7
:103160001C2202FB0535019B6A69934206D3204667
:1031700001F06AFE10B10348BA21CFE703B0F0BDF9
:10318000722600105E2B06087C2C0608B42B06085D
:10319000B494070854260010782600102DE9F34156
:1031A000374B1E5CF6B2022E04460F4602D035485D
:1031B000D52112E0002100F0EDFC0546002F2ED0B5
:1031C000314B1A5D42BB4FF00FFB01A90646284662
:1031D00001F0AAFE28B12B48E0212C4A2C4B4AF0E2
:1031E00003FC2C4B1C2202FB04335A68019B9A42BD
:1031F0000ED1294B1A5D1F4652B1284B1D5D284642
:1032000003F087FD10B1284603F078FD00233B55FD
:1032100030464FF081FA30E000221A552DE0204B65
:1032200053F8347003EBC403D3F8048017B915487E
:10323000F721D2E701F008FE41463046B84728465C
:1032400001F0BEFD284601A901F06EFE18B10D483F
:1032500040F20111C1E70F4B1C2202FB0434A368AA
:103260006268D21A019B934207D3284601F0ECFD15
:1032700018B1044840F20911AFE702B0BDE8F0818F
:10328000722600105E2B06086C260010ED2A060838
:10329000B494070878260010CC2600102D2B0608C1
:1032A000542600100B78487813B10021FFF71ABF9D
:1032B0001946FFF773BF0000114B70B553F820405B
:1032C0000546204600F09EFD0646C0B92046012175
:1032D00000F036FD3146204600F032FD094A52F832
:1032E000353002EBC505696833B90748074A084B12
:1032F00040F21F114AF078FB4FF0FF30984770BD45
:103300007C2C0608542600105E2B0608302B06087D
:10331000B49407080228F8B505460C4676D80B7811
:103320000C2B0BD84B78032B08D88B78012B05D8A6
:10333000CB78022B8CBF0023012300E00023002B5D
:1033400064D04FF051FA33494B5D07461BB14FF043
:10335000E3F9FD205BE0304A137810469BB92F4E0D
:1033600000229A552E4ECA549A552E4E9A552E4EDC
:1033700006EBC30ECEF8042046F833200133032BAE
:10338000EDD101230370294B227803F8252003EBAC
:10339000850362785A70A2789A70E278DA703846BB
:1033A00001234B554FF0B8F9214B585D4FF034FADB
:1033B000064630B11F48204A204B4FF4FD714AF0B9
:1033C00013FB1F4B53F82550284600F025FD2278AB
:1033D0001C4B284653F8221000F014FCE378617867
:1033E000A278284600F06AFC284600F099FC28469E
:1033F00000F09CFC05201449324603F08BFA0520AE
:103400001249324603F0BEFA304600E0FC2040B2DA
:10341000F8BD00BF72260010532600105026001081
:103420006C260010CC26001054260010E426001054
:10343000762C06085E2B0608102C0608B4940708A4
:103440007C2C0608DC2B06082D350108B13A010852
:1034500002282DE9F041044654D82D4F3B5C002B47
:1034600052D02C4B53F82080404600F0EBFC3B5DE3
:10347000022B2CD10021204600F08CFB01210646B6
:10348000204600F087FB0546304601F0DDFC08B120
:10349000FF203AE0284601F0D7FC0028F8D130465A
:1034A00001F0E0FC0028F3D1284601F0DBFC002805
:1034B000EED1304601F002FC0028E9D1284601F0A7
:1034C000FDFB0028E4D1144B185700F04FFD404697
:1034D00000F0A2FC114B185D4FF046F9054600289C
:1034E000D6D14FF081F90E4B3D5543F8345003EBE4
:1034F000C4035D600B4B1D550B4B1D554FF00CF974
:10350000284602E0FC2000E0FE2040B2BDE8F08149
:10351000722600107C2C0608392C0608762C06082A
:10352000542600106C260010502600102DE9F74F8D
:1035300000252C46174F3B5DE0B213B3164E3A5DA3
:10354000DFF8609006EB05085FFA82FBD8F80430DC
:10355000AA5914F809A001920093FFF779FF07F820
:1035600004B0019A009BAA5104F809A0C8F80430DD
:103570000A4B185700F00AFD094B003018BF012014
:10358000E0540134032C05F10805D3D103B0BDE8A4
:10359000F08F00BF7226001054260010392C060848
:1035A0006F2600105026001002282DE9F341054631
:1035B0000F46164644D8002942D0002A40D0234B5B
:1035C0001B5C022B3CD1224C4FF00EF9635D804610
:1035D0002BB9204B585D03F08AFB0123635540460D
:1035E0004FF09AF82846002100F0D4FA01A90546C8
:1035F00001F09AFC18B1184840F2A12111E0019C99
:10360000A64228BF2646044600E00134B4420CD04E
:103610002846395D01F05AFC0028F6D00E4840F2E9
:10362000AD210E4A0E4B4AF0DFF9019B9C4209D1B5
:10363000284601F0C5FB28B107484FF42E71F0E78A
:10364000002000E0204602B0BDE8F08172260010A4
:10365000CC2600102D2B06085E2B0608FF2A060834
:10366000B49407080228F7B50D46144635D800294A
:1036700033D0002A33D01B4A135C022B2DD10121F9
:1036800000F088FA01A9064601F03EFC18B1164880
:1036900040F2123112E0019B9C4234BF27461F4684
:1036A000044600E00134BC420CD03046291901F038
:1036B0001BFC0028F6D00C4840F21E310B4A0C4B84
:1036C0004AF092F9019B9C4209D1304601F078FB07
:1036D00028B1054840F22931F0E7002000E02046FB
:1036E00003B0F0BD722600105E2B0608D82A06082B
:1036F000B494070802282DE9F74F044689469246FC
:1037000000F2A480002900F0A1804FF06DF8524B28
:103710001E5DF6B2012E05469B4603D04EF0FCFF1F
:10372000FE2094E00021204600F034FA3146804625
:10373000204600F02FFA494B43F8349003EBC403C2
:10374000DFF83C91C3F804A009EB840A63005146FA
:1037500007464046019300F033FA4046404952463E
:1037600001F0F4FB019B30B128464EF0D5FF3D48F7
:1037700040F2763112E0013309EB430938464946FD
:1037800000F01EFA384636494A4601F0DFFB48B1E0
:1037900028464EF0C1FF334840F27D31324A334B68
:1037A0004AF022F9DFF8DCA031491AF9040000F0F0
:1037B0000DFC014630B128464EF0AEFF294840F2DC
:1037C0008331EBE72B4B204653F8247000F0E2F9ED
:1037D00031468146204600F0DDF98046384600F04B
:1037E000A8FA254B38461E5500F0A6FA1AF904002F
:1037F00000F0ACFB484601F0E3FA18B1194840F27A
:10380000433116E0404601F0DBFA18B115484FF499
:1038100052710EE0484601F0E3FA18B1114840F247
:103820004D3106E0404601F0DBFA20B10D4840F290
:103830005231124AB3E7384600F0DEF90223284637
:103840000BF804304EF068FF002000E0FC2040B28E
:1038500003B0BDE8F08F00BF7226001054260010A0
:10386000A53201085E2B0608432B0608B49407080E
:103870008D3D01087C2C06086C260010112B0608D3
:10388000CF260010392C0608022807B513D80C4A99
:10389000135C022B0FD1012100F07CF901A901F08A
:1038A00033FB30B10748084A084B40F2B9314AF0BF
:1038B0009BF8019800E0002003B05DF804FB00BF16
:1038C000722600105E2B06088F2B0608B49407089A
:1038D000022810B504460CD8084B1B5C5BB1084BA2
:1038E00053F8200000F009FA064B02221A55002076
:1038F00002E0FC2000E0FE2040B210BD7226001065
:103900007C2C06085026001002282DE9F0410446C0
:10391000884617461E4614D80D48005D98B10D48DC
:103920000D4D50F8240000F0F1F90C4B01221A550E
:1039300004EB4404281905F80480477086700020C1
:1039400002E0FC2000E0FE2040B2BDE8F08100BFB4
:10395000722600107C2C0608DB2600105026001072
:103960000228F7B505460C4600F28F800B68002B45
:1039700000F08B80CB68002B00F087804A68464BB4
:103980009A4200F28280896899427ED891427CD81E
:1039900022699A4279D86069984276D8A169994299
:1039A00073D8904271D891426FD83C4B5E5DF6B2AD
:1039B000012E6CD10021284600F0ECF83146074674
:1039C000284600F0E7F80646384601F0CBF818B173
:1039D00033484FF486610BE02368009338466368F0
:1039E0000193694601F0C2F930B12D4840F23741E8
:1039F0002C4A2D4B49F0F8FF3846A16801F040FAF7
:103A000018B1274840F23C41F2E7304601F0AAF8ED
:103A100018B1234840F24241EAE7E3680093304698
:103A200023690193694601F0A1F918B11C4840F2DD
:103A30004941DDE73046616901F022FA18B11848C2
:103A400040F24E41D4E73046A16901F02DFA064616
:103A500018B1134840F25341CAE74EF0C5FE1C238B
:103A6000124A21685D435319515162685A60A26835
:103A70009A60A2699A61E268DA6022691A616269F1
:103A80005A614EF049FE304602E0FC2000E0FE2084
:103A900040B203B0F0BD00BFFFFF0100722600106E
:103AA0005E2B0608C92B0608B49407087826001078
:103AB0002DE9F84300252E462C462C4B1A5DE7B223
:103AC00002F0FF0932B12A490022384631441A5522
:103AD000FFF720FC274BE35C012B19D1DFF8B08006
:103AE000254B18F80510F05800F002F9204B234838
:103AF000F35C90FBF3F001304EF03EFE08EB050363
:103B000038465A7818F805109B78FFF7FDFE04E058
:103B1000022B02D13846FFF7DBFEB9F1020F0FD1BD
:103B2000174B1C2101FB04313846FFF719FF154BD9
:103B300003EBC402384653F834105268FFF7DAFD3D
:103B4000114BE75C384603F0E4F828B10F4BE35C17
:103B500013B1384603F0D2F80134032C06F1040601
:103B600005F10305A9D1BDE8F88300BF7226001056
:103B7000E4260010502600107C2C0608001BB7001D
:103B800078260010542600102D2B06086F260010F2
:103B9000DB26001001280CD006D302280ED1002904
:103BA0000CBF0A200B20704700290CBF0E200F20ED
:103BB000704700290CBF0C200D2070470F20704764
:103BC0000A38052817D8DFE800F012090E070B03A2
:103BD00001230B7000230DE0012302E0012307E025
:103BE00000230B7006E000230B70012302E000238A
:103BF0000B7002234B707047012380F8513080F81E
:103C000050307047F0B5294D06460F460FCD8BB0AA
:103C10006C460FC40FCD0FC495E803000023336436
:103C2000A3F58063B36584E8030001F0C9FC204B71
:103C3000204A00280CBF104618460A22390202FB0F
:103C400000F4B0FBF1F3B4FBF1F1B1FBF2F502FBD0
:103C5000151202B903B9013307FB03F1B0FBF1F20E
:103C6000B2F5807F394401D90133F7E7032171634D
:103C700099B2B160911E4908013A42EA01227B43A0
:103C8000B263B4FBF3F30A22B3FBF2F102FB11338C
:103C90000AAA02EB830353F8283CB365064B9F4204
:103CA00084BF122373640BB0F0BD00BF382906082F
:103CB00080BA8C01002D3101BFC62D00032910B53B
:103CC0009ABF0A4C615C0321012A08BF41F004013C
:103CD000012B03D005D3022B05D002E041F00801EF
:103CE00001E041F02001017710BD00BF352C06082E
:103CF000836A9B06FCD5416070476FF0FF038364C5
:103D0000012380F8203003234376704743F4807307
:103D100042EA012242628364032303767047000073
:103D2000014B4361704700BF010801010123C364D7
:103D300070470123037370470323437370470000E8
:103D4000034B044A00290CBF1146194641617047D4
:103D500001090100010900010369DA0711D403F028
:103D60003F03062B06D00C2B0DD0022B0CBF0520D9
:103D700000207047836A13F0100F0CBF012003204E
:103D8000704700207047022070470000082838B5AF
:103D900004D009280CBF0224002400E00124144BA5
:103DA00053F824502846FFF7D7FF052818D8DFE836
:103DB00000F01D09030E1D1120460121BDE8384009
:103DC000FFF790B92046BDE83840FFF775BA094BB8
:103DD0006B6138BD20460121BDE83840FFF7DEB9F0
:103DE0000548064A064BF22149F0FEFD38BD00BFEA
:103DF0007C2C0608010901003C2C06081E2C060834
:103E0000B4940708836A13F00E0F14BF00206FF0FC
:103E100000007047036D70470023C36143628360F5
:103E2000C360436183610362C3624363836303646A
:103E3000036343648364C364036543658365036606
:103E4000C3657047836A5B06FCD570470CB430B518
:103E500085B008AB054653F8044B03930A4601931B
:103E6000009405482946032306F06EFC05B0BDE822
:103E7000304002B0704700BFD81400100CB430B509
:103E800085B008AB054653F8044B03930A460193EB
:103E9000009405482946022306F056FC05B0BDE80B
:103EA000304002B0704700BFD81400100CB430B5D9
:103EB00085B008AB054653F8044B03930A460193BB
:103EC000009405482946012306F03EFC05B0BDE8F4
:103ED000304002B0704700BFD814001007B5144A34
:103EE00013681146FBB9134A52F823201F2A0DD933
:103EF00000921F2201921048104A6C21FFF7D6FF52
:103F00000F48104A104B6D2149F06EFDD200D0B21F
:103F100003F1604202F561420133202B82F8000375
:103F2000E1D101230B60002003B05DF804FB00BF6A
:103F3000F02600109C2C06088C2C06081C2D060868
:103F4000362D0608672D0608B4940708C0B21F284E
:103F500006D8012303FA00F0034B1860002000E0AC
:103F6000FD2040B2704700BF00E100E0C0B21F2852
:103F700007D8012303FA00F0034BC3F880000020A8
:103F800000E0FD2040B2704700E100E0C0B21F2811
:103F900007D8012303FA00F0034BC3F80001002007
:103FA00000E0FD2040B2704700E100E0C0B21F28F1
:103FB00007D8012303FA00F0034BC3F88001002067
:103FC00000E0FD2040B2704700E100E070B5C6B2ED
:103FD0001F2E04460D4613D891B14EF005FC012367
:103FE00003FA06F6084BC3F88061084B43F83450D7
:103FF00003EBC404002565604EF08EFB284600E00C
:10400000FE2040B270BD00BF00E100E0F4260010C9
:1040100010B504464EF0E8FB2060002010BD08B546
:104020004EF07AFB002008BDD1F8AC30022010B56C
:104030005870082098700420D8703C201871802097
:104040005871012260201A70D871D1F8B0002B236A
:10405000C373D1F8B0004373D1F8B0002F24847338
:10406000D1F8B0000524C472D1F8B0000273D1F8C1
:10407000B0205374162381F8C030B1F8C230B3F5C4
:10408000C15F07D1D1F8B03075229A70D1F8B03045
:104090007A22DA70B1F8C230B3F5B15F07D1D1F846
:1040A000B03075229A70D1F8B0307A22DA70024BB3
:1040B000C1F8D430002010BDD90E0010D1F8AC30BA
:1040C000022210B501205A703C2480229A70DA70C6
:1040D00018705A711C71D1F8B0309F229A72D1F8C1
:1040E000B0203523D373D1F8B0205373D1F8B0305A
:1040F0000522DA72D1F8B0301873D1F8B0307522D9
:104100009A70D1F8B0307A22DA70162381F8C03074
:10411000024BC1F8D430002010BD00BF490300108D
:1041200038B5304B0360304B4360304B8360304BCD
:10413000C360304B0361304B4361304B8361304B84
:10414000C361304B0362304B036300252F4B836305
:1041500045628562C56245630C4600F03BF9B0F1EB
:10416000807F8CBF0423032384F8C530D4F8B0309B
:104170005D74D4F8B030AF229A72D4F8B0309F2278
:104180005A72D4F8B03002221A70D4F8B03020221B
:104190009A71D4F8B0305222DA71D4F8B030D82203
:1041A0001A72D4F8B030B0229A70D4F8B0303022FD
:1041B000DA70D4F8B03006225A70D4F8B030B92290
:1041C0009A74D4F8B030AB22DA74D4F8B020052356
:1041D0001374A4F8B850E560A560257484F8C03065
:1041E000002038BD250A0010E90700105510001006
:1041F0001B0D0010990B00104D0300105109001009
:104200003D080010C5040010530300106942010866
:1042100008B591F8C120EF2A0DD0F82A11D0C22A92
:1042200013D1D1F8C82042F00402C1F8C820BDE87B
:104230000840FFF7F9BED1F8C82042F00202C1F8E9
:10424000C820BDE80840FFF739BF4EF0A5FA034883
:10425000034A044B40F6030149F0C6FB192E060839
:10426000662E0608B494070810B50C4621B9D0F89C
:10427000D4309847204610BD01290BD190F8C120B9
:10428000C22A10D143691B68B3F5802F14BF0020E8
:10429000C22010BD4EF080FA0448054A054B40F696
:1042A0001D1149F0A1FB002010BD00BF192E06080A
:1042B000E72D0608B494070870B50C46064678B397
:1042C00071B3D1F8B0505DB3D1F8AC5045B34A608A
:1042D000A1F8BA30FFF724FFD4F8B030AF2204F1D0
:1042E000C1059A72204629464EF016FB94F8C1305B
:1042F000013BDBB2FD2B08D9D4F8B0309F229A7273
:10430000204629464EF008FB04E0284600F00CF851
:104310000028F1D030462146BDE87040FFF778BF55
:104320006FF0770070BD000070B500220C4B03F1F8
:10433000100413441444597C00238B4204DAE5181A
:10434000AE78C55CAE4202D08B4202D106E00133AA
:10435000F3E70A32322AE9D1002070BD012070BD96
:10436000D42E060873B5154CB4F90000002822DAE3
:104370006A4600204FF000614EF0C6F90022104955
:104380000A23534301F1100018440B44597C0023C5
:104390008B4205DAC518AE783DF81350AE4203D013
:1043A0008B4203D1228004E00133F1E70132052A78
:1043B000E5D1B4F9000002B070BD00BFEC140010EC
:1043C000D42E0608024B0A2202FB00301030704740
:1043D000D42E06084FF48000704700F097B870B5EF
:1043E00020F0784000239AB2551C01EBC5046668A2
:1043F0003EB154F8084CA04207D351F83540A042D2
:1044000003D201EBC201486870BD0133EBE7000045
:10441000014B1968FFF7E3BFF4280010002350F8A0
:10442000082B22B150F8041C01FB0233F7E71846B1
:1044300070472DE9F843002706461446994600EBDD
:1044400001083D4646451FD230464946FFF7C7FFA3
:10445000EA002FB92244012344F83500536010E0EC
:1044600054F83510884204EB020302D15A68013235
:1044700006E00135092D0AD00832A318A050012208
:104480005A6006440137DDE70020BDE8F8830620C6
:10449000BDE8F88370B506460D4614461046002167
:1044A000402249F0A8FC044B3046294622461B68AE
:1044B000BDE87040FFF7BDBFF428001008B590B903
:1044C000FFF750FF0A4A0028106008DA4EF064F93E
:1044D0000848094A094B40F2993149F085FAFFF73B
:1044E00071FF074B1860074B074A1A6008BD00BFF1
:1044F000182900102B2F0608182F0608B494070857
:10450000D02A0010F82800108C2F06082DE9F0475B
:10451000DFF8D490DFF8D4A0284C294FDFF8D08002
:104520000020FFF7CBFFD9F80030DAF8001025485B
:10453000882606FB0131244B4A881A60234B01F17F
:1045400008021A604831402249F031FC204BC4F87F
:10455000AC30204BC4F8B030FB43DAF800102360D5
:10456000D9F800304FF0006206FB01360025A4F8B0
:10457000C6506260404621467368FFF79DFE783062
:1045800008D14EF009F91448144A154B40F227415E
:1045900049F02AFA0B48134EFFF740FF3A4601460E
:1045A00030602846FFF776FF6761C6F80480B46084
:1045B00086F880502846BDE8F08700BFE829001043
:1045C000A8290010B4280010CC2A0010F4280010EC
:1045D000A0290010FC2800102B2F0608672F0608C2
:1045E000B49407081C290010F8280010182900109E
:1045F0007828001010B590F88030044693B94368CD
:1046000080681B6804F10C019847002807DA4EF017
:10461000C3F80548054A064B912149F0E5F9012305
:1046200084F8803010BD00BF4B3206088232060885
:10463000B49407082DE9F04F9A460368994285B073
:1046400004468846934675D201EB0A029A4273D813
:1046500090F880300BB9FFF7CDFF0025554567D2A4
:10466000A36803A85E68FFF7D3FCD4F808906368DA
:1046700005EB080C61469B6801934846CDF800C0E5
:104680004EF0D2F8464401460022019B4846984726
:104690002E440398FFF7C3FC16F0010F0BEB050740
:1046A000DDF800C004D1C5EB0A09B9F1010F0BD147
:1046B0006368A068D3F810C031463A460123E0474A
:1046C00000283BD10135C9E7A26800926146104637
:1046D0004EF0AAF8009A014610464EF0E5F8434223
:1046E0003044184009EB0603834288BFC6EB00093B
:1046F00029F00109B9F1020F63680FD1FA070DD54E
:104700003A788DF80A207A788DF80B201F69A06816
:1047100031460DF10A024B46B84706E0D3F810C007
:10472000A06831463A464B46E04738B94D4495E7D4
:10473000002004E0022002E0032000E0052005B094
:10474000BDE8F08F70B590F8803004460D4621F03A
:104750007F460BB9FFF74EFFE3689E4209D26368BC
:10476000A068DB6829469847002814BF062000206F
:1047700070BD022070BD000010B5074C94F90030E8
:10478000053306D1FFF729FE0448FFF733FF002366
:104790002370002010BD00BFB09800041C29001039
:1047A000024B014698684EF03FB800BF1C2900102C
:1047B000022808B510D0032810D0052810D00628EC
:1047C00010D002300ED04DF0E7FF0848084A094BE0
:1047D00040F2062149F008F9FD2004E0FC2002E047
:1047E000FA2000E0F92040B208BD00BF4B320608B5
:1047F00034320608B494070808B5FFF7BDFF00205F
:1048000008BD000070B5044621B9C0F30B03A3B185
:10481000FD203AE0012907D1C0F30E03002BF7D1A8
:104820004FF40046FB250BE00229F1D183B2002BA7
:10483000EED14FF48036FC2502E04FF48056FA2585
:104840002046FFF7ADFF431C0146E1D0104841EA86
:104850000561FFF777FF18B1BDE87040FFF7A8BF0B
:1048600004F10064204600F09DFD08B900200CE032
:1048700024F01F05A319203323F01F039D42F5D810
:1048800028464DF091FF2035F4E740B270BD00BFDF
:104890001C29001038B505460C4613460548294624
:1048A00022464EF009F818B1BDE83840FFF780BF46
:1048B00038BD00BF1C29001070B50B4605461646D2
:1048C00010481A4629463346FFF7B4FE18B1BDE832
:1048D0007040FFF76DBF05F10065284600F062FDEE
:1048E00068B125F01F0406F120032B4423F01F03B9
:1048F0009C4204D820464DF057FF2034F3E70020B7
:1049000070BD00BF1C29001038B5054610B1FF204E
:1049100040B238BD00F020F9FF2804460ED04DF01B
:1049200063FF0A4B1A78012A0CBFFD2501226DB2E4
:1049300018BF1A704DF0F0FE033501D1FD20E7E7F6
:10494000204600F035F80020E2E700BFEC2A001016
:1049500013B50446019218B1FF2040B202B010BD59
:1049600001AA00F017F82046F7E70000084951F8BF
:104970002020002353619361D361136051F82020FC
:104980004FF40041536011629360D36093627047AB
:10499000F814001010B5054B53F8304024B943F813
:1049A000301003EBC000426010BD00BFF02A0010C1
:1049B00010B50446002000F0CFF8012000F0CCF83C
:1049C0002046FFF7D3FF00200349FFF7FFFA00203E
:1049D000BDE81040FFF7BABADD49010873B5454B91
:1049E00000241B6801941B680193019B9B071AD547
:1049F000414D2B684FF400421A62404A13685168D7
:104A00006BB1204698473E4B01221A602B689A6989
:104A100022F400429A61204602F070F903E039481E
:104A20004FF4866105E0384C002317E0354840F22A
:104A30004E41364A364B48F0D7FF364A364952F88F
:104A4000232051F8231012680192019A01310120AC
:104A500000FA01F1114207D1236801332360236872
:104A6000294D042BE9D917E02C4E56F823204FF49A
:104A7000004191612A4951F8332001EBC303596881
:104A8000002AD3D0002090472B6856F823301A69AB
:104A900022F400421A61DFE700232B602368092B10
:104AA00026D8204A204952F8232051F823101268B2
:104AB0000192019A0131012000FA01F1114213D053
:104AC0001A4A52F823204FF400411161184951F855
:104AD000332001EBC303596812B10020904703E073
:104AE000084840F26641A4E7236801332360D5E714
:104AF00002B070BDF4140010F8140010F02A001079
:104B0000F82A0010123306084C2B0010CE3206088B
:104B1000B4940708601500102415001074150010D7
:104B2000502B0010FC14001088150010B015001058
:104B3000FC2A001008B500204DF06EFE002814BFBE
:104B4000FF20002008BD08B500204DF00DFE002814
:104B500014BFFF20002008BD08B9FFF7EBBFFF20FE
:104B60007047000070B5841F092C05460FD9FE2040
:104B70000BE02B689E7102225A7148490020FFF712
:104B800025FA0020FFF7E2F9002040B270BD4DF099
:104B90002BFE434B5A5D012A0DD14248424A40F256
:104BA00059212B46FFF782F94048414A414B40F2D8
:104BB000592148F019FF01265E553F4D4DF0ACFDDF
:104BC00055F824200023536055F82420136055F82D
:104BD0002420936055F82420D36055F82420D36115
:104BE00055F8242013635363FFF7A4FFFF2852D026
:104BF000092C50D801A151F824F000BF734B0108D3
:104C0000254C0108354C01083D4C01084D4C01086C
:104C1000554C0108654C01086D4C01087D4C01089C
:104C2000854C01086A68102111716A68012191712F
:104C30006B68A0E7A9688E71AB689CE7EA681021F1
:104C40001171EA6801219171EB6894E729698E710D
:104C50002B691EE06A69102111716A690121917145
:104C60006B6916E0A9698E71AB6912E0EA691021DF
:104C70001171EA6901219171EB690AE0296A8E716B
:104C80002B6A06E06A6A102111716A6A012191712A
:104C90006B6A002270E7FD2077E700BFDD4901085D
:104CA00000012004F2320608B63306081233060863
:104CB00008330608B4940708B015001037B5851FEF
:104CC0000023092D0446019303D9FE2040B203B00E
:104CD00030BD4DF089FD1D4B53F825301B68019305
:104CE0001B4B019953F825200123551C03FA05F5A8
:104CF0000D4203D0174840F2C52107E001999340C7
:104D000013EA010506D0134840F2CB21124A134B97
:104D100048F06AFE4DF000FD4DF066FD10490B5D58
:104D200053B91048104A40F2D3212346FFF7BEF88A
:104D3000084840F2D321E9E70D554DF0EDFCFFF7AF
:104D400002FFFF2814BF0020FD20BFE7FC14001065
:104D5000881500101233060816340608B4940708A4
:104D600000012004FC320608E533060838B5851F2B
:104D7000092D0C4602D9FE2040B238BD08688307D1
:104D800003D00B4840F2ED2105E000F00BFB30B101
:104D9000074840F2F321074A074B48F025FE074B2E
:104DA000626853F825305A632268DA61E4E700BF8D
:104DB00012330608E3320608B4940708B015001051
:104DC0000638092802D9FE2040B27047034B53F839
:104DD00020300122DA710020F6E700BFB015001084
:104DE00037B5841F0023092C019303D9FE2040B25C
:104DF00003B030BD4DF0F8FC104B53F824301B6865
:104E000001930F4B019953F82430012202FA03F564
:104E10000D4205D1019901339A4012EA010503D0F0
:104E20004DF07AFCFD20E2E74DF076FC054B53F89F
:104E300024304FF400429A602846D8E7FC14001052
:104E400088150010B01500100638092802D9FE2078
:104E500040B27047024B53F820300020D871F7E77A
:104E6000B01500100638092802D9FE2040B270475C
:104E7000024B53F8203000209860F7E7B01500107F
:104E80000638092801D9FE2007E0B1F5803F06D297
:104E9000044B53F820300020196040B27047FF20C7
:104EA000FBE700BFB01500100638092801D9FE2025
:104EB00006E03F2906D8044B53F820300020196340
:104EC00040B27047FF20FBE7B015001006380928F4
:104ED00002D9FE2040B27047024B53F82030002028
:104EE0001960F7E7381500100638092802D9FE20A6
:104EF00040B27047034B53F820301B680B70002002
:104F0000F6E700BF381500100638092802D9FE2040
:104F100040B27047034B53F820309B6A0B6000206F
:104F2000F6E700BFB01500100638092802D9FE20A8
:104F300040B27047044B53F820305A6B9B6AD31A27
:104F40000B600020F4E700BFB015001006380928F8
:104F500010B502D9FE2040B210BD054B53F83040C9
:104F600024B943F8301003EBC00042600020F2E7A0
:104F7000FC2A0010054B93F812320BB9032803D01A
:104F800003288CBF0023012318467047802B001094
:104F900070B50446FFF7EEFF08B3134A2301D0189B
:104FA000D35C012B1DD0057B00F10806CDB9294645
:104FB000102248F020FF4DF0FFFB012333710B4B13
:104FC00053F82430DA6822F00102DA60084B53F813
:104FD000240001F08AFE074B1855284602E0FE2007
:104FE00000E0FD2040B270BD6C9A000400990004FE
:104FF00040340608782B001070B505460C4616465E
:10500000FFF7B8FF70B10B4928010B180A5C012AA1
:105010000AD01A7B42B14CB15C609E6000F0D6F8B9
:10502000002004E0FE2002E0FD2000E0FF2040B26E
:1050300070BD00BF6C9A00042DE9F34704460F468B
:105040009046FFF797FF002846D0284B26019A1973
:10505000995D0129994641D0137B002B3ED0244B0A
:105060009F423DD84DF0C0FB224D01904DF0A4FB76
:1050700055F824300022DA6055F82420137803F024
:10508000FE03137055F8243010229A60384655F804
:1050900024A04DF0F9FB55F82420CAF81C0001218A
:1050A000516155F82420516055F824108B69002B6C
:1050B000FCD1B8F1000F02D040F2011300E001234F
:1050C0000B6055F824300122DA60019809F80620B7
:1050D0004DF022FB002004E0FE2002E0FC2000E076
:1050E000FF2040B202B0BDE8F08700BF6C9A000418
:1050F0007BF0C1070099000473B50446FFF73AFF3F
:1051000028B34DF071FB154B019053F82420D16862
:1051100021F00101D16053F82420117801F0FE0143
:10512000117053F8243001225A610D4A019823016D
:10513000D6180025D5544DF0EFFA737B083643B1ED
:10514000084B185D01F0DAFD7571284602E0FE207B
:1051500000E0184640B202B070BD00BF00990004E4
:105160006C9A0004782B001082B0C3680193C36866
:1051700023F00103C360019802B0704730B50024EA
:1051800085B0104D605903690293C3680393FFF71C
:10519000EBFF6359019001225A61029BDA0709D59E
:1051A000039BDB0706D5084A02EB840253680BB168
:1051B000906898472B59019ADA600434182CE0D192
:1051C00005B030BD009900046C9A000408B50F20AA
:1051D000FEF7CCFE0F200449FEF7F8FE0F20BDE8D5
:1051E0000840FEF7B3BE00BF7D510108074A53785F
:1051F0009B0708D0064B196841F00D0119601B6828
:105200001360002000E0FB2040B270479C9900042E
:10521000000018E00F2811D80B4B00F5804253F81E
:105220002220D2050CD5DA6A012101FA00F01043E0
:10523000D862DA6A054B00201A6002E0FC2000E028
:10524000FF2040B2704700BF000018E0189900042A
:105250000F2812D80A4B0122D96A824021EA0202A1
:10526000DA62DA6A074B1A60074A002342F83030E4
:1052700002EBC0004360184600E0FC2040B27047DB
:10528000000018E0189900041C99000403280FD8A6
:10529000094B1A6822F440721A601A6842EA002226
:1052A0001A6000B918601A68044B00201A6000E008
:1052B000FB2040B2704700BF000018E09C9900043A
:1052C0000F2810B529D851B30C68C4F30B0313B1E0
:1052D0001448FB2106E04A68C2F30B0232B11148C0
:1052E00040F20111104A114B48F07EFB830003F19C
:1052F000604303F5C8131C6012C92144196419687E
:1053000041F4807119600A491C6841F8304001EB92
:10531000C0001B6C4360104602E0FC2000E0F92056
:1053200040B210BD583406088A340608B494070801
:105330001C99000410B54DF057FA154B1A7802F07D
:10534000FF041AB14DF0E8F9FA201EE001221A70AC
:105350004DF0E2F94DF0F8F90E4B1C60DC620E4B9B
:105360001C600E4B1C6023469A0002F1604202F55D
:10537000C812002010601064094A02EBC30142F811
:1053800033000133102B4860EED140B210BD00BF96
:10539000942D0010000018E09C9900041899000456
:1053A0001C99000410B5114B1B6813F001031AD0AF
:1053B00000230E4A0121D26A01FA03F414420CD0F0
:1053C0009A0002F1604202F5C812146824F4807455
:1053D000A04202D3126C904203D30133102BE8D1C8
:1053E00001E0084610BD002010BD00BF000018E01D
:1053F00010B50446002838D04DF0F6F91C4B1A7849
:10540000012A03D14DF088F9FB202FE001221A7008
:105410004DF082F9174B00225A6022781AB15A686F
:1054200042F004025A6062781AB15A6842F00202ED
:105430005A605A68104B1A60104A00231360104AD1
:1054400052F833106FF35F1142F8331063F3030126
:10545000C9B241F0100102F8331002EBC30201336C
:105460000020082B5060EAD100E0FA2040B210BDC5
:10547000952D001090ED00E0E4990004A09900043F
:10548000A4990004044B5A6842F001025A605A6819
:10549000024B00201A60704790ED00E0E499000490
:1054A000072813D80B4B98601A6942F001021A6161
:1054B0001A69094B03EBC0035A60084B012202FA38
:1054C00000F01A6802431A60002000E0FC2040B29D
:1054D000704700BF90ED00E0A4990004A09900047B
:1054E000072814D80B4B98601A6922F001021A6140
:1054F0001A69094B03EBC0035A60084B012202FAF8
:1055000000F01A6822EA00021A60002000E0FC2085
:1055100040B2704790ED00E0A4990004A099000407
:10552000072810B53CD800293CD00A79131F1B2B43
:1055300002D91E48D6210AE00B6801324FF0FF3431
:1055400004FA02F21A40934205D01848DC21184AA6
:10555000184B48F049FA23F01F03174A43F0100391
:105560000343D3600B794C795B0043EA04638C7985
:1055700043EA04231361CB791BB1136943F08053D1
:1055800013610E4B0C6853F83010640964F35F111B
:1055900043F8301003EBC00012694260002002E0C3
:1055A000FC2000E0FA2040B210BD00BFA234060883
:1055B000D2340608B494070890ED00E0A4990004E2
:1055C000014B93F8D8007047D09A000410B50468D6
:1055D000914024EA0104046001689340194301608A
:1055E00010BD000010B504462346044801210822DE
:1055F000FFF7ECFF024B1C7010BD00BF000006A2BD
:10560000962D00100F4B1A68002A06DA1B680E4808
:105610007F210822C3F3066310E0110206D51B6840
:1056200009487F210822C3F3064307E0120407D587
:105630001B6805487F210822C3F30623FFF7C6BF76
:10564000704700BF30020AA2100006A22DE9F04701
:10565000FFF7B6FF6F4D04462868C0F34010FFF710
:10566000C1FF2B686C4913F0200F0A686B4B06D101
:1056700002F47F420A601A6802F47F4205E042F0B9
:105680000C020A601A6842F01D021A60DFF8E8A1F5
:10569000DFF8E891DFF8E881DFF8E8C1DFF8E8E15A
:1056A0005F4F604E604D61486149624A002C52D0A4
:1056B000614BCAF80030C9F80030C8F80030CCF8A7
:1056C00000305E4BCEF800305D4B3B605D4B33608D
:1056D0005D4B2B6003F5902303605C4B0B605C4BD0
:1056E00013601C307F2118223B23FFF76FFF5948BE
:1056F0007F2110224223FFF769FF5648FF2108222D
:105700006323FFF763FF53487F2118223523FFF7F8
:105710005DFF50487F2110223B23FFF757FF4D4884
:10572000FF2108223F23FFF751FF4A487F21002233
:105730000223FFF74BFF48487F2110220423FFF785
:1057400045FF45487F2108220323FFF73FFF4248DA
:105750007F21002251E0414BCAF80030C9F80030E7
:10576000C8F80030CCF800303D4BCEF80030A3F53F
:1057700088333B603B4B3360334B2B603A4B0360C9
:105780003A4B0B603A4B136032487F2118223B237F
:10579000FFF71CFF2F487F2110224223FFF716FF3F
:1057A0002C48FF2108225223FFF710FF29487F21B0
:1057B00018223523FFF70AFF26487F2110223B23BA
:1057C000FFF704FF2348FF2108223F23FFF7FEFED7
:1057D00020487F2122460223FFF7F8FE1E487F2142
:1057E00010220423FFF7F2FE1B487F210822032327
:1057F000FFF7ECFE18487F2122460123FFF7E6FE63
:10580000FFF700FF1B4B1A6842F001021A60BDE867
:10581000F08700BF400001A204010FA208010FA2FF
:10582000180006A21C0006A2200006A2240006A260
:10583000280006A22C0006A25FB20B005F9F0600A4
:105840003F8F05001F8A04000F0A04001F8F090004
:105850003F9F0A00400006A2440006A27FB20B0050
:105860007F9F06003F8A04001F8A08003F8F0900BF
:105870007F9F0A00000006A2040006A2080006A2FC
:105880000C0006A2100006A2140006A21D2870B586
:1058900004460D4616460CD859B14CF0A5FF064BF0
:1058A00043F8345003EBC40466604CF035FF00202D
:1058B00000E0FE2040B270BD9C2D00101D2838B5C0
:1058C00004460D463ED84CF08FFF024635B91F4BBB
:1058D00001211B6801FA04F49C660FE0012D05D13B
:1058E0001A4B1B6805FA04F49C6612E0022D08D1DD
:1058F000164B01211B6801FA04F41C67C3F8B04081
:1059000018E0032D08D1114B01211B6801FA04F4A2
:105910001C67C3F8A8400DE0042D08D10B4B0121F2
:105920001B6801FA04F41C67C3F8884002E04CF0DD
:10593000F3FE07E010464CF0EFFE64204CF01CFF35
:10594000002000E0FE2040B238BD00BFEC9900040A
:105950001D282DE9F04105460C4623D8084600F0E5
:10596000CDF880464CF040FF4CF0D6FE0F4E2CB9DF
:105970003368403503EB8505AC7011E03368AD004A
:105980002B4401270024C3F800417D2083F80271D5
:105990004CF0F2FE33681D44C5F8008185F80371B0
:1059A000204600E0FE2040B2BDE8F081EC99000402
:1059B00070B5174E336804460D4643B91549132098
:1059C000FEF704FB1320FEF7C1FA012333601D2C00
:1059D0001BD8D5B14CF008FF0F4A002342F83430F1
:1059E00002EBC40253604CF097FE29782046FFF783
:1059F00065FF696806462046FFF7AAFF3043C6B236
:105A0000204600F071F8304600E0FE2040B270BD44
:105A1000982D0010D95B01089C2D00101D2810B591
:105A200004460BD84CF0E0FE064B01221B6802FA3C
:105A300004F49C644CF070FE002000E0FE2040B2B4
:105A400010BD00BFEC9900041D2810B504460BD80A
:105A50004CF0CAFE064B01221B6802FA04F41C65D6
:105A60004CF05AFE002000E0FE2040B210BD00BF06
:105A7000EC9900041D2838B504460FD84CF0B4FE4C
:105A8000084B01221B68A24005469A622046FFF798
:105A9000C5FF28464CF040FE002000E0FE2040B24A
:105AA00038BD00BFEC9900041D2838B504460FD856
:105AB0004CF09AFE084B01221B68A24005461A636F
:105AC0002046FFF7C1FF28464CF026FE002000E0EC
:105AD000FE2040B238BD00BFEC990004014B1B68AA
:105AE00018687047EC990004034B01221B6802FA06
:105AF00000F09860704700BFEC99000440B13E2868
:105B000008D8C00300F5FA704FF47A73B0FBF3F0D5
:105B1000002356E07D2808D880034FF47A7300F5FF
:105B2000FA70B0FBF3F0012345E0FA2808D84003EF
:105B30004FF47A7300F5FA70B0FBF3F002233AE009
:105B4000B0F5FA7F08D800034FF47A7300F5FA70C5
:105B5000B0FBF3F003232EE0B0F57A7F08D8C00243
:105B60004FF47A7300F5FA70B0FBF3F0042322E0EF
:105B7000B0F5FA6F08D880024FF47A7300F5FA7026
:105B8000B0FBF3F0052316E0B0F57A6F08D84002B9
:105B90004FF47A7300F5FA70B0FBF3F006230AE0D5
:105BA000B0F5FA5F14D800024FF47A7300F5FA707A
:105BB000B0FBF3F0072340F2FF72B0F5006F08BFAF
:105BC00010461B0303F4E04340F480301843704751
:105BD00040F2FF700723F4E738B50D4B1B681D68D2
:105BE000ADB100240123A3402B420DD0E0B2FFF75A
:105BF00041FF2046FFF778FF064A52F83430E100B3
:105C000013B10A445068984701341E2CEAD138BDBC
:105C1000EC9900049C2D0010044B1A68044B92F878
:105C20007510C90701D5013BF9D17047D81500108F
:105C3000EEEE6E00034B1B68012283F87420FFF721
:105C4000EBBF00BFD815001010B5074C236845F610
:105C50006A029A66FFF7EEFF236849F236129A66E7
:105C6000BDE81040FFF7E6BFD8150010034B1B68D6
:105C70004FF4B0421A60FFF7DDBF00BFD815001027
:105C800070B5124C236841F657221A640E46054639
:105C9000FFF7C2FF236842F668321A64FFF7BCFFC1
:105CA000012E0AD004D3022E0BD123681D6408E014
:105CB0002368EDB283F8405003E02368EDB283F827
:105CC0004150BDE87040FFF7A7BF00BFD8150010D6
:105CD00008B5FFF7CBFF024B1B68586C08BD00BF2F
:105CE000D815001038B50A4C236841F685225A644D
:105CF0000546FFF791FF23684EF2CF725A64FFF713
:105D00008BFF23685D64BDE83840FFF785BF00BFA7
:105D1000D815001070B5124C236841F253629A6492
:105D20000E460546FFF778FF236848F618129A6476
:105D3000FFF772FF012E0AD004D3022E0BD1236885
:105D40009D6408E02368EDB283F8485003E02368BF
:105D5000EDB283F84950BDE87040FFF75DBF00BF6A
:105D6000D815001070B5124C236845F64A52DA6413
:105D70000E460546FFF750FF236849F23F42DA64BA
:105D8000FFF74AFF012E0AD004D3022E0BD123685D
:105D9000DD6408E02368EDB283F84C5003E023682B
:105DA000EDB283F84D50BDE87040FFF735BF00BF3E
:105DB000D815001038B50C4C2368022583F83450F0
:105DC000FFF738FF23680A2283F83420FFF732FFF9
:105DD0004FF47A704CF0D0FC236883F83450FFF70E
:105DE00029FF23685B6B38BDD815001038B5124DFC
:105DF0001820FFF73FFE2B6843F602125C681A601A
:105E0000FFF718FFE2070AD52B68FE225A74FFF746
:105E100011FF0A4B1B6813B1094A10689847A30782
:105E200005D5084B1B6813B1074A1068984718201E
:105E3000BDE83840FFF738BED8150010902E00108E
:105E4000A42E0010942E00109C2E0010F8B5174CB4
:105E5000236815461A6842F440421A60064601203B
:105E60000F464CF089FC23685A6812F40042FBD1BB
:105E70000F4B47EA06261A601E6023689A6045F4B5
:105E800000421A60C8204CF077FC23685A6812045C
:105E9000FCD4084ADB68127801350AB1064800E0F4
:105EA00006484543B5FBF3F0F8BD00BFE015001010
:105EB000240202A2DC15001080BA8C01002D3101F1
:105EC0002DE9F041134C236890461A6842F4404291
:105ED0001A6006464FF47A700F464CF04DFC23686A
:105EE0005D6815F40045FBD10B4B47EA06261D60A3
:105EF0001E60236848F400429D604FF47A701A6077
:105F00004CF03AFC23685A681204FCD4D868BDE807
:105F1000F08100BFE0150010240202A208B5FFF7CF
:105F2000A5FE034B1B681868C0F3001008BD00BF36
:105F3000D815001002292DE9F84380460F4600F2DB
:105F40008A80FF2800F2878098B3FFF78FFE444BCA
:105F50001B68DE6C012FF4B2C6F307252BD0022F8D
:105F600057D00027012101FA07F313EA080F15D0D3
:105F700033420AD0FE23C7F1080243FA02F2BB40C3
:105F800013431C402046002106E04FF48072BA40C3
:105F9000324203D11D432846FFF7E4FE0137082FA4
:105FA000E0D101204CF0E8FB6FF001000121FFF788
:105FB000B1FE002050E038463946FFF7ABFE082717
:105FC000C7F10809012303FA09F313EA080F1DD0EA
:105FD00033420AD0FE2303FA09F23B4113431C402B
:105FE00020460021FFF7BEFE05E04FF4807303FA60
:105FF00009F333420AD0FE2303FA09F93B4149EA87
:1060000003031D4028460121FFF7ACFE013FD7D115
:10601000CFE701200146FFF77DFE0027012101FAAD
:1060200007F919EA080F12D019EA060F0FD14FF439
:106030008073BB40334204D145EA09052846FFF787
:1060400091FE44EA090420460021FFF78BFE013748
:10605000082FE3D1ADE7FF2040B2BDE8F88300BFD1
:10606000D815001010B5244C23685B68FFF756FF65
:10607000224B1870002833D0FFF7E6FD23684FF459
:10608000C8421A60FFF7D6FD23684CF608021A6072
:10609000FFF7D0FD236843F602121A60FFF7CAFD2E
:1060A000174B1B789B0611D500200146FFF7E8FD32
:1060B000C8204CF061FB134B1B7813B12368B82246
:1060C00001E0236840221A67FFF7B4FD0E480F4A2B
:1060D00040F29E51FDF7EAFE012000F0A3FB05E02F
:1060E00009480B4A40F2A251FDF7E0FEFF200021D3
:1060F000BDE81040FFF71EBFD8150010982E001005
:10610000400001A2A30202A274350608FB3406086F
:10611000123506082DE9F0437F4F3B7885B0002B00
:1061200040F0F680FFF778FDFFF79CFFFFF78CFD4E
:106130007A4B7B481B789C0608D47A4A40F2672148
:10614000FDF7B4FE784B01221A7004E040F26A2198
:10615000764AFDF7ABFE764D2A6892F875309807BF
:1061600004D592F83430D90740F1B480536F526BA4
:1061700000926B486F4A40F27321FDF77FFE6E4B31
:106180001C78002C31D12B6844F202321A602B6843
:1061900040F201165A689C604FF48072DC601C610A
:1061A0005C619A61DE611C625C629A620722DE6257
:1061B0001C635E639C63DA63FFF73CFD022130469B
:1061C000FFF75EFD40F60770FFF78CFD03202146C8
:1061D000FFF7A0FD2B688A229C65DC651C665C6667
:1061E000DC661C679A67FFF725FD2B68504EDFF8C9
:1061F000549140F201125A63FFF71CFD2B684AF2DA
:10620000573846F2D274C3F850805C65FFF712FD30
:10621000FFF7D0FD2B68C3F850805C65FFF70AFDDF
:10622000DFF82481FFF722FD2B6893F8753098F88A
:106230000020531E5A425A41404B1A70FFF748FD46
:1062400040F08000FFF74EFDFFF7B4FD2B680024FF
:1062500083F83540FFF7EEFC334B187810B3FFF7A7
:1062600037FD40F06000FFF73DFD21460620FFF7B7
:1062700007FDC8204CF080FA012163220620FFF7B9
:10628000E5FDC0F50040336840F30C0202F3CD0297
:106290001A67FFF7CFFC01202146FFF73BFDC9F845
:1062A000004017E00123C9F800300146FFF7E8FC81
:1062B00098F8003013B13368B82201E03368402207
:1062C0001A67FFF7B7FCC8204CF056FA02200021ED
:1062D000FFF720FD2B688A229A67FFF7ABFC2B683B
:1062E0000722DA63FFF7A6FC0023182002A98DF825
:1062F00008300393FFF75CFB024638B918201049B9
:10630000FFF7C4FA10B91820FFF7CEFB01233B704A
:10631000002005B0BDE8F0838C2E0010400001A2E3
:10632000EB34060822350608A02E00103435060886
:10633000D815001045350608982E0010DC15001001
:10634000ED5D01088C0202A2A30202A208B500F0D2
:1063500083F8044B1B68C0B203B19847BDE80840FE
:1063600000F088B8A82E001038B50446C8B10378EC
:10637000012B16D84068B0F57A7F12D80B4B002558
:106380001D6000F035F8207800F044F82378012BE8
:1063900009D107491120FDF719FE1120FDF7D6FD9F
:1063A00001E0FE2000E0284640B238BDA82E0010D3
:1063B0004D63010808B5064B984206D1012000F054
:1063C0003BF800F031F8002000E0FF2040B208BDAB
:1063D000BEBAFECA08B5054B984204D1002000F0B1
:1063E0002BF8002000E0FF2040B208BD6500FECA87
:1063F00042F2107358439C22B0FBF2F2034B12049A
:1064000042F012025A60024ADA607047000009A2A4
:106410009A7856140128034B0CBF40F2171217222A
:106420009A617047000009A2014B024ADA60704786
:10643000000009A29A785614064B28B140F21112B6
:106440001A604FF48B7202E011221A6016225A6110
:10645000704700BF000009A2054B1B6A9A0705D4CC
:1064600013F0010F0CBF022001207047002070477D
:10647000000009A2014BDB69704700BF000009A2C0
:1064800010B54CF0B1F90A4B1A78012A16BF002456
:10649000FE24012264B218BF1A704CF03DF9023498
:1064A00003D000F02EF8002000E0FE2040B210BD26
:1064B000AC2E001010B500F087F84CF095F9034BA6
:1064C00000241C704CF028F9204610BDAC2E0010A2
:1064D00038B5054640F6FF7000F016F80120014679
:1064E000024600F027F800F04BF800F071F804467F
:1064F00000F058F814B12C60002000E0FE2040B2FB
:1065000038BD12204CF088B9B0F5805F0DD8084B2B
:106510001B68DA6822F07F6222F47022DA60DA689F
:1065200042EA0040D860002000E0FE2040B2704700
:10653000E415001010B5114B20B11868C46844F080
:10654000010403E01868C46824F00104C46021B1A8
:106550001968C86840F0020003E01968C86820F0B4
:106560000200C8601B681AB1DA6842F0040202E057
:10657000DA6822F00402DA60002010BDE415001091
:1065800082B000230193064B1B689A680192019A1E
:10659000013201921A6842F001021A6002B070479B
:1065A000E415001082B000230193064B1B689A6823
:1065B0000192019A013201921A6822F001021A60D6
:1065C00002B07047E415001012204CF0CDB8000066
:1065D00082B0114A00230093019313681969019155
:1065E000019901F0010101911146019A012A09D096
:1065F0001A690192019A022A0BD0019A02F0010253
:106600000192F2E75A611A600B689B680093009848
:1066100000E0002002B07047E415001000231A4685
:1066200001219940014203F1010318BF0132202BDF
:10663000F6D110467047000010B5514C2068FFF7A6
:10664000EDFF2368002800F09A80DA070CD54D4A48
:106650001168A2F54032A2F5007201F00F01106836
:1066600020F00F00014311609C070CD5454A1168CA
:10667000A2F54032A2F5007201F0F001106820F09E
:10668000F0000143116058070CD53E4A1168A2F58D
:106690004032A2F5007201F47061106820F470605D
:1066A0000143116019070DD5364A1168A2F5403231
:1066B000A2F5FE72C1F30531106820F47C7040EA47
:1066C00001111160DA060CD52E4A1168A2F540328C
:1066D000A2F5F872C1F38541106820F03F00014334
:1066E00011609C060DD5274A1168A2F54032A2F52B
:1066F000F272C1F30361106820F4F04040EAC12156
:10670000116058060CD5204A1168A2F54032A2F556
:106710001C7201F00F01106820F00F00014311609E
:1067200019060CD5184A1168A2F54032A2F51C7260
:1067300001F0F001106820F0F00001431160DA056B
:106740000DD5114A1168A2F54032A2F51472C1F3B9
:106750000321106820F4F07040EA411111609B059C
:106760000DD5094B1A68A3F54033A3F51473C2F392
:106770000232196821F01C0141EA82021A6010BD40
:1067800008030AA200030AA204030AA208B5FFF73D
:1067900053FF064B1A6842F001021A60D3F8D0206A
:1067A00042F00102C3F8D02008BD00BF040007A2D8
:1067B00010B550B9184B1A6822F001021A604FF454
:1067C0007A70BDE810404BF0D7BF012823D1134C9D
:1067D000FFF7DCFF236843F002032360C8204BF07F
:1067E000CBFF236843F004032360C8204BF0C4FFB1
:1067F000236843F001032360C8204BF0BDFF2368EA
:1068000023F001032360236823F00403236023683B
:1068100023F00203236010BD000007A2C40007A2FA
:10682000FFF7B4BFFFF7C4BF0D4B00225A625A6393
:106830005A645A651A621A631A641A659A6A22F0CF
:106840000F029A629A6B22F00F029A639A6C22F0FE
:106850000F029A649A6D22F00F029A65704700BF8A
:10686000001000E010B5124C2368DA071FD4FFF7C0
:10687000DBFFE368DB0305D4E36843F0807343F494
:106880008033E3600B4B0C4A1968090F11605A6A98
:1068900042F01F025A625A6B42F01F025A635A6C4E
:1068A00042F01F025A645A6D42F01F025A6510BD31
:1068B000F0ED00E0001000E0B02E001070B5114CBB
:1068C0002468E4071AD4104C2468A04216D211EAB6
:1068D000020613D10501AC0805F1604505F58155A7
:1068E00030462960094941F82420094A52F8241009
:1068F00001F00F010B4342F8243070BD4FF0FF3020
:1069000070BD00BFF0ED00E0B02E0010241000E0DC
:10691000281000E0112870B51BD112480368072B1E
:106920000AD8114E0C255D43741971516260012221
:1069300013442272036070BD0C480D4A40F2791175
:10694000FDF784FA0B480C4A0C4B4FF4BD7147F02D
:106950004BF80B4C0C235843231821505A6001224A
:106960001A7270BDD82F00109C30001090350608A8
:1069700035360608753606080A360608B494070840
:10698000B82E0010112870B51BD112480368072BD0
:106990000AD8114E0C255D437419715162600122B1
:1069A00013442272036070BD0C480D4A4FF4C67147
:1069B000FDF74CFA0B480C4A0C4B40F28D1147F096
:1069C00013F80B4C0C235843231821505A60012212
:1069D0001A7270BD00310010782F0010BB35060808
:1069E000BD360608753606088C3A0608B4940708C2
:1069F000DC2F00102DE9F84F8046364D4BF0F4FEA9
:106A00006B688346002423FA04F919F00109E6B201
:106A100045D10122A24013430B2202FB045A6B60B2
:106A20002B7A0AF1290A0133494650462B7247F066
:106A3000E2F9404647F046FB0A2834BF07460A27DA
:106A4000414650463A4647F0B2F90FB149460CE08C
:106A50002148224A40F2F111FDF7F8F92048214A75
:106A6000214B4FF4F97146F0BFFFCBB2BB421AD2B3
:106A70000B2202FB04521344013193F82930213BCD
:106A80005C2BF2D91448154A4FF4FB71FDF7DEF97F
:106A90001348144A144B40F2F71146F0A5FF013495
:106AA000122CB0D1264658464BF036FE122E0CD191
:106AB00009480E4A4FF40071FDF7C8F90848094A21
:106AC000094B40F2012146F08FFF06F10E00C0B2E3
:106AD000BDE8F88F04310010D23A0608FC360608EB
:106AE00075360608F33A0608B494070828370608EE
:106AF0001F2973B505460C4608D92F482F4A40F286
:106B0000252102B0BDE87040FDF7A0B94BF06CFE46
:106B10002B4B1919012D06464A7A21D10132D2B2E6
:106B20004A721968A5402943FF2A19603DD10D2CEE
:106B300007D82148234A4FF40D712346FDF79EF9EB
:106B400033E0A4F10E020B2101FB02332933009341
:106B500019481D4A40F236212346FDF78FF924E0FB
:106B60005AB1013AD2B24A72FAB9012202FA04F4D5
:106B70001A6822EA04021A6017E00D2C07D80E48A2
:106B8000124A40F246212346FDF778F90DE0A4F1C0
:106B90000E020B2101FB02332933009306480C4AF5
:106BA0004FF412712346FDF769F9304602B0BDE893
:106BB00070404BF0B1BD00BFB63A06085437060826
:106BC00004310010B3370608EE3706082C380608E3
:106BD0007138060810B54BF007FE044B1C680034F2
:106BE00018BF01244BF098FD204610BD0431001061
:106BF0001F2808B507D90748074A40F26221FDF768
:106C000025F9002008BD054B1B6823FA00F000F0B1
:106C1000010008BDE53506085437060804310010A8
:106C2000014B1868704700BF04310010124A03235B
:106C300013605360114B40F227121A6003F1414375
:106C400003F571031B68D90504D50D4910220A60AC
:106C500041F8242C9A0504D5094920220A6041F8FC
:106C6000242C5B0504D5064A4023136042F8243CDB
:106C7000044B0F221A60704700E00FE0400010E064
:106C800058000DA2A4000CA208B5034B186800B16F
:106C9000804740B208BD00BFF099000408B5034B1F
:106CA000586800B1804740B208BD00BFF0990004A9
:106CB000FF2810B50BD1094A136814466BB1DB07E6
:106CC00002D5074847F0A0F80023236010BD20B983
:106CD000024B1A6842F001021A6010BDFC3000102D
:106CE0006F3A06080020FEF707BAFFF783BE08B523
:106CF00001460120FFF7FCFE002008BD08B5014653
:106D00000020FFF7F5FE002008BDFFF789BFFFF761
:106D100061BFFFF76DBF000010B5044600200A49AF
:106D20000246FEF769F9094900208C4238BF214626
:106D30000246FEF781F928B10548064A7521FDF79C
:106D400085F8FF2040B210BDE56C01087BF0C1075B
:106D5000143B0608833B0608012808B505D1BFF39C
:106D60004F8F30BFBFF36F8F03E0022806D14BF087
:106D700093FD0020BDE80840FEF7BEB908BD000045
:106D800008B5FFF753FF002000F03CF90020014652
:106D900000F0FCF80120002100F0F8F80020FEF7D8
:106DA000F7F828B10348044AB221FDF74FF8FF2055
:106DB00040B208BD353B0608A53B060870B5044641
:106DC000002857D16C4B11BB1B685D0740F1D38085
:106DD00030204BF021FD694B694C1A6822F4803257
:106DE0001A601D23236001204BF0C6FC1F23236083
:106DF00001204BF0C1FC1E23236001204BF0BCFCA2
:106E00001A23236001204BF0B7FC12232FE01A68ED
:106E1000540700F1B0801B68580700F1AC803020A7
:106E20004BF0FAFC554B564C1A6842F480321A600B
:106E30001623236001204BF09FFC1E2323600120BA
:106E40004BF09AFC0E23236001204BF095FC0C23A1
:106E5000236001204BF090FC1C23236001204BF0A9
:106E60008BFC1D23236001204BF086FC0D23236047
:106E7000012079E001287ED13F4B002930D11B68E9
:106E8000190778D530204BF0C7FC3C4B3D4D1A68B4
:106E90003D4E22F080721A601D232B6020464BF07D
:106EA0006BFC1F232B6020464BF066FC336843F4D9
:106EB0008033336020464BF05FFC336843F00103BE
:106EC000336020464BF058FC1E232B6020464BF0CD
:106ED00053FC1A232B6020464BF04EFC122341E05A
:106EE0001A68120747D41B681B0744D430204BF0A4
:106EF00093FC224B234D1A68234E42F080721A6095
:106F000012232B6020464BF037FC16232B602046C3
:106F10004BF032FC1E232B6020464BF02DFC3368D7
:106F200023F48033336020464BF026FC336823F093
:106F30000103336020464BF01FFC0E232B602046DC
:106F40004BF01AFC0C232B6020464BF015FC1C2345
:106F50002B6020464BF010FC1D232B6020464BF08D
:106F60000BFC0D232B6020464BF006FC3020BDE8C7
:106F700070404BF0F9BB70BD08080FA2AC030FA224
:106F800008020FA20C020FA260020FA238B580B94E
:106F9000144C29B9256895B1013D25603DB904E03F
:106FA00023680133236013B10121FFF707FF206835
:106FB00038BD012814D10B4C49B965681DB9FFF7DC
:106FC000FDFE284638BD013D65603DB904E06268BC
:106FD0000132626012B10146FFF7F0FE606838BD11
:106FE000002038BDAC9C0004044B054A40F0807082
:106FF0001860106800221A60704700BF30030FA2AB
:1070000034030FA2F0B5054691B030204BF004FCDC
:1070100020B15348534AA521FCF718FF524B534C5B
:107020001B68534B23600A204BF0A6FB514B236097
:107030000A204BF0A1FB504B504831221A60504AB5
:107040005A60504A9A60504ADA60504A1A61504A6F
:107050000023136053609360A2F5517244211360C2
:10706000016012684B4942F001020A604A4A4FF43B
:10707000803616601360006808604FF400011160EC
:107080001360464B464E032119604FF41B7143F8C1
:107090009C1C174643F8A06C2146A03B32462DB1FC
:1070A000404A43F81C2C404B236013E0284640F034
:1070B00080733E4C52F8205043F4803323600130FB
:1070C0003B4BB0F51B7F1D60F1D13A4A43F8302CA1
:1070D000354B0B60384B1B689B05FBD50025002406
:1070E0006019B0F51B7F06D2FFF77EFF4DF8240034
:1070F0000134102CF4D1684606EB8501A20046F05D
:1071000047FE18B12D4846F07FFEFEE71035B5F575
:107110001C7FE4D1254B186081233B60284B1B2248
:107120001A60182243F8382CD3F8682242F48032CF
:10713000C3F86822D3F8682242F08072C3F868224C
:10714000A3F5A27380221A6030204BF00DFB20B112
:1071500003481C4AFD21FCF779FE11B0F0BD00BFC9
:1071600078450608814506081C0009A200030FA205
:107170001000160B0000160B40030FA214000FA204
:10718000320017003300580034006F0035007D00D6
:1071900054030FA238030FA260030FA2C0030FA273
:1071A000C83B06080100160B0200160B30030FA2A5
:1071B00034030FA2493C160BE4090FA29F450608B1
:1071C00044010FA2B745060830B5184B93E80700F5
:1071D00087B003AC84E80700002300224DF80320A9
:1071E00058001118012505FA01F1C1F3140139B154
:1071F00091000F258D405DF8031029434DF80310D1
:107200000132082AEDD104330C2BE6D1084B186863
:10721000002300EB83025DF82310116654F823105D
:1072200011650133032BF4D107B030BD682906087E
:10723000E8150010024B1B6800229A605A607047E4
:10724000E815001000231A460121914001320B2A53
:1072500043EA0103F8D1064A126893640723536492
:10726000044B1B680F229A6504225A65704700BFC1
:10727000EC150010F015001000231A46012101FA48
:1072800002F00A440B2A43EA0003F7D1054A1268C8
:10729000936341F6E8735363034B1B680F229A63B1
:1072A00059637047EC150010F0150010024B1B6875
:1072B00000229A625A627047E815001000220B23E0
:1072C0000120A3F10B01034400FA01F1112B42EA62
:1072D0000102F5D1024B1B689A641C225A64704764
:1072E000F015001000220B230120A3F10B01034431
:1072F00000FA01F1112B42EA0102F5D1044B1B689F
:107300009A669A671D225A6600225A67704700BF24
:10731000F015001008B5FFF757FFFFF78BFFFFF7D9
:1073200091FFFFF7A9FFFFF7C9FFFFF7DBFFBDE8FC
:107330000840FFF7BBBF0000074B1B68D86A48B97D
:10734000064B1B68012B06D8054B1868054B1B68BC
:10735000C01A704700207047DC330010483200101C
:10736000F4150010F8330010064A13681968064B2C
:1073700011B94FF0FF3203E01268D268D268526848
:107380001A60704710320010F415001010B50E4B43
:107390001A6850600D4A12689042044607D20C4A9F
:1073A00010681968BDE81040043100F0E1BE094AD8
:1073B00010681968043100F0DBFE074B1A6894422C
:1073C00038BF1C6010BD00BFDC330010F833001064
:1073D000FC33001010320010F41500102DE9F84FA6
:1073E0000A9E0C9D884693469A46814628B9624873
:1073F000624940F2292202F071FB132E05D9604840
:107400005E4940F22A2202F069FB3DB94FEA8B0047
:1074100001F05AFF0546002800F0AA80542001F030
:1074200053FF044678B14FEA8B0B05635A46284652
:10743000A52146F0E0FC236BABF1040B5B4423F089
:107440000707002506E0284601F0DEFF90E0013541
:10745000062D08D0621918F8051082F8341018F8B3
:107460000520002AF3D10025132E34BFB3464FF078
:10747000130B04F10408404684F83950C4F82CB0CA
:10748000C4F844B0A56400F064FE04F1180000F0F4
:1074900060FECBF11402A261E5642461646284F8A9
:1074A000505038464946524601F010FE0B9B206072
:1074B00003B11C6001F028FE324B334D1A68DFF82F
:1074C000F49001321A602F681FBB2C601B68012BDF
:1074D00027D109EB0700143700F030FEB7F5C87F5D
:1074E000F7D1DFF8D4A0294F504600F027FE3846E8
:1074F00000F024FE264800F021FE264800F01EFE83
:10750000254800F01BFE254BC3F800A0244B1F604C
:1075100007E0244B1B6823B92B68DB6AB34298BF92
:107520002C60214A136801331360204AE363E36A45
:107530001168012404FA03F001431420116000FBD8
:107540000390414600F008FE01F000FE154B1B6859
:107550005BB12B68DB6AB34207D2154B4FF0805208
:107560001A60BFF34F8FBFF36F8F2046BDE8F88FCF
:107570004FF0FF30BDE8F88F23460608F0450608B7
:107580002E46060804340010DC33001030320010A0
:10759000E0330010FC3100100834001010320010ED
:1075A000FC33001014320010003400101C340010A2
:1075B00004ED00E0483200101C32001038B50446DB
:1075C00001F0A2FD0CB9254B1C68251D284600F0D2
:1075D000E7FD68B9E26A224914235343CB583BB90B
:1075E000204B0120196800FA02F221EA02021A6017
:1075F000A36A1BB104F1180000F0D2FD1A48294615
:1076000000F0AAFD194B1A6801321A60184B1A686B
:1076100001321A6001F09AFD164B1B68EBB10F4B5B
:107620001B689C4211D1144B1B682BB113481449A1
:1076300040F21A3202F052FA124B4FF080521A60A6
:10764000BFF34F8FBFF36F8F38BD01F05DFDFFF7C4
:107650008BFEBDE8384001F079BD38BDDC33001049
:10766000483200101C340010FC3100101832001099
:107670000034001014320010F43300107146060874
:10768000F045060804ED00E013292DE9F041044619
:107690000D4606D92E482F4940F2624202F01EFAEA
:1076A000132501F031FD0CB92B4B1C68636CAB4208
:1076B00049D09D42284A09D911688C420BD01268E2
:1076C000D66AB54234BF0026012605E01668A21B23
:1076D0005642564100E00026E76A20486564BB42F6
:1076E000A36908BFE5621422002B6369A8BFC5F136
:1076F000140502FB0702A8BFA5619342804619D179
:10770000251D284600F04CFD38B9154B01211A689B
:1077100001FA07F722EA07071F60114AE36A1068B7
:107720000121994001431420116000FB0380294688
:1077300000F012FD3EB10B4B4FF080521A60BFF3C8
:107740004F8FBFF36F8FBDE8F04101F0FFBC00BF6A
:1077500091460608F0450608DC3300104832001058
:107760001C34001004ED00E01FB5002400940194C7
:1077700002940394144815494FF480722346FFF78E
:107780002DFE012814D101F0E7F9012810D14FF0A6
:10779000200383F31188BFF36F8FBFF34F8F0C4B20
:1077A00018600C4B1C6004B0BDE8104001F0E6BC52
:1077B00040B90948094940F24C6204B0BDE81040A4
:1077C00002F08CB904B010BDE17A0108C846060881
:1077D00014320010F8330010CD460608F0450608B4
:1077E000024B1A6801321A60704700BFF433001070
:1077F000014B1868704700BFF833001010B50446FD
:1078000040B9064B1C682CB90548064940F21D7268
:1078100002F064F904F1340010BD00BFDC33001045
:107820008B460608F045060838B5094C094B226816
:107830001B6802449A42054605D90748074940F2A9
:10784000867202F04BF923681D44256038BD00BFE5
:10785000F8330010F4150010D5460608F045060868
:107860002DE9F047374B1B68002B3DD1364B1A688A
:1078700001321A601E68A6B9344C23681B682BB10C
:107880003348344940F2A57202F028F9324B22689D
:10789000196821601A60314B1A6801321A60FFF7CB
:1078A00063FD2F4FDFF8C8803B68DFF8C8909E4229
:1078B0004FF000040DD3254B1A68126812B94FF02F
:1078C000FF3305E01B68DB68DD686B689E4211D200
:1078D0003B60D9F80030DB6A1422534358F8033078
:1078E000022B28BF012425E01E4B1A6801321A60C2
:1078F00000241FE005F1040A504600F051FCAB6A79
:107900001BB105F1180000F04BFC174AEB6A106838
:107910000121994001431420116000FB038051466E
:1079200000F01AFCD9F80030EA6ADB6A9A4228BFF4
:107930000124C0E70D4B1B68002B18BF0124204613
:10794000BDE8F087F4330010F83300101032001057
:107950000B470608F0450608FC330010D83300102A
:10796000F4150010443200101C34001020340010B4
:1079700048320010DC33001070B52E4C23682BB950
:107980002D482E4940F2896202F0A8F801F0BCFBB4
:107990002368013B236023680BB1002445E0284B9A
:1079A0001B68002BF9D0274B1A680AB3DB68DC6828
:1079B000261D04F1180000F0F3FB304600F0F0FB48
:1079C000214AE36A1168012505FA03F001431160B9
:1079D0001E4A142000FB0320314600F0BDFB1C4B67
:1079E000E26A1B68DB6A9A4224BF1A4B1D60DAE721
:1079F000194C2368ABB9174B1C68012CCDD1174B20
:107A00004FF080521A60BFF34F8FBFF36F8F0CE0BF
:107A1000FFF726FF10B10F4B01221A602368013BCC
:107A200023602368002BF3D1E5E701F08FFB2046AC
:107A300070BD00BFF433001036470608F045060855
:107A400004340010E03300101C34001048320010E1
:107A5000DC330010203400104432001004ED00E04C
:107A600038B5044640B9174B4FF080521A60BFF347
:107A70004F8FBFF36F8F38BD134B1B682BB113486B
:107A8000134940F29F3202F029F8FFF7A9FE114D89
:107A9000114B1B68286804301C4400F081FB48B976
:107AA0000E4B19682A68D26A012000FA02F221EA14
:107AB00002021A602046FFF769FCFFF75DFF00280D
:107AC000D1D038BD04ED00E0F43300107146060853
:107AD000F0450608DC330010F83300101C340010A9
