:020000040801F1
:10200000DFF8ACD072B631F033FA2A482A490160C1
:102010002A482B492B4B2C4C2C4A42F8040B42F8F3
:10202000041B42F8043B146000202949204A41F86F
:10203000040B9142FFF4FBAF2649274A274B31F0AE
:1020400031FA2749274A284B31F02CFA274A284BE6
:1020500031F031FA2749284A284B31F023FA284A2F
:10206000284B31F028FA2849284A294B31F01AFA2E
:10207000284A294B31F01FFA2849294A294B31F0C7
:1020800011FA2949294A2A4B31F00CFA294A2A4BDC
:1020900031F011FA29492A4A2A4B31F003FA2A4A27
:1020A0002A4B31F008FA31F0D1F92FF039FB7047A3
:1020B00000800104000009A2110000001500201496
:1020C000000020042300001000000000001018E0B1
:1020D00000700104A483070800000010D814001049
:1020E00020A10708A0EF0300A0EF0300A0EF03006A
:1020F000204204007C980708D81400107C1D0010B2
:10210000801D001090EF031074A2070800800004E7
:10211000C09A0004C09A00047C9D000420A1070816
:1021200000002014F000201418A20708F800201462
:10213000F8002014F8002014F800201418A2070852
:10214000000120045C0120045C0120045C012004E7
:1021500081F0004102E000BF83F0004330B54FEA58
:1021600041044FEA430594EA050F08BF90EA020FC5
:102170001FBF54EA000C55EA020C7FEA645C7FEA58
:10218000655C00F0E2804FEA5454D4EB5555B8BF7B
:102190006D420CDD2C4480EA020281EA030382EAEC
:1021A000000083EA010180EA020281EA0303362D7E
:1021B00088BF30BD11F0004F4FEA01314FF4801C51
:1021C0004CEA113102D0404261EB410113F0004F63
:1021D0004FEA03334CEA133302D0524263EB43031A
:1021E00094EA050F00F0A780A4F10104D5F1200EB8
:1021F0000DDB02FA0EFC22FA05F2801841F1000113
:1022000003FA0EF2801843FA05F359410EE0A5F1E6
:1022100020050EF1200E012A03FA0EFC28BF4CF017
:10222000020C43FA05F3C01851EBE37101F00045CD
:1022300007D54FF0000EDCF1000C7EEB00006EEBDA
:102240000101B1F5801F1BD3B1F5001F0CD3490864
:102250005FEA30004FEA3C0C04F101044FEA4452BB
:1022600012F5800F80F09A80BCF1004F08BF5FEA42
:10227000500C50F1000041EB045141EA050130BD22
:102280005FEA4C0C404141EB010111F4801FA4F1C5
:102290000104E9D191F0000F04BF01460020B1FA1A
:1022A00081F308BF2033A3F10B03B3F120020CDA52
:1022B0000C3208DD02F1140CC2F10C0201FA0CF030
:1022C00021FA02F10CE002F11402D8BFC2F1200C95
:1022D00001FA02F120FA0CFCDCBF41EA0C0190404B
:1022E000E41AA2BF01EB0451294330BD6FEA040494
:1022F0001F3C1CDA0C340EDC04F11404C4F120027F
:1023000020FA04F001FA02F340EA030021FA04F390
:1023100045EA030130BDC4F10C04C4F1200220FAE7
:1023200002F001FA04F340EA0300294630BD21FA25
:1023300004F0294630BD94F0000F83F4801306BFEB
:1023400081F480110134013D4EE77FEA645C18BFDF
:102350007FEA655C29D094EA050F08BF90EA020F76
:1023600005D054EA000C04BF1946104630BD91EA6E
:10237000030F1EBF0021002030BD5FEA545C05D171
:102380004000494128BF41F0004130BD14F58004B0
:102390003CBF01F5801130BD01F0004545F0FE4124
:1023A00041F470014FF0000030BD7FEA645C1ABF59
:1023B000194610467FEA655C1CBF0B46024650EA90
:1023C000013406BF52EA033591EA030F41F40021BC
:1023D00030BD00BF90F0000F04BF0021704730B542
:1023E0004FF4806404F132044FF000054FF0000117
:1023F00050E700BF90F0000F04BF0021704730B5D8
:102400004FF4806404F1320410F0004548BF4042AC
:102410004FF000013EE700BF42004FEAE2014FEA01
:1024200031014FEA02701FBF12F07F4393F07F4FDC
:1024300081F06051704792F0000F14BF93F07F4F0E
:10244000704730B54FF4607401F0004521F0004151
:1024500020E700BF50EA010208BF704730B54FF0D7
:1024600000050AE050EA010208BF704730B511F0DC
:10247000004502D5404261EB41014FF4806404F114
:1024800032045FEA915C3FF4DCAE4FF003025FEA96
:10249000DC0C18BF03325FEADC0C18BF033202EB1E
:1024A000DC02C2F1200300FA03FC20FA02F001FA78
:1024B00003FE40EA0E0021FA02F11444C1E600BF17
:1024C00070B54FF0FF0C4CF4E06C1CEA11541DBFCA
:1024D0001CEA135594EA0C0F95EA0C0F00F0DEF895
:1024E0002C4481EA030621EA4C5123EA4C5350EA7A
:1024F000013518BF52EA033541F4801143F48013CB
:1025000038D0A0FB02CE4FF00005E1FB02E506F05B
:102510000042E0FB03E54FF00006E1FB03569CF0B0
:10252000000F18BF4EF0010EA4F1FF04B6F5007FB6
:1025300064F5407404D25FEA4E0E6D4146EB060628
:1025400042EAC62141EA55514FEAC52040EA5E50B1
:102550004FEACE2EB4F1FD0C88BFBCF5E06F1ED85B
:10256000BEF1004F08BF5FEA500E50F1000041EB92
:10257000045170BD06F0004646EA010140EA02003F
:1025800081EA0301B4EB5C04C2BFD4EB0C0541EA61
:10259000045170BD41F480114FF0000E013C00F376
:1025A000AB8014F1360FDEBF002001F0004170BD9A
:1025B000C4F10004203C35DA0C341BDC04F11404B3
:1025C000C4F1200500FA05F320FA04F001FA05F23F
:1025D00040EA020001F0004221F0004110EBD3700C
:1025E00021FA04F642EB06015EEA430E08BF20EA38
:1025F000D37070BDC4F10C04C4F1200500FA04F3DB
:1026000020FA05F001FA04F240EA020001F000416C
:1026100010EBD37041F100015EEA430E08BF20EADF
:10262000D37070BDC4F1200500FA05F24EEA020E27
:1026300020FA04F301FA05F243EA020321FA04F056
:1026400001F0004121FA04F220EA020000EBD3700D
:102650005EEA430E08BF20EAD37070BD94F0000F0D
:102660000FD101F00046400041EB010111F4801F41
:1026700008BF013CF7D041EA060195F0000F18BFF2
:10268000704703F00046520043EB030313F4801F2E
:1026900008BF013DF7D043EA0603704794EA0C0FE8
:1026A0000CEA135518BF95EA0C0F0CD050EA4106FE
:1026B00018BF52EA4306D1D181EA030101F000417B
:1026C0004FF0000070BD50EA410606BF10461946A3
:1026D00052EA430619D094EA0C0F02D150EA0136AF
:1026E00013D195EA0C0F05D152EA03361CBF1046F0
:1026F00019460AD181EA030101F0004141F0FE418F
:1027000041F470014FF0000070BD41F0FE4141F412
:10271000780170BD70B54FF0FF0C4CF4E06C1CEA12
:1027200011541DBF1CEA135594EA0C0F95EA0C0FC7
:1027300000F0A7F8A4EB050481EA030E52EA033582
:102740004FEA013100F088804FEA03334FF08055A3
:1027500045EA131343EA12634FEA022245EA1115D0
:1027600045EA10654FEA00260EF000419D4208BF81
:10277000964244F1FD0404F5407402D25B084FEA2E
:102780003202B61A65EB03055B084FEA32024FF4DA
:1027900080104FF4002CB6EB020E75EB030E22BF37
:1027A000B61A754640EA0C005B084FEA3202B6EBF7
:1027B000020E75EB030E22BFB61A754640EA5C00A6
:1027C0005B084FEA3202B6EB020E75EB030E22BF36
:1027D000B61A754640EA9C005B084FEA3202B6EB37
:1027E000020E75EB030E22BFB61A754640EADC00F6
:1027F00055EA060E18D04FEA051545EA16754FEA58
:1028000006164FEAC30343EA52734FEAC2025FEA75
:102810001C1CC0D111F4801F0BD141EA00014FF004
:1028200000004FF0004CB6E711F4801F04BF0143D5
:102830000020B4F1FD0C88BFBCF5E06F3FF6AFAEF1
:10284000B5EB030C04BFB6EB020C5FEA500C50F181
:10285000000041EB045170BD0EF0004E4EEA113104
:1028600014EB5C04C2BFD4EB0C0541EA045170BD0B
:1028700041F480114FF0000E013C90E645EA060E4F
:102880008DE60CEA135594EA0C0F08BF95EA0C0F7D
:102890003FF43BAF94EA0C0F0AD150EA01347FF4C5
:1028A00034AF95EA0C0F7FF425AF104619462CE79C
:1028B00095EA0C0F06D152EA03353FF4FDAE1046FF
:1028C000194622E750EA410618BF52EA43067FF450
:1028D000C5AE50EA41047FF40DAF52EA43057FF4E0
:1028E000EBAE12E74FF0FF3C06E000BF4FF0010CEB
:1028F00002E000BF4FF0010C4DF804CD4FEA410C4F
:102900007FEA6C5C4FEA430C18BF7FEA6C5C1BD01B
:1029100001B050EA410C0CBF52EA430C91EA030F9C
:1029200002BF90EA020F0020704710F1000F91EAF9
:10293000030F58BF994208BF90422CBFD8176FEAC7
:10294000E37040F0010070474FEA410C7FEA6C5C95
:1029500002D150EA013C07D14FEA430C7FEA6C5C9C
:10296000D6D152EA033CD3D05DF8040B704700BFC8
:102970008446104662468C461946634600E000BF16
:1029800001B5FFF7B7FF002848BF10F1000F01BDE8
:102990004DF808EDFFF7F4FF0CBF012000205DF8B3
:1029A00008FB00BF4DF808EDFFF7EAFF34BF012038
:1029B00000205DF808FB00BF4DF808EDFFF7E0FFD1
:1029C00094BF012000205DF808FB00BF4DF808ED22
:1029D000FFF7CEFF94BF012000205DF808FB00BF89
:1029E0004DF808EDFFF7C4FF34BF012000205DF86B
:1029F00008FB00BF4FEA410212F5001215D211D5B3
:102A00006FF47873B3EB625212D94FEAC12343F0EB
:102A1000004343EA505311F0004F23FA02F018BF6D
:102A2000404270474FF00000704750EA013005D136
:102A300011F0004008BF6FF0004070474FF00000F9
:102A4000704700BF4A0011D212F5001211D20DD505
:102A50006FF47873B3EB62520ED44FEAC12343F0A4
:102A6000004343EA505323FA02F070474FF000004E
:102A7000704750EA013002D14FF0FF3070474FF0FD
:102A80000000704773B96AB9002908BF0028BCBFAD
:102A900000204FF00041C4BF6FF000414FF0FF3005
:102AA00000F052B882B0EC462DE9005000F01CF85E
:102AB000DDF804E002B00CBC704700BF4BB942B96E
:102AC000002908BF002802D04FF0FF31084600F06F
:102AD0003BB882B0EC462DE9005000F01DF8DDF85F
:102AE00004E002B00CBC70472DE97043069E14460A
:102AF0001D468046894600F029F804FB01F300FBDF
:102B00000533A4FB00451D44B8EB040469EB05053F
:102B1000C6E90045BDE870832DE97043069E144662
:102B2000804689461D4600F05DF900FB05F504FB73
:102B30000153A0FB04451D44B8EB040469EB0505F3
:102B4000C6E90045BDE87083704700BF00292DE944
:102B5000F00FC0F29F800024002BC0F29680154633
:102B600006460F46002B3ED18A4257D9B2FA82F36D
:102B70004BB1C3F1200201FA03F720FA02F29D40A3
:102B8000174300FA03F6290CB7FBF1F2330C01FBF3
:102B9000127CA8B243EA0C4700FB02F3BB4209D9FE
:102BA0007F1902F1FF3C80F00181BB4240F2FE80C0
:102BB000023A2F44FF1AB7FBF1F3B6B201FB1371CF
:102BC00046EA014100FB03F0884208D9491903F1A4
:102BD000FF3780F0ED80884240F2EA80023B43EA12
:102BE0000242002303E08B420AD900231A46104612
:102BF000194614B1404261EB4101BDE8F00F704746
:102C0000B3FA83F8B8F1000F40F084808B4202D30E
:102C1000824200F2DE8000230122E8E712B901239C
:102C2000B3FBF2F5B5FA85F2002A39D17F1B280CE7
:102C30001FFA85FC0123B7FBF0F1320C00FB117782
:102C400042EA07470CFB01F2BA4207D97F1901F1AA
:102C5000FF3802D2BA4200F2C1804146BF1AB7FB28
:102C6000F0F2B6B200FB127046EA00400CFB02FC28
:102C7000844507D9401902F1FF3702D2844500F29A
:102C8000AB803A4642EA0142B1E7E443524263EB89
:102C9000430364E7404261EB41014FF0FF345BE7DF
:102CA0009540C2F1200327FA03F1280C26FA03F31A
:102CB0009740B1FBF0F81F433B0C00FB18111FFAC3
:102CC00085FC43EA01410CFB08F38B4206FA02F64D
:102CD00008D9491908F1FF3279D28B4277D9A8F186
:102CE00002082944C91AB1FBF0F3BFB200FB13116B
:102CF00047EA01470CFB03F2BA4207D97F1903F1F7
:102D0000FF3160D2BA425ED9023B2F44BF1A43EA78
:102D1000084390E7C8F1200203FA08FC25FA02F301
:102D200043EA0C0C4FEA1C4921FA02F301FA08F7B6
:102D300020FA02F2B3FBF9F1174309FB11333A0C05
:102D40001FFA8CFB42EA03430BFB01FA9A4505FA92
:102D500008F008D913EB0C0301F1FF3235D29A4584
:102D600033D902396344CAEB0303B3FBF9F209FB1D
:102D70001233BFB247EA03470BFB02F9B94508D942
:102D800017EB0C0702F1FF331BD2B94519D9023AF0
:102D9000674442EA0145A5FB0001C9EB07078F42E2
:102DA0004FF000030AD305D02A4620E7624601E728
:102DB0003B4614E706FA08F68642F5D26A1E00235F
:102DC00015E71A46E5E70B46A0E71146CBE7904624
:102DD00088E7434642460AE7023A53E702392F445E
:102DE0003CE700BF2DE9F00F144605460E46002BC8
:102DF00043D18A4253D9B2FA82F757B1C7F12006BC
:102E000020FA06F601FA07F302FA07F41E4300FA65
:102E100007F5210CB6FBF1F22B0C01FB1267A0B2F7
:102E200043EA074600FB02F3B34209D9361902F11F
:102E3000FF3780F0F680B34240F2F380023A264436
:102E4000F61AB6FBF1F3ADB201FB136145EA01419D
:102E500000FB03F0884208D9091903F1FF3680F01E
:102E6000E280884240F2DF80023B43EA02420023D4
:102E700010461946BDE8F00F70478B424AD8B3FAA6
:102E800083F6002E4DD18B4202D3824200F2D680CF
:102E90000023012210461946BDE8F00F704712B911
:102EA0000124B4FBF2F4B4FA84F2002A7CD1091BA9
:102EB000260CA7B20123B1FBF6F02A0C06FB101179
:102EC00042EA014107FB00F28A4207D9091900F1E1
:102ED000FF3C02D28A4200F2C3806046891AB1FBED
:102EE000F6F2ADB206FB121145EA014507FB02F707
:102EF000AF4208D92C1902F1FF3180F09680A74229
:102F000040F29380023A42EA004210461946BDE878
:102F1000F00F704700231A4610461946BDE8F00F1F
:102F20007047C6F1200522FA05F4B3401C434FEA6E
:102F3000144821FA05F301FA06F720FA05F5B3FB68
:102F4000F8FC2F4308FB1C333D0C1FFA84FA45EABA
:102F500003430AFB0CF9994502FA06FB04D91B1935
:102F60000CF1FF326DD39446C9EB0303B3FBF8F5C4
:102F700008FB1533BFB247EA03470AFB05F8B8451B
:102F800004D93F1905F1FF3361D31D4645EA0C4CC6
:102F9000ACFB0B23C8EB07079F424FF0000549D35A
:102FA00045D062462B4663E79440C2F1200321FAE4
:102FB00003FC260C20FA03F301FA02F5BCFBF6F839
:102FC00043EA05010B0C06FB18CCA7B243EA0C4CF4
:102FD00007FB08F3634500FA02F509D91CEB040C62
:102FE00008F1FF323AD2634538D9A8F10208A44467
:102FF000C3EB0C0CBCFBF6F389B206FB13CC41EA25
:103000000C4107FB03F28A4207D9091903F1FF308B
:1030100022D28A4220D9023B2144891A43EA08433A
:1030200049E73A460CE733461FE70A466BE7B040EC
:103030009042B6D20CF1FF32002319E733463246F4
:1030400016E799458FD9ACF1020C23448CE7B845BB
:103050009BD9023D274499E70346DEE79046C7E740
:10306000023821443AE700BF10F8012B11F8013B68
:10307000012A28BF9A42F7D0D01A70474FEA41027E
:10308000B2F1E04324BFB3F5001CDCF1FE5C0DD9C6
:1030900001F0004C4FEAC0024CEA5070B2F1004F10
:1030A00040EB830008BF20F00100704711F0804F13
:1030B00021D113F13872BCBF01F00040704741F4D8
:1030C00080114FEA5252C2F11802C2F1200C10FADC
:1030D0000CF320FA02F018BF40F001004FEAC123C0
:1030E0004FEAD32303FA0CFC40EA0C0023FA02F364
:1030F0004FEA4303CCE77FEA625307D150EA01333A
:103100001EBF4FF0FE4040F44000704701F0004009
:1031100040F0FE4040F40000704700BF014B93F8C0
:1031200026307047801D001010B5084B93F8823090
:10313000074B1C78204607F035FD2046002107F09C
:1031400045FD2046BDE8104007F0ACBD801D0010D5
:103150007AF1060870B5104B5C2505FB003530355B
:103160006B790446B3B10D4B1E5C304603F088FB0F
:1031700018B10B480B4AD42106E0304603F0ACFAF4
:1031800038B10748084ADA212346BDE8704002F00A
:10319000EBBA687170BD00BF801D0010E5620508C4
:1031A00067750508226305085063050870B5104B64
:1031B0005C2505FB003540356B790446B3B10D4BFA
:1031C0001E5C304603F05CFB18B10B480B4ABE2175
:1031D00006E0304603F080FA38B10748084AC321B8
:1031E0002346BDE8704002F0BFBA687170BD00BFF1
:1031F000801D0010DA750508B96205088D630508A1
:10320000BD63050870B5064600250E4B5C2202FB27
:10321000063393F82620120712D593F835207AB199
:1032200093F8493063B10EB9074B00E0074B1C68B7
:10323000012042F0B5FE1CB1AC4201D02546E4E7C6
:1032400070BD00BF801D0010380702A0380902A021
:103250002DE9F34104460F4649484A4A40F203111A
:10326000234602F0B1FA012C04D94548464A4FF4EE
:1032700083716AE0454D5C2000FB045090F82620E5
:103280005AB190F8263000933D48414A40F20B1164
:10329000234602F069FAFF2065E001F0E3F83D4BB8
:1032A0001E5D984676B9002C61D101203A4922462C
:1032B00007F0ACFF39490120224607F0DFFF012368
:1032C00008F80430042F4DD8DFE807F00F301D0355
:1032D0002200334A2A4823464FF4917102F074FACF
:1032E0005C2303FB045303220AE02E4A24482346AE
:1032F00040F2271102F068FA5C2303FB045300221A
:1033000083F8242025E01E48274A4FF496711CE0DC
:103310001B483CB9254A40F23111234602F054FAC9
:1033200004220CE040F23511214A0EE014484CB959
:10333000204A40F23B11234602F046FA01221E4B7E
:103340001A7106E01D4A40F23F11234602F00CFAC2
:1033500008E05C236343EA18012182F8261000206C
:10336000EC5400E0FE2040B202B0BDE8F081022043
:103370001349324607F04AFF0220124932469CE7C1
:10338000AE750508FA63050809640508801D00107C
:10339000306405083C1E00101D310108913A0108F7
:1033A0005364050881640508A6640508DC64050803
:1033B0000E65050851650508A01D00107A65050811
:1033C000293101086D3A010837B5044640F257111A
:1033D0001848194A234602F0F7F9012C08D9154874
:1033E000164A4FF4AD71234602F0BEF9FE201EE0EE
:1033F000134B5C2202FB043202F12003997901296C
:103400000AD09B7900930B480E4A40F25F11234685
:1034100002F0AAF9FF200AE000259D71204682F8FB
:103420004850FFF7C3FE2046FFF794FE284640B2FF
:1034300003B030BD30620508B4650508C5650508F0
:10344000801D0010F2650508F7B504460D469B483F
:103450009B4A4FF4BA71234602F0B6F9012C04D905
:103460009648984A40F2771104E03DB99348964A4D
:103470004FF4BE71234602F077F91AE1934B5C22B8
:1034800002FB043220329179012909D0937900930B
:103490008A488F4A40F28111234602F065F9DDE047
:1034A000297B2A78914204D084488A4A40F28711C5
:1034B000E0E76A7B012A06D1297F21B17F48864A4D
:1034C00040F28D11D6E728696968884204D07B48AC
:1034D000824A40F29311CDE70AB1012A06D15C215C
:1034E00001FB04314A746A782AB906E073487C4AC1
:1034F0004FF4D071BEE7012A06D15C2101FB0431F3
:103500004A712A7E2AB906E06C48764A40F2AD112B
:10351000B0E7012A20D15C2101FB04310A77297F21
:103520005C22012902FB043218BF002182F820101E
:10353000297D5C22012902FB043218BF002111768B
:10354000297A5C22012902FB043218BF0021117381
:10355000EA7E012A05D10BE05848634A4FF4DD7139
:1035600088E7C0F0A680022A4FF05C0101D003E09A
:103570005C2101FB043102E001FB043101225C20EB
:1035800000FB0430CA770246696842F8081F2969BF
:10359000D160697D00F11002012918BF002151722C
:1035A000697A5C22012902FB043218BF00215173A1
:1035B0003CBB4E4A1279012A01D0042A29D1697EE6
:1035C000012904D93D484A4A40F20E2108E0494AFF
:1035D0005171A97E022905D93848474A40F2152180
:1035E000002348E7A86900F0FF10B0F5003F18BFBE
:1035F00091710ED13148414A40F2192102F0B4F8DC
:1036000057E0A97E5C22012902FB043218BF002189
:1036100091775C2707FB0437297B2C4E384601F055
:10362000E1F8054620B12548354A40F22D2121E731
:10363000012387F8483096F848308BB196F8A430CB
:1036400073B196F8252096F881309A4208D01B482D
:103650002C4A40F23721234602F086F8FF2529E064
:10366000384600F025FF284E28482949294A2A4B88
:103670007CB92A4C24683460294C246804602948A9
:1036800000680860284909781170284A12781A7071
:1036900010E0274C24687460264C24684460264857
:1036A00000684860254909785170254A12785A7097
:1036B00000E0FE2568B203B0F0BD00BF65620508FA
:1036C000176605082866050851660508801D001064
:1036D000786605089D660508DA6605080D67050821
:1036E000446705087B670508B1670508A01D001041
:1036F000DC670508981D001008680508396805088A
:1037000091680508BD680508401E0010541E001091
:103710004C1E0010481E0010381E0010000007A0AC
:10372000040007A0080007A0350007A0390007A083
:10373000000008A0040008A0080008A0350008A0A8
:10374000390008A02DE9FF47044617461D460E46DE
:1037500021B93B483B4A40F2612105E08B0708D084
:103760003748394A40F26721234601F0FDFFFE2029
:1037700062E015B115F0010A04D03148334A4FF424
:103780001B71F1E7012804D92D48314A40F271211B
:10379000EAE7304A4FF05C0808FB0028914698F8A9
:1037A000261001290AD098F82630009324482A4A86
:1037B00040F27621234601F0D7FF2FE0FFF7CAFC45
:1037C000264B03951D5D88F84AA02846029602F014
:1037D000D7FE20B11A48224A40F287211BE0284632
:1037E00002A902F0D1FF20B115481E4A40F28D21F6
:1037F00011E02846394603F051F820B110481A4A22
:1038000040F2932107E0284602F0F8FF40B10C484F
:10381000164A40F29921234601F0A6FFFF200BE053
:103820005C2303FB0494029BA362039BE3620123DA
:10383000276384F83530002040B204B0BDE8F0873B
:103840009F62050813690508406905087F69050836
:10385000C8690508801D0010F7690508E5620508BC
:10386000286A0508556A0508876A0508BD6A0508BB
:103870002DE9FF41044617461D460E4621B9394839
:10388000394A40F2AE2105E08A0708D03548374A68
:103890004FF42D71234601F067FFFE205DE00BB170
:1038A000EB0704D52F48324A40F2B921F2E701284C
:1038B00004D92C482F4A40F2BE21EBE72E4A5C2364
:1038C00003FB0023203399790129904609D09B7985
:1038D00000932448294A40F2C321234601F044FFC3
:1038E0002DE0FFF763FC264B03951D5D02962846ED
:1038F00002F046FE20B11B48224A40F2D3211BE0D1
:10390000284602A902F040FF20B116481E4A40F2A4
:10391000D92111E02846394602F0C0FF20B11148F4
:103920001A4A40F2DF2107E0284602F067FF40B163
:103930000C48174A40F2E521234601F015FFFF200D
:103940000BE05C2303FB0484029BA363039BE36300
:103950000123276484F84530002040B204B0BDE85C
:10396000F08100BFCB620508EB6A0508186B0508FB
:10397000576B0508A06B0508801D0010CF6B05086C
:10398000DA750508006C05082D6C05085F6C0508E4
:10399000956C05082DE9F041244E5C2303FB006380
:1039A000203304469B79002B3DD0214D21482249EC
:1039B000224A234B74B92F68224D2F600568224894
:1039C00005600868214908601178214A11701A7849
:1039D000204B0DE06F68204D2F6045681F48056043
:1039E00048681F49086051781E4A11705A781E4B6A
:1039F0005C2505FB04651A7095F835302BB120461F
:103A0000A96A2A6BEB6AFFF79DFE5C2303FB046344
:103A100093F845203AB12046996B1A6CDB6BBDE8F0
:103A2000F041FFF725BFBDE8F08100BF801D001009
:103A3000401E0010541E00104C1E0010481E0010A6
:103A4000381E0010000007A0040007A0080007A00F
:103A5000350007A0390007A0000008A0040008A056
:103A6000080008A0350008A0390008A0074B10B5D1
:103A70001C78204607F096F82046052107F0A6F8A6
:103A80000120BDE81040FFF785BF00BF7AF10608AE
:103A90000020FFF77FBF002070470000012810B50D
:103AA000044608D91148124A4FF45871234601F0D0
:103AB0005BFEFE2017E00F4B5C2202FB0033DB6A4B
:103AC00023B90A480C4A40F2653108E00B4B185CF8
:103AD00002F038FF38B10548094A40F26D312346FB
:103AE00001F042FEFF2040B210BD00BF8F750508F7
:103AF0003F6D0508801D0010756D0508E56205081D
:103B0000AF6D0508012838B5034607D90C480D4AA2
:103B10004FF4677101F028FEFE200EE00A4A5C2592
:103B200005FB00254835AC7834B9084A2146105CBD
:103B300002F0B4FE0123AB70002040B238BD00BFDC
:103B40002B750508B56E0508801D0010E562050897
:103B5000012808B5034607D90E480F4A4FF46C7187
:103B600001F002FEFE2012E0012208B90B4900E03C
:103B70000B490A700B4A5C2101FB0323002093F8D8
:103B8000261083F84A0041F0080183F8261040B25D
:103B900008BD00BF0D630508B56E0508340007A019
:103BA000340008A0801D0010012810B5044608D973
:103BB0001048114A40F2E331234601F0D5FDFE20C2
:103BC00016E020B9FFF71EFB0C4B1C7005E001202E
:103BD000FFF718FB0A4B00221A700A4B5C2202FB0B
:103BE0000434002094F8263003F0F70384F82630DC
:103BF00040B210BD797505080D6F0508340007A0A7
:103C0000340008A0801D0010F8B5044640F21941A8
:103C10003048314A234601F0A7FD012C08D92D4830
:103C20002E4A40F21B41234601F09EFDFE204EE04D
:103C30002B4D2C4E5C2000FB04502F4600F0FCF96D
:103C4000294DF4B92B7853B90A2007F08EFD0123D2
:103C50002048264A2B7040F2264101F0B5FD30780D
:103C600042F06EF9224B234900221A70DA70DA71A1
:103C700001230B700A70204A1370537002F8013C44
:103C80001EE02B5D53B90B2007F06FFD0123114897
:103C90001A4A6B7040F23C4101F096FD305D42F0F3
:103CA0004FF9174B174900221A70DA71DA700123A5
:103CB0000B700A70144A137002F8013C02F8023CBF
:103CC0005C2505FB0474012384F84930002040B2D0
:103CD000F8BD00BFBE750508676F0508826F05084F
:103CE000801D00103E7505083A1E0010B46F0508CF
:103CF000330007A00C0007A0310007A0D56F05080E
:103D0000330008A00C0008A0320008A00128F7B575
:103D1000044608D93B483C4A40F25E41234601F044
:103D200023FDFE206AE0394E5C2303FB006393F819
:103D3000261001290AD093F8263000933148344ADE
:103D400040F26341234601F00FFD52E093F8493001
:103D5000002B4ED02F4D304FE8B92B784BB10A20B5
:103D600007F00AFD27482D4A2C704FF48E6101F0B0
:103D70002BFD2B4A2B493878002353702A4A1370A5
:103D80009370537001220A700B70284B1A701A71CD
:103D900003F8032C21E02B5C53B10B2007F0ECFC63
:103DA00000231848224A2B5540F2874101F00CFDB0
:103DB0005C2202FB0462002382F849301D4A1E493E
:103DC00013709370537001220A700B701B4B385D97
:103DD0001A7003F8042C03F8072C42F0D9F896F86F
:103DE000493043B9094A92F8A54034B900F004F9C2
:103DF00001E0FF2002E0002000E0184640B203B0DE
:103E0000F0BD00BFDC750508F66F0508801D0010C9
:103E1000297005083A1E00103E7505085370050804
:103E2000C81D00100C0007A0300007A0360007A036
:103E300074700508300008A00C0008A03A0008A023
:103E4000012838B5044608D91548164A40F2B4414D
:103E5000234601F089FCFE201FE0134B5C2505FB87
:103E60000035EB6C23B90E48104A40F2B9410BE023
:103E700030352B7983B90E4B185C02F0AFFC40B1A2
:103E800007480C4A40F2C241234601F06DFCFF2076
:103E900003E001232B7100E0002040B238BD00BFD9
:103EA0004262050895700508801D0010CF70050856
:103EB000E562050818710508012838B5044608D9D7
:103EC0001348144A40F2D641234601F04DFCFE202F
:103ED0001CE0114B5C2505FB0035EB6C23B90C484D
:103EE0000E4A40F2DB410BE03035287970B10C4BC3
:103EF000185D02F0B7FC40B105480A4A40F2E341C0
:103F0000234601F031FCFF2000E0287140B238BDAB
:103F10007B6205085E710508801D00109971050817
:103F2000E5620508E371050870B5134B0C785C2257
:103F300002FB04321E4692F84A20C2B10CB90F4B64
:103F400000E00F4B1D68B5B9CB6C496D0520984753
:103F50005C2303FB04630B4A83F84A50105D196C21
:103F600002F09CFC2046BDE87040FFF7A5BFCB6C7B
:103F7000496D0320984770BD801D0010380702A0CE
:103F8000380902A0E5620508012810B51346044669
:103F900004D91248124A40F2495104E041B90F488D
:103FA000104A40F24E51234601F0DEFBFE2013E0A2
:103FB0000D4A5C2000FB042253650C4BD164185D54
:103FC0000B4902F0D1FC38B104480A4A4FF4AB6106
:103FD000234601F0C9FBFF2040B210BDE76205088F
:103FE000C1730508F8730508801D0010E562050817
:103FF000293F01083274050870B50C4E33789BB127
:104000000B4B0C4C01251D60284641F0A1FF236895
:1040100023F008032360284641F09AFF236843F405
:10402000803323600023337070BD00BF641E001016
:10403000800A05A2A00A05A22DE9F04790F82520E4
:1040400003780446724812B94621724A0AE0724E59
:10405000724A4A2101F0B8FB33783BB16C48704A90
:1040600023784C21BDE8F04701F0AEBB6D4B1B78C7
:10407000012B94F8253040F0FD80012B40D164489D
:10408000694A2378DFF8E891DFF8D881674F684DF7
:10409000552101F099FB674A44F21F43C9F80030EB
:1040A000136047F22033C8F800304FF0F0533B6004
:1040B0004FF43C532B60142041F04AFF44F21E435E
:1040C000C9F800305C4B2B605C4B1A689007FBD53D
:1040D0002A221A605A4B2B605A4B3B60012041F058
:1040E00037FF594B2B60012041F032FF4FF2023372
:1040F000C8F800304FF238032B60142041F028FF3D
:1041000094F82530022B45D14148504A2378DFF8F6
:104110006091DFF85081454F454D6F2101F054FB10
:1041200044F21D43C9F80030424B4DF661021A605B
:1041300047F20233C8F8003003F1E15303F5F713F7
:1041400003F5CC733B604FF400332B60142041F037
:10415000FFFE44F21C43C9F800303D4B2B60374B47
:104160001A689107FBD52A221A603A4B2B603A4B0A
:104170003B60012041F0ECFE384B2B60012041F008
:10418000E7FE4FF20233C8F8003038232B601420CA
:1041900041F0DEFE94F82530032B40F0388123787F
:1041A0001B482F4ADFF8C8802E4F204D204C892114
:1041B00001F00AFB40F23543C8F800301D4B4CF6C5
:1041C00061021A6047F202333B60274B2B604FF4C9
:1041D0003C332360142041F0BBFE40F23443C8F866
:1041E0000030154B2360154B1A689207FBD52A2225
:1041F0001A60134B23601D4B2B60012041F0A8FE79
:10420000114B2360012041F0A3FE4FF20233F7E08F
:10421000117B05080B760508641E00101E76050844
:1042200032760508A30202A2567605088C0A05A27A
:10423000A00A05A2840A05A208F00200900A05A2BD
:1042400018F002000100001E38F002008476050814
:1042500008000200180002009B543F1C38000200B6
:10426000B6760508880A05A2542FCA19552FCA190F
:10427000800A05A2012B41D16748684A2378DFF8FC
:10428000E091DFF8D081664F664DA42101F09CFAE1
:1042900044F21343C9F80030634B46F661021A60DA
:1042A00047F20333C8F80030604B3B604FF43C5397
:1042B0002B60142041F04CFE44F21243C9F8003048
:1042C0005B4B2B605B4B1A689007FBD52A221A6068
:1042D000574B2B60584B3B60012041F039FE574B48
:1042E0002B60012041F034FE4FF20333C8F8003058
:1042F0004FF238032B60142041F02AFE94F8253049
:10430000022B41D144484E4A2378DFF85491DFF81C
:104310004481434F434DBE2101F056FA44F211430C
:10432000C9F80030404B45F661021A6047F203338A
:10433000C8F80030434B3B604FF43C332B601420F3
:1043400041F006FE44F21043C9F80030384B2B60B0
:10435000384B1A689107FBD52A221A603A4B2B601A
:104360003A4B3B60012041F0F3FD344B2B600120C0
:1043700041F0EEFD4FF20233C8F800304FF238033F
:104380002B60142041F0E4FD94F82530032B3ED13E
:10439000237821482E4ADFF8C8802E4F204D214C2B
:1043A000D82101F011FA40F22343C8F800301E4B27
:1043B00045F661021A6047F203333B60264B2B60DF
:1043C0004FF43C332360142041F0C2FD40F22243FD
:1043D000C8F80030164B2360164B1A689207FBD5BD
:1043E0002A221A60184B23601C4B2B60012041F0DD
:1043F000AFFD124B2360012041F0AAFD4FF20333C1
:104400003B604FF238032360142041F0A1FD0123EB
:104410003370BDE8F08700BF117B0508E976050819
:104420008C0A05A2A00A05A2840A05A2CCCCCC1253
:1044300008F00200900A05A2CDCCCC1238F00200A0
:1044400016770508302AA91118F00200312AA9119F
:1044500047770508880A05A25C3810105D381010EF
:10446000800A05A210B5002104465C223CF0DDFE66
:1044700005230422082184F8243084F82520002311
:1044800001222370E3622363E3632364237763776A
:10449000A377E27784F8203062712171A3602373DF
:1044A00063736274217463612376637610BD0000C8
:1044B0002DE9F04190F824400378042C21D8DFE85E
:1044C00004F0171A200310002BB9864A116841F036
:1044D000004111600DE0844A116841F00041116013
:1044E0000FE073B97F4A116841F00041116003E0A9
:1044F0003BB97E4A01E023B97D4A7E490A607E4984
:104500000A60077F90F811C090F820E0067E057BD6
:10451000002B40F099807349764A774B3FB9176872
:1045200027F0040717601F6827F004070AE00F68E8
:1045300047F071670F60176847F0040717601F683E
:1045400047F004071F60BCF1000F03D10F6847F468
:1045500080770F60BEF1010F03D10F6847F4007739
:104560000F60012E03D10E6846F080060E60012D0B
:1045700003D11D6845F000451D60012C01D0042CBD
:104580002FD1447F3CB1156845F0005515601D687A
:1045900045F000551D60857FDDB1012D15680BD1FB
:1045A00045F4005616601E68012C46F400561E6045
:1045B0000FD145F402550AE045F4804616601E68A6
:1045C000012C46F480461E6003D145F48145494CD8
:1045D0002560806814684004044314601C6820430C
:1045E0001860464E09683160454D12682A60454C96
:1045F0001B6823604448454A4FF4C77101F0E4F852
:1046000033684148424A40F28F1101F0DDF82B68CF
:104610003D48404A4FF4C87101F0D6F823683A4843
:104620003D4A40F2911101F0CFF83C4B36481B78DF
:104630003B4A4FF4C97101F0C7F83A4B32481B7836
:10464000394A40F29311B0E02749BCF1000F03D181
:104650000B6843F480730B60BEF1010F03D10B684C
:1046600043F400730B60012E03D10B6843F0800309
:104670000B60012D2D4B03D11A6842F000421A60E5
:10468000827F012A2A4A07D1146844F00204146088
:104690001C6844F002041C60C07F0228106814D11A
:1046A00040F4C02047B940F08B001060186840F417
:1046B000D02040F00B0045E040F08F0010601868FB
:1046C00040F4D02040F00F003CE040F400308FBBBD
:1046D00040F009001060186840F4203040F00900F4
:1046E00030E000BF6C1E0010701E00100980000832
:1046F000218000085C1E0010741E0010000007A03E
:10470000040007A0080007A0F975050879770508D7
:1047100093770508AB770508BF770508350007A034
:10472000D3770508390007A0FE770508601E001042
:10473000681E001040F00D001060186840F4203032
:1047400040F00D001B4E096818601B4C3160126868
:1047500022601A4D1B682B6019481A4A40F2CD118D
:1047600001F032F833681648174A4FF4E77101F048
:104770002BF82B681248154A40F2CF1101F024F8AB
:1047800023680F48124A4FF4E87101F01DF8114BED
:104790000B481B78104A40F2D11101F015F80F4B6D
:1047A00007481B780E4A4FF4E971BDE8F04101F06B
:1047B0000BB800BF000008A0040008A0080008A073
:1047C000F975050828780508417805085A7805081C
:1047D0006F780508350008A084780508390008A01E
:1047E000B178050870B505460E460C2900F2CE805A
:1047F000DFE801F0070F18212A333C454E57606966
:1048000076006448644A4FF4EF7100F0DDFF002346
:1048100006E06048614A4FF4F27100F0D5FF0123D1
:104820001C4672E05B485E4A4FF4F57100F0CCFF25
:104830000224002369E057485A4A4FF4F87100F007
:10484000C3FF0424002360E05248574A4FF4FB7131
:1048500000F0BAFF0524012357E04E48534A4FF4B5
:10486000FE7100F0B1FF062400234EE04948504A93
:1048700040F2022100F0A8FF0824002345E045484B
:104880004C4A4FF4027100F09FFF092401233CE0E1
:104890004048494A40F20E2100F096FF0A240023C6
:1048A00033E03C48454A4FF4057100F08DFF0B247E
:1048B00001232AE03748424A40F21A2100F084FFDF
:1048C0000C24002321E033483E4A4FF4087100F0E5
:1048D0007BFFAB7F022B13D12E4840F222210BE04D
:1048E0002C48394A40F22B2100F06EFFAB7F022B9F
:1048F00009D1284840F22D21344A00F035FF45E027
:1049000001230D2401E000230E242A782E712E7439
:10491000AAB92F4A4BB92F4B1360022385F82530D3
:104920001C482D4A40F246211EE02C4B1360032305
:1049300085F8253017482A4A40F24A2114E0294ACE
:104940004BB9294B1360022385F825301148274ABB
:1049500040F2562108E0264B13600E48254A0323F7
:1049600085F8253040F25A2100F02EFF95F82530C9
:104970000BB144F01004287818B91F4B1C701C713F
:1049800005E01E4B00201C701C7100E0FE2040B2B0
:1049900070BD00BF037B0508DD780508F6780508C3
:1049A000147905082E790508487905086579050800
:1049B0007F79050899790508B5790508CF79050843
:1049C000EB790508057A0508567A0508227A050864
:1049D0006C1E001028000C00717A050828000C15C8
:1049E000957A0508701E001028000400BA7A0508A0
:1049F00028000410DE7A0508350007A0350008A05D
:104A0000F7B5264B1B5C022B05460F4602D0244807
:104A1000932111E0234B012153F8206000F048FD61
:104A2000044617B1304600F083FE204601A901F08C
:104A300079FF28B11A48A0211B4A1C4B3CF086FB89
:104A4000019B4BB31A4B53F8356003EBC5035F680A
:104A500016B91348AA21EFE7204601F003FF3946B3
:104A60000120B047204601F0B9FE204601A901F01F
:104A700059FF10B10A48B421DEE70E4B1C2202FB9D
:104A80000535019B6A69934206D3204601F0EAFE90
:104A900010B10348BA21CFE703B0F0BD9A1E001051
:104AA000A57B0508C47C0508FB7B0508B417060830
:104AB0007C1E0010A01E00102DE9F341374B1E5C38
:104AC000F6B2022E04460F4602D03548D52112E038
:104AD000002100F0EDFC0546002F2ED0314B1A5D71
:104AE00042BB41F09DFA01A90646284601F02AFF83
:104AF00028B12B48E0212C4A2C4B3CF027FB2C4BB7
:104B00001C2202FB04335A68019B9A420ED1294BA6
:104B10001A5D1F4652B1284B1D5D284606F054FE13
:104B200010B1284606F028FE00233B55304641F0E0
:104B30005FFA30E000221A552DE0204B53F8347014
:104B400003EBC403D3F8048017B91548F721D2E763
:104B500001F088FE41463046B847284601F03EFE47
:104B6000284601A901F0EEFE18B10D4840F20111EE
:104B7000C1E70F4B1C2202FB0434A3686268D21AFF
:104B8000019B934207D3284601F06CFE18B10448FC
:104B900040F20911AFE702B0BDE8F0819A1E0010A3
:104BA000A57B0508941E0010347B0508B417060881
:104BB000A01E0010F41E0010747B05087C1E00105F
:104BC0000B78487813B10021FFF71ABF1946FFF799
:104BD00073BF0000114B70B553F8204005462046C6
:104BE00000F09EFD0646C0B92046012100F036FDCA
:104BF0003146204600F032FD094A52F8353002EBCA
:104C0000C505696833B90748074A084B40F21F11C8
:104C10003CF09CFA4FF0FF30984770BDC47C05080B
:104C20007C1E0010A57B0508777B0508B4170608D5
:104C30000228F8B505460C4676D80B780C2B0BD815
:104C40004B78032B08D88B78012B05D8CB78022B17
:104C50008CBF0023012300E00023002B64D041F02F
:104C6000DFF933494B5D07461BB141F0C1F9FD2027
:104C70005BE0304A137810469BB92F4E00229A55BC
:104C80002E4ECA549A552E4E9A552E4E06EBC30EF2
:104C9000CEF8042046F833200133032BEDD1012355
:104CA0000370294B227803F8252003EB85036278F3
:104CB0005A70A2789A70E278DA70384601234B5520
:104CC00041F096F9214B585D41F03AF9064630B172
:104CD0001F48204A204B4FF4FD713CF037FA1F4B20
:104CE00053F82550284600F025FD22781C4B284615
:104CF00053F8221000F014FCE3786178A27828467B
:104D000000F06AFC284600F099FC284600F09CFC64
:104D100005201449324606F079FA05201249324638
:104D200006F0ACFA304600E0FC2040B2F8BD00BF0F
:104D30009A1E00107B1E0010781E0010941E00109A
:104D4000F41E00107C1E00100C1F0010BE7C050815
:104D5000A57B0508587C0508B4170608C47C05081F
:104D6000247C0508494E0108CD53010802282DE98D
:104D7000F041044654D82D4F3B5C002B52D02C4BB5
:104D800053F82080404600F0EBFC3B5D022B2CD119
:104D90000021204600F08CFB01210646204600F051
:104DA00087FB0546304601F05DFD08B1FF203AE083
:104DB000284601F057FD0028F8D1304601F060FD8B
:104DC0000028F3D1284601F05BFD0028EED13046E3
:104DD00001F082FC0028E9D1284601F07DFC002882
:104DE000E4D1144B185700F04FFD404600F0A2FCF0
:104DF000114B185D41F0CCF805460028D6D141F0A2
:104E00000FF90E4B3D5543F8345003EBC4035D607E
:104E10000B4B1D550B4B1D5541F0EAF8284602E09F
:104E2000FC2000E0FE2040B2BDE8F0819A1E001098
:104E3000C47C0508817C0508BE7C05087C1E00102A
:104E4000941E0010781E00102DE9F74F00252C4607
:104E5000174F3B5DE0B213B3164E3A5DDFF860903A
:104E600006EB05085FFA82FBD8F80430AA5914F85B
:104E700009A001920093FFF779FF07F804B0019AA7
:104E8000009BAA5104F809A0C8F804300A4B18572F
:104E900000F00AFD094B003018BF0120E054013436
:104EA000032C05F10805D3D103B0BDE8F08F00BF96
:104EB0009A1E00107C1E0010817C0508971E0010B1
:104EC000781E001002282DE9F34105460F461646CC
:104ED00044D8002942D0002A40D0234B1B5C022B2F
:104EE0003CD1224C41F09CF8635D80462BB9204BAD
:104EF000585D06F03AFC01236355404641F078F8CE
:104F00002846002100F0D4FA01A9054601F01AFD57
:104F100018B1184840F2A12111E0019CA64228BF17
:104F20002646044600E00134B4420CD02846395DE0
:104F300001F0DAFC0028F6D00E4840F2AD210E4A0E
:104F40000E4B3CF003F9019B9C4209D1284601F02D
:104F500045FC28B107484FF42E71F0E7002000E02F
:104F6000204602B0BDE8F0819A1E0010F41E001029
:104F7000747B0508A57B0508467B0508B417060861
:104F80000228F7B50D46144635D8002933D0002A3B
:104F900033D01B4A135C022B2DD1012100F088FA7B
:104FA00001A9064601F0BEFC18B1164840F21231C4
:104FB00012E0019B9C4234BF27461F46044600E096
:104FC0000134BC420CD03046291901F09BFC00286A
:104FD000F6D00C4840F21E310B4A0C4B3CF0B6F8B0
:104FE000019B9C4209D1304601F0F8FB28B10548ED
:104FF00040F22931F0E7002000E0204603B0F0BD88
:105000009A1E0010A57B05081F7B0508B41706082B
:1050100002282DE9F74F04468946924600F2A48003
:10502000002900F0A18040F0FBFF524B1E5DF6B25C
:10503000012E05469B4603D040F0DAFFFE2094E0A7
:105040000021204600F034FA31468046204600F028
:105050002FFA494B43F8349003EBC403DFF83C913B
:10506000C3F804A009EB840A630051460746404692
:10507000019300F033FA40464049524601F074FC77
:10508000019B30B1284640F0B3FF3D4840F27631F5
:1050900012E0013309EB43093846494600F01EFA95
:1050A000384636494A4601F05FFC48B1284640F090
:1050B0009FFF334840F27D31324A334B3CF046F893
:1050C000DFF8DCA031491AF9040000F00DFC0146BC
:1050D00030B1284640F08CFF294840F28331EBE79D
:1050E0002B4B204653F8247000F0E2F931468146FC
:1050F000204600F0DDF98046384600F0A8FA254B3E
:1051000038461E5500F0A6FA1AF9040000F0ACFB70
:10511000484601F063FB18B1194840F2433116E0EC
:10512000404601F05BFB18B115484FF452710EE098
:10513000484601F063FB18B1114840F24D3106E0DA
:10514000404601F05BFB20B10D4840F25231124A5B
:10515000B3E7384600F0DEF9022328460BF80430A6
:1051600040F046FF002000E0FC2040B203B0BDE864
:10517000F08F00BF9A1E00107C1E0010C14B01086A
:10518000A57B05088A7B0508B4170608A9560108FF
:10519000C47C0508941E0010587B0508F71E0010FB
:1051A000817C0508022807B513D80C4A135C022B32
:1051B0000FD1012100F07CF901A901F0B3FB30B15E
:1051C0000748084A084B40F2B9313BF0BFFF01984D
:1051D00000E0002003B05DF804FB00BF9A1E001041
:1051E000A57B0508D67B0508B4170608022810B56C
:1051F00004460CD8084B1B5C5BB1084B53F82000ED
:1052000000F009FA064B02221A55002002E0FC20A9
:1052100000E0FE2040B210BD9A1E0010C47C0508BC
:10522000781E001002282DE9F041044688461746F2
:105230001E4614D80D48005D98B10D480D4D50F82C
:10524000240000F0F1F90C4B01221A5504EB440440
:10525000281905F8048047708670002002E0FC20C1
:1052600000E0FE2040B2BDE8F08100BF9A1E0010B1
:10527000C47C0508031F0010781E00100228F7B533
:1052800005460C4600F28F800B68002B00F08B80E7
:10529000CB68002B00F087804A68464B9A4200F2A8
:1052A0008280896899427ED891427CD822699A424C
:1052B00079D86069984276D8A169994273D89042AA
:1052C00071D891426FD83C4B5E5DF6B2012E6CD125
:1052D0000021284600F0ECF831460746284600F049
:1052E000E7F80646384601F04BF918B133484FF459
:1052F00086610BE023680093384663680193694632
:1053000001F042FA30B12D4840F237412C4A2D4B82
:105310003BF01CFF3846A16801F0C0FA18B12748DD
:1053200040F23C41F2E7304601F02AF918B1234837
:1053300040F24241EAE7E368009330462369019373
:10534000694601F021FA18B11C4840F24941DDE7F5
:105350003046616901F0A2FA18B1184840F24E4196
:10536000D4E73046A16901F0ADFA064618B11348FA
:1053700040F25341CAE740F053FE1C23124A216811
:105380005D435319515162685A60A2689A60A269DC
:105390009A61E268DA6022691A6162695A6140F0D2
:1053A00027FE304602E0FC2000E0FE2040B203B0C1
:1053B000F0BD00BFFFFF01009A1E0010A57B05088D
:1053C000107C0508B4170608A01E00102DE9F8434C
:1053D00000252E462C462C4B1A5DE7B202F0FF0941
:1053E00032B12A490022384631441A55FFF720FCD1
:1053F000274BE35C012B19D1DFF8B080254B18F85F
:105400000510F05800F002F9204B2348F35C90FBA4
:10541000F3F0013040F09CFD08EB050338465A7864
:1054200018F805109B78FFF7FDFE04E0022B02D16F
:105430003846FFF7DBFEB9F1020F0FD1174B1C21E5
:1054400001FB04313846FFF719FF154B03EBC4028B
:10545000384653F834105268FFF7DAFD114BE75C19
:10546000384606F0B1F928B10F4BE35C13B138466A
:1054700006F082F90134032C06F1040605F1030558
:10548000A9D1BDE8F88300BF9A1E00100C1F0010C0
:10549000781E0010C47C0508001BB700A01E001079
:1054A0007C1E0010747B0508971E0010031F00105F
:1054B00001280CD006D302280ED100290CBF0A20E7
:1054C0000B20704700290CBF0E200F2070470029C9
:1054D0000CBF0C200D2070470F2070470A3805289C
:1054E00017D8DFE800F012090E070B0301230B7039
:1054F00000230DE0012302E0012307E000230B70ED
:1055000006E000230B70012302E000230B7002234E
:105510004B707047012380F8513080F8503070474D
:10552000F0B5294D06460F460FCD8BB06C460FC423
:105530000FCD0FC495E8030000233364A3F5806307
:10554000B36584E8030002F057F9204B204A002895
:105550000CBF104618460A22390202FB00F4B0FBC9
:10556000F1F3B4FBF1F1B1FBF2F502FB151202B954
:1055700003B9013307FB03F1B0FBF1F2B2F5807F11
:10558000394401D90133F7E70321716399B2B1605E
:10559000911E4908013A42EA01227B43B263B4FBFF
:1055A000F3F30A22B3FBF2F102FB11330AAA02EB76
:1055B000830353F8283CB365064B9F4284BF1223F4
:1055C00073640BB0F0BD00BFD060050880BA8C01D9
:1055D000002D3101BFC62D00032910B59ABF0A4C1A
:1055E000615C0321012A08BF41F00401012B03D0B3
:1055F00005D3022B05D002E041F0080101E041F0A3
:105600002001017710BD00BF7D7C0508836A9B06E1
:10561000FCD5416070476FF0FF038364012380F87D
:10562000203003234376704743F4807342EA01221B
:10563000426283640323037670470000014B436199
:10564000704700BF010801010123C36470470123B3
:10565000037370470323437370470000034B044AEE
:1056600000290CBF1146194641617047010901002C
:10567000010900010369DA0711D403F03F03062B87
:1056800006D00C2B0DD0022B0CBF0520002070473C
:10569000836A13F0100F0CBF012003207047002015
:1056A0007047022070470000082838B504D0092848
:1056B0000CBF0224002400E00124144B53F82450B2
:1056C0002846FFF7D7FF052818D8DFE800F01D09A6
:1056D000030E1D1120460121BDE83840FFF790B9A7
:1056E0002046BDE83840FFF775BA094B6B6138BDFD
:1056F00020460121BDE83840FFF7DEB90548064ADB
:10570000064BF2213BF022FD38BD00BFC47C0508EA
:1057100001090100847C0508667C0508B4170608A9
:10572000836A13F00E0F14BF00206FF00000704763
:10573000036D70470023C36143628360C3604361AC
:1057400083610362C36243638363036403634364EB
:105750008364C3640365436583650366C3657047FB
:10576000836A5B06FCD570470CB430B585B008ABD6
:10577000054653F8044B03930A46019300940548E9
:105780002946032309F07AFE05B0BDE8304002B097
:10579000704700BFD81400100CB430B585B008AB0A
:1057A000054653F8044B03930A46019300940548B9
:1057B0002946022309F062FE05B0BDE8304002B080
:1057C000704700BFD81400100CB430B585B008ABDA
:1057D000054653F8044B03930A4601930094054889
:1057E0002946012309F04AFE05B0BDE8304002B069
:1057F000704700BFD814001007B5144A136811464B
:10580000FBB9134A52F823201F2A0DD900921F22F8
:1058100001921048104A6C21FFF7D6FF0F48104A3A
:10582000104B6D213BF092FCD200D0B203F16042EC
:1058300002F561420133202B82F80003E1D10123FC
:105840000B60002003B05DF804FB00BF181F0010C0
:10585000E47C0508D47C0508647D05087E7D050888
:10586000AF7D0508B4170608C0B21F2806D801236B
:1058700003FA00F0034B1860002000E0FD2040B266
:10588000704700BF00E100E0C0B21F2807D8012325
:1058900003FA00F0034BC3F88000002000E0FD2075
:1058A00040B2704700E100E0C0B21F2807D80123D2
:1058B00003FA00F0034BC3F80001002000E0FD20D4
:1058C00040B2704700E100E0C0B21F2807D80123B2
:1058D00003FA00F0034BC3F88001002000E0FD2034
:1058E00040B2704700E100E070B5C6B21F2E04461A
:1058F0000D4613D891B140F093FB012303FA06F64D
:10590000084BC3F88061084B43F8345003EBC404E0
:105910000025656040F06CFB284600E0FE2040B2A8
:1059200070BD00BF00E100E01C1F001010B5044670
:1059300040F076FB2060002010BD08B540F058FB19
:10594000002008BDD1F8AC30022010B558700820F6
:1059500098700420D8703C20187180205871012262
:1059600060201A70D871D1F8B0002B23C373D1F81E
:10597000B0004373D1F8B0002F248473D1F8B00085
:105980000524C472D1F8B0000273D1F8B02053746A
:10599000162381F8C030B1F8C230B3F5C15F07D12A
:1059A000D1F8B03075229A70D1F8B0307A22DA701E
:1059B000B1F8C230B3F5B15F07D1D1F8B03075227C
:1059C0009A70D1F8B0307A22DA70024BC1F8D43034
:1059D000002010BDD90E0010D1F8AC30022210B555
:1059E00001205A703C2480229A70DA7018705A7123
:1059F0001C71D1F8B0309F229A72D1F8B0203523B3
:105A0000D373D1F8B0205373D1F8B0300522DA72D5
:105A1000D1F8B0301873D1F8B03075229A70D1F83F
:105A2000B0307A22DA70162381F8C030024BC1F808
:105A3000D430002010BD00BF4903001038B5304BF2
:105A40000360304B4360304B8360304BC360304B5E
:105A50000361304B4361304B8361304BC361304B4A
:105A60000362304B036300252F4B836345628562DD
:105A7000C56245630C4600F03BF9B0F1807F8CBFF6
:105A80000423032384F8C530D4F8B0305D74D4F80F
:105A9000B030AF229A72D4F8B0309F225A72D4F844
:105AA000B03002221A70D4F8B03020229A71D4F8A3
:105AB000B0305222DA71D4F8B030D8221A72D4F849
:105AC000B030B0229A70D4F8B0303022DA70D4F806
:105AD000B03006225A70D4F8B030B9229A74D4F893
:105AE000B030AB22DA74D4F8B02005231374A4F8D4
:105AF000B850E560A560257484F8C030002038BD3A
:105B0000250A0010E9070010551000101B0D0010A9
:105B1000990B00104D030010510900103D080010B2
:105B2000C504001053030010855B010808B591F807
:105B3000C120EF2A0DD0F82A11D0C22A13D1D1F8F2
:105B4000C82042F00402C1F8C820BDE80840FFF7B1
:105B5000F9BED1F8C82042F00202C1F8C820BDE861
:105B60000840FFF739BF40F023FA0348034A044BCB
:105B700040F603013BF0EAFA617E0508AE7E0508B7
:105B8000B417060810B50C4621B9D0F8D4309847A0
:105B9000204610BD01290BD190F8C120C22A10D196
:105BA00043691B68B3F5802F14BF0020C22010BDCD
:105BB00040F0FEF90448054A054B40F61D113BF044
:105BC000C5FA002010BD00BF617E05082F7E0508C4
:105BD000B417060870B50C46064678B371B3D1F811
:105BE000B0505DB3D1F8AC5045B34A60A1F8BA30BB
:105BF000FFF724FFD4F8B030AF2204F1C1059A7248
:105C00002046294640F0ACF994F8C130013BDBB2A4
:105C1000FD2B08D9D4F8B0309F229A72204629462D
:105C200040F09EF904E0284600F00CF80028F1D07E
:105C300030462146BDE87040FFF778BF6FF077002F
:105C400070BD000070B500220C4B03F1100413442A
:105C50001444597C00238B4204DAE518AE78C55C05
:105C6000AE4202D08B4202D106E00133F3E70A32A2
:105C7000322AE9D1002070BD012070BD1C7F0508CB
:105C800073B5154CB4F90000002822DA6A460020EA
:105C90004FF0006140F004FA002210490A235343F8
:105CA00001F1100018440B44597C00238B4205DAA3
:105CB000C518AE783DF81350AE4203D08B4203D1E5
:105CC000228004E00133F1E70132052AE5D1B4F97D
:105CD000000002B070BD00BFEC1400101C7F05086E
:105CE000024B0A2202FB0030103070471C7F05086F
:105CF0004FF48000704700F097B870B520F07840FE
:105D000000239AB2551C01EBC50466683EB154F8F5
:105D1000084CA04207D351F83540A04203D201EB12
:105D2000C201486870BD0133EBE70000014B196800
:105D3000FFF7E3BF1C210010002350F8082B22B10D
:105D400050F8041C01FB0233F7E7184670472DE9B1
:105D5000F843002706461446994600EB01083D46E5
:105D600046451FD230464946FFF7C7FFEA002FB924
:105D70002244012344F83500536010E054F83510F4
:105D8000884204EB020302D15A68013206E0013571
:105D9000092D0AD00832A318A05001225A600644E7
:105DA0000137DDE70020BDE8F8830620BDE8F88371
:105DB00070B506460D4614461046002140223BF0C1
:105DC00034FA044B3046294622461B68BDE8704031
:105DD000FFF7BDBF1C21001008B590B9FFF750FFB9
:105DE0000A4A0028106008DA40F0E2F80848094A38
:105DF000094B40F299313BF0A9F9FFF771FF074BCE
:105E00001860074B074A1A6008BD00BF4021001008
:105E1000737F0508607F0508B4170608F822001094
:105E200020210010D47F05082DE9F047DFF8D49039
:105E3000DFF8D4A0284C294FDFF8D0800020FFF7EE
:105E4000CBFFD9F80030DAF800102548882606FB89
:105E50000131244B4A881A60234B01F108021A6071
:105E6000483140223BF0BDF9204BC4F8AC30204B08
:105E7000C4F8B030FB43DAF800102360D9F80030E2
:105E80004FF0006206FB01360025A4F8C6506260A0
:105E9000404621467368FFF79DFE783008D140F0F8
:105EA00087F81448144A154B40F227413BF04EF94D
:105EB0000B48134EFFF740FF3A4601463060284634
:105EC000FFF776FF6761C6F80480B46086F88050FB
:105ED0002846BDE8F08700BF10220010D021001036
:105EE000DC200010F42200101C210010C82100103A
:105EF00024210010737F0508AF7F0508B41706083A
:105F0000442100102021001040210010A02000108A
:105F100010B590F88030044693B9436880681B68D8
:105F200004F10C019847002807DA40F041F80548D1
:105F3000054A064B91213BF009F9012384F8803092
:105F400010BD00BF93820508CA820508B417060871
:105F50002DE9F04F9A460368994285B00446884679
:105F6000934675D201EB0A029A4273D890F88030BA
:105F70000BB9FFF7CDFF0025554567D2A36803A8ED
:105F80005E68FFF7D3FCD4F80890636805EB080C53
:105F900061469B6801934846CDF800C040F088F800
:105FA000464401460022019B484698472E440398E8
:105FB000FFF7C3FC16F0010F0BEB0507DDF800C07F
:105FC00004D1C5EB0A09B9F1010F0BD16368A068D0
:105FD000D3F810C031463A460123E04700283BD1B0
:105FE0000135C9E7A26800926146104640F060F8AA
:105FF000009A0146104640F033F8434230441840BE
:1060000009EB0603834288BFC6EB000929F00109AA
:10601000B9F1020F63680FD1FA070DD53A788DF800
:106020000A207A788DF80B201F69A06831460DF19F
:106030000A024B46B84706E0D3F810C0A0683146C4
:106040003A464B46E04738B94D4495E7002004E016
:10605000022002E0032000E0052005B0BDE8F08F3B
:1060600070B590F8803004460D4621F07F460BB99C
:10607000FFF74EFFE3689E4209D26368A068DB68C1
:1060800029469847002814BF0620002070BD022032
:1060900070BD000010B5074C94F90030053306D1EF
:1060A000FFF729FE0448FFF733FF00232370002089
:1060B00010BD00BF7099000444210010024B01463E
:1060C00098683FF0F5BF00BF44210010022808B5D2
:1060D00010D0032810D0052810D0062810D0023088
:1060E0000ED03FF065FF0848084A094B40F20621F0
:1060F0003BF02CF8FD2004E0FC2002E0FA2000E058
:10610000F92040B208BD00BF938205087C820508D3
:10611000B417060808B5FFF7BDFF002008BD000052
:1061200070B5044621B9C0F30B03A3B1FD203AE0DA
:10613000012907D1C0F30E03002BF7D14FF400461D
:10614000FB250BE00229F1D183B2002BEED14FF4F5
:106150008036FC2502E04FF48056FA252046FFF7F2
:10616000ADFF431C0146E1D0104841EA0561FFF74D
:1061700077FF18B1BDE87040FFF7A8BF04F10064D5
:10618000204600F0CDFF08B900200CE024F01F05E8
:10619000A319203323F01F039D42F5D828463FF072
:1061A00067FF2035F4E740B270BD00BF4421001006
:1061B00038B505460C4613460548294622463FF0A9
:1061C00007FF18B1BDE83840FFF780BF38BD00BFFA
:1061D0004421001070B50B460546164610481A4675
:1061E00029463346FFF7B4FE18B1BDE87040FFF70B
:1061F0006DBF05F10065284600F092FF68B125F0FB
:106200001F0406F120032B4423F01F039C4204D8F3
:1062100020463FF02DFF2034F3E7002070BD00BF83
:10622000442100102DE9F3411F4600230D46164678
:106230000093019318B9384B7A1E9A4204D9FF2073
:1062400040B202B0BDE8F081A90702D03348B321C3
:1062500003E0B20705D03148B921314A314B3AF059
:1062600075FF284600F05CFF10B12C48C021F4E710
:10627000304600F055FF044610B12848C621ECE72F
:106280003FF0CEFE8046204600F07EF80190019B54
:10629000DB0702D52148D221DFE7019C14F002047C
:1062A00002D01E48DD21D8E740463FF0A1FE384627
:1062B000694600F051F8009BB3F5803F074629D2AC
:1062C0002046032100F07AF82046394600F06EF8A7
:1062D0002046009900F08EF832462046294600F00C
:1062E0007DF82146204600F071F8204605F03DFA81
:1062F000204600F051F8204600F046F80190019C3D
:1063000014F0010401D00020F6E7204605F034FA2D
:10631000204695E7FD2093E7FBFF03001683050861
:1063200047830508B417060837B500230C460193C8
:10633000054618B1FF2040B203B030BD00F024F88C
:106340000190019B13F0010303D001232370284621
:10635000F1E723701846EEE70A4B984203D14FF657
:10636000FF730B6003E0820703D1800808600220FE
:106370007047C30703D440080860012070470860D5
:1063800000207047FCFF0300024B53F820301868D0
:10639000704700BFF4140010034B53F820304FF443
:1063A00000429A61704700BFF8140010024B53F886
:1063B00020305975704700BFF8140010024B53F895
:1063C00020301975704700BFF8140010024B53F8C5
:1063D0002030D975704700BFF814001010B5044B79
:1063E00053F82040226053F82030596010BD00BFA0
:1063F000F8140010024B53F820301961704700BFA9
:10640000F814001073B5454B00241B6801941B68F9
:106410000193019B9B071AD5414D2B684FF4004215
:106420001A62404A136851686BB1204698473E4B48
:1064300001221A602B689A6922F400429A61204670
:1064400005F09AF903E039484FF4866105E0384CCD
:10645000002317E0354840F24E41364A364B3AF0B9
:1064600075FE364A364952F8232051F82310126837
:106470000192019A0131012000FA01F1114207D184
:106480002368013323602368294D042BE9D917E0E1
:106490002C4E56F823204FF4004191612A4951F8BF
:1064A000332001EBC3035968002AD3D00020904762
:1064B0002B6856F823301A6922F400421A61DFE78C
:1064C00000232B602368092B26D8204A204952F844
:1064D000232051F8231012680192019A0131012002
:1064E00000FA01F1114213D01A4A52F823204FF456
:1064F00000411161184951F8332001EBC303596879
:1065000012B10020904703E0084840F26641A4E73A
:10651000236801332360D5E702B070BDF414001086
:10652000F8140010142300101C230010A283050887
:10653000702300105E830508B4170608601500106C
:10654000241500107415001074230010FC140010A2
:1065500088150010B01500102023001008B5002089
:106560003FF0EEFC002814BFFF20002008BD08B556
:1065700000203FF00DFD002814BFFF20002008BDC3
:1065800070B5841F092C05460FD9FE200BE02B683F
:106590009E7102225A7148490020FFF7A5F9002098
:1065A000FFF762F9002040B270BD3FF039FD434B68
:1065B0005A5D012A0DD14248424A40F259212B46E8
:1065C000FFF702F94048414A414B40F259213AF065
:1065D000BDFD01265E553F4D3FF00AFD55F82420D4
:1065E0000023536055F82420136055F8242093604D
:1065F00055F82420D36055F82420D36155F8242081
:1066000013635363FFF7AAFFFF2852D0092C50D819
:1066100001A151F824F000BF8F650108416601080F
:10662000516601085966010869660108716601082A
:10663000816601088966010899660108A16601085A
:106640006A68102111716A68012191716B68A0E775
:10665000A9688E71AB689CE7EA6810211171EA683D
:1066600001219171EB6894E729698E712B691EE015
:106670006A69102111716A69012191716B6916E0D3
:10668000A9698E71AB6912E0EA6910211171EA699A
:1066900001219171EB690AE0296A8E712B6A06E08B
:1066A0006A6A102111716A6A012191716B6A002274
:1066B00070E7FD2077E700BF0564010800012004B2
:1066C0008283050846840508A28305089883050887
:1066D000B4170608B015001037B5851F0023092D23
:1066E0000446019303D9FE2040B203B030BD3FF011
:1066F00097FC1D4B53F825301B6801931B4B0199E8
:1067000053F825200123551C03FA05F50D4203D04B
:10671000174840F2C52107E00199934013EA0105AB
:1067200006D0134840F2CB21124A134B3AF00EFD2B
:106730003FF05EFC3FF074FC10490B5D53B910480C
:10674000104A40F2D3212346FFF73EF8084840F2B2
:10675000D321E9E70D553FF04BFCFFF708FFFF2879
:1067600014BF0020FD20BFE7FC14001088150010A6
:10677000A2830508A6840508B417060800012004B2
:106780008C8305087584050838B5851F092D0C46CE
:1067900002D9FE2040B238BD0868830703D00B48F9
:1067A00040F2ED2105E000F0BBFC30B1074840F2BB
:1067B000F321074A074B3AF0C9FC074B626853F8CC
:1067C00025305A632268DA61E4E700BFA283050836
:1067D00073830508B4170608B01500100638092899
:1067E00002D9FE2040B27047034B53F820300122FB
:1067F000DA710020F6E700BFB015001037B5841F2E
:106800000023092C019303D9FE2040B203B030BD10
:106810003FF006FC104B53F824301B6801930F4BDC
:10682000019953F82430012202FA03F50D4205D1F3
:10683000019901339A4012EA010503D03FF0D8FBD9
:10684000FD20E2E73FF0D4FB054B53F824304FF432
:1068500000429A602846D8E7FC1400108815001002
:10686000B01500100638092802D9FE2040B2704742
:10687000024B53F820300020D871F7E7B015001014
:106880000638092802D9FE2040B27047024B53F85F
:10689000203000209860F7E7B0150010063809286E
:1068A00001D9FE2007E0B1F5803F06D2044B53F832
:1068B00020300020196040B27047FF20FBE700BF86
:1068C000B01500100638092801D9FE2006E03F293E
:1068D00006D8044B53F820300020196340B27047AB
:1068E000FF20FBE7B01500100638092802D9FE206A
:1068F00040B27047024B53F8203000201960F7E790
:10690000381500100638092802D9FE2040B2704719
:10691000034B53F820301B680B700020F6E700BFD4
:10692000381500100638092802D9FE2040B27047F9
:10693000034B53F820309B6A0B600020F6E700BF42
:10694000B01500100638092802D9FE2040B2704761
:10695000044B53F820305A6B9B6AD31A0B6000200B
:10696000F4E700BFB01500100638092810B502D9A9
:10697000FE2040B210BD054B53F8304024B943F817
:10698000301003EBC00042600020F2E7202300102B
:10699000054B93F812320BB9032803D003288CBFA0
:1069A0000023012318467047A423001070B5044645
:1069B000FFF7EEFF08B3134A2301D018D35C012B75
:1069C0001DD0057B00F10806CDB9294610223AF00A
:1069D0002CFC3FF055FB012333710B4B53F8243053
:1069E000DA6822F00102DA60084B53F8240004F060
:1069F000BAFE074B1855284602E0FE2000E0FD20B5
:106A000040B270BD2C9B0004C0990004D0840508DE
:106A10009C23001070B505460C461646FFF7B8FFDC
:106A200070B10B4928010B180A5C012A0AD01A7BA5
:106A300042B14CB15C609E6000F08EF9002004E031
:106A4000FE2002E0FD2000E0FF2040B270BD00BF4C
:106A50002C9B00042DE9F34704460F469046FFF7B0
:106A600097FF002846D0284B26019A19995D0129E5
:106A7000994641D0137B002B3ED0244B9F423DD8FA
:106A80003FF0CEFA224D01903FF0FAFA55F824304B
:106A90000022DA6055F82420137803F0FE03137007
:106AA00055F8243010229A60384655F824A03FF05B
:106AB00097FA55F82420CAF81C000121516155F8B5
:106AC0002420516055F824108B69002BFCD1B8F1BB
:106AD000000F02D040F2011300E001230B6055F8D3
:106AE00024300122DA60019809F806203FF080FA8C
:106AF000002004E0FE2002E0FC2000E0FF2040B285
:106B000002B0BDE8F08700BF2C9B00047BF0C107FA
:106B1000C099000473B50446FFF73AFF28B33FF06D
:106B20007FFA154B019053F82420D16821F0010120
:106B3000D16053F82420117801F0FE01117053F850
:106B4000243001225A610D4A01982301D6180025EC
:106B5000D5543FF04DFA737B083643B1084B185DAE
:106B600004F00AFE7571284602E0FE2000E0184697
:106B700040B202B070BD00BFC09900042C9B00045D
:106B80009C23001070B5124CD4F808321F2B054618
:106B900018D8C8B13FF044FA064600F009F940F0B1
:106BA0005E4304EB001243F42D032B6001231373A7
:106BB000D4F8083230460133C4F808323FF018FAEE
:106BC000002002E0FD2000E0FF2040B270BD00BFC9
:106BD000A4230010114B114A0340934282B017D1F5
:106BE0000F4BD3F8082280B201909AB1019903EBC0
:106BF0000111487B70B9019903EB0111097B49B17F
:106C0000019903EB0111013A0873C3F8082202E06D
:106C1000FF2000E0FD2040B202B070470000ADDE72
:106C2000A42300102DE9F84F2D4C99462C4B04401D
:106C30009C42884617464ED185B2002A4BD0294C3B
:106C40002D01631908335A79002A42D11B79002B90
:106C50003FD0254B99423ED83FF0E2F994F810B26C
:106C60000126824684F81262BBF1000F09D103208D
:106C7000FFF79CFE03201D495A46FFF7CBFE84F820
:106C800010620320FFF746FF94F8113223B9184B26
:106C9000D86800F071F800E00020D4F80032184401
:106CA000D4F80C32C4F80002661901334044C4F829
:106CB0000C3201237373B0606751C6F8049000F082
:106CC000AFF80025504684F812523FF091F928465B
:106CD00002E0FD2000E0FF2040B2BDE8F88F00BFD9
:106CE0000000ADDEA42300107BF0C107596E01083F
:106CF000C099000482B0C3680193C36823F0010304
:106D0000C360019802B0704730B5002485B0104DC3
:106D1000605903690293C3680393FFF7EBFF63595C
:106D2000019001225A61029BDA0709D5039BDB0718
:106D300006D5084A02EB840253680BB19068984765
:106D40002B59019ADA600434182CE0D105B030BD1B
:106D5000C09900042C9B000408B50F20FEF794FD99
:106D60000F200449FEF7C0FD0F20BDE80840FEF7E4
:106D70007BBD00BF096D010882694FF47A73C2F3CD
:106D80000E015943D20B01F58041534382B003EB0E
:106D9000D1330193054BDA6801215160DA689369B8
:106DA000002BFCD1019802B0704700BFC0990004CD
:106DB0000020044B03EB00131B7B13B10130202890
:106DC000F7D17047A4230010074B03EB0010D3F852
:106DD00004228068D3F80032811A9A1A91428CBF3B
:106DE000C3EB000000207047A4230010F8B506464E
:106DF0000F464FF0FF350024084B03EB04135B7B79
:106E000033B12046FFF7E0FFA8423CBF3C60054697
:106E10000134202CF0D13560F8BD00BFA423001050
:106E200037B50C4C94F811528DB9684601A9FFF79B
:106E3000DDFFD4F80032C4F80432032001230099A6
:106E400084F812322A46FFF705FE84F8125203B086
:106E500030BD00BFA423001073B51F4CD4F8083216
:106E6000002B37D00125032084F81252FFF752FE81
:106E70001A4B0026D86884F81262FFF77DFF009055
:106E8000D4F80032009A84F811521344C4F8003246
:106E900004F10D052B7883B13046FFF795FF019083
:106EA000019B53B92B70D4F80C32013BC4F80C325F
:106EB00055F80D3C55F8090C98470136202E05F180
:106EC0001005E7D1002384F81132D4F80C320BB14D
:106ED000FFF7A6FF02B070BDA4230010C099000404
:106EE000074A53789B0708D0064B196841F00D01FB
:106EF00019601B681360002000E0FB2040B270475F
:106F00005C9A0004000018E00F2811D80B4B00F524
:106F1000804253F82220D2050CD5DA6A012101FA09
:106F200000F01043D862DA6A054B00201A6002E0D4
:106F3000FC2000E0FF2040B2704700BF000018E0D6
:106F4000D89900040F2812D80A4B0122D96A82402E
:106F500021EA0202DA62DA6A074B1A60074A002362
:106F600042F8303002EBC0004360184600E0FC20DD
:106F700040B27047000018E0D8990004DC99000482
:106F800003280FD8094B1A6822F440721A601A6855
:106F900042EA00221A6000B918601A68044B002007
:106FA0001A6000E0FB2040B2704700BF000018E00C
:106FB0005C9A00040F2810B529D851B30C68C4F3AB
:106FC0000B0313B11448FB2106E04A68C2F30B021D
:106FD00032B1114840F20111104A114B3AF0B6F8A3
:106FE000830003F1604303F5C8131C6012C92144F8
:106FF0001964196841F4807119600A491C6841F8E4
:10700000304001EBC0001B6C4360104602E0FC20E6
:1070100000E0F92040B210BDE88405081A85050893
:10702000B4170608DC99000410B53EF0F9FF154BC3
:107030001A7802F0FF041AB13EF0DAFFFA201EE0DF
:1070400001221A703EF0D4FF3EF0DAFF0E4B1C60B6
:10705000DC620E4B1C600E4B1C6023469A0002F152
:10706000604202F5C812002010601064094A02EB69
:10707000C30142F833000133102B4860EED140B217
:1070800010BD00BFB8250010000018E05C9A000495
:10709000D8990004DC99000408B53EF0B1FF0E4A0F
:1070A00000231360D3620D4A13600D4A13609A00E7
:1070B00002F1604202F5C812002010601064094A13
:1070C00002EBC30142F833000133102B4860EED1CC
:1070D000054B187008BD00BF000018E05C9A000462
:1070E000D8990004DC990004B825001038B50A4C82
:1070F0003EF096FF2368DB07054601D53EF080FF92
:10710000236823F001032360044B22681A60284699
:107110003EF06EFF002038BD000018E05C9A0004CD
:1071200010B5114B1B6813F001031AD000230E4A4F
:107130000121D26A01FA03F414420CD09A0002F140
:10714000604202F5C812146824F48074A04202D38D
:10715000126C904203D30133102BE8D101E00846B2
:1071600010BD002010BD00BF000018E010B504469F
:10717000002838D03EF054FF1C4B1A78012A03D166
:107180003EF036FFFB202FE001221A703EF030FF68
:10719000174B00225A6022781AB15A6842F0040252
:1071A0005A6062781AB15A6842F002025A605A680C
:1071B000104B1A60104A00231360104A52F8331023
:1071C0006FF35F1142F8331063F30301C9B241F06A
:1071D000100102F8331002EBC30201330020082B28
:1071E0005060EAD100E0FA2040B210BDB92500108D
:1071F00090ED00E0A49A0004609A0004649A0004F0
:10720000044B5A6842F001025A605A68024B00204F
:107210001A60704790ED00E0A49A0004072813D884
:107220000B4B98601A6942F001021A611A69094B06
:1072300003EBC0035A60084B012202FA00F01A68FF
:1072400002431A60002000E0FC2040B2704700BFFB
:1072500090ED00E0649A0004609A0004072814D8B6
:107260000B4B98601A6922F001021A611A69094BE6
:1072700003EBC0035A60084B012202FA00F01A68BF
:1072800022EA00021A60002000E0FC2040B27047B1
:1072900090ED00E0649A0004609A0004072810B59D
:1072A0003CD800293CD00A79131F1B2B02D91E4859
:1072B000D6210AE00B6801324FF0FF3404FA02F2E3
:1072C0001A40934205D01848DC21184A184B39F06F
:1072D0003DFF23F01F03174A43F010030343D3601D
:1072E0000B794C795B0043EA04638C7943EA04230D
:1072F0001361CB791BB1136943F0805313610E4BBB
:107300000C6853F83010640964F35F1143F83010CF
:1073100003EBC00012694260002002E0FC2000E0A4
:10732000FA2040B210BD00BF32850508628505080D
:10733000B417060890ED00E0649A00040D4B1A782B
:10734000012A194608D10C4B1A680C4B506B80B2BD
:107350001880126B92B25A804B78012B08D1064BE1
:107360005A68064B516B89B29980126B92B2DA80DF
:10737000704700BFC825001028880508909B0004AE
:1073800010B50E4B1A78012A184609D10C4B0D4A3C
:107390001C881168A4B24C635B8812689BB21363AB
:1073A0004378012B09D1064B064A9888516880B270
:1073B0004863DB8852689BB2136310BDC825001078
:1073C000909B00042888050870B586B004460E46D8
:1073D000012003A93EF0D4FD3EF022FE134B53F8EA
:1073E0002430DB68054613B13EF002FE1CE004A920
:1073F00001203EF0C5FD05AA039804993EF020FE49
:10740000059B44F62062934228460AD93EF0F0FDDF
:1074100000960748074A40F296312346FEF7A4F942
:1074200002E03EF0E5FDD7E706B070BD288805080C
:10743000FE870508AB850508012870B504460D4692
:107440002ED80B78052B2DD83EF0EAFD174B1A5D90
:10745000012A16BF0026FD26012276B218BF1A5552
:107460003EF0C6FD033607D11148124A9521234646
:10747000FEF77AF9FD2016E006200F49002203F0FE
:10748000C5FE0E490022062003F0F8FE0C4B185DE5
:107490003EF056FD2046297800F0A8F8002002E0D2
:1074A000FE2000E0FF2040B270BD00BFC8250010E4
:1074B0007B850508C78505083D73010881730108B0
:1074C00053880508012870B504461BD80F4E56F89E
:1074D000203000259D630E4B1856FEF7D5F956F85F
:1074E00024300C4A9D600C4B43F8245004EB4403B9
:1074F00013445D70094B185D3EF04AFD084B284669
:107500001D5500E0FE2040B270BD00BF2888050870
:10751000FC870508BA250010C0250010538805080F
:10752000C82500102DE9F047012888B004468A4696
:1075300090461D4648D8002A48D0082B46D8264EEB
:1075400056F820309B6B13F0010908D02348244AD9
:107550004FF484712346FEF707F9FD2037E0214BF5
:107560001F5C384604F001F956F8243003954FEAC1
:107570004A02C3F80890204603AB062102F0FE023F
:10758000CDF8109000F06AF82A462046414600F0F7
:10759000E9F856F8243001229A6306212046FFF7C5
:1075A00013FF204600F0ECF80546384604F0E4F8F6
:1075B000284665B1094800954FF497710A4A234659
:1075C000FEF7D2F8FC2002E0FE2000E0FF2040B2EF
:1075D00008B0BDE8F08700BF288805088F8505083A
:1075E000F5850508FA87050812860508194B53F832
:1075F0002030002270B55A63052912D8DFE801F067
:10760000030510070A0D01225A63642109E04FF4B3
:10761000967106E04FF4C87103E04FF47A7100E010
:10762000C8210D4A52F82050490048190122441E31
:10763000461BB4FBF6F4402C03D90132092A084456
:10764000F5D1013A013CD2B2E4B283F8312083F89B
:10765000304070BD28880508D815001030B53F4C63
:1076600054F820003E4C426001228264C460002431
:10767000046144610E296FD8DFE801F008101A2573
:10768000324408101A2532445656610001B10321D4
:10769000016542751B68036282624EE001291CBFCE
:1076A000032202654FF0010208BF04654274F0E74F
:1076B00002291CBF032202654FF0010208BF0465C6
:1076C00042755B68E7E703291CBF032202654FF0A0
:1076D000010208BF04654274427502625B682BE0D8
:1076E00004291CBF032202654FF0010208BF046594
:1076F00002748274C27442751A6802620222826243
:107700005B6828E005291CBF032202654FF00102D7
:1077100008BF0465427402748274C27442751968A9
:1077200001625B68134407E003210165427402743F
:107730004275996801621B698362426230BD032110
:107740000165427402748274C27442759A6802625E
:107750001A698262DB68436230BD00BF2888050871
:107760000101010030B50023934206D0034CCD5CEB
:1077700054F8204001332560F6E730BD288805081D
:107780007FB5194B53F82050EA68D105064607D457
:1077900012F4803426D1012A18BFFC241DD000E049
:1077A000FD24012001A93EF0EBFBEB68DB0714D4BC
:1077B00002A901203EF0E4FB03AA019802993EF0E1
:1077C0003FFC039B44F620629342EED90748084AE7
:1077D0004FF49E713346FDF7C7FF064BEB6060B276
:1077E00004B070BDFE24DCE728880508558805082C
:1077F0003088050801010100014B93F8D80070475B
:10780000989B0004704710B50468914024EA010475
:107810000460016893401943016010BD10B504462F
:107820002346044801210822FFF7EDFF024B1C709C
:1078300010BD00BF000006A2CA2500100F4B1A6839
:10784000002A06DA1B680E487F210822C3F306636C
:1078500010E0110206D51B6809487F210822C3F3F6
:10786000064307E0120407D51B6805487F2108225C
:10787000C3F30623FFF7C7BF704700BF30020AA259
:10788000100006A22DE9F047FFF7B6FF6F4D044642
:107890002868C0F34010FFF7C1FF2B686C4913F054
:1078A000200F0A686B4B06D102F47F420A601A6807
:1078B00002F47F4205E042F00C020A601A6842F0CE
:1078C0001D021A60DFF8E8A1DFF8E891DFF8E8812F
:1078D000DFF8E8C1DFF8E8E15F4F604E604D6148D6
:1078E0006149624A002C52D0614BCAF80030C9F895
:1078F0000030C8F80030CCF800305E4BCEF80030D5
:107900005D4B3B605D4B33605D4B2B6003F590231B
:1079100003605C4B0B605C4B13601C307F211822B2
:107920003B23FFF770FF59487F2110224223FFF7C6
:107930006AFF5648FF2108226323FFF764FF53487C
:107940007F2118223523FFF75EFF50487F21102248
:107950003B23FFF758FF4D48FF2108223F23FFF745
:1079600052FF4A487F2100220223FFF74CFF48487C
:107970007F2110220423FFF746FF45487F2108227C
:107980000323FFF740FF42487F21002251E0414B93
:10799000CAF80030C9F80030C8F80030CCF8003020
:1079A0003D4BCEF80030A3F588333B603B4B336052
:1079B000334B2B603A4B03603A4B0B603A4B1360EE
:1079C00032487F2118223B23FFF71DFF2F487F21DC
:1079D00010224223FFF717FF2C48FF2108225223D1
:1079E000FFF711FF29487F2118223523FFF70BFFEE
:1079F00026487F2110223B23FFF705FF2348FF2164
:107A000008223F23FFF7FFFE20487F212246022362
:107A1000FFF7F9FE1E487F2110220423FFF7F3FE33
:107A20001B487F2108220323FFF7EDFE18487F2122
:107A300022460123FFF7E7FEFFF700FF1B4B1A6802
:107A400042F001021A60BDE8F08700BF400001A2C9
:107A500004010FA208010FA2180006A21C0006A232
:107A6000200006A2240006A2280006A22C0006A2DE
:107A70005FB20B005F9F06003F8F05001F8A040066
:107A80000F0A04001F8F09003F9F0A00400006A252
:107A9000440006A27FB20B007F9F06003F8A0400CD
:107AA0001F8A08003F8F09007F9F0A00000006A27E
:107AB000040006A2080006A20C0006A2100006A2FE
:107AC000140006A24FF4FA7358433EF041BA10B1C5
:107AD00003203EF035BA03203EF05ABA054B1A682F
