:020000040801F1
:10200000DFF8ACD072B627F0A1FB2A482A4901605C
:102010002A482B492B4B2C4C2C4A42F8040B42F8F3
:10202000041B42F8043B146000202949204A41F86F
:10203000040B9142FFF4FBAF2649274A274B27F0B8
:102040009FFB2749274A284B27F09AFB274A284B12
:1020500027F09FFB2749284A284B27F091FB284A65
:10206000284B27F096FB2849284A294B27F088FB64
:10207000284A294B27F08DFB2849294A294B27F06C
:102080007FFB2949294A2A4B27F07AFB294A2A4B08
:1020900027F07FFB29492A4A2A4B27F071FB2A4A5D
:1020A0002A4B27F076FB27F03FFB26F073FA7047A8
:1020B00000800104000009A2110000001500201496
:1020C000000020042300001000000000001018E0B1
:1020D00000700104FC04080800000010D81400106F
:1020E00038260808E00D0200E00D0200E00D0200B5
:1020F00060100200D4190808D81400103C21001008
:1021000040210010E00D021078270808008000042C
:10211000009A0004009A0004C95C010438260808EB
:1021200000002014F000201430270808F8002014C4
:10213000F8002014F8002014F800201430270808B4
:102140000001200448012004480120044801200423
:1021500081F0004102E000BF83F0004330B54FEA58
:1021600041044FEA430594EA050F08BF90EA020FC5
:102170001FBF54EA000C55EA020C7FEA645C7FEA58
:10218000655C00F0E2804FEA5454D4EB5555B8BF7B
:102190006D420CDD2C4480EA020281EA030382EAEC
:1021A000000083EA010180EA020281EA0303362D7E
:1021B00088BF30BD11F0004F4FEA01314FF4801C51
:1021C0004CEA113102D0404261EB410113F0004F63
:1021D0004FEA03334CEA133302D0524263EB43031A
:1021E00094EA050F00F0A780A4F10104D5F1200EB8
:1021F0000DDB02FA0EFC22FA05F2801841F1000113
:1022000003FA0EF2801843FA05F359410EE0A5F1E6
:1022100020050EF1200E012A03FA0EFC28BF4CF017
:10222000020C43FA05F3C01851EBE37101F00045CD
:1022300007D54FF0000EDCF1000C7EEB00006EEBDA
:102240000101B1F5801F1BD3B1F5001F0CD3490864
:102250005FEA30004FEA3C0C04F101044FEA4452BB
:1022600012F5800F80F09A80BCF1004F08BF5FEA42
:10227000500C50F1000041EB045141EA050130BD22
:102280005FEA4C0C404141EB010111F4801FA4F1C5
:102290000104E9D191F0000F04BF01460020B1FA1A
:1022A00081F308BF2033A3F10B03B3F120020CDA52
:1022B0000C3208DD02F1140CC2F10C0201FA0CF030
:1022C00021FA02F10CE002F11402D8BFC2F1200C95
:1022D00001FA02F120FA0CFCDCBF41EA0C0190404B
:1022E000E41AA2BF01EB0451294330BD6FEA040494
:1022F0001F3C1CDA0C340EDC04F11404C4F120027F
:1023000020FA04F001FA02F340EA030021FA04F390
:1023100045EA030130BDC4F10C04C4F1200220FAE7
:1023200002F001FA04F340EA0300294630BD21FA25
:1023300004F0294630BD94F0000F83F4801306BFEB
:1023400081F480110134013D4EE77FEA645C18BFDF
:102350007FEA655C29D094EA050F08BF90EA020F76
:1023600005D054EA000C04BF1946104630BD91EA6E
:10237000030F1EBF0021002030BD5FEA545C05D171
:102380004000494128BF41F0004130BD14F58004B0
:102390003CBF01F5801130BD01F0004545F0FE4124
:1023A00041F470014FF0000030BD7FEA645C1ABF59
:1023B000194610467FEA655C1CBF0B46024650EA90
:1023C000013406BF52EA033591EA030F41F40021BC
:1023D00030BD00BF90F0000F04BF0021704730B542
:1023E0004FF4806404F132044FF000054FF0000117
:1023F00050E700BF90F0000F04BF0021704730B5D8
:102400004FF4806404F1320410F0004548BF4042AC
:102410004FF000013EE700BF42004FEAE2014FEA01
:1024200031014FEA02701FBF12F07F4393F07F4FDC
:1024300081F06051704792F0000F14BF93F07F4F0E
:10244000704730B54FF4607401F0004521F0004151
:1024500020E700BF50EA010208BF704730B54FF0D7
:1024600000050AE050EA010208BF704730B511F0DC
:10247000004502D5404261EB41014FF4806404F114
:1024800032045FEA915C3FF4DCAE4FF003025FEA96
:10249000DC0C18BF03325FEADC0C18BF033202EB1E
:1024A000DC02C2F1200300FA03FC20FA02F001FA78
:1024B00003FE40EA0E0021FA02F11444C1E600BF17
:1024C00070B54FF0FF0C4CF4E06C1CEA11541DBFCA
:1024D0001CEA135594EA0C0F95EA0C0F00F0DEF895
:1024E0002C4481EA030621EA4C5123EA4C5350EA7A
:1024F000013518BF52EA033541F4801143F48013CB
:1025000038D0A0FB02CE4FF00005E1FB02E506F05B
:102510000042E0FB03E54FF00006E1FB03569CF0B0
:10252000000F18BF4EF0010EA4F1FF04B6F5007FB6
:1025300064F5407404D25FEA4E0E6D4146EB060628
:1025400042EAC62141EA55514FEAC52040EA5E50B1
:102550004FEACE2EB4F1FD0C88BFBCF5E06F1ED85B
:10256000BEF1004F08BF5FEA500E50F1000041EB92
:10257000045170BD06F0004646EA010140EA02003F
:1025800081EA0301B4EB5C04C2BFD4EB0C0541EA61
:10259000045170BD41F480114FF0000E013C00F376
:1025A000AB8014F1360FDEBF002001F0004170BD9A
:1025B000C4F10004203C35DA0C341BDC04F11404B3
:1025C000C4F1200500FA05F320FA04F001FA05F23F
:1025D00040EA020001F0004221F0004110EBD3700C
:1025E00021FA04F642EB06015EEA430E08BF20EA38
:1025F000D37070BDC4F10C04C4F1200500FA04F3DB
:1026000020FA05F001FA04F240EA020001F000416C
:1026100010EBD37041F100015EEA430E08BF20EADF
:10262000D37070BDC4F1200500FA05F24EEA020E27
:1026300020FA04F301FA05F243EA020321FA04F056
:1026400001F0004121FA04F220EA020000EBD3700D
:102650005EEA430E08BF20EAD37070BD94F0000F0D
:102660000FD101F00046400041EB010111F4801F41
:1026700008BF013CF7D041EA060195F0000F18BFF2
:10268000704703F00046520043EB030313F4801F2E
:1026900008BF013DF7D043EA0603704794EA0C0FE8
:1026A0000CEA135518BF95EA0C0F0CD050EA4106FE
:1026B00018BF52EA4306D1D181EA030101F000417B
:1026C0004FF0000070BD50EA410606BF10461946A3
:1026D00052EA430619D094EA0C0F02D150EA0136AF
:1026E00013D195EA0C0F05D152EA03361CBF1046F0
:1026F00019460AD181EA030101F0004141F0FE418F
:1027000041F470014FF0000070BD41F0FE4141F412
:10271000780170BD70B54FF0FF0C4CF4E06C1CEA12
:1027200011541DBF1CEA135594EA0C0F95EA0C0FC7
:1027300000F0A7F8A4EB050481EA030E52EA033582
:102740004FEA013100F088804FEA03334FF08055A3
:1027500045EA131343EA12634FEA022245EA1115D0
:1027600045EA10654FEA00260EF000419D4208BF81
:10277000964244F1FD0404F5407402D25B084FEA2E
:102780003202B61A65EB03055B084FEA32024FF4DA
:1027900080104FF4002CB6EB020E75EB030E22BF37
:1027A000B61A754640EA0C005B084FEA3202B6EBF7
:1027B000020E75EB030E22BFB61A754640EA5C00A6
:1027C0005B084FEA3202B6EB020E75EB030E22BF36
:1027D000B61A754640EA9C005B084FEA3202B6EB37
:1027E000020E75EB030E22BFB61A754640EADC00F6
:1027F00055EA060E18D04FEA051545EA16754FEA58
:1028000006164FEAC30343EA52734FEAC2025FEA75
:102810001C1CC0D111F4801F0BD141EA00014FF004
:1028200000004FF0004CB6E711F4801F04BF0143D5
:102830000020B4F1FD0C88BFBCF5E06F3FF6AFAEF1
:10284000B5EB030C04BFB6EB020C5FEA500C50F181
:10285000000041EB045170BD0EF0004E4EEA113104
:1028600014EB5C04C2BFD4EB0C0541EA045170BD0B
:1028700041F480114FF0000E013C90E645EA060E4F
:102880008DE60CEA135594EA0C0F08BF95EA0C0F7D
:102890003FF43BAF94EA0C0F0AD150EA01347FF4C5
:1028A00034AF95EA0C0F7FF425AF104619462CE79C
:1028B00095EA0C0F06D152EA03353FF4FDAE1046FF
:1028C000194622E750EA410618BF52EA43067FF450
:1028D000C5AE50EA41047FF40DAF52EA43057FF4E0
:1028E000EBAE12E74FF0FF3C06E000BF4FF0010CEB
:1028F00002E000BF4FF0010C4DF804CD4FEA410C4F
:102900007FEA6C5C4FEA430C18BF7FEA6C5C1BD01B
:1029100001B050EA410C0CBF52EA430C91EA030F9C
:1029200002BF90EA020F0020704710F1000F91EAF9
:10293000030F58BF994208BF90422CBFD8176FEAC7
:10294000E37040F0010070474FEA410C7FEA6C5C95
:1029500002D150EA013C07D14FEA430C7FEA6C5C9C
:10296000D6D152EA033CD3D05DF8040B704700BFC8
:102970008446104662468C461946634600E000BF16
:1029800001B5FFF7B7FF002848BF10F1000F01BDE8
:102990004DF808EDFFF7F4FF0CBF012000205DF8B3
:1029A00008FB00BF4DF808EDFFF7EAFF34BF012038
:1029B00000205DF808FB00BF4DF808EDFFF7E0FFD1
:1029C00094BF012000205DF808FB00BF4DF808ED22
:1029D000FFF7CEFF94BF012000205DF808FB00BF89
:1029E0004DF808EDFFF7C4FF34BF012000205DF86B
:1029F00008FB00BF4FEA410212F5001215D211D5B3
:102A00006FF47873B3EB625212D94FEAC12343F0EB
:102A1000004343EA505311F0004F23FA02F018BF6D
:102A2000404270474FF00000704750EA013005D136
:102A300011F0004008BF6FF0004070474FF00000F9
:102A4000704700BF4A0011D212F5001211D20DD505
:102A50006FF47873B3EB62520ED44FEAC12343F0A4
:102A6000004343EA505323FA02F070474FF000004E
:102A7000704750EA013002D14FF0FF3070474FF0FD
:102A8000000070474BB942B9002908BF002802D0A6
:102A90004FF0FF31084600F03BB882B0EC462DE91C
:102AA000005000F01DF8DDF804E002B00CBC7047E7
:102AB0002DE97043069E14461D468046894600F067
:102AC00029F804FB01F300FB0533A4FB00451D447A
:102AD000B8EB040469EB0505C6E90045BDE8708361
:102AE0002DE97043069E1446804689461D4600F037
:102AF0005DF900FB05F504FB0153A0FB04451D44F3
:102B0000B8EB040469EB0505C6E90045BDE8708330
:102B1000704700BF00292DE9F00FC0F29F8000240C
:102B2000002BC0F29680154606460F46002B3ED17C
:102B30008A4257D9B2FA82F34BB1C3F1200201FAAB
:102B400003F720FA02F29D40174300FA03F6290C1E
:102B5000B7FBF1F2330C01FB127CA8B243EA0C473D
:102B600000FB02F3BB4209D97F1902F1FF3C80F060
:102B70000181BB4240F2FE80023A2F44FF1AB7FBAC
:102B8000F1F3B6B201FB137146EA014100FB03F019
:102B9000884208D9491903F1FF3780F0ED80884257
:102BA00040F2EA80023B43EA0242002303E08B4208
:102BB0000AD900231A461046194614B1404261EB67
:102BC0004101BDE8F00F7047B3FA83F8B8F1000F88
:102BD00040F084808B4202D3824200F2DE800023E8
:102BE0000122E8E712B90123B3FBF2F5B5FA85F249
:102BF000002A39D17F1B280C1FFA85FC0123B7FB63
:102C0000F0F1320C00FB117742EA07470CFB01F2AE
:102C1000BA4207D97F1901F1FF3802D2BA4200F255
:102C2000C1804146BF1AB7FBF0F2B6B200FB12708A
:102C300046EA00400CFB02FC844507D9401902F12A
:102C4000FF3702D2844500F2AB803A4642EA0142A5
:102C5000B1E7E443524263EB430364E7404261EB74
:102C600041014FF0FF345BE79540C2F1200327FAA2
:102C700003F1280C26FA03F39740B1FBF0F81F4349
:102C80003B0C00FB18111FFA85FC43EA01410CFBC9
:102C900008F38B4206FA02F608D9491908F1FF3207
:102CA00079D28B4277D9A8F102082944C91AB1FB1D
:102CB000F0F3BFB200FB131147EA01470CFB03F22C
:102CC000BA4207D97F1903F1FF3160D2BA425ED907
:102CD000023B2F44BF1A43EA084390E7C8F12002A1
:102CE00003FA08FC25FA02F343EA0C0C4FEA1C49EC
:102CF00021FA02F301FA08F720FA02F2B3FBF9F124
:102D0000174309FB11333A0C1FFA8CFB42EA0343C9
:102D10000BFB01FA9A4505FA08F008D913EB0C03EE
:102D200001F1FF3235D29A4533D902396344CAEBF7
:102D30000303B3FBF9F209FB1233BFB247EA0347BF
:102D40000BFB02F9B94508D917EB0C0702F1FF3369
:102D50001BD2B94519D9023A674442EA0145A5FB9D
:102D60000001C9EB07078F424FF000030AD305D0DB
:102D70002A4620E7624601E73B4614E706FA08F6D2
:102D80008642F5D26A1E002315E71A46E5E70B4690
:102D9000A0E71146CBE7904688E7434642460AE75C
:102DA000023A53E702392F443CE700BF2DE9F00F08
:102DB000144605460E46002B43D18A4253D9B2FA37
:102DC00082F757B1C7F1200620FA06F601FA07F399
:102DD00002FA07F41E4300FA07F5210CB6FBF1F2E4
:102DE0002B0C01FB1267A0B243EA074600FB02F37B
:102DF000B34209D9361902F1FF3780F0F680B342A9
:102E000040F2F380023A2644F61AB6FBF1F3ADB273
:102E100001FB136145EA014100FB03F0884208D938
:102E2000091903F1FF3680F0E280884240F2DF802A
:102E3000023B43EA0242002310461946BDE8F00F68
:102E400070478B424AD8B3FA83F6002E4DD18B429D
:102E500002D3824200F2D680002301221046194696
:102E6000BDE8F00F704712B90124B4FBF2F4B4FAD4
:102E700084F2002A7CD1091B260CA7B20123B1FBE6
:102E8000F6F02A0C06FB101142EA014107FB00F2A2
:102E90008A4207D9091900F1FF3C02D28A4200F2A6
:102EA000C3806046891AB1FBF6F2ADB206FB12117F
:102EB00045EA014507FB02F7AF4208D92C1902F198
:102EC000FF3180F09680A74240F29380023A42EAB6
:102ED000004210461946BDE8F00F704700231A461D
:102EE00010461946BDE8F00F7047C6F1200522FADA
:102EF00005F4B3401C434FEA144821FA05F301FAE4
:102F000006F720FA05F5B3FBF8FC2F4308FB1C334A
:102F10003D0C1FFA84FA45EA03430AFB0CF9994574
:102F200002FA06FB04D91B190CF1FF326DD394464B
:102F3000C9EB0303B3FBF8F508FB1533BFB247EA4F
:102F400003470AFB05F8B84504D93F1905F1FF33DB
:102F500061D31D4645EA0C4CACFB0B23C8EB0707BD
:102F60009F424FF0000549D345D062462B4663E7A8
:102F70009440C2F1200321FA03FC260C20FA03F34B
:102F800001FA02F5BCFBF6F843EA05010B0C06FB5F
:102F900018CCA7B243EA0C4C07FB08F3634500FAD0
:102FA00002F509D91CEB040C08F1FF323AD2634553
:102FB00038D9A8F10208A444C3EB0C0CBCFBF6F30F
:102FC00089B206FB13CC41EA0C4107FB03F28A42AB
:102FD00007D9091903F1FF3022D28A4220D9023BD6
:102FE0002144891A43EA084349E73A460CE7334645
:102FF0001FE70A466BE7B0409042B6D20CF1FF32B1
:10300000002319E73346324616E799458FD9ACF1CC
:10301000020C23448CE7B8459BD9023D274499E72D
:103020000346DEE79046C7E7023821443AE700BF8F
:1030300010F8012B11F8013B012A28BF9A42F7D062
:10304000D01A70474FEA4102B2F1E04324BFB3F512
:10305000001CDCF1FE5C0DD901F0004C4FEAC0020F
:103060004CEA5070B2F1004F40EB830008BF20F0F3
:103070000100704711F0804F21D113F13872BCBFAD
:1030800001F00040704741F480114FEA5252C2F102
:103090001802C2F1200C10FA0CF320FA02F018BF4B
:1030A00040F001004FEAC1234FEAD32303FA0CFC9E
:1030B00040EA0C0023FA02F34FEA4303CCE77FEA2D
:1030C000625307D150EA01331EBF4FF0FE4040F477
:1030D0004000704701F0004040F0FE4040F4000026
:1030E000704700BFF7B5264B1B5C022B05460F4609
:1030F00002D02448932111E0234B012153F8206092
:1031000000F048FD044617B1304600F083FE20462B
:1031100001A902F023F828B11A48A0211B4A1C4B30
:1031200040F022FB019B4BB31A4B53F8356003EB85
:10313000C5035F6816B91348AA21EFE7204601F0DE
:10314000ADFF39460120B047204601F063FF20461D
:1031500001A902F003F810B10A48B421DEE70E4BD2
:103160001C2202FB0535019B6A69934206D3204667
:1031700001F094FF10B10348BA21CFE703B0F0BDCE
:1031800062210010EF8005080C82050845810508C2
:103190008809070844210010682100102DE9F34137
:1031A000374B1E5CF6B2022E04460F4602D035485D
:1031B000D52112E0002100F0EDFC0546002F2ED0B5
:1031C000314B1A5D42BB44F067FE01A90646284612
:1031D00001F0D4FF28B12B48E0212C4A2C4B40F0C1
:1031E000C3FA2C4B1C2202FB04335A68019B9A42FF
:1031F0000ED1294B1A5D1F4652B1284B1D5D284642
:1032000004F0B2F910B1284604F086F900233B55CA
:10321000304644F0C9FD30E000221A552DE0204B25
:1032200053F8347003EBC403D3F8048017B915487E
:10323000F721D2E701F032FF41463046B847284631
:1032400001F0E8FE284601A901F098FF18B10D48E9
:1032500040F20111C1E70F4B1C2202FB0434A368AA
:103260006268D21A019B934207D3284601F016FFE9
:1032700018B1044840F20911AFE702B0BDE8F0818F
:1032800062210010EF8005085C2100107E80050897
:103290008809070868210010BC210010BE800508BD
:1032A000442100100B78487813B10021FFF71ABFB2
:1032B0001946FFF773BF0000114B70B553F820405B
:1032C0000546204600F09EFD0646C0B92046012175
:1032D00000F036FD3146204600F032FD094A52F832
:1032E000353002EBC505696833B90748074A084B12
:1032F00040F21F1140F038FA4FF0FF30984770BD90
:103300000C82050844210010EF800508C1800508E3
:10331000880907080228F8B505460C4676D80B78C8
:103320000C2B0BD84B78032B08D88B78012B05D8A6
:10333000CB78022B8CBF0023012300E00023002B5D
:1033400064D044F0A9FD33494B5D07461BB144F0FE
:103350002BFDFD205BE0304A137810469BB92F4EC1
:1033600000229A552E4ECA549A552E4E9A552E4EDC
:1033700006EBC30ECEF8042046F833200133032BAE
:10338000EDD101230370294B227803F8252003EBAC
:10339000850362785A70A2789A70E278DA703846BB
:1033A00001234B5544F000FD214B585D44F0B4FC23
:1033B000064630B11F48204A204B4FF4FD7140F0C3
:1033C000D3F91F4B53F82550284600F025FD2278ED
:1033D0001C4B284653F8221000F014FCE378617867
:1033E000A278284600F06AFC284600F099FC28469E
:1033F00000F09CFC05201449324603F0D7FD05205F
:103400001249324603F00AFE304600E0FC2040B28A
:10341000F8BD00BF622100104321001040210010C0
:103420005C210010BC21001044210010D4210010A8
:1034300006820508EF800508A081050888090708AD
:103440000C8205086C8105082D350108B13A010888
:1034500002282DE9F041044654D82D4F3B5C002B47
:1034600052D02C4B53F82080404600F0EBFC3B5DE3
:10347000022B2CD10021204600F08CFB01210646B6
:10348000204600F087FB0546304601F007FE08B1F4
:10349000FF203AE0284601F001FE0028F8D130462E
:1034A00001F00AFE0028F3D1284601F005FE0028AD
:1034B000EED1304601F02CFD0028E9D1284601F07C
:1034C00027FD0028E4D1144B185700F04FFD40466B
:1034D00000F0A2FC114B185D44F0D6FC0546002814
:1034E000D6D144F0D9FC0E4B3D5543F8345003EB94
:1034F000C4035D600B4B1D550B4B1D5544F054FC34
:10350000284602E0FC2000E0FE2040B2BDE8F08149
:10351000622100100C820508C98105080682050891
:10352000442100105C210010402100102DE9F74FCC
:1035300000252C46174F3B5DE0B213B3164E3A5DA3
:10354000DFF8609006EB05085FFA82FBD8F80430DC
:10355000AA5914F809A001920093FFF779FF07F820
:1035600004B0019A009BAA5104F809A0C8F80430DD
:103570000A4B185700F00AFD094B003018BF012014
:10358000E0540134032C05F10805D3D103B0BDE8A4
:10359000F08F00BF6221001044210010C98105088E
:1035A0005F2100104021001002282DE9F34105465B
:1035B0000F46164644D8002942D0002A40D0234B5B
:1035C0001B5C022B3CD1224C44F066FC635D8046C0
:1035D0002BB9204B585D03F098FF012363554046FB
:1035E00044F0E2FB2846002100F0D4FA01A9054688
:1035F00001F0C4FD18B1184840F2A12111E0019C6E
:10360000A64228BF2646044600E00134B4420CD04E
:103610002846395D01F084FD0028F6D00E4840F2BE
:10362000AD210E4A0E4B40F09FF8019B9C4209D100
:10363000284601F0EFFC28B107484FF42E71F0E75F
:10364000002000E0204602B0BDE8F08162210010B9
:10365000BC210010BE800508EF8005089080050899
:10366000880907080228F7B50D46144635D8002901
:1036700033D0002A33D01B4A135C022B2DD10121F9
:1036800000F088FA01A9064601F068FD18B1164855
:1036900040F2123112E0019B9C4234BF27461F4684
:1036A000044600E00134BC420CD03046291901F038
:1036B00045FD0028F6D00C4840F21E310B4A0C4B59
:1036C00040F052F8019B9C4209D1304601F0A2FC27
:1036D00028B1054840F22931F0E7002000E02046FB
:1036E00003B0F0BD62210010EF8005086980050875
:1036F0008809070802282DE9F74F044689469246B3
:1037000000F2A480002900F0A18044F0C5FB524BD8
:103710001E5DF6B2012E05469B4603D044F044FBE5
:10372000FE2094E00021204600F034FA3146804625
:10373000204600F02FFA494B43F8349003EBC403C2
:10374000DFF83C91C3F804A009EB840A63005146FA
:1037500007464046019300F033FA4046404952463E
:1037600001F01EFD019B30B1284644F01DFB3D4891
:1037700040F2763112E0013309EB430938464946FD
:1037800000F01EFA384636494A4601F009FD48B1B4
:10379000284644F009FB334840F27D31324A334B2E
:1037A0003FF0E2FFDFF8DCA031491AF9040000F035
:1037B0000DFC014630B1284644F0F6FA294840F2A3
:1037C0008331EBE72B4B204653F8247000F0E2F9ED
:1037D00031468146204600F0DDF98046384600F04B
:1037E000A8FA254B38461E5500F0A6FA1AF904002F
:1037F00000F0ACFB484601F00DFC18B1194840F24E
:10380000433116E0404601F005FC18B115484FF46D
:1038100052710EE0484601F00DFC18B1114840F21B
:103820004D3106E0404601F005FC20B10D4840F264
:103830005231124AB3E7384600F0DEF90223284637
:103840000BF8043044F0B0FA002000E0FC2040B255
:1038500003B0BDE8F08F00BF6221001044210010CA
:10386000A5320108EF800508D480050888090708FB
:103870008D3D01080C8205085C210010A28005081E
:10388000BF210010C9810508022807B513D80C4ACA
:10389000135C022B0FD1012100F07CF901A901F08A
:1038A0005DFC30B10748084A084B40F2B9313FF09F
:1038B0005BFF019800E0002003B05DF804FB00BF4F
:1038C00062210010EF80050820810508880907089B
:1038D000022810B504460CD8084B1B5C5BB1084BA2
:1038E00053F8200000F009FA064B02221A55002076
:1038F00002E0FC2000E0FE2040B210BD622100107A
:103900000C8205084021001002282DE9F0410446F0
:10391000884617461E4614D80D48005D98B10D48DC
:103920000D4D50F8240000F0F1F90C4B01221A550E
:1039300004EB4404281905F80480477086700020C1
:1039400002E0FC2000E0FE2040B2BDE8F08100BFB4
:10395000622100100C820508CB21001040210010CC
:103960000228F7B505460C4600F28F800B68002B45
:1039700000F08B80CB68002B00F087804A68464BB4
:103980009A4200F28280896899427ED891427CD81E
:1039900022699A4279D86069984276D8A169994299
:1039A00073D8904271D891426FD83C4B5E5DF6B2AD
:1039B000012E6CD10021284600F0ECF83146074674
:1039C000284600F0E7F80646384601F0F5F918B148
:1039D00033484FF486610BE02368009338466368F0
:1039E0000193694601F0ECFA30B12D4840F23741BD
:1039F0002C4A2D4B3FF0B8FE3846A16801F06AFB17
:103A000018B1274840F23C41F2E7304601F0D4F9C2
:103A100018B1234840F24241EAE7E3680093304698
:103A200023690193694601F0CBFA18B11C4840F2B2
:103A30004941DDE73046616901F04CFB18B1184897
:103A400040F24E41D4E73046A16901F057FB0646EB
:103A500018B1134840F25341CAE744F01DFA1C2341
:103A6000124A21685D435319515162685A60A26835
:103A70009A60A2699A61E268DA6022691A616269F1
:103A80005A6144F091F9304602E0FC2000E0FE204B
:103A900040B203B0F0BD00BFFFFF01006221001083
:103AA000EF8005085A810508880907086821001079
:103AB0002DE9F84300252E462C462C4B1A5DE7B223
:103AC00002F0FF0932B12A490022384631441A5522
:103AD000FFF720FC274BE35C012B19D1DFF8B08006
:103AE000254B18F80510F05800F002F9204B234838
:103AF000F35C90FBF3F0013044F0EEF908EB0503C2
:103B000038465A7818F805109B78FFF7FDFE04E058
:103B1000022B02D13846FFF7DBFEB9F1020F0FD1BD
:103B2000174B1C2101FB04313846FFF719FF154BD9
:103B300003EBC402384653F834105268FFF7DAFD3D
:103B4000114BE75C384603F00FFD28B10F4BE35CE7
:103B500013B1384603F0E0FC0134032C06F10406EF
:103B600005F10305A9D1BDE8F88300BF622100106B
:103B7000D4210010402100100C820508001BB70062
:103B80006821001044210010BE8005085F2100104C
:103B9000CB21001001280CD006D302280ED1002919
:103BA0000CBF0A200B20704700290CBF0E200F20ED
:103BB000704700290CBF0C200D2070470F20704764
:103BC0000A38052817D8DFE800F012090E070B03A2
:103BD00001230B7000230DE0012302E0012307E025
:103BE00000230B7006E000230B70012302E000238A
:103BF0000B7002234B707047012380F8513080F81E
:103C000050307047F0B5294D06460F460FCD8BB0AA
:103C10006C460FC40FCD0FC495E803000023336436
:103C2000A3F58063B36584E8030001F037FE204B01
:103C3000204A00280CBF104618460A22390202FB0F
:103C400000F4B0FBF1F3B4FBF1F1B1FBF2F502FBD0
:103C5000151202B903B9013307FB03F1B0FBF1F20E
:103C6000B2F5807F394401D90133F7E7032171634D
:103C700099B2B160911E4908013A42EA01227B43A0
:103C8000B263B4FBF3F30A22B3FBF2F102FB11338C
:103C90000AAA02EB830353F8283CB365064B9F4204
:103CA00084BF122373640BB0F0BD00BF287F0508EA
:103CB00080BA8C01002D3101BFC62D00032910B53B
:103CC0009ABF0A4C615C0321012A08BF41F004013C
:103CD000012B03D005D3022B05D002E041F00801EF
:103CE00001E041F02001017710BD00BFC58105084A
:103CF000836A9B06FCD5416070476FF0FF038364C5
:103D0000012380F8203003234376704743F4807307
:103D100042EA012242628364032303767047000073
:103D2000014B4361704700BF010801010123C364D7
:103D300070470123037370470323437370470000E8
:103D4000034B044A00290CBF1146194641617047D4
:103D500001090100010900010369DA0711D403F028
:103D60003F03062B06D00C2B0DD0022B0CBF0520D9
:103D700000207047836A13F0100F0CBF012003204E
:103D8000704700207047022070470000082838B5AF
:103D900004D009280CBF0224002400E00124144BA5
:103DA00053F824502846FFF7D7FF052818D8DFE836
:103DB00000F01D09030E1D1120460121BDE8384009
:103DC000FFF790B92046BDE83840FFF775BA094BB8
:103DD0006B6138BD20460121BDE83840FFF7DEB9F0
:103DE0000548064A064BF2213FF0BEFC38BD00BF35
:103DF0000C82050801090100CC810508AE81050887
:103E000088090708836A13F00E0F14BF00206FF0B3
:103E100000007047036D70470023C36143628360F5
:103E2000C360436183610362C3624363836303646A
:103E3000036343648364C364036543658365036606
:103E4000C3657047836A5B06FCD570470CB430B518
:103E500085B008AB054653F8044B03930A4601931B
:103E6000009405482946032307F0DCF805B0BDE8B7
:103E7000304002B0704700BFD81400100CB430B509
:103E800085B008AB054653F8044B03930A460193EB
:103E9000009405482946022307F0C4F805B0BDE8A0
:103EA000304002B0704700BFD81400100CB430B5D9
:103EB00085B008AB054653F8044B03930A460193BB
:103EC000009405482946012307F0ACF805B0BDE889
:103ED000304002B0704700BFD814001007B5144A34
:103EE00013681146FBB9134A52F823201F2A0DD933
:103EF00000921F2201921048104A6C21FFF7D6FF52
:103F00000F48104A104B6D213FF02EFCD200D0B26A
:103F100003F1604202F561420133202B82F8000375
:103F2000E1D101230B60002003B05DF804FB00BF6A
:103F3000E02100102C8205081C820508AC820508CF
:103F4000C6820508F782050888090708C0B21F283D
:103F500006D8012303FA00F0034B1860002000E0AC
:103F6000FD2040B2704700BF00E100E0C0B21F2852
:103F700007D8012303FA00F0034BC3F880000020A8
:103F800000E0FD2040B2704700E100E0C0B21F2811
:103F900007D8012303FA00F0034BC3F80001002007
:103FA00000E0FD2040B2704700E100E0C0B21F28F1
:103FB00007D8012303FA00F0034BC3F88001002067
:103FC00000E0FD2040B2704700E100E070B5C6B2ED
:103FD0001F2E04460D4613D891B143F05DFF012317
:103FE00003FA06F6084BC3F88061084B43F83450D7
:103FF00003EBC4040025656043F0D6FE284600E0CC
:10400000FE2040B270BD00BF00E100E0E4210010DE
:1040100010B5044643F040FF2060002010BD08B5F5
:1040200043F0C2FE002008BDD1F8AC30022010B52C
:104030005870082098700420D8703C201871802097
:104040005871012260201A70D871D1F8B0002B236A
:10405000C373D1F8B0004373D1F8B0002F24847338
:10406000D1F8B0000524C472D1F8B0000273D1F8C1
:10407000B0205374162381F8C030B1F8C230B3F5C4
:10408000C15F07D1D1F8B03075229A70D1F8B03045
:104090007A22DA70B1F8C230B3F5B15F07D1D1F846
:1040A000B03075229A70D1F8B0307A22DA70024BB3
:1040B000C1F8D430002010BDD90E0010D1F8AC30BA
:1040C000022210B501205A703C2480229A70DA70C6
:1040D00018705A711C71D1F8B0309F229A72D1F8C1
:1040E000B0203523D373D1F8B0205373D1F8B0305A
:1040F0000522DA72D1F8B0301873D1F8B0307522D9
:104100009A70D1F8B0307A22DA70162381F8C03074
:10411000024BC1F8D430002010BD00BF490300108D
:1041200038B5304B0360304B4360304B8360304BCD
:10413000C360304B0361304B4361304B8361304B84
:10414000C361304B0362304B036300252F4B836305
:1041500045628562C56245630C4600F03BF9B0F1EB
:10416000807F8CBF0423032384F8C530D4F8B0309B
:104170005D74D4F8B030AF229A72D4F8B0309F2278
:104180005A72D4F8B03002221A70D4F8B03020221B
:104190009A71D4F8B0305222DA71D4F8B030D82203
:1041A0001A72D4F8B030B0229A70D4F8B0303022FD
:1041B000DA70D4F8B03006225A70D4F8B030B92290
:1041C0009A74D4F8B030AB22DA74D4F8B020052356
:1041D0001374A4F8B850E560A560257484F8C03065
:1041E000002038BD250A0010E90700105510001006
:1041F0001B0D0010990B00104D0300105109001009
:104200003D080010C5040010530300106942010866
:1042100008B591F8C120EF2A0DD0F82A11D0C22A92
:1042200013D1D1F8C82042F00402C1F8C820BDE87B
:104230000840FFF7F9BED1F8C82042F00202C1F8E9
:10424000C820BDE80840FFF739BF43F0B5FD03487B
:10425000034A044B40F603013FF086FAA9830508A0
:10426000F68305088809070810B50C4621B9D0F86F
:10427000D4309847204610BD01290BD190F8C120B9
:10428000C22A10D143691B68B3F5802F14BF0020E8
:10429000C22010BD43F090FD0448054A054B40F68E
:1042A0001D113FF061FA002010BD00BFA983050871
:1042B000778305088809070870B50C46064678B369
:1042C00071B3D1F8B0505DB3D1F8AC5045B34A608A
:1042D000A1F8BA30FFF724FFD4F8B030AF2204F1D0
:1042E000C1059A722046294643F006FE94F8C13073
:1042F000013BDBB2FD2B08D9D4F8B0309F229A7273
:104300002046294643F0F8FD04E0284600F00CF86A
:104310000028F1D030462146BDE87040FFF778BF55
:104320006FF0770070BD000070B500220C4B03F1F8
:10433000100413441444597C00238B4204DAE5181A
:10434000AE78C55CAE4202D08B4202D106E00133AA
:10435000F3E70A32322AE9D1002070BD012070BD96
:104360006484050873B5154CB4F90000002822DAFE
:104370006A4600204FF0006143F006FD002210491C
:104380000A23534301F1100018440B44597C0023C5
:104390008B4205DAC518AE783DF81350AE4203D013
:1043A0008B4203D1228004E00133F1E70132052A78
:1043B000E5D1B4F9000002B070BD00BFEC140010EC
:1043C00064840508024B0A2202FB0030103070475B
:1043D000648405084FF48000704700F097B870B50A
:1043E00020F0784000239AB2551C01EBC5046668A2
:1043F0003EB154F8084CA04207D351F83540A042D2
:1044000003D201EBC201486870BD0133EBE7000045
:10441000014B1968FFF7E3BFE4230010002350F8B5
:10442000082B22B150F8041C01FB0233F7E71846B1
:1044300070472DE9F843002706461446994600EBDD
:1044400001083D4646451FD230464946FFF7C7FFA3
:10445000EA002FB92244012344F83500536010E0EC
:1044600054F83510884204EB020302D15A68013235
:1044700006E00135092D0AD00832A318A050012208
:104480005A6006440137DDE70020BDE8F8830620C6
:10449000BDE8F88370B506460D4614461046002167
:1044A00040223FF0D0F9044B3046294622461B6893
:1044B000BDE87040FFF7BDBFE423001008B590B918
:1044C000FFF750FF0A4A0028106008DA43F074FC36
:1044D0000848094A094B40F299313FF045F9FFF786
:1044E00071FF074B1860074B074A1A6008BD00BFF1
:1044F00008240010BB840508A8840508880907085B
:10450000C0250010E82300101C8505082DE9F047A0
:10451000DFF8D490DFF8D4A0284C294FDFF8D08002
:104520000020FFF7CBFFD9F80030DAF8001025485B
:10453000882606FB0131244B4A881A60234B01F17F
:1045400008021A60483140223FF059F9204BC4F864
:10455000AC30204BC4F8B030FB43DAF800102360D5
:10456000D9F800304FF0006206FB01360025A4F8B0
:10457000C6506260404621467368FFF79DFE783062
:1045800008D143F019FC1448144A154B40F2274156
:104590003FF0EAF80B48134EFFF740FF3A4601465A
:1045A00030602846FFF776FF6761C6F80480B46084
:1045B00086F880502846BDE8F08700BFD824001058
:1045C00098240010A4230010BC250010E423001040
:1045D00090240010EC230010BB840508F784050824
:1045E000880907080C240010E82300100824001094
:1045F0006823001010B590F88030044693B94368E2
:1046000080681B6804F10C019847002807DA43F022
:10461000D3FB0548054A064B91213FF0A5F801233D
:1046200084F8803010BD00BFDB87050812880508BC
:10463000880907082DE9F04F9A460368994285B02A
:1046400004468846934675D201EB0A029A4273D813
:1046500090F880300BB9FFF7CDFF0025554567D2A4
:10466000A36803A85E68FFF7D3FCD4F808906368DA
:1046700005EB080C61469B6801934846CDF800C0E5
:1046800043F072FB464401460022019B484698478E
:104690002E440398FFF7C3FC16F0010F0BEB050740
:1046A000DDF800C004D1C5EB0A09B9F1010F0BD147
:1046B0006368A068D3F810C031463A460123E0474A
:1046C00000283BD10135C9E7A26800926146104637
:1046D00043F04AFB009A0146104643F0CDFB4342AB
:1046E0003044184009EB0603834288BFC6EB00093B
:1046F00029F00109B9F1020F63680FD1FA070DD54E
:104700003A788DF80A207A788DF80B201F69A06816
:1047100031460DF10A024B46B84706E0D3F810C007
:10472000A06831463A464B46E04738B94D4495E7D4
:10473000002004E0022002E0032000E0052005B094
:10474000BDE8F08F70B590F8803004460D4621F03A
:104750007F460BB9FFF74EFFE3689E4209D26368BC
:10476000A068DB6829469847002814BF062000206F
:1047700070BD022070BD000010B5074C94F90030E8
:10478000053306D1FFF729FE0448FFF733FF002366
:104790002370002010BD00BFB09800040C2400104E
:1047A000024B0146986843F0DFBA00BF0C240010AA
:1047B000022808B510D0032810D0052810D00628EC
:1047C00010D002300ED043F0F7FA0848084A094BDF
:1047D00040F206213EF0C8FFFD2004E0FC2002E08C
:1047E000FA2000E0F92040B208BD00BFDB870508D1
:1047F000C48705088809070808B5FFF7BDFF002032
:1048000008BD000070B5044621B9C0F30B03A3B185
:10481000FD203AE0012907D1C0F30E03002BF7D1A8
:104820004FF40046FB250BE00229F1D183B2002BA7
:10483000EED14FF48036FC2502E04FF48056FA2585
:104840002046FFF7ADFF431C0146E1D0104841EA86
:104850000561FFF777FF18B1BDE87040FFF7A8BF0B
:1048600004F10064204600F00BFF08B900200CE0C2
:1048700024F01F05A319203323F01F039D42F5D810
:10488000284643F039FA2035F4E740B270BD00BF46
:104890000C24001038B505460C4613460548294639
:1048A000224643F0D1FA18B1BDE83840FFF780BF87
:1048B00038BD00BF0C24001070B50B4605461646E7
:1048C00010481A4629463346FFF7B4FE18B1BDE832
:1048D0007040FFF76DBF05F10065284600F0D0FE7F
:1048E00068B125F01F0406F120032B4423F01F03B9
:1048F0009C4204D8204643F0FFF92034F3E700201F
:1049000070BD00BF0C24001038B5054610B1FF2063
:1049100040B238BD00F046FAFF2804460ED043F0FE
:10492000BBFA0A4B1A78012A0CBFFD2501226DB291
:1049300018BF1A7043F038FA033501D1FD20E7E7BC
:10494000204600F05BF90020E2E700BFDC25001004
:1049500037B500230193044618B1FF2040B203B0DD
:1049600030BD43F099FA0546204600F0FBF801906F
:10497000019BDB0702D50D48792105E0019C14F06D
:10498000020405D009488421094A0A4B3EF0ECFE96
:10499000284643F009FA084B20461C7000F007FA3D
:1049A000FF2814BF0020FD20D8E700BF5E8805085F
:1049B0008F88050888090708DC2500102DE9F341D8
:1049C0001F4600230D4616460093019318B9384B35
:1049D0007A1E9A4204D9FF2040B202B0BDE8F081AD
:1049E000A90702D03348B32103E0B20705D031480C
:1049F000B921314A314B3EF0B7FE284600F040FE67
:104A000010B12C48C021F4E7304600F039FE0446CE
:104A100010B12848C621ECE743F03EFA8046204614
:104A200000F0A0F80190019BDB0702D52148D221BC
:104A3000DFE7019C14F0020402D01E48DD21D8E714
:104A4000404643F0B1F93846694600F05FF8009BF4
:104A5000B3F5803F074629D22046032100F0AAF88B
:104A60002046394600F09EF82046009900F0BEF836
:104A700032462046294600F0ADF82146204600F097
:104A8000A1F8204602F041FD204600F081F82046C2
:104A900000F068F80190019C14F0010401D000209E
:104AA000F6E7204602F038FD204695E7FD2093E723
:104AB000FBFF03005E8805089F8805088809070832
:104AC00013B50446019218B1FF2040B202B010BDE8
:104AD00001AA00F04FF82046F7E737B500230C464F
:104AE0000193054618B1FF2040B203B030BD00F07D
:104AF00039F80190019B13F0010303D001232370C7
:104B00002846F1E723701846EEE700000A4B98426A
:104B100003D14FF6FF730B6003E0820703D18008D7
:104B2000086002207047C30703D4400808600120D2
:104B30007047086000207047FCFF0300084951F8E7
:104B40002020002353619361D361136051F820202A
:104B50004FF40041536011629360D36093627047D9
:104B6000F8140010024B53F820301868704700BF4B
:104B7000F414001010B5054B53F8304024B943F835
:104B8000301003EBC000426010BD00BFE0250010F4
:104B9000034B53F820304FF400429A61704700BF36
:104BA000F8140010024B53F820305975704700BFBD
:104BB000F8140010024B53F820301975704700BFED
:104BC000F8140010024B53F82030D975704700BF1D
:104BD000F814001010B5044B53F82040226053F82D
:104BE0002030596010BD00BFF8140010024B53F87C
:104BF00020301961704700BFF814001010B504464A
:104C0000002000F0CFF8012000F0CCF82046FFF79C
:104C100095FF00200349FFF7D9F90020BDE81040B7
:104C2000FFF794B9294C010873B5454B00241B6864
:104C300001941B680193019B9B071AD5414D2B687A
:104C40004FF400421A62404A136851686BB1204623
:104C500098473E4B01221A602B689A6922F4004261
:104C60009A61204602F058FC03E039484FF486610F
:104C700005E0384C002317E0354840F24E41364AF3
:104C8000364B3EF071FD364A364952F8232051F832
:104C9000231012680192019A0131012000FA01F1FA
:104CA000114207D12368013323602368294D042B67
:104CB000E9D917E02C4E56F823204FF400419161BA
:104CC0002A4951F8332001EBC3035968002AD3D095
:104CD000002090472B6856F823301A6922F40042CE
:104CE0001A61DFE700232B602368092B26D8204AAE
:104CF000204952F8232051F8231012680192019A9A
:104D00000131012000FA01F1114213D01A4A52F880
:104D100023204FF400411161184951F8332001EB71
:104D2000C303596812B10020904703E0084840F2DD
:104D30006641A4E7236801332360D5E702B070BD64
:104D4000F4140010F8140010E0250010E8250010FD
:104D5000FA8805083C260010B68805088809070867
:104D60006015001024150010741500104026001066
:104D7000FC14001088150010B0150010EC25001070
:104D800008B5002042F0C8FF002814BFFF20002013
:104D900008BD08B5002043F077F8002814BFFF20B5
:104DA000002008BD08B9FFF7EBBFFF20704708B926
:104DB000FFF7EFBFFF20704770B5841F092C054631
:104DC0000FD9FE200BE02B689E7102225A714849D0
:104DD0000020FFF7FBF80020FFF7B8F8002040B2F2
:104DE00070BD43F059F8434B5A5D012A0DD142483A
:104DF000424A40F259212B46FFF758F84048414AB1
:104E0000414B40F259213EF0AFFC01265E553F4D2B
:104E100042F0CAFF55F824200023536055F824209F
:104E2000136055F82420936055F82420D36055F87A
:104E30002420D36155F8242013635363FFF7A0FFA8
:104E4000FF2852D0092C50D801A151F824F000BFFE
:104E5000C74D0108794E0108894E0108914E01089D
:104E6000A14E0108A94E0108B94E0108C14E010822
:104E7000D14E0108D94E01086A68102111716A6883
:104E8000012191716B68A0E7A9688E71AB689CE7FE
:104E9000EA6810211171EA6801219171EB6894E7C9
:104EA00029698E712B691EE06A69102111716A6986
:104EB000012191716B6916E0A9698E71AB6912E0ED
:104EC000EA6910211171EA6901219171EB690AE027
:104ED000296A8E712B6A06E06A6A102111716A6A6A
:104EE000012191716B6A002270E7FD2077E700BF16
:104EF000294C010800012004DA8805089E8905086C
:104F0000FA880508F088050888090708B015001018
:104F100037B5851F0023092D0446019303D9FE20D0
:104F200040B203B030BD42F0B7FF1D4B53F82530FF
:104F30001B6801931B4B019953F825200123551C35
:104F400003FA05F50D4203D0174840F2C52107E0EA
:104F50000199934013EA010506D0134840F2CB2192
:104F6000124A134B3EF000FC42F01EFF42F094FF49
:104F700010490B5D53B91048104A40F2D321234623
:104F8000FEF794FF084840F2D321E9E70D5542F0BF
:104F90000BFFFFF7FEFEFF2814BF0020FD20BFE738
:104FA000FC14001088150010FA880508FE89050811
:104FB0008809070800012004E4880508CD89050850
:104FC00038B5851F092D0C4602D9FE2040B238BDE8
:104FD0000868830703D00B4840F2ED2105E000F09C
:104FE0004FFB30B1074840F2F321074A074B3EF030
:104FF000BBFB074B626853F825305A632268DA61BD
:10500000E4E700BFFA880508CB8805088809070887
:10501000B01500100638092802D9FE2040B27047AA
:10502000034B53F820300122DA710020F6E700BF6D
:10503000B015001037B5841F0023092C019303D944
:10504000FE2040B203B030BD42F026FF104B53F8B3
:1050500024301B6801930F4B019953F8243001222F
:1050600002FA03F50D4205D1019901339A4012EA83
:10507000010503D042F098FEFD20E2E742F094FEE5
:10508000054B53F824304FF400429A602846D8E785
:10509000FC14001088150010B015001006380928FF
:1050A00002D9FE2040B27047024B53F82030002056
:1050B000D871F7E7B01500100638092802D9FE208C
:1050C00040B27047024B53F8203000209860F7E759
:1050D000B01500100638092801D9FE2007E0B1F507
:1050E000803F06D2044B53F820300020196040B2B4
:1050F0007047FF20FBE700BFB015001006380928F5
:1051000001D9FE2006E03F2906D8044B53F8203091
:105110000020196340B27047FF20FBE7B015001074
:105120000638092802D9FE2040B27047024B53F8D6
:10513000203000201960F7E73815001006380928DC
:1051400002D9FE2040B27047034B53F820301B6851
:105150000B700020F6E700BF38150010063809284C
:1051600002D9FE2040B27047034B53F820309B6AAF
:105170000B600020F6E700BFB015001006380928C4
:1051800002D9FE2040B27047044B53F820305A6BCE
:105190009B6AD31A0B600020F4E700BFB015001023
:1051A0000638092810B502D9FE2040B210BD054BC3
:1051B00053F8304024B943F8301003EBC00042608C
:1051C0000020F2E7EC250010054B93F812320BB9E2
:1051D000032803D003288CBF0023012318467047FF
:1051E0007026001070B50446FFF7EEFF08B3134AAF
:1051F0002301D018D35C012B1DD0057B00F10806DC
:10520000CDB9294610223EF01EFB42F095FD012348
:1052100033710B4B53F82430DA6822F00102DA6064
:10522000084B53F8240002F06EF9074B1855284636
:1052300002E0FE2000E0FD2040B270BD6C9A000448
:1052400000990004288A05086826001070B50546F4
:105250000C461646FFF7B8FF70B10B4928010B1832
:105260000A5C012A0AD01A7B42B14CB15C609E6094
:1052700000F0D6F8002004E0FE2002E0FD2000E06F
:10528000FF2040B270BD00BF6C9A00042DE9F347C7
:1052900004460F469046FFF797FF002846D0284B5C
:1052A00026019A19995D0129994641D0137B002B5B
:1052B0003ED0244B9F423DD842F0EEFD224D01905E
:1052C00042F03AFD55F824300022DA6055F82420E7
:1052D000137803F0FE03137055F8243010229A60FF
:1052E000384655F824A042F07FFD55F82420CAF82E
:1052F0001C000121516155F82420516055F82410FB
:105300008B69002BFCD1B8F1000F02D040F20113E1
:1053100000E001230B6055F824300122DA60019887
:1053200009F8062042F040FD002004E0FE2002E0E3
:10533000FC2000E0FF2040B202B0BDE8F08700BFD3
:105340006C9A00047BF0C1070099000473B5044611
:10535000FFF73AFF28B342F09FFD154B019053F839
:105360002420D16821F00101D16053F82420117864
:1053700001F0FE01117053F8243001225A610D4AE8
:1053800001982301D6180025D55442F00DFD737BFA
:10539000083643B1084B185D02F0BEF87571284617
:1053A00002E0FE2000E0184640B202B070BD00BF2F
:1053B000009900046C9A00046826001082B0C3684B
:1053C0000193C36823F00103C360019802B07047E2
:1053D00030B5002485B0104D605903690293C3684D
:1053E0000393FFF7EBFF6359019001225A61029B7F
:1053F000DA0709D5039BDB0706D5084A02EB8402CE
:1054000053680BB1906898472B59019ADA600434BD
:10541000182CE0D105B030BD009900046C9A00044E
:1054200008B50F20FEF7A2FD0F200449FEF7CEFDC0
:105430000F20BDE80840FEF789BD00BFD153010829
:10544000074A53789B0708D0064B196841F00D01B5
:1054500019601B681360002000E0FB2040B2704719
:105460009C990004000018E00F2811D80B4B00F5A0
:10547000804253F82220D2050CD5DA6A012101FAC4
:1054800000F01043D862DA6A054B00201A6002E08F
:10549000FC2000E0FF2040B2704700BF000018E091
:1054A000189900040F2812D80A4B0122D96A8240A9
:1054B00021EA0202DA62DA6A074B1A60074A00231D
:1054C00042F8303002EBC0004360184600E0FC2098
:1054D00040B27047000018E0189900041C990004BD
:1054E00003280FD8094B1A6822F440721A601A6810
:1054F00042EA00221A6000B918601A68044B0020C2
:105500001A6000E0FB2040B2704700BF000018E0C6
:105510009C9900040F2810B529D851B30C68C4F326
:105520000B0313B11448FB2106E04A68C2F30B02D7
:1055300032B1114840F20111104A114B3EF014F9FA
:10554000830003F1604303F5C8131C6012C92144B2
:105550001964196841F4807119600A491C6841F89E
:10556000304001EBC0001B6C4360104602E0FC20A1
:1055700000E0F92040B210BD408A0508728A050893
:10558000880907081C99000410B542F085FC154BEA
:105590001A7802F0FF041AB142F006FCFA201EE06D
:1055A00001221A7042F000FC42F086FC0E4B1C6097
:1055B000DC620E4B1C600E4B1C6023469A0002F10D
:1055C000604202F5C812002010601064094A02EB24
:1055D000C30142F833000133102B4860EED140B2D2
:1055E00010BD00BF84280010000018E09C99000442
:1055F000189900041C99000408B542F05DFC0E4A9D
:1056000000231360D3620D4A13600D4A13609A00A1
:1056100002F1604202F5C812002010601064094ACD
:1056200002EBC30142F833000133102B4860EED186
:10563000054B187008BD00BF000018E09C990004DD
:10564000189900041C9900048428001038B50A4CED
:1056500042F022FC2368DB07054601D542F02CFC12
:10566000236823F001032360044B22681A60284654
:1056700042F09AFB002038BD000018E09C9900041D
:1056800010B5114B1B6813F001031AD000230E4A0A
:105690000121D26A01FA03F414420CD09A0002F1FB
:1056A000604202F5C812146824F48074A04202D348
:1056B000126C904203D30133102BE8D101E008466D
:1056C00010BD002010BD00BF000018E010B504465A
:1056D000002838D042F0E0FB1C4B1A78012A03D195
:1056E00042F062FBFB202FE001221A7042F05CFBCB
:1056F000174B00225A6022781AB15A6842F004020D
:105700005A6062781AB15A6842F002025A605A68C6
:10571000104B1A60104A00231360104A52F83310DD
:105720006FF35F1142F8331063F30301C9B241F024
:10573000100102F8331002EBC30201330020082BE2
:105740005060EAD100E0FA2040B210BD8528001078
:1057500090ED00E0E4990004A0990004A4990004ED
:10576000044B5A6842F001025A605A68024B00200A
:105770001A60704790ED00E0E4990004072813D800
:105780000B4B98601A6942F001021A611A69094BC1
:1057900003EBC0035A60084B012202FA00F01A68BA
:1057A00002431A60002000E0FC2040B2704700BFB6
:1057B00090ED00E0A4990004A0990004072814D8F3
:1057C0000B4B98601A6922F001021A611A69094BA1
:1057D00003EBC0035A60084B012202FA00F01A687A
:1057E00022EA00021A60002000E0FC2040B270476C
:1057F00090ED00E0A4990004A0990004072810B5DA
:105800003CD800293CD00A79131F1B2B02D91E4813
:10581000D6210AE00B6801324FF0FF3404FA02F29D
:105820001A40934205D01848DC21184A184B3DF025
:105830009BFF23F01F03174A43F010030343D36079
:105840000B794C795B0043EA04638C7943EA0423C7
:105850001361CB791BB1136943F0805313610E4B75
:105860000C6853F83010640964F35F1143F830108A
:1058700003EBC00012694260002002E0FC2000E05F
:10588000FA2040B210BD00BF8A8A0508BA8A05080E
:105890008809070890ED00E0A4990004014B93F8F3
:1058A000D8007047D09A000410B50468914024EAEB
:1058B00001040460016893401943016010BD0000B9
:1058C00010B504462346044801210822FFF7ECFFE7
:1058D000024B1C7010BD00BF000006A286280010FD
:1058E0000F4B1A68002A06DA1B680E487F2108222F
:1058F000C3F3066310E0110206D51B6809487F2137
:105900000822C3F3064307E0120407D51B680548C5
:105910007F210822C3F30623FFF7C6BF704700BFED
:1059200030020AA2100006A22DE9F047FFF7B6FFE9
:105930006F4D04462868C0F34010FFF7C1FF2B6885
:105940006C4913F0200F0A686B4B06D102F47F42BA
:105950000A601A6802F47F4205E042F00C020A6015
:105960001A6842F01D021A60DFF8E8A1DFF8E8913A
:10597000DFF8E881DFF8E8C1DFF8E8E15F4F604E6B
:10598000604D61486149624A002C52D0614BCAF8AF
:105990000030C9F80030C8F80030CCF800305E4B59
:1059A000CEF800305D4B3B605D4B33605D4B2B6050
:1059B00003F5902303605C4B0B605C4B13601C3061
:1059C0007F2118223B23FFF76FFF59487F211022C8
:1059D0004223FFF769FF5648FF2108226323FFF7A0
:1059E00063FF53487F2118223523FFF75DFF50489E
:1059F0007F2110223B23FFF757FF4D48FF2108224C
:105A00003F23FFF751FF4A487F2100220223FFF77F
:105A10004BFF48487F2110220423FFF745FF4548EC
:105A20007F2108220323FFF73FFF42487F21002206
:105A300051E0414BCAF80030C9F80030C8F80030D6
:105A4000CCF800303D4BCEF80030A3F588333B60F6
:105A50003B4B3360334B2B603A4B03603A4B0B604C
:105A60003A4B136032487F2118223B23FFF71CFF7B
:105A70002F487F2110224223FFF716FF2C48FF21D9
:105A800008225223FFF710FF29487F2118223523CF
:105A9000FFF70AFF26487F2110223B23FFF704FF70
:105AA0002348FF2108223F23FFF7FEFE20487F21E5
:105AB00022460223FFF7F8FE1E487F21102204230E
:105AC000FFF7F2FE1B487F2108220323FFF7ECFEBD
:105AD00018487F2122460123FFF7E6FEFFF700FF6B
:105AE0001B4B1A6842F001021A60BDE8F08700BF44
:105AF000400001A204010FA208010FA2180006A293
:105B00001C0006A2200006A2240006A2280006A26D
:105B10002C0006A25FB20B005F9F06003F8F0500BE
:105B20001F8A04000F0A04001F8F09003F9F0A000C
:105B3000400006A2440006A27FB20B007F9F060031
:105B40003F8A04001F8A08003F8F09007F9F0A00D8
:105B5000000006A2040006A2080006A20C0006A28D
:105B6000100006A2140006A21D2870B504460D46BA
:105B700016460CD859B142F08FF9064B43F8345011
:105B800003EBC404666042F00FF9002000E0FE2041
:105B900040B270BD8C2800101D2838B504460D4653
:105BA0003ED842F079F9024635B91F4B01211B68F6
:105BB00001FA04F49C660FE0012D05D11A4B1B6815
:105BC00005FA04F49C6612E0022D08D1164B01215F
:105BD0001B6801FA04F41C67C3F8B04018E0032DF9
:105BE00008D1114B01211B6801FA04F41C67C3F8AA
:105BF000A8400DE0042D08D10B4B01211B6801FAD0
:105C000004F41C67C3F8884002E042F0CDF807E0D6
:105C1000104642F0C9F8642042F05EF9002000E02E
:105C2000FE2040B238BD00BFEC9900041D282DE9CC
:105C3000F04105460C4623D8084600F0CDF88046D2
:105C400042F02AF942F0B0F80F4E2CB933684035D3
:105C500003EB8505AC7011E03368AD002B440127E0
:105C60000024C3F800417D2083F8027142F034F92A
:105C700033681D44C5F8008185F80371204600E0B3
:105C8000FE2040B2BDE8F081EC99000470B5174EDB
:105C9000336804460D4643B915491320FEF796F9BB
:105CA0001320FEF753F9012333601D2C1BD8D5B107
:105CB00042F0F2F80F4A002342F8343002EBC402FB
:105CC000536042F071F829782046FFF765FF696854
:105CD00006462046FFF7AAFF3043C6B2204600F032
:105CE00071F8304600E0FE2040B270BD88280010F8
:105CF000B55E01088C2800101D2810B504460BD88D
:105D000042F0CAF8064B01221B6802FA04F49C64B4
:105D100042F04AF8002000E0FE2040B210BD00BF73
:105D2000EC9900041D2810B504460BD842F0B4F8D5
:105D3000064B01221B6802FA04F41C6542F034F899
:105D4000002000E0FE2040B210BD00BFEC9900042E
:105D50001D2838B504460FD842F09EF8084B0122A2
:105D60001B68A24005469A622046FFF7C5FF2846F9
:105D700042F01AF8002000E0FE2040B238BD00BF1B
:105D8000EC9900041D2838B504460FD842F084F879
:105D9000084B01221B68A24005461A632046FFF704
:105DA000C1FF284642F000F8002000E0FE2040B28B
:105DB00038BD00BFEC990004014B1B6818687047A0
:105DC000EC990004034B01221B6802FA00F0986072
:105DD000704700BFEC99000440B13E2808D8C003CA
:105DE00000F5FA704FF47A73B0FBF3F0002356E03D
:105DF0007D2808D880034FF47A7300F5FA70B0FB61
:105E0000F3F0012345E0FA2808D840034FF47A73F1
:105E100000F5FA70B0FBF3F002233AE0B0F5FA7F38
:105E200008D800034FF47A7300F5FA70B0FBF3F072
:105E300003232EE0B0F57A7F08D8C0024FF47A73BE
:105E400000F5FA70B0FBF3F0042322E0B0F5FA6F2E
:105E500008D880024FF47A7300F5FA70B0FBF3F0C3
:105E6000052316E0B0F57A6F08D840024FF47A7334
:105E700000F5FA70B0FBF3F006230AE0B0F5FA5F24
:105E800014D800024FF47A7300F5FA70B0FBF3F007
:105E9000072340F2FF72B0F5006F08BF10461B03E6
:105EA00003F4E04340F480301843704740F2FF7041
:105EB0000723F4E738B50D4B1B681D68ADB100240E
:105EC0000123A3402B420DD0E0B2FFF741FF204653
:105ED000FFF778FF064A52F83430E10013B10A4464
:105EE0005068984701341E2CEAD138BDEC99000463
:105EF0008C28001008B50620FEF738F841F0CCFFDA
:105F0000074B01221A70074B1A6842F480321A605C
:105F100041F04AFF0620BDE80840FEF717B800BF71
:105F20007D290010080006A010B541F0B5FF074B11
:105F30001C7824B141F038FF6FF0630010BD0122DE
:105F40001A7041F031FF204610BD00BF7C290010BF
:105F50002DE9F3410D4616461F469DF82080044664
:105F600010B109B102B133B939483A4A4FF48D71D1
:105F7000FDF76CFF5CE04B681A0704D03448364AE2
:105F800040F21F1117E04268A3F110018A4207D2C4
:105F900000932F48314A4FF49271FDF757FF47E0C5
:105FA000736823F00802102A08D0202B06D0284856
:105FB0002B4A4FF49571FDF749FF39E0FFF7B4FF25
:105FC00028490620FEF702F80620FDF7BFFF3168DA
:105FD0003079254E23F02EFCB8F1010F07BF404663
:105FE00001460021012023F011FC00223270A38819
:105FF00000970192A9882868226823F029FC0028CC
:1060000003DA1A481A4A982107E01A4B3278A2B9E3
:10601000013BFBD11548184AA221FDF717FF174A8B
:106020000B484FF4A071FDF711FF154B00221A70B9
:10603000FF2040B202B0BDE8F0816B6822681A44CC
:10604000002012F8012C9B1A63600D4B1870F0E7CA
:10605000D38A05080F8B05084D8B0508718B050841
:10606000B68B0508F55E01087D2900101B8C05081C
:10607000E38A050801000010ED8B0508078C050870
:106080007C29001070B586B006460D4614460021E6
:10609000102202A83DF0D7FB152041F03DFE002361
:1060A00022460093294602AB3046FFF751FF0446D3
:1060B000152041F0E9FE204606B070BD044B1A6879
:1060C000044B92F87510C90701D5013BF9D170470F
:1060D000D8150010EEEE6E00034B1B68012283F80A
:1060E0007420FFF7EBBF00BFD815001010B5074CA8
:1060F000236845F66A029A66FFF7EEFF236849F2C5
:1061000036129A66BDE81040FFF7E6BFD8150010BA
:10611000034B1B684FF4B0421A60FFF7DDBF00BFAE
:10612000D815001070B5124C236841F657221A6436
:106130000E460546FFF7C2FF236842F668321A642E
:10614000FFF7BCFF012E0AD004D3022E0BD1236827
:106150001D6408E02368EDB283F8405003E0236833
:10616000EDB283F84150BDE87040FFF7A7BF00BF14
:10617000D815001008B5FFF7CBFF024B1B68586C11
:1061800008BD00BFD815001038B50A4C236841F689
:1061900085225A640546FFF791FF23684EF2CF72BD
:1061A0005A64FFF78BFF23685D64BDE83840FFF752
:1061B00085BF00BFD815001070B5124C236841F29E
:1061C00053629A640E460546FFF778FF236848F647
:1061D00018129A64FFF772FF012E0AD004D3022E20
:1061E0000BD123689D6408E02368EDB283F8485022
:1061F00003E02368EDB283F84950BDE87040FFF733
:106200005DBF00BFD815001070B5124C236845F66D
:106210004A52DA640E460546FFF750FF236849F2FA
:106220003F42DA64FFF74AFF012E0AD004D3022E60
:106230000BD12368DD6408E02368EDB283F84C508D
:1062400003E02368EDB283F84D50BDE87040FFF7DE
:1062500035BF00BFD815001038B50C4C2368022597
:1062600083F83450FFF738FF23680A2283F834207C
:10627000FFF732FF4FF47A7041F02EFE236883F867
:106280003450FFF729FF23685B6B38BDD815001029
:1062900038B5124D1820FFF75BFD2B6843F602124C
:1062A0005C681A60FFF718FFE2070AD52B68FE2228
:1062B0005A74FFF711FF0A4B1B6813B1094A1068A3
:1062C0009847A30705D5084B1B6813B1074A106808
:1062D00098471820BDE83840FFF754BDD815001086
:1062E0008029001094290010842900108C290010A6
:1062F000F8B5174C236815461A6842F440421A60F4
:10630000064601200F4641F0E7FD23685A6812F463
:106310000042FBD10F4B47EA06261A601E60236835
:106320009A6045F400421A60C82041F0D5FD236808
:106330005A681204FCD4084ADB68127801350AB1A5
:10634000064800E006484543B5FBF3F0F8BD00BF42
:10635000E0150010240202A2DC15001080BA8C01A6
:10636000002D31012DE9F041134C236890461A6845
:1063700042F440421A6006464FF47A700F4641F0EC
:10638000ABFD23685D6815F40045FBD10B4B47EA74
:1063900006261D601E60236848F400429D604FF48D
:1063A0007A701A6041F098FD23685A681204FCD490
:1063B000D868BDE8F08100BFE0150010240202A2F9
:1063C00008B5FFF7A5FE034B1B681868C0F3001063
:1063D00008BD00BFD815001002292DE9F8438046FA
:1063E0000F4600F28A80FF2800F2878098B3FFF7FB
:1063F0008FFE444B1B68DE6C012FF4B2C6F30725F9
:106400002BD0022F57D00027012101FA07F313EAFE
:10641000080F15D033420AD0FE23C7F1080243FA11
:1064200002F2BB4013431C402046002106E04FF41B
:106430008072BA40324203D11D432846FFF7E4FE82
:106440000137082FE0D1012041F046FD6FF0010037
:106450000121FFF7B1FE002050E038463946FFF732
:10646000ABFE0827C7F10809012303FA09F313EA71
:10647000080F1DD033420AD0FE2303FA09F23B4134
:1064800013431C4020460021FFF7BEFE05E04FF4F9
:10649000807303FA09F333420AD0FE2303FA09F9A1
:1064A0003B4149EA03031D4028460121FFF7ACFEAA
:1064B000013FD7D1CFE701200146FFF77DFE00273E
:1064C000012101FA07F919EA080F12D019EA060F9B
:1064D0000FD14FF48073BB40334204D145EA090524
:1064E0002846FFF791FE44EA090420460021FFF701
:1064F0008BFE0137082FE3D1ADE7FF2040B2BDE8A6
:10650000F88300BFD81500102DE9F3410121FF20C9
:10651000FFF762FF012000F0AFFC524B1C78002C0B
:1065200068D121460120FFF7FDFDC82041F0D4FCD1
:10653000FFF720FE20F01F00FFF726FE04200121B8
:106540006322FFF7D5FEB0F5004F064641D9FFF7AD
:1065500011FE40F01F00FFF717FE04200121632207
:10656000FFF7C6FEB0F5004F074632D21F252B1BA2
:10657000012B1BD9FFF7FEFD05EB04084FEA580875
:1065800020F01F0040EA0800FFF7FEFD0420012173
:106590006322FFF7ADFEB0F5004F04D819D00746CF
:1065A0004546304600E044460646E0E7C7F500476A
:1065B000A6F50046B74205D2FFF7DCFD20F01F002C
:1065C000284304E0FFF7D6FD20F01F002043FFF72B
:1065D000DBFD632204200121FFF78AFE224BC0F578
:1065E000004002B21B6802F30D0242F480421A67B7
:1065F000FFF772FD1C4C01A8FDF70AFD23681A681D
:10660000920713D443F602121A60FFF765FD236860
:106610004CF608021A60FFF75FFD236846F210424D
:106620001A60FFF759FD012041F016FC236843F67C
:1066300002121A60FFF750FD23684FF4C8421A6037
:10664000FFF74AFD012000F019FC0021FF20FFF7B1
:10665000C3FE0198FDF7E3FC6FF0010002B0BDE856
:10666000F08100BF90290010D815001010B5244CFF
:1066700023685B68FFF7A4FE224B1870002833D014
:10668000FFF734FD23684FF4C8421A60FFF724FD7A
:1066900023684CF608021A60FFF71EFD236843F6D4
:1066A00002121A60FFF718FD174B1B789B0611D5D5
:1066B00000200146FFF736FDC82041F00DFC134BCA
:1066C0001B7813B12368B82201E0236840221A67BF
:1066D000FFF702FD0E480F4A40F29E51FDF7E6FB20
:1066E000012000F0CBFB05E009480B4A40F2A25123
:1066F000FDF7DCFBFF200021BDE81040FFF76CBE7A
:10670000D815001088290010400001A2A30202A29F
:10671000B38C05083A8C0508518C05082DE9F04327
:106720007F4F3B7885B0002B40F0F680FFF7C6FC2A
:10673000FFF79CFFFFF7DAFC7A4B7B481B789C063F
:1067400008D47A4A40F26721FDF7B0FB784B01226A
:106750001A7004E040F26A21764AFDF7A7FB764DF5
:106760002A6892F87530980704D592F83430D90722
:1067700040F1B480536F526B00926B486F4A40F205
:106780007321FDF77BFB6E4B1C78002C31D12B68FD
:1067900044F202321A602B6840F201165A689C607B
:1067A0004FF48072DC601C615C619A61DE611C6286
:1067B0005C629A620722DE621C635E639C63DA633A
:1067C000FFF78AFC02213046FFF7ACFC40F6077069
:1067D000FFF7DAFC03202146FFF7EEFC2B688A2244
:1067E0009C65DC651C665C66DC661C679A67FFF767
:1067F00073FC2B68504EDFF8549140F201125A633B
:10680000FFF76AFC2B684AF2573846F2D274C3F895
:1068100050805C65FFF760FCFFF71EFD2B68C3F836
:1068200050805C65FFF758FCDFF82481FFF770FCAF
:106830002B6893F8753098F80020531E5A425A413D
:10684000404B1A70FFF796FC40F08000FFF79CFC6D
:10685000FFF702FD2B68002483F83540FFF73CFC6E
:10686000334B187810B3FFF785FC40F06000FFF75A
:106870008BFC21460620FFF755FCC82041F02CFB7D
:10688000012163220620FFF733FDC0F50040336885
:1068900040F30C0202F3CD021A67FFF71DFC012042
:1068A0002146FFF789FCC9F8004017E00123C9F829
:1068B00000300146FFF736FC98F8003013B133681A
:1068C000B82201E0336840221A67FFF705FCC820B0
:1068D00041F002FB02200021FFF76EFC2B688A22A8
:1068E0009A67FFF7F9FB2B680722DA63FFF7F4FBDF
:1068F0000023182002A98DF808300393FFF7C6F98A
:10690000024638B918201049FFF72EF910B918209F
:10691000FFF738FA01233B70002005B0BDE8F08393
:106920007E290010400001A22A8C0508618C050810
:1069300090290010738C0508D8150010848C050868
:1069400088290010DC150010916201088C0202A257
:10695000A30202A208B500F091F8044B1B68C0B274
:1069600003B19847BDE8084000F096B89829001098
:1069700038B50446C8B10378012B16D84068B0F585
:106980007A7F12D80B4B00251D6000F03BF8207871
:1069900000F04AF82378012B09D107491120FDF7AF
:1069A00015FB1120FDF7D2FA01E0FE2000E0284699
:1069B00040B238BD982900105569010808B500F0AB
:1069C00045F8002008BD000008B5064B984206D1E6
:1069D000012000F043F800F031F8002000E0FF2033
:1069E00040B208BDBEBAFECA08B5054B984204D1F4
:1069F000002000F033F8002000E0FF2040B208BD86
:106A00006500FECA42F2107358439C22B0FBF2F2BA
:106A1000034B120442F012025A60024ADA607047D5
:106A2000000009A29A7856140128034B0CBF40F2CB
:106A3000171217229A617047000009A2014B024AFF
:106A4000DA607047000009A29A785614014B024A96
:106A50001A617047000009A2AB896715064B28B17F
:106A600040F211121A604FF48B7202E011221A6088
:106A700016225A61704700BF000009A2054B1B6A2D
:106A80009A0705D413F0010F0CBF022001207047B4
:106A900000207047000009A2014BDB69704700BF6E
:106AA000000009A210B541F0F7F90A4B1A78012A43
:106AB00016BF0024FE24012264B218BF1A7041F0F0
:106AC00073F9023403D000F02EF8002000E0FE201D
:106AD00040B210BD9C29001010B500F087F841F0BD
:106AE000DBF9034B00241C7041F05EF9204610BD19
:106AF0009C29001038B5054640F6FF7000F016F8E6
:106B000001200146024600F027F800F04BF800F0A3
:106B100071F8044600F058F814B12C60002000E031
:106B2000FE2040B238BD122041F0F6B8B0F5805FCB
:106B30000DD8084B1B68DA6822F07F6222F47022BD
:106B4000DA60DA6842EA0040D860002000E0FE2007
:106B500040B27047E415001010B5114B20B1186811
:106B6000C46844F0010403E01868C46824F0010418
:106B7000C46021B11968C86840F0020003E01968D8
:106B8000C86820F00200C8601B681AB1DA6842F0D9
:106B9000040202E0DA6822F00402DA60002010BD8C
:106BA000E415001082B000230193064B1B689A681D
:106BB0000192019A013201921A6842F001021A60B0
:106BC00002B07047E415001082B000230193064B19
:106BD0001B689A680192019A013201921A6822F0A8
:106BE00001021A6002B07047E4150010122041F053
:106BF0004BB9000082B0114A00230093019313683F
:106C000019690191019901F0010101911146019A5F
:106C1000012A09D01A690192019A022A0BD0019A1D
:106C200002F001020192F2E75A611A600B689B6858
:106C30000093009800E0002002B07047E4150010B7
:106C400010B5094B094C1A6810B922F0010201E095
:106C500042F001021A604FF4FA7041F03DF92368E6
:106C600043F00103236010BDA80007A2080007A29B
:106C700000231A4601219940014203F1010318BF84
:106C80000132202BF6D110467047000010B5514C50
:106C90002068FFF7EDFF2368002800F09A80DA07EC
:106CA0000CD54D4A1168A2F54032A2F5007201F0F0
:106CB0000F01106820F00F00014311609C070CD5F4
:106CC000454A1168A2F54032A2F5007201F0F001C8
:106CD000106820F0F0000143116058070CD53E4ABF
:106CE0001168A2F54032A2F5007201F470611068DB
:106CF00020F470600143116019070DD5364A116800
:106D0000A2F54032A2F5FE72C1F30531106820F4FD
:106D10007C7040EA01111160DA060CD52E4A116828
:106D2000A2F54032A2F5F872C1F38541106820F057
:106D30003F00014311609C060DD5274A1168A2F55A
:106D40004032A2F5F272C1F30361106820F4F04002
:106D500040EAC121116058060CD5204A1168A2F5FD
:106D60004032A2F51C7201F00F01106820F00F00F4
:106D70000143116019060CD5184A1168A2F540327A
:106D8000A2F51C7201F0F001106820F0F000014340
:106D90001160DA050DD5114A1168A2F54032A2F54D
:106DA0001472C1F30321106820F4F07040EA41111D
:106DB00011609B050DD5094B1A68A3F54033A3F567
:106DC0001473C2F30232196821F01C0141EA8202F5
:106DD0001A6010BD08030AA200030AA204030AA253
:106DE00008B5FFF753FF064B1A6842F001021A601C
:106DF000D3F8D02042F00102C3F8D02008BD00BF74
:106E0000040007A210B550B9184B1A6822F001020D
:106E10001A604FF47A70BDE8104041F05DB8012867
:106E200023D1134CFFF7DCFF236843F002032360F8
:106E3000C82041F051F8236843F004032360C820C0
:106E400041F04AF8236843F001032360C82041F071
:106E500043F8236823F001032360236823F004032D
:106E60002360236823F00203236010BD000007A203
:106E7000C40007A2FFF7B4BFFFF7E2BEFFF7C2BF2F
:106E80000D4B984207B510D189B90C4B1B680BB15B
:106E90000846984700238DF8003068460123019387
:106EA000FFF766FDFFF78AFDFEE7022000E0002005
:106EB00003B05DF804FB00BF26061620A0290010D1
:106EC0000D4B00225A625A635A645A651A621A6359
:106ED0001A641A659A6A22F00F029A629A6B22F07B
:106EE0000F029A639A6C22F00F029A649A6D22F054
:106EF0000F029A65704700BF001000E010B5124CF9
:106F00002368DA071FD4FFF7DBFFE368DB0305D450
:106F1000E36843F0807343F48033E3600B4B0C4A27
:106F20001968090F11605A6A42F01F025A625A6BBF
:106F300042F01F025A635A6C42F01F025A645A6DA3
:106F400042F01F025A6510BDF0ED00E0001000E0B5
:106F5000A429001070B5114C2468E4071AD4104C11
:106F60002468A04216D211EA020613D10501AC082A
:106F700005F1604505F5815530462960094941F81C
:106F80002420094A52F8241001F00F010B4342F863
:106F9000243070BD4FF0FF3070BD00BFF0ED00E059
:106FA000A4290010241000E0281000E0112870B57A
:106FB0001BD112480368072B0AD8114E0C255D43DC
:106FC000741971516260012213442272036070BD12
:106FD0000C480D4A40F27911FCF738FF0B480C4A77
:106FE0000C4B4FF4BD713CF0BFFB0B4C0C235843D2
:106FF000231821505A6001221A7270BDCC2A001049
:10700000902B0010CF8C0508748D0508B48D0508F1
:10701000498D050888090708AC290010112870B5AA
:107020001BD112480368072B0AD8114E0C255D436B
:10703000741971516260012213442272036070BDA1
:107040000C480D4A4FF4C671FCF700FF0B480C4A80
:107050000C4B40F28D113CF087FB0B4C0C2358433A
:10706000231821505A6001221A7270BDF42B0010AF
:107070006C2A0010FA8C0508FC8D0508B48D0508F3
:10708000CB91050888090708D02A00102DE9F84F90
:107090008046364D40F000FF6B688346002423FA9B
:1070A00004F919F00109E6B245D10122A2401343C7
:1070B0000B2202FB045A6B602B7A0AF1290A013376
:1070C000494650462B723CF0BEFB40463CF0B3FCB8
:1070D0000A2834BF07460A27414650463A463CF044
:1070E0008EFB0FB149460CE02148224A40F2F111D3
:1070F000FCF7ACFE2048214A214B4FF4F9713CF0DB
:1071000033FBCBB2BB421AD20B2202FB0452134414
:10711000013193F82930213B5C2BF2D91448154AF0
:107120004FF4FB71FCF792FE1348144A144B40F2E3
:10713000F7113CF019FB0134122CB0D12646584609
:1071400040F032FE122E0CD109480E4A4FF4007165
:10715000FCF77CFE0848094A094B40F201213CF04B
:1071600003FB06F10E00C0B2BDE8F88FF82B00104B
:10717000369205083B8E0508B48D05085792050820
:1071800088090708678E05080E3838B5C4B2112C77
:1071900007D91648164A40F20F21BDE83840FCF7DF
:1071A00055BE40F079FE134B5A6822FA04F1C90724
:1071B00005460FD5197A013919720121A14022EA39
:1071C00001025A600B2202FB0430002129303CF0FE
:1071D0003AFB05E00548084A40F21B21FCF74EFE49
:1071E0002846BDE8384040F0DFBD00BFF5910508F6
:1071F000938E0508F82B0010C08E05081F2973B563
:1072000005460C4608D92F482F4A40F2252102B0E6
:10721000BDE87040FCF71ABE40F03EFE2B4B19193A
:10722000012D06464A7A21D10132D2B24A7219683A
:10723000A5402943FF2A19603DD10D2C07D82148CC
:10724000234A4FF40D712346FCF718FE33E0A4F1F6
:107250000E020B2101FB02332933009319481D4A0A
:1072600040F236212346FCF709FE24E05AB1013AE8
:10727000D2B24A72FAB9012202FA04F41A6822EA76
:1072800004021A6017E00D2C07D80E48124A40F28B
:1072900046212346FCF7F2FD0DE0A4F10E020B217E
:1072A00001FB02332933009306480C4A4FF4127154
:1072B0002346FCF7E3FD304602B0BDE8704040F0E5
:1072C00073BD00BF1A920508938E0508F82B0010B5
:1072D000F28E05082D8F05086B8F0508B08F050805
:1072E00010B540F0D9FD044B1C68003418BF0124D0
:1072F00040F05AFD204610BDF82B00101F2808B59D
:1073000007D90748074A40F26221FCF79FFD002099
:1073100008BD054B1B6823FA00F000F0010008BD12
:10732000248D0508938E0508F82B0010014B186872
:10733000704700BFF82B0010124A032313605360FC
:10734000114B40F227121A6003F1414303F5710318
:107350001B68D90504D50D4910220A6041F8242C78
:107360009A0504D5094920220A6041F8242C5B05BE
:1073700004D5064A4023136042F8243C044B0F22F4
:107380001A60704700E00FE0400010E058000DA2C6
:10739000A4000CA208B5034B186800B1804740B2A6
:1073A00008BD00BFF099000408B5034B586800B150
:1073B000804740B208BD00BFF09900040D2840D8B6
:1073C000DFE800F0070B0F13171B1F23272B2F33AA
:1073D000373B1C4800213CF03FBA1B4801213CF0E0
:1073E0003BBA1A4802213CF037BA194803213CF055
:1073F00033BA184804213CF02FBA174805213CF055
:107400002BBA164806213CF027BA154807213CF054
:1074100023BA144808213CF01FBA134809213CF054
:107420001BBA12480A213CF017BA11480B213CF054
:1074300013BA10480C213CF00FBA0F480D213CF054
:107440000BBA7047F88F05080E9005082A900508BA
:1074500045900508629005087E90050896900508FD
:10746000AE900508C6900508DD900508F490050863
:1074700014910508339105084E91050838B50F4B56
:107480000F481D683CF0E8F900240123A3402B427B
:107490000ED0E3B20D2B03D82046FFF78FFF07E095
:1074A000084B09480B22214602FB04323CF0D4F978
:1074B0000134202CE9D1284638BD00BFF82B00103C
:1074C00069910508872B001099910508FF2810B5D0
:1074D0000BD1094A136814466BB1DB0702D5074884
:1074E0003CF0BAF90023236010BD20B9024B1A68A2
:1074F00042F001021A6010BDF02B0010AE91050899
:107500000020FDF723BFFFF7C1BD08B501460120EC
:10751000FFF774FE002008BD08B501460020FFF704
:107520006DFE002008BD000038B50446FFF7FEFEE2
:107530000123A34010EA030507D00748074A4A2160
:107540002346FCF783FCFF2003E02046FFF71CFEE8
:10755000284640B238BD00BF2A930508B0920508FE
:10756000FFF7E4BEFFF7BCBEFFF7C8BE10B5044688
:1075700000200A490246FDF769FE094900208C42B5
:1075800038BF21460246FDF781FE28B10548064A6C
:107590007521FCF75BFCFF2040B210BD01750108AE
:1075A0007BF0C10778920508E7920508012808B525
:1075B00005D1BFF34F8F30BFBFF36F8F03E00228B9
:1075C00006D140F0D9FB0020BDE80840FDF7BEBE63
:1075D00008BD000008B5FFF7AFFE002000F03CF941
:1075E0000020014600F0FCF80120002100F0F8F82E
:1075F0000020FDF7F7FD28B10348044AB221FCF74B
:1076000025FCFF2040B208BD9992050809930508A2
:1076100070B50446002857D16C4B11BB1B685D0741
:1076200040F1D380302040F077FB694B694C1A68F9
:1076300022F480321A601D232360012040F04CFCAC
:107640001F232360012040F047FC1E2323600120FC
:1076500040F042FC1A232360012040F03DFC12233D
:107660002FE01A68540700F1B0801B68580700F13A
:10767000AC80302040F050FB554B564C1A6842F419
:1076800080321A6016232360012040F025FC1E235F
:107690002360012040F020FC0E232360012040F0F5
:1076A0001BFC0C232360012040F016FC1C232360EC
:1076B000012040F011FC1D232360012040F00CFC50
:1076C0000D232360012079E001287ED13F4B002962
:1076D00030D11B68190778D5302040F01DFB3C4B9A
:1076E0003D4D1A683D4E22F080721A601D232B60BA
:1076F000204640F0F1FB1F232B60204640F0ECFBBE
:10770000336843F480333360204640F0E5FB336850
:1077100043F001033360204640F0DEFB1E232B6064
:10772000204640F0D9FB1A232B60204640F0D4FBC2
:10773000122341E01A68120747D41B681B0744D480
:10774000302040F0E9FA224B234D1A68234E42F0D4
:1077500080721A6012232B60204640F0BDFB162376
:107760002B60204640F0B8FB1E232B60204640F0E3
:10777000B3FB336823F480333360204640F0ACFB26
:10778000336823F001033360204640F0A5FB0E234D
:107790002B60204640F0A0FB0C232B60204640F0DD
:1077A0009BFB1C232B60204640F096FB1D232B6087
:1077B000204640F091FB0D232B60204640F08CFBCF
:1077C0003020BDE8704040F05FBB70BD08080FA2DC
:1077D000AC030FA208020FA20C020FA260020FA2BC
:1077E00038B580B9144C29B9256895B1013D25609B
:1077F0003DB904E023680133236013B10121FFF791
:1078000007FF206838BD012814D10B4C49B96568C1
:107810001DB9FFF7FDFE284638BD013D65603DB945
:1078200004E062680132626012B10146FFF7F0FEC7
:10783000606838BD002038BDAC9C0004044B054A8C
:1078400040F080701860106800221A60704700BF16
:1078500030030FA234030FA2F0B5054691B03020DB
:1078600040F05AFA20B15348534AA521FCF7EEFAEA
:10787000524B534C1B68534B23600A2040F02CFBA7
:10788000514B23600A2040F027FB504B50483122D7
:107890001A60504A5A60504A9A60504ADA60504A18
:1078A0001A61504A0023136053609360A2F551722D
:1078B00044211360016012684B4942F001020A60E2
:1078C0004A4A4FF4803616601360006808604FF42F
:1078D000000111601360464B464E032119604FF4BE
:1078E0001B7143F89C1C174643F8A06C2146A03B33
:1078F00032462DB1404A43F81C2C404B236013E024
:10790000284640F080733E4C52F8205043F48033B8
:10791000236001303B4BB0F51B7F1D60F1D13A4A2B
:1079200043F8302C354B0B60384B1B689B05FBD55F
:10793000002500246019B0F51B7F06D2FFF77EFFFB
:107940004DF824000134102CF4D1684606EB850173
:10795000A2003BF045FF18B12D483BF07DFFFEE74C
:107960001035B5F51C7FE4D1254B186081233B60B1
:10797000284B1B221A60182243F8382CD3F86822AF
:1079800042F48032C3F86822D3F8682242F0807251
:10799000C3F86822A3F5A27380221A60302040F059
:1079A00073FA20B103481C4AFD21FCF74FFA11B0CD
:1079B000F0BD00BF049D05080D9D05081C0009A22F
:1079C00000030FA21000160B0000160B40030FA2BD
:1079D00014000FA2320017003300580034006F006B
:1079E00035007D0054030FA238030FA260030FA2DD
:1079F000C0030FA2549305080100160B0200160BDA
:107A000030030FA234030FA2493C160BE4090FA266
:107A10002B9D050844010FA2439D050810B504469F
:107A2000302040F079F9082C074B02D1FF221A6070
:107A300005E01A68012101FA04F414431C603020A7
:107A4000BDE8104040F020BA00000FA230B5184B3E
:107A500093E8070087B003AC84E807000023002206
:107A60004DF8032058001118012505FA01F1C1F362
:107A7000140139B191000F258D405DF803102943A1
:107A80004DF803100132082AEDD104330C2BE6D156
:107A9000084B1868002300EB83025DF82310116681
:107AA00054F8231011650133032BF4D107B030BD16
:107AB000587F0508E8150010024B1B6800229A60E9
:107AC0005A607047E815001000231A4601219140C2
:107AD00001320B2A43EA0103F8D1064A1268936483
